{
  "address": "0xceB202F25B50e8fAF212dE3CA6C53512C37a01D2",
  "abi": [
    {
      "inputs": [
        {
          "internalType": "address",
          "name": "_governor",
          "type": "address"
        },
        {
          "internalType": "address",
          "name": "_tradeFactory",
          "type": "address"
        }
      ],
      "stateMutability": "nonpayable",
      "type": "constructor"
    },
    {
      "inputs": [],
      "name": "CallOnlyOptimizationRequired",
      "type": "error"
    },
    {
      "inputs": [],
      "name": "InvalidAmountOut",
      "type": "error"
    },
    {
      "inputs": [],
      "name": "MultiCallRevert",
      "type": "error"
    },
    {
      "inputs": [],
      "name": "NotAuthorized",
      "type": "error"
    },
    {
      "inputs": [],
      "name": "ZeroAddress",
      "type": "error"
    },
    {
      "inputs": [],
      "name": "ZeroAmount",
      "type": "error"
    },
    {
      "anonymous": false,
      "inputs": [
        {
          "indexed": false,
          "internalType": "address",
          "name": "_to",
          "type": "address"
        },
        {
          "indexed": false,
          "internalType": "address",
          "name": "token",
          "type": "address"
        },
        {
          "indexed": false,
          "internalType": "uint256",
          "name": "amount",
          "type": "uint256"
        }
      ],
      "name": "DustSent",
      "type": "event"
    },
    {
      "anonymous": false,
      "inputs": [],
      "name": "GovernorAccepted",
      "type": "event"
    },
    {
      "anonymous": false,
      "inputs": [
        {
          "indexed": false,
          "internalType": "address",
          "name": "pendingGovernor",
          "type": "address"
        }
      ],
      "name": "PendingGovernorSet",
      "type": "event"
    },
    {
      "anonymous": false,
      "inputs": [
        {
          "indexed": false,
          "internalType": "address",
          "name": "_receiver",
          "type": "address"
        },
        {
          "indexed": false,
          "internalType": "address",
          "name": "_tokenIn",
          "type": "address"
        },
        {
          "indexed": false,
          "internalType": "address",
          "name": "_tokenOut",
          "type": "address"
        },
        {
          "indexed": false,
          "internalType": "uint256",
          "name": "_amountIn",
          "type": "uint256"
        },
        {
          "indexed": false,
          "internalType": "uint256",
          "name": "_minAmountOut",
          "type": "uint256"
        },
        {
          "indexed": false,
          "internalType": "uint256",
          "name": "_receivedAmount",
          "type": "uint256"
        },
        {
          "indexed": false,
          "internalType": "bytes",
          "name": "_data",
          "type": "bytes"
        }
      ],
      "name": "Swapped",
      "type": "event"
    },
    {
      "inputs": [],
      "name": "ETH_ADDRESS",
      "outputs": [
        {
          "internalType": "address",
          "name": "",
          "type": "address"
        }
      ],
      "stateMutability": "view",
      "type": "function"
    },
    {
      "inputs": [],
      "name": "SWAPPER_TYPE",
      "outputs": [
        {
          "internalType": "enum ISwapper.SwapperType",
          "name": "",
          "type": "uint8"
        }
      ],
      "stateMutability": "view",
      "type": "function"
    },
    {
      "inputs": [],
      "name": "TRADE_FACTORY",
      "outputs": [
        {
          "internalType": "address",
          "name": "",
          "type": "address"
        }
      ],
      "stateMutability": "view",
      "type": "function"
    },
    {
      "inputs": [],
      "name": "acceptGovernor",
      "outputs": [],
      "stateMutability": "nonpayable",
      "type": "function"
    },
    {
      "inputs": [],
      "name": "governor",
      "outputs": [
        {
          "internalType": "address",
          "name": "",
          "type": "address"
        }
      ],
      "stateMutability": "view",
      "type": "function"
    },
    {
      "inputs": [
        {
          "internalType": "address",
          "name": "_account",
          "type": "address"
        }
      ],
      "name": "isGovernor",
      "outputs": [
        {
          "internalType": "bool",
          "name": "_isGovernor",
          "type": "bool"
        }
      ],
      "stateMutability": "view",
      "type": "function"
    },
    {
      "inputs": [],
      "name": "pendingGovernor",
      "outputs": [
        {
          "internalType": "address",
          "name": "",
          "type": "address"
        }
      ],
      "stateMutability": "view",
      "type": "function"
    },
    {
      "inputs": [
        {
          "internalType": "address",
          "name": "_to",
          "type": "address"
        },
        {
          "internalType": "address",
          "name": "_token",
          "type": "address"
        },
        {
          "internalType": "uint256",
          "name": "_amount",
          "type": "uint256"
        }
      ],
      "name": "sendDust",
      "outputs": [],
      "stateMutability": "nonpayable",
      "type": "function"
    },
    {
      "inputs": [
        {
          "internalType": "address",
          "name": "_pendingGovernor",
          "type": "address"
        }
      ],
      "name": "setPendingGovernor",
      "outputs": [],
      "stateMutability": "nonpayable",
      "type": "function"
    },
    {
      "inputs": [
        {
          "internalType": "address",
          "name": "_receiver",
          "type": "address"
        },
        {
          "internalType": "address",
          "name": "_tokenIn",
          "type": "address"
        },
        {
          "internalType": "address",
          "name": "_tokenOut",
          "type": "address"
        },
        {
          "internalType": "uint256",
          "name": "_amountIn",
          "type": "uint256"
        },
        {
          "internalType": "uint256",
          "name": "_minAmountOut",
          "type": "uint256"
        },
        {
          "internalType": "bytes",
          "name": "_data",
          "type": "bytes"
        }
      ],
      "name": "swap",
      "outputs": [
        {
          "internalType": "uint256",
          "name": "_receivedAmount",
          "type": "uint256"
        }
      ],
      "stateMutability": "nonpayable",
      "type": "function"
    }
  ],
  "transactionHash": "0xca5a5b4f84979c79c5f416f7d2f22c578fa37469666edf5d6207507a77dad876",
  "args": [
    "0xFEB4acf3df3cDEA7399794D0869ef76A6EfAff52",
    "0xBf26Ff7C7367ee7075443c4F95dEeeE77432614d"
  ],
  "solcInputHash": "5e5a1b97bb8d2765db6d59960ed2eac7",
  "bytecode": "0x60a060405234801561001057600080fd5b506040516111ee3803806111ee83398101604081905261002f91610111565b818180826001600160a01b0381166100a45760405162461bcd60e51b815260206004820152602e60248201527f676f7665726e61626c652f676f7665726e6f722d73686f756c642d6e6f742d6260448201526d652d7a65726f2d6164647265737360901b606482015260840160405180910390fd5b600080546001600160a01b0319166001600160a01b0392831617905581166100df5760405163d92e233d60e01b815260040160405180910390fd5b6001600160a01b03166080525061014492505050565b80516001600160a01b038116811461010c57600080fd5b919050565b6000806040838503121561012457600080fd5b61012d836100f5565b915061013b602084016100f5565b90509250929050565b6080516110896101656000396000818160ed015261023701526110896000f3fe608060405234801561001057600080fd5b506004361061009e5760003560e01c8063cd985af011610066578063cd985af01461014b578063e3056a3414610160578063e43581b814610173578063e58bb639146101a5578063f235757f146101ad57600080fd5b80630c340a24146100a35780632db8c129146100d35780637556fae6146100e8578063a5d4096b1461010f578063a734f06e14610130575b600080fd5b6000546100b6906001600160a01b031681565b6040516001600160a01b0390911681526020015b60405180910390f35b6100e66100e1366004610dd0565b6101c0565b005b6100b67f000000000000000000000000000000000000000000000000000000000000000081565b61012261011d366004610e0c565b61022a565b6040519081526020016100ca565b6100b673eeeeeeeeeeeeeeeeeeeeeeeeeeeeeeeeeeeeeeee81565b610153600081565b6040516100ca9190610ec4565b6001546100b6906001600160a01b031681565b610195610181366004610eec565b6000546001600160a01b0391821691161490565b60405190151581526020016100ca565b6100e66105ac565b6100e66101bb366004610eec565b610610565b6000546001600160a01b0316331461021a5760405162461bcd60e51b815260206004820152601860248201527733b7bb32b93730b1363297b7b7363c96b3b7bb32b93737b960411b60448201526064015b60405180910390fd5b610225838383610671565b505050565b6000336001600160a01b037f000000000000000000000000000000000000000000000000000000000000000016146102755760405163ea8e4eb560e01b815260040160405180910390fd5b6102828888888888610813565b6040516370a0823160e01b81526001600160a01b038981166004830152600091908816906370a082319060240160206040518083038186803b1580156102c757600080fd5b505afa1580156102db573d6000803e3d6000fd5b505050506040513d601f19601f820116820180604052508101906102ff9190610f07565b9050600061034285858080601f0160208091040260200160405190810160405280939291908181526020018383808284376000920191909152506108a392505050565b9050600060ff8216600114156103985761039186868080601f0160208091040260200160405190810160405280939291908181526020018383808284376000920191909152506108ad92505050565b9050610492565b60ff8216600314156103e35761039186868080601f01602080910402602001604051908101604052809392919081815260200183838082843760009201919091525061090792505050565b60ff82166005141561042e5761039186868080601f01602080910402602001604051908101604052809392919081815260200183838082843760009201919091525061096192505050565b60ff8216600714156104795761039186868080601f0160208091040260200160405190810160405280939291908181526020018383808284376000920191909152506109ab92505050565b6040516306bbee3760e21b815260040160405180910390fd5b806104b0576040516351ba533f60e01b815260040160405180910390fd5b6040516370a0823160e01b81526001600160a01b038c811660048301528491908b16906370a082319060240160206040518083038186803b1580156104f457600080fd5b505afa158015610508573d6000803e3d6000fd5b505050506040513d601f19601f8201168201806040525081019061052c9190610f07565b6105369190610f20565b935086841015610559576040516309d2d38b60e31b815260040160405180910390fd5b7f40971433310985cab81e121610e21c884496299299bfdb99b10c0f75815c98878b8b8b8b8b898c8c604051610596989796959493929190610f45565b60405180910390a1505050979650505050505050565b6001546001600160a01b031633146106065760405162461bcd60e51b815260206004820181905260248201527f676f7665726e61626c652f6f6e6c792d70656e64696e672d676f7665726e6f726044820152606401610211565b61060e6109f2565b565b6000546001600160a01b031633146106655760405162461bcd60e51b815260206004820152601860248201527733b7bb32b93730b1363297b7b7363c96b3b7bb32b93737b960411b6044820152606401610211565b61066e81610a42565b50565b6001600160a01b0383166106df5760405162461bcd60e51b815260206004820152602f60248201527f636f6c6c65637461626c652d647573742f63616e742d73656e642d647573742d60448201526e746f2d7a65726f2d6164647265737360881b6064820152608401610211565b6106ea600283610b0a565b1561074e5760405162461bcd60e51b815260206004820152602e60248201527f636f6c6c65637461626c652d647573742f746f6b656e2d69732d706172742d6f60448201526d198b5d1a194b5c1c9bdd1bd8dbdb60921b6064820152608401610211565b6001600160a01b03821673eeeeeeeeeeeeeeeeeeeeeeeeeeeeeeeeeeeeeeee14156107af576040516001600160a01b0384169082156108fc029083906000818181858888f193505050501580156107a9573d6000803e3d6000fd5b506107c3565b6107c36001600160a01b0383168483610b2f565b604080516001600160a01b038086168252841660208201529081018290527f1e34c1aee8e83c2dcc14c21bb4bfeea7f46c0c998cb797ac7cc4d7a18f5c656b9060600160405180910390a1505050565b6001600160a01b038516158061083057506001600160a01b038416155b8061084257506001600160a01b038316155b156108605760405163d92e233d60e01b815260040160405180910390fd5b8161087e57604051631f2a200560e01b815260040160405180910390fd5b8061089c57604051631f2a200560e01b815260040160405180910390fd5b5050505050565b6020015160f81c90565b6000815160215b81811015610900578084015160601c6014820185015160348301860151605484018701600080838386885af1965050856108f057505050610900565b80605401840193505050506108b4565b5050919050565b805160218201516000919060359060601c5b8282101561095957848201601481015160348201519091605401600080838386885af19650508561094b575050610959565b929092016054019150610919565b505050919050565b6000815160215b81811015610900578084015160601c6014820185015160348301860160008083836000875af19550508461099d575050610900565b919091016034019050610968565b805160218201516000919060359060601c5b8282101561095957848201805190602001600080838382875af1955050846109e55750610959565b91909101602001906109bd565b60018054600080546001600160a01b03199081166001600160a01b0384161782559091169091556040517f7880f0fcc848e1f26e461654b100a69f8d0641e29aa29f6596c6afadbb36b5ea9190a1565b6001600160a01b038116610ab65760405162461bcd60e51b815260206004820152603560248201527f676f7665726e61626c652f70656e64696e672d676f7665726e6f722d73686f756044820152746c642d6e6f742d62652d7a65726f2d61646472657360581b6064820152608401610211565b600180546001600160a01b0319166001600160a01b0383169081179091556040519081527f56bddfa0cee9697cebddf9acd7f23dc6583663b05e007b877056d05017994def9060200160405180910390a150565b6001600160a01b038116600090815260018301602052604081205415155b9392505050565b604080516001600160a01b03848116602483015260448083018590528351808403909101815260649092018352602080830180516001600160e01b031663a9059cbb60e01b17905283518085019094528084527f5361666545524332303a206c6f772d6c6576656c2063616c6c206661696c65649084015261022592869291600091610bbf918516908490610c3c565b8051909150156102255780806020019051810190610bdd9190610fb2565b6102255760405162461bcd60e51b815260206004820152602a60248201527f5361666545524332303a204552433230206f7065726174696f6e20646964206e6044820152691bdd081cdd58d8d9595960b21b6064820152608401610211565b6060610c4b8484600085610c53565b949350505050565b606082471015610cb45760405162461bcd60e51b815260206004820152602660248201527f416464726573733a20696e73756666696369656e742062616c616e636520666f6044820152651c8818d85b1b60d21b6064820152608401610211565b843b610d025760405162461bcd60e51b815260206004820152601d60248201527f416464726573733a2063616c6c20746f206e6f6e2d636f6e74726163740000006044820152606401610211565b600080866001600160a01b03168587604051610d1e9190611004565b60006040518083038185875af1925050503d8060008114610d5b576040519150601f19603f3d011682016040523d82523d6000602084013e610d60565b606091505b5091509150610d70828286610d7b565b979650505050505050565b60608315610d8a575081610b28565b825115610d9a5782518084602001fd5b8160405162461bcd60e51b81526004016102119190611020565b80356001600160a01b0381168114610dcb57600080fd5b919050565b600080600060608486031215610de557600080fd5b610dee84610db4565b9250610dfc60208501610db4565b9150604084013590509250925092565b600080600080600080600060c0888a031215610e2757600080fd5b610e3088610db4565b9650610e3e60208901610db4565b9550610e4c60408901610db4565b9450606088013593506080880135925060a088013567ffffffffffffffff80821115610e7757600080fd5b818a0191508a601f830112610e8b57600080fd5b813581811115610e9a57600080fd5b8b6020828501011115610eac57600080fd5b60208301945080935050505092959891949750929550565b6020810160028310610ee657634e487b7160e01b600052602160045260246000fd5b91905290565b600060208284031215610efe57600080fd5b610b2882610db4565b600060208284031215610f1957600080fd5b5051919050565b600082821015610f4057634e487b7160e01b600052601160045260246000fd5b500390565b6001600160a01b038981168252888116602083015287166040820152606081018690526080810185905260a0810184905260e060c08201819052810182905260006101008385828501376000838501820152601f909301601f191690910190910198975050505050505050565b600060208284031215610fc457600080fd5b81518015158114610b2857600080fd5b60005b83811015610fef578181015183820152602001610fd7565b83811115610ffe576000848401525b50505050565b60008251611016818460208701610fd4565b9190910192915050565b602081526000825180602084015261103f816040850160208701610fd4565b601f01601f1916919091016040019291505056fea2646970667358221220803aabc272ff3e1abf6230d6ca659b64d5c236ad573af480d4b10446c7124dee64736f6c63430008090033",
  "devdoc": {
    "kind": "dev",
    "methods": {},
    "version": 1
  },
  "userdoc": {
    "kind": "user",
    "methods": {},
    "version": 1
  },
  "storageLayout": {
    "storage": [
      {
        "astId": 3197,
        "contract": "contracts/swappers/async/MultiCallOptimizedSwapper.sol:MultiCallOptimizedSwapper",
        "label": "governor",
        "offset": 0,
        "slot": "0",
        "type": "t_address"
      },
      {
        "astId": 3200,
        "contract": "contracts/swappers/async/MultiCallOptimizedSwapper.sol:MultiCallOptimizedSwapper",
        "label": "pendingGovernor",
        "offset": 0,
        "slot": "1",
        "type": "t_address"
      },
      {
        "astId": 3086,
        "contract": "contracts/swappers/async/MultiCallOptimizedSwapper.sol:MultiCallOptimizedSwapper",
        "label": "protocolTokens",
        "offset": 0,
        "slot": "2",
        "type": "t_struct(AddressSet)2210_storage"
      }
    ],
    "types": {
      "t_address": {
        "encoding": "inplace",
        "label": "address",
        "numberOfBytes": "20"
      },
      "t_array(t_bytes32)dyn_storage": {
        "base": "t_bytes32",
        "encoding": "dynamic_array",
        "label": "bytes32[]",
        "numberOfBytes": "32"
      },
      "t_bytes32": {
        "encoding": "inplace",
        "label": "bytes32",
        "numberOfBytes": "32"
      },
      "t_mapping(t_bytes32,t_uint256)": {
        "encoding": "mapping",
        "key": "t_bytes32",
        "label": "mapping(bytes32 => uint256)",
        "numberOfBytes": "32",
        "value": "t_uint256"
      },
      "t_struct(AddressSet)2210_storage": {
        "encoding": "inplace",
        "label": "struct EnumerableSet.AddressSet",
        "members": [
          {
            "astId": 2209,
            "contract": "contracts/swappers/async/MultiCallOptimizedSwapper.sol:MultiCallOptimizedSwapper",
            "label": "_inner",
            "offset": 0,
            "slot": "0",
            "type": "t_struct(Set)1909_storage"
          }
        ],
        "numberOfBytes": "64"
      },
      "t_struct(Set)1909_storage": {
        "encoding": "inplace",
        "label": "struct EnumerableSet.Set",
        "members": [
          {
            "astId": 1904,
            "contract": "contracts/swappers/async/MultiCallOptimizedSwapper.sol:MultiCallOptimizedSwapper",
            "label": "_values",
            "offset": 0,
            "slot": "0",
            "type": "t_array(t_bytes32)dyn_storage"
          },
          {
            "astId": 1908,
            "contract": "contracts/swappers/async/MultiCallOptimizedSwapper.sol:MultiCallOptimizedSwapper",
            "label": "_indexes",
            "offset": 0,
            "slot": "1",
            "type": "t_mapping(t_bytes32,t_uint256)"
          }
        ],
        "numberOfBytes": "64"
      },
      "t_uint256": {
        "encoding": "inplace",
        "label": "uint256",
        "numberOfBytes": "32"
      }
    }
  }
}