{
  "address": "0x7F036fa7B01E7c0286AFd4c7f756dd367E90a5f8",
  "abi": [
    {
      "inputs": [
        {
          "internalType": "address",
          "name": "_governor",
          "type": "address"
        },
        {
          "internalType": "address",
          "name": "_tradeFactory",
          "type": "address"
        }
      ],
      "stateMutability": "nonpayable",
      "type": "constructor"
    },
    {
      "inputs": [],
      "name": "CallOnlyOptimizationRequired",
      "type": "error"
    },
    {
      "inputs": [],
      "name": "MultiCallRevert",
      "type": "error"
    },
    {
      "inputs": [],
      "name": "NotAuthorized",
      "type": "error"
    },
    {
      "inputs": [],
      "name": "ZeroAddress",
      "type": "error"
    },
    {
      "inputs": [],
      "name": "ZeroAmount",
      "type": "error"
    },
    {
      "anonymous": false,
      "inputs": [
        {
          "indexed": false,
          "internalType": "address",
          "name": "_to",
          "type": "address"
        },
        {
          "indexed": false,
          "internalType": "address",
          "name": "token",
          "type": "address"
        },
        {
          "indexed": false,
          "internalType": "uint256",
          "name": "amount",
          "type": "uint256"
        }
      ],
      "name": "DustSent",
      "type": "event"
    },
    {
      "anonymous": false,
      "inputs": [],
      "name": "GovernorAccepted",
      "type": "event"
    },
    {
      "anonymous": false,
      "inputs": [
        {
          "indexed": false,
          "internalType": "address",
          "name": "pendingGovernor",
          "type": "address"
        }
      ],
      "name": "PendingGovernorSet",
      "type": "event"
    },
    {
      "stateMutability": "payable",
      "type": "fallback"
    },
    {
      "inputs": [],
      "name": "ETH_ADDRESS",
      "outputs": [
        {
          "internalType": "address",
          "name": "",
          "type": "address"
        }
      ],
      "stateMutability": "view",
      "type": "function"
    },
    {
      "inputs": [],
      "name": "SWAPPER_TYPE",
      "outputs": [
        {
          "internalType": "enum ISwapper.SwapperType",
          "name": "",
          "type": "uint8"
        }
      ],
      "stateMutability": "view",
      "type": "function"
    },
    {
      "inputs": [],
      "name": "TRADE_FACTORY",
      "outputs": [
        {
          "internalType": "address",
          "name": "",
          "type": "address"
        }
      ],
      "stateMutability": "view",
      "type": "function"
    },
    {
      "inputs": [],
      "name": "acceptGovernor",
      "outputs": [],
      "stateMutability": "nonpayable",
      "type": "function"
    },
    {
      "inputs": [],
      "name": "governor",
      "outputs": [
        {
          "internalType": "address",
          "name": "",
          "type": "address"
        }
      ],
      "stateMutability": "view",
      "type": "function"
    },
    {
      "inputs": [
        {
          "internalType": "address",
          "name": "_account",
          "type": "address"
        }
      ],
      "name": "isGovernor",
      "outputs": [
        {
          "internalType": "bool",
          "name": "_isGovernor",
          "type": "bool"
        }
      ],
      "stateMutability": "view",
      "type": "function"
    },
    {
      "inputs": [],
      "name": "pendingGovernor",
      "outputs": [
        {
          "internalType": "address",
          "name": "",
          "type": "address"
        }
      ],
      "stateMutability": "view",
      "type": "function"
    },
    {
      "inputs": [
        {
          "internalType": "address",
          "name": "_to",
          "type": "address"
        },
        {
          "internalType": "address",
          "name": "_token",
          "type": "address"
        },
        {
          "internalType": "uint256",
          "name": "_amount",
          "type": "uint256"
        }
      ],
      "name": "sendDust",
      "outputs": [],
      "stateMutability": "nonpayable",
      "type": "function"
    },
    {
      "inputs": [
        {
          "internalType": "address",
          "name": "_pendingGovernor",
          "type": "address"
        }
      ],
      "name": "setPendingGovernor",
      "outputs": [],
      "stateMutability": "nonpayable",
      "type": "function"
    },
    {
      "inputs": [
        {
          "internalType": "address",
          "name": "_receiver",
          "type": "address"
        },
        {
          "internalType": "address",
          "name": "_tokenIn",
          "type": "address"
        },
        {
          "internalType": "address",
          "name": "_tokenOut",
          "type": "address"
        },
        {
          "internalType": "uint256",
          "name": "_amountIn",
          "type": "uint256"
        },
        {
          "internalType": "uint256",
          "name": "_minAmountOut",
          "type": "uint256"
        },
        {
          "internalType": "bytes",
          "name": "_data",
          "type": "bytes"
        }
      ],
      "name": "swap",
      "outputs": [],
      "stateMutability": "nonpayable",
      "type": "function"
    },
    {
      "inputs": [
        {
          "internalType": "bytes",
          "name": "_data",
          "type": "bytes"
        }
      ],
      "name": "swapMultiple",
      "outputs": [],
      "stateMutability": "nonpayable",
      "type": "function"
    },
    {
      "stateMutability": "payable",
      "type": "receive"
    }
  ],
  "transactionHash": "0x56adc9ec95140c4818d0ff57f4d326ec71c60e1147876fe702828b27bd4d9a2b",
  "args": [
    "0xFEB4acf3df3cDEA7399794D0869ef76A6EfAff52",
    "0x7A17E008c1caF7a937766fAb1C29AeDc0bF3472c"
  ],
  "solcInputHash": "3004885315de5ae00fa7c68fd6fb4fa6",
  "bytecode": "0x60a060405234801561001057600080fd5b506040516112c23803806112c283398101604081905261002f91610115565b8181818180826001600160a01b0381166100a65760405162461bcd60e51b815260206004820152602e60248201527f676f7665726e61626c652f676f7665726e6f722d73686f756c642d6e6f742d6260448201526d652d7a65726f2d6164647265737360901b606482015260840160405180910390fd5b600080546001600160a01b0319166001600160a01b0392831617905581166100e15760405163d92e233d60e01b815260040160405180910390fd5b6001600160a01b031660805250610148945050505050565b80516001600160a01b038116811461011057600080fd5b919050565b6000806040838503121561012857600080fd5b610131836100f9565b915061013f602084016100f9565b90509250929050565b60805161115161017160003960008181610132015281816102c701526104c501526111516000f3fe60806040526004361061009a5760003560e01c8063a734f06e11610061578063a734f06e14610174578063cd985af01461019c578063e3056a34146101be578063e43581b8146101de578063e58bb6391461021d578063f235757f1461023257005b80630c340a24146100a35780632db8c129146100e057806364c3d39f146101005780637556fae614610120578063a5d4096b1461015457005b366100a157005b005b3480156100af57600080fd5b506000546100c3906001600160a01b031681565b6040516001600160a01b0390911681526020015b60405180910390f35b3480156100ec57600080fd5b506100a16100fb366004610eeb565b610252565b34801561010c57600080fd5b506100a161011b366004610f70565b6102bc565b34801561012c57600080fd5b506100c37f000000000000000000000000000000000000000000000000000000000000000081565b34801561016057600080fd5b506100a161016f366004610fb2565b6104ba565b34801561018057600080fd5b506100c373eeeeeeeeeeeeeeeeeeeeeeeeeeeeeeeeeeeeeeee81565b3480156101a857600080fd5b506101b1600081565b6040516100d7919061103b565b3480156101ca57600080fd5b506001546100c3906001600160a01b031681565b3480156101ea57600080fd5b5061020d6101f9366004611063565b6000546001600160a01b0391821691161490565b60405190151581526020016100d7565b34801561022957600080fd5b506100a1610527565b34801561023e57600080fd5b506100a161024d366004611063565b61058b565b6000546001600160a01b031633146102ac5760405162461bcd60e51b815260206004820152601860248201527733b7bb32b93730b1363297b7b7363c96b3b7bb32b93737b960411b60448201526064015b60405180910390fd5b6102b78383836105ec565b505050565b336001600160a01b037f000000000000000000000000000000000000000000000000000000000000000016146103055760405163ea8e4eb560e01b815260040160405180910390fd5b600061034683838080601f01602080910402602001604051908101604052809392919081815260200183838082843760009201919091525061078e92505050565b9050600060ff82166001141561039c5761039584848080601f01602080910402602001604051908101604052809392919081815260200183838082843760009201919091525061079892505050565b9050610496565b60ff8216600314156103e75761039584848080601f0160208091040260200160405190810160405280939291908181526020018383808284376000920191909152506107f292505050565b60ff8216600514156104325761039584848080601f01602080910402602001604051908101604052809392919081815260200183838082843760009201919091525061084c92505050565b60ff82166007141561047d5761039584848080601f01602080910402602001604051908101604052809392919081815260200183838082843760009201919091525061089692505050565b6040516306bbee3760e21b815260040160405180910390fd5b806104b4576040516351ba533f60e01b815260040160405180910390fd5b50505050565b336001600160a01b037f000000000000000000000000000000000000000000000000000000000000000016146105035760405163ea8e4eb560e01b815260040160405180910390fd5b61051087878787876108dd565b61051e87878787868661096d565b50505050505050565b6001546001600160a01b031633146105815760405162461bcd60e51b815260206004820181905260248201527f676f7665726e61626c652f6f6e6c792d70656e64696e672d676f7665726e6f7260448201526064016102a3565b610589610b0d565b565b6000546001600160a01b031633146105e05760405162461bcd60e51b815260206004820152601860248201527733b7bb32b93730b1363297b7b7363c96b3b7bb32b93737b960411b60448201526064016102a3565b6105e981610b5d565b50565b6001600160a01b03831661065a5760405162461bcd60e51b815260206004820152602f60248201527f636f6c6c65637461626c652d647573742f63616e742d73656e642d647573742d60448201526e746f2d7a65726f2d6164647265737360881b60648201526084016102a3565b610665600283610c25565b156106c95760405162461bcd60e51b815260206004820152602e60248201527f636f6c6c65637461626c652d647573742f746f6b656e2d69732d706172742d6f60448201526d198b5d1a194b5c1c9bdd1bd8dbdb60921b60648201526084016102a3565b6001600160a01b03821673eeeeeeeeeeeeeeeeeeeeeeeeeeeeeeeeeeeeeeee141561072a576040516001600160a01b0384169082156108fc029083906000818181858888f19350505050158015610724573d6000803e3d6000fd5b5061073e565b61073e6001600160a01b0383168483610c4a565b604080516001600160a01b038086168252841660208201529081018290527f1e34c1aee8e83c2dcc14c21bb4bfeea7f46c0c998cb797ac7cc4d7a18f5c656b9060600160405180910390a1505050565b6020015160f81c90565b6000815160215b818110156107eb578084015160601c6014820185015160348301860151605484018701600080838386885af1965050856107db575050506107eb565b806054018401935050505061079f565b5050919050565b805160218201516000919060359060601c5b8282101561084457848201601481015160348201519091605401600080838386885af196505085610836575050610844565b929092016054019150610804565b505050919050565b6000815160215b818110156107eb578084015160601c6014820185015160348301860160008083836000875af1955050846108885750506107eb565b919091016034019050610853565b805160218201516000919060359060601c5b8282101561084457848201805190602001600080838382875af1955050846108d05750610844565b91909101602001906108a8565b6001600160a01b03851615806108fa57506001600160a01b038416155b8061090c57506001600160a01b038316155b1561092a5760405163d92e233d60e01b815260040160405180910390fd5b8161094857604051631f2a200560e01b815260040160405180910390fd5b8061096657604051631f2a200560e01b815260040160405180910390fd5b5050505050565b60006109ae83838080601f01602080910402602001604051908101604052809392919081815260200183838082843760009201919091525061078e92505050565b9050600060ff821660011415610a04576109fd84848080601f01602080910402602001604051908101604052809392919081815260200183838082843760009201919091525061079892505050565b9050610ae5565b60ff821660031415610a4f576109fd84848080601f0160208091040260200160405190810160405280939291908181526020018383808284376000920191909152506107f292505050565b60ff821660051415610a9a576109fd84848080601f01602080910402602001604051908101604052809392919081815260200183838082843760009201919091525061084c92505050565b60ff82166007141561047d576109fd84848080601f01602080910402602001604051908101604052809392919081815260200183838082843760009201919091525061089692505050565b80610b03576040516351ba533f60e01b815260040160405180910390fd5b5050505050505050565b60018054600080546001600160a01b03199081166001600160a01b0384161782559091169091556040517f7880f0fcc848e1f26e461654b100a69f8d0641e29aa29f6596c6afadbb36b5ea9190a1565b6001600160a01b038116610bd15760405162461bcd60e51b815260206004820152603560248201527f676f7665726e61626c652f70656e64696e672d676f7665726e6f722d73686f756044820152746c642d6e6f742d62652d7a65726f2d61646472657360581b60648201526084016102a3565b600180546001600160a01b0319166001600160a01b0383169081179091556040519081527f56bddfa0cee9697cebddf9acd7f23dc6583663b05e007b877056d05017994def9060200160405180910390a150565b6001600160a01b038116600090815260018301602052604081205415155b9392505050565b604080516001600160a01b03848116602483015260448083018590528351808403909101815260649092018352602080830180516001600160e01b031663a9059cbb60e01b17905283518085019094528084527f5361666545524332303a206c6f772d6c6576656c2063616c6c206661696c6564908401526102b792869291600091610cda918516908490610d57565b8051909150156102b75780806020019051810190610cf8919061107e565b6102b75760405162461bcd60e51b815260206004820152602a60248201527f5361666545524332303a204552433230206f7065726174696f6e20646964206e6044820152691bdd081cdd58d8d9595960b21b60648201526084016102a3565b6060610d668484600085610d6e565b949350505050565b606082471015610dcf5760405162461bcd60e51b815260206004820152602660248201527f416464726573733a20696e73756666696369656e742062616c616e636520666f6044820152651c8818d85b1b60d21b60648201526084016102a3565b843b610e1d5760405162461bcd60e51b815260206004820152601d60248201527f416464726573733a2063616c6c20746f206e6f6e2d636f6e747261637400000060448201526064016102a3565b600080866001600160a01b03168587604051610e3991906110cc565b60006040518083038185875af1925050503d8060008114610e76576040519150601f19603f3d011682016040523d82523d6000602084013e610e7b565b606091505b5091509150610e8b828286610e96565b979650505050505050565b60608315610ea5575081610c43565b825115610eb55782518084602001fd5b8160405162461bcd60e51b81526004016102a391906110e8565b80356001600160a01b0381168114610ee657600080fd5b919050565b600080600060608486031215610f0057600080fd5b610f0984610ecf565b9250610f1760208501610ecf565b9150604084013590509250925092565b60008083601f840112610f3957600080fd5b50813567ffffffffffffffff811115610f5157600080fd5b602083019150836020828501011115610f6957600080fd5b9250929050565b60008060208385031215610f8357600080fd5b823567ffffffffffffffff811115610f9a57600080fd5b610fa685828601610f27565b90969095509350505050565b600080600080600080600060c0888a031215610fcd57600080fd5b610fd688610ecf565b9650610fe460208901610ecf565b9550610ff260408901610ecf565b9450606088013593506080880135925060a088013567ffffffffffffffff81111561101c57600080fd5b6110288a828b01610f27565b989b979a50959850939692959293505050565b602081016002831061105d57634e487b7160e01b600052602160045260246000fd5b91905290565b60006020828403121561107557600080fd5b610c4382610ecf565b60006020828403121561109057600080fd5b81518015158114610c4357600080fd5b60005b838110156110bb5781810151838201526020016110a3565b838111156104b45750506000910152565b600082516110de8184602087016110a0565b9190910192915050565b60208152600082518060208401526111078160408501602087016110a0565b601f01601f1916919091016040019291505056fea264697066735822122025bda6bb27df8e5e5cd41383e4c1dd7af0583d7007f6812dd791a7f67bcc941f64736f6c63430008090033",
  "devdoc": {
    "kind": "dev",
    "methods": {},
    "version": 1
  },
  "userdoc": {
    "kind": "user",
    "methods": {},
    "version": 1
  },
  "storageLayout": {
    "storage": [
      {
        "astId": 3197,
        "contract": "contracts/swappers/async/MultiCallOptimizedSwapper.sol:MultiCallOptimizedSwapper",
        "label": "governor",
        "offset": 0,
        "slot": "0",
        "type": "t_address"
      },
      {
        "astId": 3200,
        "contract": "contracts/swappers/async/MultiCallOptimizedSwapper.sol:MultiCallOptimizedSwapper",
        "label": "pendingGovernor",
        "offset": 0,
        "slot": "1",
        "type": "t_address"
      },
      {
        "astId": 3086,
        "contract": "contracts/swappers/async/MultiCallOptimizedSwapper.sol:MultiCallOptimizedSwapper",
        "label": "protocolTokens",
        "offset": 0,
        "slot": "2",
        "type": "t_struct(AddressSet)2210_storage"
      }
    ],
    "types": {
      "t_address": {
        "encoding": "inplace",
        "label": "address",
        "numberOfBytes": "20"
      },
      "t_array(t_bytes32)dyn_storage": {
        "base": "t_bytes32",
        "encoding": "dynamic_array",
        "label": "bytes32[]",
        "numberOfBytes": "32"
      },
      "t_bytes32": {
        "encoding": "inplace",
        "label": "bytes32",
        "numberOfBytes": "32"
      },
      "t_mapping(t_bytes32,t_uint256)": {
        "encoding": "mapping",
        "key": "t_bytes32",
        "label": "mapping(bytes32 => uint256)",
        "numberOfBytes": "32",
        "value": "t_uint256"
      },
      "t_struct(AddressSet)2210_storage": {
        "encoding": "inplace",
        "label": "struct EnumerableSet.AddressSet",
        "members": [
          {
            "astId": 2209,
            "contract": "contracts/swappers/async/MultiCallOptimizedSwapper.sol:MultiCallOptimizedSwapper",
            "label": "_inner",
            "offset": 0,
            "slot": "0",
            "type": "t_struct(Set)1909_storage"
          }
        ],
        "numberOfBytes": "64"
      },
      "t_struct(Set)1909_storage": {
        "encoding": "inplace",
        "label": "struct EnumerableSet.Set",
        "members": [
          {
            "astId": 1904,
            "contract": "contracts/swappers/async/MultiCallOptimizedSwapper.sol:MultiCallOptimizedSwapper",
            "label": "_values",
            "offset": 0,
            "slot": "0",
            "type": "t_array(t_bytes32)dyn_storage"
          },
          {
            "astId": 1908,
            "contract": "contracts/swappers/async/MultiCallOptimizedSwapper.sol:MultiCallOptimizedSwapper",
            "label": "_indexes",
            "offset": 0,
            "slot": "1",
            "type": "t_mapping(t_bytes32,t_uint256)"
          }
        ],
        "numberOfBytes": "64"
      },
      "t_uint256": {
        "encoding": "inplace",
        "label": "uint256",
        "numberOfBytes": "32"
      }
    }
  }
}