{
  "address": "0xBf26Ff7C7367ee7075443c4F95dEeeE77432614d",
  "abi": [
    {
      "inputs": [
        {
          "internalType": "address",
          "name": "_masterAdmin",
          "type": "address"
        },
        {
          "internalType": "address",
          "name": "_swapperAdder",
          "type": "address"
        },
        {
          "internalType": "address",
          "name": "_swapperSetter",
          "type": "address"
        },
        {
          "internalType": "address",
          "name": "_strategyAdder",
          "type": "address"
        },
        {
          "internalType": "address",
          "name": "_tradesModifier",
          "type": "address"
        },
        {
          "internalType": "address",
          "name": "_tradesSettler",
          "type": "address"
        },
        {
          "internalType": "address",
          "name": "_mechanicsRegistry",
          "type": "address"
        }
      ],
      "stateMutability": "nonpayable",
      "type": "constructor"
    },
    {
      "inputs": [],
      "name": "ExpiredTrade",
      "type": "error"
    },
    {
      "inputs": [],
      "name": "InvalidDeadline",
      "type": "error"
    },
    {
      "inputs": [],
      "name": "InvalidPermissions",
      "type": "error"
    },
    {
      "inputs": [],
      "name": "InvalidSwapper",
      "type": "error"
    },
    {
      "inputs": [],
      "name": "InvalidTrade",
      "type": "error"
    },
    {
      "inputs": [],
      "name": "NotAsyncSwapper",
      "type": "error"
    },
    {
      "inputs": [],
      "name": "NotAuthorized",
      "type": "error"
    },
    {
      "inputs": [],
      "name": "NotSyncSwapper",
      "type": "error"
    },
    {
      "inputs": [],
      "name": "OngoingTrade",
      "type": "error"
    },
    {
      "inputs": [],
      "name": "SwapperInUse",
      "type": "error"
    },
    {
      "inputs": [],
      "name": "ZeroAddress",
      "type": "error"
    },
    {
      "inputs": [],
      "name": "ZeroAmount",
      "type": "error"
    },
    {
      "inputs": [],
      "name": "ZeroRate",
      "type": "error"
    },
    {
      "inputs": [],
      "name": "ZeroSlippage",
      "type": "error"
    },
    {
      "anonymous": false,
      "inputs": [
        {
          "indexed": false,
          "internalType": "uint256[]",
          "name": "_ids",
          "type": "uint256[]"
        },
        {
          "indexed": false,
          "internalType": "uint256",
          "name": "_rateTokenInToOut",
          "type": "uint256"
        }
      ],
      "name": "AsyncOTCTradesExecuted",
      "type": "event"
    },
    {
      "anonymous": false,
      "inputs": [
        {
          "indexed": true,
          "internalType": "address",
          "name": "_strategy",
          "type": "address"
        },
        {
          "indexed": false,
          "internalType": "address",
          "name": "_swapper",
          "type": "address"
        }
      ],
      "name": "AsyncStrategySwapperSet",
      "type": "event"
    },
    {
      "anonymous": false,
      "inputs": [
        {
          "indexed": true,
          "internalType": "uint256",
          "name": "_id",
          "type": "uint256"
        },
        {
          "indexed": false,
          "internalType": "uint256",
          "name": "_receivedAmount",
          "type": "uint256"
        }
      ],
      "name": "AsyncTradeExecuted",
      "type": "event"
    },
    {
      "anonymous": false,
      "inputs": [
        {
          "indexed": true,
          "internalType": "uint256",
          "name": "_id",
          "type": "uint256"
        }
      ],
      "name": "AsyncTradeExpired",
      "type": "event"
    },
    {
      "anonymous": false,
      "inputs": [
        {
          "indexed": true,
          "internalType": "uint256",
          "name": "_firstTradeId",
          "type": "uint256"
        },
        {
          "indexed": true,
          "internalType": "uint256",
          "name": "_secondTradeId",
          "type": "uint256"
        },
        {
          "indexed": false,
          "internalType": "uint256",
          "name": "_consumedFirstTrade",
          "type": "uint256"
        },
        {
          "indexed": false,
          "internalType": "uint256",
          "name": "_consumedSecondTrade",
          "type": "uint256"
        }
      ],
      "name": "AsyncTradesMatched",
      "type": "event"
    },
    {
      "anonymous": false,
      "inputs": [
        {
          "indexed": false,
          "internalType": "address",
          "name": "_to",
          "type": "address"
        },
        {
          "indexed": false,
          "internalType": "address",
          "name": "token",
          "type": "address"
        },
        {
          "indexed": false,
          "internalType": "uint256",
          "name": "amount",
          "type": "uint256"
        }
      ],
      "name": "DustSent",
      "type": "event"
    },
    {
      "anonymous": false,
      "inputs": [
        {
          "indexed": false,
          "internalType": "address",
          "name": "_otcPool",
          "type": "address"
        }
      ],
      "name": "OTCPoolSet",
      "type": "event"
    },
    {
      "anonymous": false,
      "inputs": [
        {
          "indexed": true,
          "internalType": "bytes32",
          "name": "role",
          "type": "bytes32"
        },
        {
          "indexed": true,
          "internalType": "bytes32",
          "name": "previousAdminRole",
          "type": "bytes32"
        },
        {
          "indexed": true,
          "internalType": "bytes32",
          "name": "newAdminRole",
          "type": "bytes32"
        }
      ],
      "name": "RoleAdminChanged",
      "type": "event"
    },
    {
      "anonymous": false,
      "inputs": [
        {
          "indexed": true,
          "internalType": "bytes32",
          "name": "role",
          "type": "bytes32"
        },
        {
          "indexed": true,
          "internalType": "address",
          "name": "account",
          "type": "address"
        },
        {
          "indexed": true,
          "internalType": "address",
          "name": "sender",
          "type": "address"
        }
      ],
      "name": "RoleGranted",
      "type": "event"
    },
    {
      "anonymous": false,
      "inputs": [
        {
          "indexed": true,
          "internalType": "bytes32",
          "name": "role",
          "type": "bytes32"
        },
        {
          "indexed": true,
          "internalType": "address",
          "name": "account",
          "type": "address"
        },
        {
          "indexed": true,
          "internalType": "address",
          "name": "sender",
          "type": "address"
        }
      ],
      "name": "RoleRevoked",
      "type": "event"
    },
    {
      "anonymous": false,
      "inputs": [
        {
          "indexed": true,
          "internalType": "address",
          "name": "_strategy",
          "type": "address"
        },
        {
          "indexed": false,
          "internalType": "bytes1",
          "name": "_permissions",
          "type": "bytes1"
        }
      ],
      "name": "StrategyPermissionsSet",
      "type": "event"
    },
    {
      "anonymous": false,
      "inputs": [
        {
          "indexed": true,
          "internalType": "address",
          "name": "_swapper",
          "type": "address"
        },
        {
          "indexed": false,
          "internalType": "address",
          "name": "_token",
          "type": "address"
        }
      ],
      "name": "SwapperAndTokenEnabled",
      "type": "event"
    },
    {
      "anonymous": false,
      "inputs": [
        {
          "indexed": false,
          "internalType": "address[]",
          "name": "_swappers",
          "type": "address[]"
        }
      ],
      "name": "SwappersAdded",
      "type": "event"
    },
    {
      "anonymous": false,
      "inputs": [
        {
          "indexed": false,
          "internalType": "address[]",
          "name": "_swapper",
          "type": "address[]"
        }
      ],
      "name": "SwappersRemoved",
      "type": "event"
    },
    {
      "anonymous": false,
      "inputs": [
        {
          "indexed": true,
          "internalType": "address",
          "name": "_strategy",
          "type": "address"
        },
        {
          "indexed": false,
          "internalType": "address",
          "name": "_swapper",
          "type": "address"
        }
      ],
      "name": "SyncStrategySwapperSet",
      "type": "event"
    },
    {
      "anonymous": false,
      "inputs": [
        {
          "indexed": true,
          "internalType": "address",
          "name": "_strategy",
          "type": "address"
        },
        {
          "indexed": true,
          "internalType": "address",
          "name": "_swapper",
          "type": "address"
        },
        {
          "indexed": false,
          "internalType": "address",
          "name": "_tokenIn",
          "type": "address"
        },
        {
          "indexed": false,
          "internalType": "address",
          "name": "_tokenOut",
          "type": "address"
        },
        {
          "indexed": false,
          "internalType": "uint256",
          "name": "_amountIn",
          "type": "uint256"
        },
        {
          "indexed": false,
          "internalType": "uint256",
          "name": "_maxSlippage",
          "type": "uint256"
        },
        {
          "indexed": false,
          "internalType": "bytes",
          "name": "_data",
          "type": "bytes"
        },
        {
          "indexed": false,
          "internalType": "uint256",
          "name": "_receivedAmount",
          "type": "uint256"
        }
      ],
      "name": "SyncTradeExecuted",
      "type": "event"
    },
    {
      "anonymous": false,
      "inputs": [
        {
          "indexed": true,
          "internalType": "uint256",
          "name": "_id",
          "type": "uint256"
        },
        {
          "indexed": false,
          "internalType": "address",
          "name": "_strategy",
          "type": "address"
        },
        {
          "indexed": false,
          "internalType": "address",
          "name": "_tokenIn",
          "type": "address"
        },
        {
          "indexed": false,
          "internalType": "address",
          "name": "_tokenOut",
          "type": "address"
        },
        {
          "indexed": false,
          "internalType": "uint256",
          "name": "_amountIn",
          "type": "uint256"
        },
        {
          "indexed": false,
          "internalType": "uint256",
          "name": "_deadline",
          "type": "uint256"
        }
      ],
      "name": "TradeCreated",
      "type": "event"
    },
    {
      "anonymous": false,
      "inputs": [
        {
          "indexed": true,
          "internalType": "address",
          "name": "_strategy",
          "type": "address"
        },
        {
          "indexed": false,
          "internalType": "uint256[]",
          "name": "_ids",
          "type": "uint256[]"
        }
      ],
      "name": "TradesCanceled",
      "type": "event"
    },
    {
      "anonymous": false,
      "inputs": [
        {
          "indexed": true,
          "internalType": "uint256",
          "name": "_anchorTrade",
          "type": "uint256"
        },
        {
          "indexed": false,
          "internalType": "uint256[]",
          "name": "_ids",
          "type": "uint256[]"
        }
      ],
      "name": "TradesMerged",
      "type": "event"
    },
    {
      "anonymous": false,
      "inputs": [
        {
          "indexed": false,
          "internalType": "uint256[]",
          "name": "_ids",
          "type": "uint256[]"
        },
        {
          "indexed": false,
          "internalType": "address",
          "name": "_newSwapper",
          "type": "address"
        }
      ],
      "name": "TradesSwapperChanged",
      "type": "event"
    },
    {
      "inputs": [],
      "name": "DEFAULT_ADMIN_ROLE",
      "outputs": [
        {
          "internalType": "bytes32",
          "name": "",
          "type": "bytes32"
        }
      ],
      "stateMutability": "view",
      "type": "function"
    },
    {
      "inputs": [],
      "name": "ETH_ADDRESS",
      "outputs": [
        {
          "internalType": "address",
          "name": "",
          "type": "address"
        }
      ],
      "stateMutability": "view",
      "type": "function"
    },
    {
      "inputs": [],
      "name": "MASTER_ADMIN",
      "outputs": [
        {
          "internalType": "bytes32",
          "name": "",
          "type": "bytes32"
        }
      ],
      "stateMutability": "view",
      "type": "function"
    },
    {
      "inputs": [],
      "name": "STRATEGY",
      "outputs": [
        {
          "internalType": "bytes32",
          "name": "",
          "type": "bytes32"
        }
      ],
      "stateMutability": "view",
      "type": "function"
    },
    {
      "inputs": [],
      "name": "STRATEGY_ADDER",
      "outputs": [
        {
          "internalType": "bytes32",
          "name": "",
          "type": "bytes32"
        }
      ],
      "stateMutability": "view",
      "type": "function"
    },
    {
      "inputs": [],
      "name": "SWAPPER_ADDER",
      "outputs": [
        {
          "internalType": "bytes32",
          "name": "",
          "type": "bytes32"
        }
      ],
      "stateMutability": "view",
      "type": "function"
    },
    {
      "inputs": [],
      "name": "SWAPPER_SETTER",
      "outputs": [
        {
          "internalType": "bytes32",
          "name": "",
          "type": "bytes32"
        }
      ],
      "stateMutability": "view",
      "type": "function"
    },
    {
      "inputs": [],
      "name": "TRADES_MODIFIER",
      "outputs": [
        {
          "internalType": "bytes32",
          "name": "",
          "type": "bytes32"
        }
      ],
      "stateMutability": "view",
      "type": "function"
    },
    {
      "inputs": [],
      "name": "TRADES_SETTLER",
      "outputs": [
        {
          "internalType": "bytes32",
          "name": "",
          "type": "bytes32"
        }
      ],
      "stateMutability": "view",
      "type": "function"
    },
    {
      "inputs": [
        {
          "internalType": "address[]",
          "name": "__swappers",
          "type": "address[]"
        }
      ],
      "name": "addSwappers",
      "outputs": [],
      "stateMutability": "nonpayable",
      "type": "function"
    },
    {
      "inputs": [
        {
          "internalType": "uint256[]",
          "name": "_ids",
          "type": "uint256[]"
        }
      ],
      "name": "cancelPendingTrades",
      "outputs": [],
      "stateMutability": "nonpayable",
      "type": "function"
    },
    {
      "inputs": [
        {
          "internalType": "address",
          "name": "_tokenIn",
          "type": "address"
        },
        {
          "internalType": "address",
          "name": "_tokenOut",
          "type": "address"
        },
        {
          "internalType": "uint256",
          "name": "_amountIn",
          "type": "uint256"
        },
        {
          "internalType": "uint256",
          "name": "_deadline",
          "type": "uint256"
        }
      ],
      "name": "create",
      "outputs": [
        {
          "internalType": "uint256",
          "name": "_id",
          "type": "uint256"
        }
      ],
      "stateMutability": "nonpayable",
      "type": "function"
    },
    {
      "inputs": [
        {
          "internalType": "uint256[]",
          "name": "_ids",
          "type": "uint256[]"
        },
        {
          "internalType": "uint256",
          "name": "_rateTokenInToOut",
          "type": "uint256"
        }
      ],
      "name": "execute",
      "outputs": [],
      "stateMutability": "nonpayable",
      "type": "function"
    },
    {
      "inputs": [
        {
          "internalType": "uint256",
          "name": "_id",
          "type": "uint256"
        },
        {
          "internalType": "address",
          "name": "_swapper",
          "type": "address"
        },
        {
          "internalType": "uint256",
          "name": "_minAmountOut",
          "type": "uint256"
        },
        {
          "internalType": "bytes",
          "name": "_data",
          "type": "bytes"
        }
      ],
      "name": "execute",
      "outputs": [
        {
          "internalType": "uint256",
          "name": "_receivedAmount",
          "type": "uint256"
        }
      ],
      "stateMutability": "nonpayable",
      "type": "function"
    },
    {
      "inputs": [
        {
          "internalType": "uint256",
          "name": "_firstTradeId",
          "type": "uint256"
        },
        {
          "internalType": "uint256",
          "name": "_secondTradeId",
          "type": "uint256"
        },
        {
          "internalType": "uint256",
          "name": "_consumedFirstTrade",
          "type": "uint256"
        },
        {
          "internalType": "uint256",
          "name": "_consumedSecondTrade",
          "type": "uint256"
        }
      ],
      "name": "execute",
      "outputs": [],
      "stateMutability": "nonpayable",
      "type": "function"
    },
    {
      "inputs": [
        {
          "internalType": "address",
          "name": "_tokenIn",
          "type": "address"
        },
        {
          "internalType": "address",
          "name": "_tokenOut",
          "type": "address"
        },
        {
          "internalType": "uint256",
          "name": "_amountIn",
          "type": "uint256"
        },
        {
          "internalType": "uint256",
          "name": "_maxSlippage",
          "type": "uint256"
        },
        {
          "internalType": "bytes",
          "name": "_data",
          "type": "bytes"
        }
      ],
      "name": "execute",
      "outputs": [
        {
          "internalType": "uint256",
          "name": "_receivedAmount",
          "type": "uint256"
        }
      ],
      "stateMutability": "nonpayable",
      "type": "function"
    },
    {
      "inputs": [
        {
          "internalType": "uint256",
          "name": "_id",
          "type": "uint256"
        }
      ],
      "name": "expire",
      "outputs": [
        {
          "internalType": "uint256",
          "name": "_freedAmount",
          "type": "uint256"
        }
      ],
      "stateMutability": "nonpayable",
      "type": "function"
    },
    {
      "inputs": [
        {
          "internalType": "bytes32",
          "name": "role",
          "type": "bytes32"
        }
      ],
      "name": "getRoleAdmin",
      "outputs": [
        {
          "internalType": "bytes32",
          "name": "",
          "type": "bytes32"
        }
      ],
      "stateMutability": "view",
      "type": "function"
    },
    {
      "inputs": [
        {
          "internalType": "bytes32",
          "name": "role",
          "type": "bytes32"
        },
        {
          "internalType": "address",
          "name": "account",
          "type": "address"
        }
      ],
      "name": "grantRole",
      "outputs": [],
      "stateMutability": "nonpayable",
      "type": "function"
    },
    {
      "inputs": [
        {
          "internalType": "bytes32",
          "name": "role",
          "type": "bytes32"
        },
        {
          "internalType": "address",
          "name": "account",
          "type": "address"
        }
      ],
      "name": "hasRole",
      "outputs": [
        {
          "internalType": "bool",
          "name": "",
          "type": "bool"
        }
      ],
      "stateMutability": "view",
      "type": "function"
    },
    {
      "inputs": [
        {
          "internalType": "address",
          "name": "_mechanic",
          "type": "address"
        }
      ],
      "name": "isMechanic",
      "outputs": [
        {
          "internalType": "bool",
          "name": "_isMechanic",
          "type": "bool"
        }
      ],
      "stateMutability": "view",
      "type": "function"
    },
    {
      "inputs": [
        {
          "internalType": "address",
          "name": "_swapper",
          "type": "address"
        }
      ],
      "name": "isSwapper",
      "outputs": [
        {
          "internalType": "bool",
          "name": "_isSwapper",
          "type": "bool"
        }
      ],
      "stateMutability": "view",
      "type": "function"
    },
    {
      "inputs": [],
      "name": "mechanicsRegistry",
      "outputs": [
        {
          "internalType": "address",
          "name": "_mechanicRegistry",
          "type": "address"
        }
      ],
      "stateMutability": "view",
      "type": "function"
    },
    {
      "inputs": [
        {
          "internalType": "uint256",
          "name": "_anchorTradeId",
          "type": "uint256"
        },
        {
          "internalType": "uint256[]",
          "name": "_toMergeIds",
          "type": "uint256[]"
        }
      ],
      "name": "mergePendingTrades",
      "outputs": [],
      "stateMutability": "nonpayable",
      "type": "function"
    },
    {
      "inputs": [],
      "name": "otcPool",
      "outputs": [
        {
          "internalType": "address",
          "name": "",
          "type": "address"
        }
      ],
      "stateMutability": "view",
      "type": "function"
    },
    {
      "inputs": [
        {
          "internalType": "uint256",
          "name": "",
          "type": "uint256"
        }
      ],
      "name": "pendingTradesById",
      "outputs": [
        {
          "internalType": "uint256",
          "name": "_id",
          "type": "uint256"
        },
        {
          "internalType": "address",
          "name": "_strategy",
          "type": "address"
        },
        {
          "internalType": "address",
          "name": "_tokenIn",
          "type": "address"
        },
        {
          "internalType": "address",
          "name": "_tokenOut",
          "type": "address"
        },
        {
          "internalType": "uint256",
          "name": "_amountIn",
          "type": "uint256"
        },
        {
          "internalType": "uint256",
          "name": "_deadline",
          "type": "uint256"
        }
      ],
      "stateMutability": "view",
      "type": "function"
    },
    {
      "inputs": [
        {
          "internalType": "address",
          "name": "_strategy",
          "type": "address"
        }
      ],
      "name": "pendingTradesIds",
      "outputs": [
        {
          "internalType": "uint256[]",
          "name": "_pendingIds",
          "type": "uint256[]"
        }
      ],
      "stateMutability": "view",
      "type": "function"
    },
    {
      "inputs": [],
      "name": "pendingTradesIds",
      "outputs": [
        {
          "internalType": "uint256[]",
          "name": "_pendingIds",
          "type": "uint256[]"
        }
      ],
      "stateMutability": "view",
      "type": "function"
    },
    {
      "inputs": [
        {
          "internalType": "address[]",
          "name": "__swappers",
          "type": "address[]"
        }
      ],
      "name": "removeSwappers",
      "outputs": [],
      "stateMutability": "nonpayable",
      "type": "function"
    },
    {
      "inputs": [
        {
          "internalType": "bytes32",
          "name": "role",
          "type": "bytes32"
        },
        {
          "internalType": "address",
          "name": "account",
          "type": "address"
        }
      ],
      "name": "renounceRole",
      "outputs": [],
      "stateMutability": "nonpayable",
      "type": "function"
    },
    {
      "inputs": [
        {
          "internalType": "bytes32",
          "name": "role",
          "type": "bytes32"
        },
        {
          "internalType": "address",
          "name": "account",
          "type": "address"
        }
      ],
      "name": "revokeRole",
      "outputs": [],
      "stateMutability": "nonpayable",
      "type": "function"
    },
    {
      "inputs": [
        {
          "internalType": "address",
          "name": "_to",
          "type": "address"
        },
        {
          "internalType": "address",
          "name": "_token",
          "type": "address"
        },
        {
          "internalType": "uint256",
          "name": "_amount",
          "type": "uint256"
        }
      ],
      "name": "sendDust",
      "outputs": [],
      "stateMutability": "nonpayable",
      "type": "function"
    },
    {
      "inputs": [
        {
          "internalType": "address",
          "name": "_mechanicsRegistry",
          "type": "address"
        }
      ],
      "name": "setMechanicsRegistry",
      "outputs": [],
      "stateMutability": "nonpayable",
      "type": "function"
    },
    {
      "inputs": [
        {
          "internalType": "address",
          "name": "_otcPool",
          "type": "address"
        }
      ],
      "name": "setOTCPool",
      "outputs": [],
      "stateMutability": "nonpayable",
      "type": "function"
    },
    {
      "inputs": [
        {
          "internalType": "address",
          "name": "_strategy",
          "type": "address"
        },
        {
          "internalType": "bytes1",
          "name": "_permissions",
          "type": "bytes1"
        }
      ],
      "name": "setStrategyPermissions",
      "outputs": [],
      "stateMutability": "nonpayable",
      "type": "function"
    },
    {
      "inputs": [
        {
          "internalType": "address",
          "name": "_strategy",
          "type": "address"
        },
        {
          "internalType": "address",
          "name": "_swapper",
          "type": "address"
        }
      ],
      "name": "setStrategySyncSwapper",
      "outputs": [],
      "stateMutability": "nonpayable",
      "type": "function"
    },
    {
      "inputs": [
        {
          "internalType": "address",
          "name": "",
          "type": "address"
        }
      ],
      "name": "strategyPermissions",
      "outputs": [
        {
          "internalType": "bytes1",
          "name": "",
          "type": "bytes1"
        }
      ],
      "stateMutability": "view",
      "type": "function"
    },
    {
      "inputs": [
        {
          "internalType": "address",
          "name": "",
          "type": "address"
        }
      ],
      "name": "strategySyncSwapper",
      "outputs": [
        {
          "internalType": "address",
          "name": "",
          "type": "address"
        }
      ],
      "stateMutability": "view",
      "type": "function"
    },
    {
      "inputs": [
        {
          "internalType": "bytes4",
          "name": "interfaceId",
          "type": "bytes4"
        }
      ],
      "name": "supportsInterface",
      "outputs": [
        {
          "internalType": "bool",
          "name": "",
          "type": "bool"
        }
      ],
      "stateMutability": "view",
      "type": "function"
    },
    {
      "inputs": [
        {
          "internalType": "address",
          "name": "_swapper",
          "type": "address"
        }
      ],
      "name": "swapperStrategies",
      "outputs": [
        {
          "internalType": "address[]",
          "name": "_strategies",
          "type": "address[]"
        }
      ],
      "stateMutability": "view",
      "type": "function"
    },
    {
      "inputs": [],
      "name": "swappers",
      "outputs": [
        {
          "internalType": "address[]",
          "name": "_swappersList",
          "type": "address[]"
        }
      ],
      "stateMutability": "view",
      "type": "function"
    }
  ],
  "transactionHash": "0xa36d448ba92fcd86a815ac59382202b0c84d124314fcffd1bfa1b9b3341131ef",
  "args": [
    "0x2C01B4AD51a67E2d8F02208F54dF9aC4c0B778B6",
    "0x2C01B4AD51a67E2d8F02208F54dF9aC4c0B778B6",
    "0x2C01B4AD51a67E2d8F02208F54dF9aC4c0B778B6",
    "0x2C01B4AD51a67E2d8F02208F54dF9aC4c0B778B6",
    "0x2C01B4AD51a67E2d8F02208F54dF9aC4c0B778B6",
    "0x2C01B4AD51a67E2d8F02208F54dF9aC4c0B778B6",
    "0xe8d5a85758fe98f7dce251cad552691d49b499bb"
  ],
  "solcInputHash": "c30a427c16fefc461e1166069684705e",
  "bytecode": "0x608060405260016007553480156200001657600080fd5b5060405162003a0c38038062003a0c833981016040819052620000399162000417565b81818086868a8a8d6001600160a01b038116620000695760405163d92e233d60e01b815260040160405180910390fd5b62000084600080516020620039ec83398151915280620002ff565b6200009f600080516020620039ec833981519152826200034a565b506001600160a01b0382161580620000be57506001600160a01b038116155b15620000dd5760405163d92e233d60e01b815260040160405180910390fd5b620001076000805160206200396c833981519152600080516020620039ec833981519152620002ff565b620001427fe39dc63caee7a15eb0ffb77a826d10c23d40b5f7182b000737ab5c078838b911600080516020620039ec833981519152620002ff565b6200015d6000805160206200396c833981519152836200034a565b620001897fe39dc63caee7a15eb0ffb77a826d10c23d40b5f7182b000737ab5c078838b911826200034a565b50506001600160a01b0382161580620001a957506001600160a01b038116155b15620001c85760405163d92e233d60e01b815260040160405180910390fd5b620002037f49e347583a7b9e7f325e8963ee1f94127eba81e401796874b5a22f7c8f9d45f7600080516020620039ac833981519152620002ff565b6200022d600080516020620039ac833981519152600080516020620039ec833981519152620002ff565b62000248600080516020620039ac833981519152836200034a565b62000272600080516020620039cc833981519152600080516020620039ec833981519152620002ff565b6200028d600080516020620039cc833981519152826200034a565b5050600c80546001600160a01b0319166001600160a01b03831617905550620002d56000805160206200398c833981519152600080516020620039ec833981519152620002ff565b620002f06000805160206200398c833981519152836200034a565b505050505050505050620004ac565b600082815260208190526040808220600101805490849055905190918391839186917fbd79b86ffe0ab8e8776151514217cd7cacd52c909f66475c3af44e129f0b00ff9190a4505050565b6200035682826200035a565b5050565b6000828152602081815260408083206001600160a01b038516845290915290205460ff1662000356576000828152602081815260408083206001600160a01b03851684529091529020805460ff19166001179055620003b63390565b6001600160a01b0316816001600160a01b0316837f2f8788117e7eff1d82e926ec794901d17c78024a50270940304540a733656f0d60405160405180910390a45050565b80516001600160a01b03811681146200041257600080fd5b919050565b600080600080600080600060e0888a0312156200043357600080fd5b6200043e88620003fa565b96506200044e60208901620003fa565b95506200045e60408901620003fa565b94506200046e60608901620003fa565b93506200047e60808901620003fa565b92506200048e60a08901620003fa565b91506200049e60c08901620003fa565b905092959891949750929550565b6134b080620004bc6000396000f3fe608060405234801561001057600080fd5b50600436106102535760003560e01c80639f87641d11610146578063ccf61a41116100c3578063e0b9511311610087578063e0b9511314610645578063e454a5ed14610658578063ef47da6d1461066d578063f48221a314610680578063f7bd381f14610693578063fdd619e0146106a657600080fd5b8063ccf61a41146105a7578063d547741f146105d0578063d5c44c69146105e3578063dbab687a146105f6578063e0b1bba71461063257600080fd5b8063b64230ba1161010a578063b64230ba1461053f578063bf81bf4314610552578063c0137f7a14610565578063c32e4f8d14610578578063cbf8e6c41461059f57600080fd5b80639f87641d146104ee578063a217fddf14610501578063a2c6f17414610509578063a63513d814610511578063a734f06e1461052457600080fd5b80634a2c1bab116101d457806365834acc1161019857806365834acc1461047b578063687020d81461048e5780638f9745f2146104b5578063907ab008146104c857806391d14854146104db57600080fd5b80634a2c1bab146103735780634d1dd98f1461038657806350425491146103ad5780635877e98e146103cd57806359cd24241461045b57600080fd5b8063248a9ca31161021b578063248a9ca3146103045780632db8c129146103275780632f2ff15d1461033a57806336568abe1461034d57806344c028fe1461036057600080fd5b806301ffc9a714610258578063057535b01461028057806306b70639146102b55780631078f388146102ca578063185025ef146102ef575b600080fd5b61026b6102663660046129cc565b6106cd565b60405190151581526020015b60405180910390f35b6102a77ff97fb9ac61687d33e6f167fb66bd0dbc2240a42d8369c39aadb26ea8ce05b5fe81565b604051908152602001610277565b6102c86102c3366004612a42565b610704565b005b600c546001600160a01b03165b6040516001600160a01b039091168152602001610277565b6102a760008051602061343b83398151915281565b6102a7610312366004612a8e565b60009081526020819052604090206001015490565b6102c8610335366004612acf565b610b72565b6102c8610348366004612b10565b610b9c565b6102c861035b366004612b10565b610bc7565b6102a761036e366004612b82565b610c45565b6102c8610381366004612c02565b610e8b565b6102a77fe39dc63caee7a15eb0ffb77a826d10c23d40b5f7182b000737ab5c078838b91181565b6103c06103bb366004612cc7565b610f8b565b6040516102779190612ce4565b61041e6103db366004612a8e565b60086020526000908152604090208054600182015460028301546003840154600485015460059095015493946001600160a01b0393841694928416939091169186565b604080519687526001600160a01b0395861660208801529385169386019390935292166060840152608083019190915260a082015260c001610277565b61046e610469366004612cc7565b610faf565b6040516102779190612d31565b61026b610489366004612cc7565b610fd3565b6102a77f038c8d5a0695aa8e4bf7e2d14cb85443db816cf8bdf8985d9f1a65519aeb6cd981565b6102c86104c3366004612cc7565b611051565b6102c86104d6366004612c02565b6110df565b61026b6104e9366004612b10565b6111ed565b6102c86104fc366004612d69565b611216565b6102a7600081565b61046e61139d565b6001546102d7906001600160a01b031681565b6102d773eeeeeeeeeeeeeeeeeeeeeeeeeeeeeeeeeeeeeeee81565b61026b61054d366004612cc7565b6113ae565b6102a7610560366004612a8e565b6113bb565b6102c8610573366004612db5565b611548565b6102a77f0c98cf5b298d76683bff7ac7eb2544a1c5413c08c055cad5077796993f1b71e581565b6103c06117a8565b6102d76105b5366004612cc7565b6005602052600090815260409020546001600160a01b031681565b6102c86105de366004612b10565b6117b4565b6102a76105f1366004612de7565b6117da565b610619610604366004612cc7565b60066020526000908152604090205460f81b81565b6040516001600160f81b03199091168152602001610277565b6102c8610640366004612e2d565b6119d3565b6102c8610653366004612e6f565b611b18565b6102a760008051602061345b83398151915281565b6102c861067b366004612cc7565b611bcb565b6102a761068e366004612eaa565b611c03565b6102c86106a1366004612f26565b611dad565b6102a77f1ed19b7d0b1c0348ffe4846e5ac48d95c752b9576e5f8791436d013fb3e84b5c81565b60006001600160e01b03198216637965db0b60e01b14806106fe57506301ffc9a760e01b6001600160e01b03198316145b92915050565b600c54604051631960d2b360e21b81523360048201526001600160a01b03909116906365834acc9060240160206040518083038186803b15801561074757600080fd5b505afa15801561075b573d6000803e3d6000fd5b505050506040513d601f19601f8201168201806040525081019061077f9190612f54565b6107a45760405162461bcd60e51b815260040161079b90612f76565b60405180910390fd5b806107c2576040516314cee7cd60e11b815260040160405180910390fd5b600060086000858560008181106107db576107db612fad565b602090810292909201358352508101919091526040016000908120600201546001600160a01b031691506008818686828161081857610818612fad565b90506020020135815260200190815260200160002060030160009054906101000a90046001600160a01b031690506000826001600160a01b031663313ce5676040518163ffffffff1660e01b815260040160206040518083038186803b15801561088157600080fd5b505afa158015610895573d6000803e3d6000fd5b505050506040513d601f19601f820116820180604052508101906108b99190612fc3565b6108c490600a6130e0565b905060005b85811015610b2e576000600860008989858181106108e9576108e9612fad565b905060200201358152602001908152602001600020905060008211801561093a575060028101546001600160a01b03868116911614158061093a575060038101546001600160a01b03858116911614155b156109585760405163d69b537960e01b815260040160405180910390fd5b806005015442111561097d5760405163011b279960e71b815260040160405180910390fd5b60018101546001600160a01b031660009081526006602052604090205460f81b600160f81b908116146109c35760405163ea8e4eb560e01b815260040160405180910390fd5b6000838783600401546109d691906130ef565b6109e0919061310e565b60018381015490546040805163030d028960e21b81529051939450610a88936001600160a01b039384169390921691630c340a2491600480820192602092909190829003018186803b158015610a3557600080fd5b505afa158015610a49573d6000803e3d6000fd5b505050506040513d601f19601f82011682018060405250810190610a6d9190613130565b600485015460028601546001600160a01b0316929190611fb0565b60018054600384015491840154604051638033d68760e01b81526001600160a01b039384166004820152602481018590529083166044820152911690638033d68790606401600060405180830381600087803b158015610ae757600080fd5b505af1158015610afb573d6000803e3d6000fd5b5050505060018201548254610b19916001600160a01b03169061201b565b50508080610b269061314d565b9150506108c9565b507f0210feaf40876b7bc453fe389be6733e7d450692bf07adab2d3c11980f94dcd6868686604051610b629392919061319e565b60405180910390a1505050505050565b60008051602061345b833981519152610b8b8133612093565b610b968484846120f7565b50505050565b600082815260208190526040902060010154610bb88133612093565b610bc28383612299565b505050565b6001600160a01b0381163314610c375760405162461bcd60e51b815260206004820152602f60248201527f416363657373436f6e74726f6c3a2063616e206f6e6c792072656e6f756e636560448201526e103937b632b9903337b91039b2b63360891b606482015260840161079b565b610c41828261231d565b5050565b600c54604051631960d2b360e21b81523360048201526000916001600160a01b0316906365834acc9060240160206040518083038186803b158015610c8957600080fd5b505afa158015610c9d573d6000803e3d6000fd5b505050506040513d601f19601f82011682018060405250810190610cc19190612f54565b610cdd5760405162461bcd60e51b815260040161079b90612f76565b610ce8600987612382565b610d055760405163d69b537960e01b815260040160405180910390fd5b60008681526008602052604090206005810154421115610d385760405163011b279960e71b815260040160405180910390fd5b610d4360028761239d565b610d60576040516364a7bd4d60e11b815260040160405180910390fd5b600181015460048201546002830154610d89926001600160a01b03918216929116908990611fb0565b60018101546002820154600383015460048085015460405163a5d4096b60e01b81526001600160a01b038c81169663a5d4096b96610dda96918316959083169492909116928d918d918d91016131eb565b602060405180830381600087803b158015610df457600080fd5b505af1158015610e08573d6000803e3d6000fd5b505050506040513d601f19601f82011682018060405250810190610e2c919061323b565b6001820154909250610e47906001600160a01b03168861201b565b867ff3b176b50ba6ec4473f418ce17c562a616f7715b23a6bcea8e41d78621f56b3483604051610e7991815260200190565b60405180910390a25095945050505050565b7f038c8d5a0695aa8e4bf7e2d14cb85443db816cf8bdf8985d9f1a65519aeb6cd9610eb68133612093565b60005b8251811015610f4f5760006001600160a01b0316838281518110610edf57610edf612fad565b60200260200101516001600160a01b03161415610f0f5760405163d92e233d60e01b815260040160405180910390fd5b610f3c838281518110610f2457610f24612fad565b602002602001015160026123bf90919063ffffffff16565b5080610f478161314d565b915050610eb9565b507f5d1fd21744530253cbd801d1685bf9e6f5d8a13044c3a7df5628b4c60d7d9e3b82604051610f7f9190612ce4565b60405180910390a15050565b6001600160a01b03811660009081526004602052604090206060906106fe906123d4565b6001600160a01b0381166000908152600b602052604090206060906106fe906123d4565b600c54604051631960d2b360e21b81526001600160a01b03838116600483015260009216906365834acc9060240160206040518083038186803b15801561101957600080fd5b505afa15801561102d573d6000803e3d6000fd5b505050506040513d601f19601f820116820180604052508101906106fe9190612f54565b60008051602061345b83398151915261106a8133612093565b6001600160a01b0382166110915760405163d92e233d60e01b815260040160405180910390fd5b600180546001600160a01b0319166001600160a01b0384169081179091556040519081527fd820b9bd66f5f69e0ee876fe38d41d612586cb5dfdab23721469fc9c6dd5950d90602001610f7f565b7f038c8d5a0695aa8e4bf7e2d14cb85443db816cf8bdf8985d9f1a65519aeb6cd961110a8133612093565b60005b82518110156111bd57600061115e6004600086858151811061113157611131612fad565b60200260200101516001600160a01b03166001600160a01b031681526020019081526020016000206123e1565b111561117d576040516361c45a0f60e01b815260040160405180910390fd5b6111aa83828151811061119257611192612fad565b602002602001015160026123eb90919063ffffffff16565b50806111b58161314d565b91505061110d565b507f4290941fe8d89409196966ddfc719772595cef6116ed6bde0bcc72e1182b52b582604051610f7f9190612ce4565b6000918252602082815260408084206001600160a01b0393909316845291905290205460ff1690565b7f1ed19b7d0b1c0348ffe4846e5ac48d95c752b9576e5f8791436d013fb3e84b5c6112418133612093565b6000848152600860205260408120905b8381101561135b5760006008600087878581811061127157611271612fad565b90506020020135815260200190815260200160002090508060000154836000015414806112b35750600180820154908401546001600160a01b03908116911614155b806112d35750600280820154908401546001600160a01b03908116911614155b806112f35750600380820154908401546001600160a01b03908116911614155b156113115760405163d69b537960e01b815260040160405180910390fd5b80600401548360040160008282546113299190613254565b909155505060018101548154611348916001600160a01b03169061201b565b50806113538161314d565b915050611251565b50847fbba31c5a03767b9eba75f83badce7bc719848c62b42334ab0984c13b96c66bbe858560405161138e92919061326c565b60405180910390a25050505050565b60606113a960096123d4565b905090565b60006106fe60028361239d565b600c54604051631960d2b360e21b81523360048201526000916001600160a01b0316906365834acc9060240160206040518083038186803b1580156113ff57600080fd5b505afa158015611413573d6000803e3d6000fd5b505050506040513d601f19601f820116820180604052508101906114379190612f54565b6114535760405162461bcd60e51b815260040161079b90612f76565b61145e600983612382565b61147b5760405163d69b537960e01b815260040160405180910390fd5b600082815260086020526040902060058101544210156114ae5760405163dae7dbed60e01b815260040160405180910390fd5b6004810154600182015460028301549193506114d8916001600160a01b0390811691163085611fb0565b6001810154600482015460028301546114ff926001600160a01b0391821692911690612400565b6001810154611517906001600160a01b03168461201b565b60405183907f9e52c476c07e14b40a7ee505cae05543e63c4c2d0c69323803c1fe0b4dd23b8a90600090a250919050565b7ff97fb9ac61687d33e6f167fb66bd0dbc2240a42d8369c39aadb26ea8ce05b5fe6115738133612093565b6000858152600860205260408082208683529120600381015460028301546001600160a01b0390811691161415806115c05750600281015460038301546001600160a01b03908116911614155b156115de5760405163d69b537960e01b815260040160405180910390fd5b81600501544211806115f35750806005015442115b156116115760405163011b279960e71b815260040160405180910390fd5b60018201546001600160a01b031660009081526006602052604090205460f81b600160f91b90811614158061166c575060018101546001600160a01b031660009081526006602052604090205460f81b600160f91b90811614155b1561168a5760405163ea8e4eb560e01b815260040160405180910390fd5b6001808301549082015460028401546116b4926001600160a01b0391821692908216911688611fb0565b6001808201549083015460028301546116de926001600160a01b0391821692908216911687611fb0565b8160040154851461170857848260040160008282546116fd9190613280565b909155506117209050565b6001820154611720906001600160a01b03168861201b565b8060040154841461174a578381600401600082825461173f9190613280565b909155506117629050565b6001810154611762906001600160a01b03168761201b565b6040805186815260208101869052879189917fe5d287a20ff8c99c44a2f83dd58978ff9b7555963447c92435c01981a84cb3b0910160405180910390a350505050505050565b60606113a960026123d4565b6000828152602081905260409020600101546117d08133612093565b610bc2838361231d565b600060008051602061343b8339815191526117f58133612093565b6001600160a01b038616158061181257506001600160a01b038516155b156118305760405163d92e233d60e01b815260040160405180910390fd5b8361184e57604051631f2a200560e01b815260040160405180910390fd5b42831161186e57604051631da7447960e21b815260040160405180910390fd5b6007546040805160c0810182528281523360208083018281526001600160a01b038c81168587019081528c821660608701908152608087018d815260a088018d815260008b8152600888528a81208a5180825597516001820180546001600160a01b0319908116928a169290921790559551600282018054881691891691909117905593516003850180549096169616959095179093555160048201559051600590910155928352600b9091529290209294509161192b91612430565b50805161193a90600990612430565b5060016007600082825461194e9190613254565b9091555050805160208083015160408085015160608087015160808089015160a0808b015187516001600160a01b03998a16815296891699870199909952969092168486015291830152810193909352517f0a369ed6c60e8874ec811770d811145786706c5dd029e4654527e48656bb6eaa9281900390910190a25050949350505050565b60008051602061343b8339815191526119ec8133612093565b60005b82811015611acf57611a23848483818110611a0c57611a0c612fad565b90506020020135600961238290919063ffffffff16565b611a405760405163d69b537960e01b815260040160405180910390fd5b3360086000868685818110611a5757611a57612fad565b60209081029290920135835250810191909152604001600020600101546001600160a01b031614611a9b5760405163ea8e4eb560e01b815260040160405180910390fd5b611abd33858584818110611ab157611ab1612fad565b9050602002013561201b565b80611ac78161314d565b9150506119ef565b50336001600160a01b03167fbc02525bfba972df6ef3d6d34e6f4773de0e098177c254a62a4926ec94fdaea68484604051611b0b92919061326c565b60405180910390a2505050565b7fe39dc63caee7a15eb0ffb77a826d10c23d40b5f7182b000737ab5c078838b911611b438133612093565b6001600160a01b038316611b6a5760405163d92e233d60e01b815260040160405180910390fd5b6001600160a01b038316600081815260066020908152604091829020805460ff191660f887901c17905590516001600160f81b0319851681527f3c0408280ff44f7512ae2e74ad6e1f6c56d3de609831a70405ea1b97adb768119101611b0b565b60008051602061345b833981519152611be48133612093565b600c80546001600160a01b0319166001600160a01b0384161790555050565b600060008051602061343b833981519152611c1e8133612093565b336000908152600560205260409020546001600160a01b039081169089161580611c4f57506001600160a01b038816155b15611c6d5760405163d92e233d60e01b815260040160405180910390fd5b86611c8b57604051631f2a200560e01b815260040160405180910390fd5b85611ca957604051635380c59d60e01b815260040160405180910390fd5b611cbe6001600160a01b038a1633838a611fb0565b60405163a5d4096b60e01b81526001600160a01b0382169063a5d4096b90611cf69033908d908d908d908d908d908d906004016131eb565b602060405180830381600087803b158015611d1057600080fd5b505af1158015611d24573d6000803e3d6000fd5b505050506040513d601f19601f82011682018060405250810190611d48919061323b565b9250806001600160a01b0316336001600160a01b03167f1d816b1b1d67ea42ff2f6dae0a85f237a27e76afccb32ba25e4175330f3703e18b8b8b8b8b8b8b604051611d999796959493929190613297565b60405180910390a350509695505050505050565b7fe39dc63caee7a15eb0ffb77a826d10c23d40b5f7182b000737ab5c078838b911611dd88133612093565b6001600160a01b0383161580611df557506001600160a01b038216155b15611e135760405163d92e233d60e01b815260040160405180910390fd5b6001826001600160a01b031663cd985af06040518163ffffffff1660e01b815260040160206040518083038186803b158015611e4e57600080fd5b505afa158015611e62573d6000803e3d6000fd5b505050506040513d601f19601f82011682018060405250810190611e8691906132fc565b6001811115611e9757611e976132e6565b14611eb557604051634b3d6f3360e11b815260040160405180910390fd5b611ec060028361239d565b611edd576040516364a7bd4d60e11b815260040160405180910390fd5b6001600160a01b038381166000908152600560205260409020541615611f30576001600160a01b0380841660009081526005602090815260408083205490931682526004905220611f2e90846123eb565b505b6001600160a01b03838116600090815260056020908152604080832080546001600160a01b03191694871694851790559282526004905220611f7290846123bf565b506040516001600160a01b0383811682528416907f09864ed308dfc2a9cc6804e3b86d38a1aaa4f7adec68be5562b9dd8feb9c1b0590602001611b0b565b6040516001600160a01b0380851660248301528316604482015260648101829052610b969085906323b872dd60e01b906084015b60408051601f198184030181529190526020810180516001600160e01b03166001600160e01b03199093169290921790915261243c565b6001600160a01b0382166000908152600b6020526040902061203d908261250e565b5061204960098261250e565b5060009081526008602052604081208181556001810180546001600160a01b0319908116909155600282018054821690556003820180549091169055600481018290556005015550565b61209d82826111ed565b610c41576120b5816001600160a01b0316601461251a565b6120c083602061251a565b6040516020016120d1929190613349565b60408051601f198184030181529082905262461bcd60e51b825261079b916004016133be565b6001600160a01b0383166121655760405162461bcd60e51b815260206004820152602f60248201527f636f6c6c65637461626c652d647573742f63616e742d73656e642d647573742d60448201526e746f2d7a65726f2d6164647265737360881b606482015260840161079b565b612170600d8361239d565b156121d45760405162461bcd60e51b815260206004820152602e60248201527f636f6c6c65637461626c652d647573742f746f6b656e2d69732d706172742d6f60448201526d198b5d1a194b5c1c9bdd1bd8dbdb60921b606482015260840161079b565b6001600160a01b03821673eeeeeeeeeeeeeeeeeeeeeeeeeeeeeeeeeeeeeeee1415612235576040516001600160a01b0384169082156108fc029083906000818181858888f1935050505015801561222f573d6000803e3d6000fd5b50612249565b6122496001600160a01b0383168483612400565b604080516001600160a01b038086168252841660208201529081018290527f1e34c1aee8e83c2dcc14c21bb4bfeea7f46c0c998cb797ac7cc4d7a18f5c656b9060600160405180910390a1505050565b6122a382826111ed565b610c41576000828152602081815260408083206001600160a01b03851684529091529020805460ff191660011790556122d93390565b6001600160a01b0316816001600160a01b0316837f2f8788117e7eff1d82e926ec794901d17c78024a50270940304540a733656f0d60405160405180910390a45050565b61232782826111ed565b15610c41576000828152602081815260408083206001600160a01b0385168085529252808320805460ff1916905551339285917ff6391f5c32d9c69d2a47ea670b442974b53935d1edc7fd64eb21e047a839171b9190a45050565b600081815260018301602052604081205415155b9392505050565b6001600160a01b03811660009081526001830160205260408120541515612396565b6000612396836001600160a01b0384166126b6565b6060600061239683612705565b60006106fe825490565b6000612396836001600160a01b038416612761565b6040516001600160a01b038316602482015260448101829052610bc290849063a9059cbb60e01b90606401611fe4565b600061239683836126b6565b6000612491826040518060400160405280602081526020017f5361666545524332303a206c6f772d6c6576656c2063616c6c206661696c6564815250856001600160a01b03166128549092919063ffffffff16565b805190915015610bc257808060200190518101906124af9190612f54565b610bc25760405162461bcd60e51b815260206004820152602a60248201527f5361666545524332303a204552433230206f7065726174696f6e20646964206e6044820152691bdd081cdd58d8d9595960b21b606482015260840161079b565b60006123968383612761565b606060006125298360026130ef565b612534906002613254565b67ffffffffffffffff81111561254c5761254c612bec565b6040519080825280601f01601f191660200182016040528015612576576020820181803683370190505b509050600360fc1b8160008151811061259157612591612fad565b60200101906001600160f81b031916908160001a905350600f60fb1b816001815181106125c0576125c0612fad565b60200101906001600160f81b031916908160001a90535060006125e48460026130ef565b6125ef906001613254565b90505b6001811115612667576f181899199a1a9b1b9c1cb0b131b232b360811b85600f166010811061262357612623612fad565b1a60f81b82828151811061263957612639612fad565b60200101906001600160f81b031916908160001a90535060049490941c93612660816133f1565b90506125f2565b5083156123965760405162461bcd60e51b815260206004820181905260248201527f537472696e67733a20686578206c656e67746820696e73756666696369656e74604482015260640161079b565b60008181526001830160205260408120546126fd575081546001818101845560008481526020808220909301849055845484825282860190935260409020919091556106fe565b5060006106fe565b60608160000180548060200260200160405190810160405280929190818152602001828054801561275557602002820191906000526020600020905b815481526020019060010190808311612741575b50505050509050919050565b6000818152600183016020526040812054801561284a576000612785600183613280565b855490915060009061279990600190613280565b90508181146127fe5760008660000182815481106127b9576127b9612fad565b90600052602060002001549050808760000184815481106127dc576127dc612fad565b6000918252602080832090910192909255918252600188019052604090208390555b855486908061280f5761280f613408565b6001900381819060005260206000200160009055905585600101600086815260200190815260200160002060009055600193505050506106fe565b60009150506106fe565b6060612863848460008561286b565b949350505050565b6060824710156128cc5760405162461bcd60e51b815260206004820152602660248201527f416464726573733a20696e73756666696369656e742062616c616e636520666f6044820152651c8818d85b1b60d21b606482015260840161079b565b843b61291a5760405162461bcd60e51b815260206004820152601d60248201527f416464726573733a2063616c6c20746f206e6f6e2d636f6e7472616374000000604482015260640161079b565b600080866001600160a01b03168587604051612936919061341e565b60006040518083038185875af1925050503d8060008114612973576040519150601f19603f3d011682016040523d82523d6000602084013e612978565b606091505b5091509150612988828286612993565b979650505050505050565b606083156129a2575081612396565b8251156129b25782518084602001fd5b8160405162461bcd60e51b815260040161079b91906133be565b6000602082840312156129de57600080fd5b81356001600160e01b03198116811461239657600080fd5b60008083601f840112612a0857600080fd5b50813567ffffffffffffffff811115612a2057600080fd5b6020830191508360208260051b8501011115612a3b57600080fd5b9250929050565b600080600060408486031215612a5757600080fd5b833567ffffffffffffffff811115612a6e57600080fd5b612a7a868287016129f6565b909790965060209590950135949350505050565b600060208284031215612aa057600080fd5b5035919050565b6001600160a01b0381168114612abc57600080fd5b50565b8035612aca81612aa7565b919050565b600080600060608486031215612ae457600080fd5b8335612aef81612aa7565b92506020840135612aff81612aa7565b929592945050506040919091013590565b60008060408385031215612b2357600080fd5b823591506020830135612b3581612aa7565b809150509250929050565b60008083601f840112612b5257600080fd5b50813567ffffffffffffffff811115612b6a57600080fd5b602083019150836020828501011115612a3b57600080fd5b600080600080600060808688031215612b9a57600080fd5b853594506020860135612bac81612aa7565b935060408601359250606086013567ffffffffffffffff811115612bcf57600080fd5b612bdb88828901612b40565b969995985093965092949392505050565b634e487b7160e01b600052604160045260246000fd5b60006020808385031215612c1557600080fd5b823567ffffffffffffffff80821115612c2d57600080fd5b818501915085601f830112612c4157600080fd5b813581811115612c5357612c53612bec565b8060051b604051601f19603f83011681018181108582111715612c7857612c78612bec565b604052918252848201925083810185019188831115612c9657600080fd5b938501935b82851015612cbb57612cac85612abf565b84529385019392850192612c9b565b98975050505050505050565b600060208284031215612cd957600080fd5b813561239681612aa7565b6020808252825182820181905260009190848201906040850190845b81811015612d255783516001600160a01b031683529284019291840191600101612d00565b50909695505050505050565b6020808252825182820181905260009190848201906040850190845b81811015612d2557835183529284019291840191600101612d4d565b600080600060408486031215612d7e57600080fd5b83359250602084013567ffffffffffffffff811115612d9c57600080fd5b612da8868287016129f6565b9497909650939450505050565b60008060008060808587031215612dcb57600080fd5b5050823594602084013594506040840135936060013592509050565b60008060008060808587031215612dfd57600080fd5b8435612e0881612aa7565b93506020850135612e1881612aa7565b93969395505050506040820135916060013590565b60008060208385031215612e4057600080fd5b823567ffffffffffffffff811115612e5757600080fd5b612e63858286016129f6565b90969095509350505050565b60008060408385031215612e8257600080fd5b8235612e8d81612aa7565b915060208301356001600160f81b031981168114612b3557600080fd5b60008060008060008060a08789031215612ec357600080fd5b8635612ece81612aa7565b95506020870135612ede81612aa7565b94506040870135935060608701359250608087013567ffffffffffffffff811115612f0857600080fd5b612f1489828a01612b40565b979a9699509497509295939492505050565b60008060408385031215612f3957600080fd5b8235612f4481612aa7565b91506020830135612b3581612aa7565b600060208284031215612f6657600080fd5b8151801515811461239657600080fd5b60208082526017908201527f4d616368696e6572793a206e6f74206d656368616e6963000000000000000000604082015260600190565b634e487b7160e01b600052603260045260246000fd5b600060208284031215612fd557600080fd5b815160ff8116811461239657600080fd5b634e487b7160e01b600052601160045260246000fd5b600181815b8085111561303757816000190482111561301d5761301d612fe6565b8085161561302a57918102915b93841c9390800290613001565b509250929050565b60008261304e575060016106fe565b8161305b575060006106fe565b8160018114613071576002811461307b57613097565b60019150506106fe565b60ff84111561308c5761308c612fe6565b50506001821b6106fe565b5060208310610133831016604e8410600b84101617156130ba575081810a6106fe565b6130c48383612ffc565b80600019048211156130d8576130d8612fe6565b029392505050565b600061239660ff84168361303f565b600081600019048311821515161561310957613109612fe6565b500290565b60008261312b57634e487b7160e01b600052601260045260246000fd5b500490565b60006020828403121561314257600080fd5b815161239681612aa7565b600060001982141561316157613161612fe6565b5060010190565b81835260006001600160fb1b0383111561318157600080fd5b8260051b8083602087013760009401602001938452509192915050565b6040815260006131b2604083018587613168565b9050826020830152949350505050565b81835281816020850137506000828201602090810191909152601f909101601f19169091010190565b6001600160a01b038881168252878116602083015286166040820152606081018590526080810184905260c060a0820181905260009061322e90830184866131c2565b9998505050505050505050565b60006020828403121561324d57600080fd5b5051919050565b6000821982111561326757613267612fe6565b500190565b602081526000612863602083018486613168565b60008282101561329257613292612fe6565b500390565b6001600160a01b03888116825287166020820152604081018690526060810185905260c0608082018190526000906132d290830185876131c2565b90508260a083015298975050505050505050565b634e487b7160e01b600052602160045260246000fd5b60006020828403121561330e57600080fd5b81516002811061239657600080fd5b60005b83811015613338578181015183820152602001613320565b83811115610b965750506000910152565b7f416363657373436f6e74726f6c3a206163636f756e742000000000000000000081526000835161338181601785016020880161331d565b7001034b99036b4b9b9b4b733903937b6329607d1b60179184019182015283516133b281602884016020880161331d565b01602801949350505050565b60208152600082518060208401526133dd81604085016020870161331d565b601f01601f19169190910160400192915050565b60008161340057613400612fe6565b506000190190565b634e487b7160e01b600052603160045260246000fd5b6000825161343081846020870161331d565b919091019291505056fe49e347583a7b9e7f325e8963ee1f94127eba81e401796874b5a22f7c8f9d45f70b43cb2c88b4e8fc5d4ac1352ba889b22584df0c58c4b5b589731a1c9f6f29d3a264697066735822122067ad37a0493e4f76225dc501d644dd1ecd56e047cdbd050b43591c1e2d2bd9f564736f6c63430008090033038c8d5a0695aa8e4bf7e2d14cb85443db816cf8bdf8985d9f1a65519aeb6cd9f97fb9ac61687d33e6f167fb66bd0dbc2240a42d8369c39aadb26ea8ce05b5fe0c98cf5b298d76683bff7ac7eb2544a1c5413c08c055cad5077796993f1b71e51ed19b7d0b1c0348ffe4846e5ac48d95c752b9576e5f8791436d013fb3e84b5c0b43cb2c88b4e8fc5d4ac1352ba889b22584df0c58c4b5b589731a1c9f6f29d3",
  "devdoc": {
    "kind": "dev",
    "methods": {
      "getRoleAdmin(bytes32)": {
        "details": "Returns the admin role that controls `role`. See {grantRole} and {revokeRole}. To change a role's admin, use {_setRoleAdmin}."
      },
      "grantRole(bytes32,address)": {
        "details": "Grants `role` to `account`. If `account` had not been already granted `role`, emits a {RoleGranted} event. Requirements: - the caller must have ``role``'s admin role."
      },
      "hasRole(bytes32,address)": {
        "details": "Returns `true` if `account` has been granted `role`."
      },
      "renounceRole(bytes32,address)": {
        "details": "Revokes `role` from the calling account. Roles are often managed via {grantRole} and {revokeRole}: this function's purpose is to provide a mechanism for accounts to lose their privileges if they are compromised (such as when a trusted device is misplaced). If the calling account had been granted `role`, emits a {RoleRevoked} event. Requirements: - the caller must be `account`."
      },
      "revokeRole(bytes32,address)": {
        "details": "Revokes `role` from `account`. If `account` had been granted `role`, emits a {RoleRevoked} event. Requirements: - the caller must have ``role``'s admin role."
      },
      "supportsInterface(bytes4)": {
        "details": "See {IERC165-supportsInterface}."
      }
    },
    "version": 1
  },
  "userdoc": {
    "kind": "user",
    "methods": {},
    "version": 1
  },
  "storageLayout": {
    "storage": [
      {
        "astId": 24,
        "contract": "contracts/TradeFactory/TradeFactory.sol:TradeFactory",
        "label": "_roles",
        "offset": 0,
        "slot": "0",
        "type": "t_mapping(t_bytes32,t_struct(RoleData)19_storage)"
      },
      {
        "astId": 5225,
        "contract": "contracts/TradeFactory/TradeFactory.sol:TradeFactory",
        "label": "otcPool",
        "offset": 0,
        "slot": "1",
        "type": "t_address"
      },
      {
        "astId": 5228,
        "contract": "contracts/TradeFactory/TradeFactory.sol:TradeFactory",
        "label": "_swappers",
        "offset": 0,
        "slot": "2",
        "type": "t_struct(AddressSet)2210_storage"
      },
      {
        "astId": 5233,
        "contract": "contracts/TradeFactory/TradeFactory.sol:TradeFactory",
        "label": "_swapperStrategies",
        "offset": 0,
        "slot": "4",
        "type": "t_mapping(t_address,t_struct(AddressSet)2210_storage)"
      },
      {
        "astId": 5238,
        "contract": "contracts/TradeFactory/TradeFactory.sol:TradeFactory",
        "label": "strategySyncSwapper",
        "offset": 0,
        "slot": "5",
        "type": "t_mapping(t_address,t_address)"
      },
      {
        "astId": 5243,
        "contract": "contracts/TradeFactory/TradeFactory.sol:TradeFactory",
        "label": "strategyPermissions",
        "offset": 0,
        "slot": "6",
        "type": "t_mapping(t_address,t_bytes1)"
      },
      {
        "astId": 4696,
        "contract": "contracts/TradeFactory/TradeFactory.sol:TradeFactory",
        "label": "_tradeCounter",
        "offset": 0,
        "slot": "7",
        "type": "t_uint256"
      },
      {
        "astId": 4702,
        "contract": "contracts/TradeFactory/TradeFactory.sol:TradeFactory",
        "label": "pendingTradesById",
        "offset": 0,
        "slot": "8",
        "type": "t_mapping(t_uint256,t_struct(Trade)4568_storage)"
      },
      {
        "astId": 4705,
        "contract": "contracts/TradeFactory/TradeFactory.sol:TradeFactory",
        "label": "_pendingTradesIds",
        "offset": 0,
        "slot": "9",
        "type": "t_struct(UintSet)2367_storage"
      },
      {
        "astId": 4710,
        "contract": "contracts/TradeFactory/TradeFactory.sol:TradeFactory",
        "label": "_pendingTradesByOwner",
        "offset": 0,
        "slot": "11",
        "type": "t_mapping(t_address,t_struct(UintSet)2367_storage)"
      },
      {
        "astId": 3337,
        "contract": "contracts/TradeFactory/TradeFactory.sol:TradeFactory",
        "label": "_mechanicsRegistry",
        "offset": 0,
        "slot": "12",
        "type": "t_contract(IMechanicsRegistry)2990"
      },
      {
        "astId": 3086,
        "contract": "contracts/TradeFactory/TradeFactory.sol:TradeFactory",
        "label": "protocolTokens",
        "offset": 0,
        "slot": "13",
        "type": "t_struct(AddressSet)2210_storage"
      }
    ],
    "types": {
      "t_address": {
        "encoding": "inplace",
        "label": "address",
        "numberOfBytes": "20"
      },
      "t_array(t_bytes32)dyn_storage": {
        "base": "t_bytes32",
        "encoding": "dynamic_array",
        "label": "bytes32[]",
        "numberOfBytes": "32"
      },
      "t_bool": {
        "encoding": "inplace",
        "label": "bool",
        "numberOfBytes": "1"
      },
      "t_bytes1": {
        "encoding": "inplace",
        "label": "bytes1",
        "numberOfBytes": "1"
      },
      "t_bytes32": {
        "encoding": "inplace",
        "label": "bytes32",
        "numberOfBytes": "32"
      },
      "t_contract(IMechanicsRegistry)2990": {
        "encoding": "inplace",
        "label": "contract IMechanicsRegistry",
        "numberOfBytes": "20"
      },
      "t_mapping(t_address,t_address)": {
        "encoding": "mapping",
        "key": "t_address",
        "label": "mapping(address => address)",
        "numberOfBytes": "32",
        "value": "t_address"
      },
      "t_mapping(t_address,t_bool)": {
        "encoding": "mapping",
        "key": "t_address",
        "label": "mapping(address => bool)",
        "numberOfBytes": "32",
        "value": "t_bool"
      },
      "t_mapping(t_address,t_bytes1)": {
        "encoding": "mapping",
        "key": "t_address",
        "label": "mapping(address => bytes1)",
        "numberOfBytes": "32",
        "value": "t_bytes1"
      },
      "t_mapping(t_address,t_struct(AddressSet)2210_storage)": {
        "encoding": "mapping",
        "key": "t_address",
        "label": "mapping(address => struct EnumerableSet.AddressSet)",
        "numberOfBytes": "32",
        "value": "t_struct(AddressSet)2210_storage"
      },
      "t_mapping(t_address,t_struct(UintSet)2367_storage)": {
        "encoding": "mapping",
        "key": "t_address",
        "label": "mapping(address => struct EnumerableSet.UintSet)",
        "numberOfBytes": "32",
        "value": "t_struct(UintSet)2367_storage"
      },
      "t_mapping(t_bytes32,t_struct(RoleData)19_storage)": {
        "encoding": "mapping",
        "key": "t_bytes32",
        "label": "mapping(bytes32 => struct AccessControl.RoleData)",
        "numberOfBytes": "32",
        "value": "t_struct(RoleData)19_storage"
      },
      "t_mapping(t_bytes32,t_uint256)": {
        "encoding": "mapping",
        "key": "t_bytes32",
        "label": "mapping(bytes32 => uint256)",
        "numberOfBytes": "32",
        "value": "t_uint256"
      },
      "t_mapping(t_uint256,t_struct(Trade)4568_storage)": {
        "encoding": "mapping",
        "key": "t_uint256",
        "label": "mapping(uint256 => struct ITradeFactoryPositionsHandler.Trade)",
        "numberOfBytes": "32",
        "value": "t_struct(Trade)4568_storage"
      },
      "t_struct(AddressSet)2210_storage": {
        "encoding": "inplace",
        "label": "struct EnumerableSet.AddressSet",
        "members": [
          {
            "astId": 2209,
            "contract": "contracts/TradeFactory/TradeFactory.sol:TradeFactory",
            "label": "_inner",
            "offset": 0,
            "slot": "0",
            "type": "t_struct(Set)1909_storage"
          }
        ],
        "numberOfBytes": "64"
      },
      "t_struct(RoleData)19_storage": {
        "encoding": "inplace",
        "label": "struct AccessControl.RoleData",
        "members": [
          {
            "astId": 16,
            "contract": "contracts/TradeFactory/TradeFactory.sol:TradeFactory",
            "label": "members",
            "offset": 0,
            "slot": "0",
            "type": "t_mapping(t_address,t_bool)"
          },
          {
            "astId": 18,
            "contract": "contracts/TradeFactory/TradeFactory.sol:TradeFactory",
            "label": "adminRole",
            "offset": 0,
            "slot": "1",
            "type": "t_bytes32"
          }
        ],
        "numberOfBytes": "64"
      },
      "t_struct(Set)1909_storage": {
        "encoding": "inplace",
        "label": "struct EnumerableSet.Set",
        "members": [
          {
            "astId": 1904,
            "contract": "contracts/TradeFactory/TradeFactory.sol:TradeFactory",
            "label": "_values",
            "offset": 0,
            "slot": "0",
            "type": "t_array(t_bytes32)dyn_storage"
          },
          {
            "astId": 1908,
            "contract": "contracts/TradeFactory/TradeFactory.sol:TradeFactory",
            "label": "_indexes",
            "offset": 0,
            "slot": "1",
            "type": "t_mapping(t_bytes32,t_uint256)"
          }
        ],
        "numberOfBytes": "64"
      },
      "t_struct(Trade)4568_storage": {
        "encoding": "inplace",
        "label": "struct ITradeFactoryPositionsHandler.Trade",
        "members": [
          {
            "astId": 4557,
            "contract": "contracts/TradeFactory/TradeFactory.sol:TradeFactory",
            "label": "_id",
            "offset": 0,
            "slot": "0",
            "type": "t_uint256"
          },
          {
            "astId": 4559,
            "contract": "contracts/TradeFactory/TradeFactory.sol:TradeFactory",
            "label": "_strategy",
            "offset": 0,
            "slot": "1",
            "type": "t_address"
          },
          {
            "astId": 4561,
            "contract": "contracts/TradeFactory/TradeFactory.sol:TradeFactory",
            "label": "_tokenIn",
            "offset": 0,
            "slot": "2",
            "type": "t_address"
          },
          {
            "astId": 4563,
            "contract": "contracts/TradeFactory/TradeFactory.sol:TradeFactory",
            "label": "_tokenOut",
            "offset": 0,
            "slot": "3",
            "type": "t_address"
          },
          {
            "astId": 4565,
            "contract": "contracts/TradeFactory/TradeFactory.sol:TradeFactory",
            "label": "_amountIn",
            "offset": 0,
            "slot": "4",
            "type": "t_uint256"
          },
          {
            "astId": 4567,
            "contract": "contracts/TradeFactory/TradeFactory.sol:TradeFactory",
            "label": "_deadline",
            "offset": 0,
            "slot": "5",
            "type": "t_uint256"
          }
        ],
        "numberOfBytes": "192"
      },
      "t_struct(UintSet)2367_storage": {
        "encoding": "inplace",
        "label": "struct EnumerableSet.UintSet",
        "members": [
          {
            "astId": 2366,
            "contract": "contracts/TradeFactory/TradeFactory.sol:TradeFactory",
            "label": "_inner",
            "offset": 0,
            "slot": "0",
            "type": "t_struct(Set)1909_storage"
          }
        ],
        "numberOfBytes": "64"
      },
      "t_uint256": {
        "encoding": "inplace",
        "label": "uint256",
        "numberOfBytes": "32"
      }
    }
  }
}