{
  "address": "0xe72d641f09a48cce6997377d13b2Ac7029c642b2",
  "abi": [
    {
      "inputs": [
        {
          "internalType": "address",
          "name": "_mechanic",
          "type": "address"
        }
      ],
      "stateMutability": "nonpayable",
      "type": "constructor"
    },
    {
      "anonymous": false,
      "inputs": [
        {
          "indexed": false,
          "internalType": "address",
          "name": "_to",
          "type": "address"
        },
        {
          "indexed": false,
          "internalType": "address",
          "name": "token",
          "type": "address"
        },
        {
          "indexed": false,
          "internalType": "uint256",
          "name": "amount",
          "type": "uint256"
        }
      ],
      "name": "DustSent",
      "type": "event"
    },
    {
      "anonymous": false,
      "inputs": [],
      "name": "GovernorAccepted",
      "type": "event"
    },
    {
      "anonymous": false,
      "inputs": [
        {
          "indexed": false,
          "internalType": "address",
          "name": "_mechanic",
          "type": "address"
        }
      ],
      "name": "MechanicAdded",
      "type": "event"
    },
    {
      "anonymous": false,
      "inputs": [
        {
          "indexed": false,
          "internalType": "address",
          "name": "_mechanic",
          "type": "address"
        }
      ],
      "name": "MechanicRemoved",
      "type": "event"
    },
    {
      "anonymous": false,
      "inputs": [
        {
          "indexed": false,
          "internalType": "bool",
          "name": "_paused",
          "type": "bool"
        }
      ],
      "name": "Paused",
      "type": "event"
    },
    {
      "anonymous": false,
      "inputs": [
        {
          "indexed": false,
          "internalType": "address",
          "name": "pendingGovernor",
          "type": "address"
        }
      ],
      "name": "PendingGovernorSet",
      "type": "event"
    },
    {
      "inputs": [],
      "name": "ETH_ADDRESS",
      "outputs": [
        {
          "internalType": "address",
          "name": "",
          "type": "address"
        }
      ],
      "stateMutability": "view",
      "type": "function"
    },
    {
      "inputs": [],
      "name": "acceptGovernor",
      "outputs": [],
      "stateMutability": "nonpayable",
      "type": "function"
    },
    {
      "inputs": [
        {
          "internalType": "address",
          "name": "_mechanic",
          "type": "address"
        }
      ],
      "name": "addMechanic",
      "outputs": [],
      "stateMutability": "nonpayable",
      "type": "function"
    },
    {
      "inputs": [],
      "name": "governor",
      "outputs": [
        {
          "internalType": "address",
          "name": "",
          "type": "address"
        }
      ],
      "stateMutability": "view",
      "type": "function"
    },
    {
      "inputs": [
        {
          "internalType": "address",
          "name": "_account",
          "type": "address"
        }
      ],
      "name": "isGovernor",
      "outputs": [
        {
          "internalType": "bool",
          "name": "_isGovernor",
          "type": "bool"
        }
      ],
      "stateMutability": "view",
      "type": "function"
    },
    {
      "inputs": [
        {
          "internalType": "address",
          "name": "mechanic",
          "type": "address"
        }
      ],
      "name": "isMechanic",
      "outputs": [
        {
          "internalType": "bool",
          "name": "_isMechanic",
          "type": "bool"
        }
      ],
      "stateMutability": "view",
      "type": "function"
    },
    {
      "inputs": [],
      "name": "mechanics",
      "outputs": [
        {
          "internalType": "address[]",
          "name": "_mechanicsList",
          "type": "address[]"
        }
      ],
      "stateMutability": "view",
      "type": "function"
    },
    {
      "inputs": [
        {
          "internalType": "bool",
          "name": "_paused",
          "type": "bool"
        }
      ],
      "name": "pause",
      "outputs": [],
      "stateMutability": "nonpayable",
      "type": "function"
    },
    {
      "inputs": [],
      "name": "paused",
      "outputs": [
        {
          "internalType": "bool",
          "name": "",
          "type": "bool"
        }
      ],
      "stateMutability": "view",
      "type": "function"
    },
    {
      "inputs": [],
      "name": "pendingGovernor",
      "outputs": [
        {
          "internalType": "address",
          "name": "",
          "type": "address"
        }
      ],
      "stateMutability": "view",
      "type": "function"
    },
    {
      "inputs": [
        {
          "internalType": "address",
          "name": "_mechanic",
          "type": "address"
        }
      ],
      "name": "removeMechanic",
      "outputs": [],
      "stateMutability": "nonpayable",
      "type": "function"
    },
    {
      "inputs": [
        {
          "internalType": "address",
          "name": "_to",
          "type": "address"
        },
        {
          "internalType": "address",
          "name": "_token",
          "type": "address"
        },
        {
          "internalType": "uint256",
          "name": "_amount",
          "type": "uint256"
        }
      ],
      "name": "sendDust",
      "outputs": [],
      "stateMutability": "nonpayable",
      "type": "function"
    },
    {
      "inputs": [
        {
          "internalType": "address",
          "name": "_pendingGovernor",
          "type": "address"
        }
      ],
      "name": "setPendingGovernor",
      "outputs": [],
      "stateMutability": "nonpayable",
      "type": "function"
    }
  ],
  "transactionHash": "0x8a3cbd9e3bac209f5dbbc7b09c077b8fd8e5e40be3d25d9f269d4d836e59f789",
  "args": [
    "0x0000000031669Ab4083265E0850030fa8dEc8daf"
  ],
  "numDeployments": 1,
  "solcInputHash": "476fa919a096c1372feeb4c4bde3bf12",
  "bytecode": "0x60806040523480156200001157600080fd5b5060405162001374380380620013748339810160408190526200003491620002ae565b33806200009f5760405162461bcd60e51b815260206004820152602e60248201527f676f7665726e61626c652f676f7665726e6f722d73686f756c642d6e6f742d6260448201526d652d7a65726f2d6164647265737360901b60648201526084015b60405180910390fd5b600080546001600160a01b0319166001600160a01b0392909216919091179055620000ca81620000d1565b50620002e0565b6001600160a01b0381166200014a5760405162461bcd60e51b815260206004820152604360248201526000805160206200135483398151915260448201527f6d656368616e69632d73686f756c642d6e6f742d62652d7a65726f2d6164647260648201526265737360e81b608482015260a40162000096565b620001658160056200022460201b6200043a1790919060201c565b15620001c95760405162461bcd60e51b815260206004820152603660248201526000805160206200135483398151915260448201527f6d656368616e69632d616c72656164792d616464656400000000000000000000606482015260840162000096565b620001e48160056200024b60201b6200045f1790919060201c565b506040516001600160a01b03821681527fc8c07a63c733ffec55e94684c0f16ba32cab53da9aed430c73b6eaad959866489060200160405180910390a150565b6001600160a01b038116600090815260018301602052604081205415155b90505b92915050565b600062000242836001600160a01b0384166000818152600183016020526040812054620002a55750815460018181018455600084815260208082209093018490558454848252828601909352604090209190915562000245565b50600062000245565b600060208284031215620002c157600080fd5b81516001600160a01b0381168114620002d957600080fd5b9392505050565b61106480620002f06000396000f3fe608060405234801561001057600080fd5b50600436106100cf5760003560e01c8063a734f06e1161008c578063e3056a3411610066578063e3056a34146101b2578063e43581b8146101c5578063e58bb639146101e7578063f235757f146101ef57600080fd5b8063a734f06e14610171578063d82077631461018c578063da9402eb1461019f57600080fd5b806302329a29146100d45780630c340a24146100e95780632db8c1291461011957806338b427851461012c5780635c975abb1461014157806365834acc1461015e575b600080fd5b6100e76100e2366004610df4565b610202565b005b6000546100fc906001600160a01b031681565b6040516001600160a01b0390911681526020015b60405180910390f35b6100e7610127366004610e2d565b610241565b61013461027b565b6040516101109190610e69565b60045461014e9060ff1681565b6040519015158152602001610110565b61014e61016c366004610eb6565b61032a565b6100fc73eeeeeeeeeeeeeeeeeeeeeeeeeeeeeeeeeeeeeeee81565b6100e761019a366004610eb6565b61033d565b6100e76101ad366004610eb6565b610370565b6001546100fc906001600160a01b031681565b61014e6101d3366004610eb6565b6000546001600160a01b0391821691161490565b6100e76103a3565b6100e76101fd366004610eb6565b610407565b6000546001600160a01b031633146102355760405162461bcd60e51b815260040161022c90610ed1565b60405180910390fd5b61023e81610474565b50565b6000546001600160a01b0316331461026b5760405162461bcd60e51b815260040161022c90610ed1565b610276838383610501565b505050565b606061028760056106a3565b67ffffffffffffffff81111561029f5761029f610f08565b6040519080825280602002602001820160405280156102c8578160200160208202803683370190505b50905060005b6102d860056106a3565b811015610326576102ea6005826106ad565b8282815181106102fc576102fc610f1e565b6001600160a01b03909216602092830291909101909101528061031e81610f4a565b9150506102ce565b5090565b600061033760058361043a565b92915050565b6000546001600160a01b031633146103675760405162461bcd60e51b815260040161022c90610ed1565b61023e816106b9565b6000546001600160a01b0316331461039a5760405162461bcd60e51b815260040161022c90610ed1565b61023e816107fd565b6001546001600160a01b031633146103fd5760405162461bcd60e51b815260206004820181905260248201527f676f7665726e61626c652f6f6e6c792d70656e64696e672d676f7665726e6f72604482015260640161022c565b6104056108b7565b565b6000546001600160a01b031633146104315760405162461bcd60e51b815260040161022c90610ed1565b61023e81610907565b6001600160a01b038116600090815260018301602052604081205415155b9392505050565b6000610458836001600160a01b0384166109c9565b60045460ff16151581151514156104b95760405162461bcd60e51b81526020600482015260096024820152686e6f2d6368616e676560b81b604482015260640161022c565b6004805460ff19168215159081179091556040519081527f0e2fb031ee032dc02d8011dc50b816eb450cf856abd8261680dac74f72165bd2906020015b60405180910390a150565b6001600160a01b03831661056f5760405162461bcd60e51b815260206004820152602f60248201527f636f6c6c65637461626c652d647573742f63616e742d73656e642d647573742d60448201526e746f2d7a65726f2d6164647265737360881b606482015260840161022c565b61057a60028361043a565b156105de5760405162461bcd60e51b815260206004820152602e60248201527f636f6c6c65637461626c652d647573742f746f6b656e2d69732d706172742d6f60448201526d198b5d1a194b5c1c9bdd1bd8dbdb60921b606482015260840161022c565b6001600160a01b03821673eeeeeeeeeeeeeeeeeeeeeeeeeeeeeeeeeeeeeeee141561063f576040516001600160a01b0384169082156108fc029083906000818181858888f19350505050158015610639573d6000803e3d6000fd5b50610653565b6106536001600160a01b0383168483610a18565b604080516001600160a01b038086168252841660208201529081018290527f1e34c1aee8e83c2dcc14c21bb4bfeea7f46c0c998cb797ac7cc4d7a18f5c656b9060600160405180910390a1505050565b6000610337825490565b60006104588383610a6a565b6001600160a01b0381166107415760405162461bcd60e51b815260206004820152604360248201527f4d656368616e69637352656769737472793a3a6164642d6d656368616e69633a60448201527f6d656368616e69632d73686f756c642d6e6f742d62652d7a65726f2d6164647260648201526265737360e81b608482015260a40161022c565b61074c60058261043a565b156107b85760405162461bcd60e51b815260206004820152603660248201527f4d656368616e69637352656769737472793a3a6164642d6d656368616e69633a6044820152751b5958da185b9a58cb585b1c9958591e4b585919195960521b606482015260840161022c565b6107c360058261045f565b506040516001600160a01b03821681527fc8c07a63c733ffec55e94684c0f16ba32cab53da9aed430c73b6eaad95986648906020016104f6565b61080860058261043a565b6108725760405162461bcd60e51b815260206004820152603560248201527f4d656368616e69637352656769737472793a3a72656d6f76652d6d656368616e6044820152741a58ce9b5958da185b9a58cb5b9bdd0b599bdd5b99605a1b606482015260840161022c565b61087d600582610a94565b506040516001600160a01b03821681527f3bdc973d68e0d3506f595542d7aec755e9a35bd06b72483c6f508a9eb36a9d71906020016104f6565b60018054600080546001600160a01b03199081166001600160a01b0384161782559091169091556040517f7880f0fcc848e1f26e461654b100a69f8d0641e29aa29f6596c6afadbb36b5ea9190a1565b6001600160a01b03811661097b5760405162461bcd60e51b815260206004820152603560248201527f676f7665726e61626c652f70656e64696e672d676f7665726e6f722d73686f756044820152746c642d6e6f742d62652d7a65726f2d61646472657360581b606482015260840161022c565b600180546001600160a01b0319166001600160a01b0383169081179091556040519081527f56bddfa0cee9697cebddf9acd7f23dc6583663b05e007b877056d05017994def906020016104f6565b6000818152600183016020526040812054610a1057508154600181810184556000848152602080822090930184905584548482528286019093526040902091909155610337565b506000610337565b604080516001600160a01b038416602482015260448082018490528251808303909101815260649091019091526020810180516001600160e01b031663a9059cbb60e01b179052610276908490610aa9565b6000826000018281548110610a8157610a81610f1e565b9060005260206000200154905092915050565b6000610458836001600160a01b038416610b7b565b6000610afe826040518060400160405280602081526020017f5361666545524332303a206c6f772d6c6576656c2063616c6c206661696c6564815250856001600160a01b0316610c6e9092919063ffffffff16565b8051909150156102765780806020019051810190610b1c9190610f65565b6102765760405162461bcd60e51b815260206004820152602a60248201527f5361666545524332303a204552433230206f7065726174696f6e20646964206e6044820152691bdd081cdd58d8d9595960b21b606482015260840161022c565b60008181526001830160205260408120548015610c64576000610b9f600183610f82565b8554909150600090610bb390600190610f82565b9050818114610c18576000866000018281548110610bd357610bd3610f1e565b9060005260206000200154905080876000018481548110610bf657610bf6610f1e565b6000918252602080832090910192909255918252600188019052604090208390555b8554869080610c2957610c29610f99565b600190038181906000526020600020016000905590558560010160008681526020019081526020016000206000905560019350505050610337565b6000915050610337565b6060610c7d8484600085610c85565b949350505050565b606082471015610ce65760405162461bcd60e51b815260206004820152602660248201527f416464726573733a20696e73756666696369656e742062616c616e636520666f6044820152651c8818d85b1b60d21b606482015260840161022c565b843b610d345760405162461bcd60e51b815260206004820152601d60248201527f416464726573733a2063616c6c20746f206e6f6e2d636f6e7472616374000000604482015260640161022c565b600080866001600160a01b03168587604051610d509190610fdf565b60006040518083038185875af1925050503d8060008114610d8d576040519150601f19603f3d011682016040523d82523d6000602084013e610d92565b606091505b5091509150610da2828286610dad565b979650505050505050565b60608315610dbc575081610458565b825115610dcc5782518084602001fd5b8160405162461bcd60e51b815260040161022c9190610ffb565b801515811461023e57600080fd5b600060208284031215610e0657600080fd5b813561045881610de6565b80356001600160a01b0381168114610e2857600080fd5b919050565b600080600060608486031215610e4257600080fd5b610e4b84610e11565b9250610e5960208501610e11565b9150604084013590509250925092565b6020808252825182820181905260009190848201906040850190845b81811015610eaa5783516001600160a01b031683529284019291840191600101610e85565b50909695505050505050565b600060208284031215610ec857600080fd5b61045882610e11565b60208082526018908201527f676f7665726e61626c652f6f6e6c792d676f7665726e6f720000000000000000604082015260600190565b634e487b7160e01b600052604160045260246000fd5b634e487b7160e01b600052603260045260246000fd5b634e487b7160e01b600052601160045260246000fd5b6000600019821415610f5e57610f5e610f34565b5060010190565b600060208284031215610f7757600080fd5b815161045881610de6565b600082821015610f9457610f94610f34565b500390565b634e487b7160e01b600052603160045260246000fd5b60005b83811015610fca578181015183820152602001610fb2565b83811115610fd9576000848401525b50505050565b60008251610ff1818460208701610faf565b9190910192915050565b602081526000825180602084015261101a816040850160208701610faf565b601f01601f1916919091016040019291505056fea2646970667358221220fe10f259bd596c85a8a8f59805b4c560c9f3eca7855f9ee9e0cad732fefdddbb64736f6c634300080900334d656368616e69637352656769737472793a3a6164642d6d656368616e69633a",
  "devdoc": {
    "kind": "dev",
    "methods": {},
    "version": 1
  },
  "userdoc": {
    "kind": "user",
    "methods": {},
    "version": 1
  },
  "storageLayout": {
    "storage": [
      {
        "astId": 2509,
        "contract": "@yearn-mechanics/contract-utils/solidity/contracts/mechanics/MechanicsRegistry.sol:MechanicsRegistry",
        "label": "governor",
        "offset": 0,
        "slot": "0",
        "type": "t_address"
      },
      {
        "astId": 2512,
        "contract": "@yearn-mechanics/contract-utils/solidity/contracts/mechanics/MechanicsRegistry.sol:MechanicsRegistry",
        "label": "pendingGovernor",
        "offset": 0,
        "slot": "1",
        "type": "t_address"
      },
      {
        "astId": 2398,
        "contract": "@yearn-mechanics/contract-utils/solidity/contracts/mechanics/MechanicsRegistry.sol:MechanicsRegistry",
        "label": "protocolTokens",
        "offset": 0,
        "slot": "2",
        "type": "t_struct(AddressSet)1503_storage"
      },
      {
        "astId": 2840,
        "contract": "@yearn-mechanics/contract-utils/solidity/contracts/mechanics/MechanicsRegistry.sol:MechanicsRegistry",
        "label": "paused",
        "offset": 0,
        "slot": "4",
        "type": "t_bool"
      },
      {
        "astId": 2226,
        "contract": "@yearn-mechanics/contract-utils/solidity/contracts/mechanics/MechanicsRegistry.sol:MechanicsRegistry",
        "label": "_mechanics",
        "offset": 0,
        "slot": "5",
        "type": "t_struct(AddressSet)1503_storage"
      }
    ],
    "types": {
      "t_address": {
        "encoding": "inplace",
        "label": "address",
        "numberOfBytes": "20"
      },
      "t_array(t_bytes32)dyn_storage": {
        "base": "t_bytes32",
        "encoding": "dynamic_array",
        "label": "bytes32[]",
        "numberOfBytes": "32"
      },
      "t_bool": {
        "encoding": "inplace",
        "label": "bool",
        "numberOfBytes": "1"
      },
      "t_bytes32": {
        "encoding": "inplace",
        "label": "bytes32",
        "numberOfBytes": "32"
      },
      "t_mapping(t_bytes32,t_uint256)": {
        "encoding": "mapping",
        "key": "t_bytes32",
        "label": "mapping(bytes32 => uint256)",
        "numberOfBytes": "32",
        "value": "t_uint256"
      },
      "t_struct(AddressSet)1503_storage": {
        "encoding": "inplace",
        "label": "struct EnumerableSet.AddressSet",
        "members": [
          {
            "astId": 1502,
            "contract": "@yearn-mechanics/contract-utils/solidity/contracts/mechanics/MechanicsRegistry.sol:MechanicsRegistry",
            "label": "_inner",
            "offset": 0,
            "slot": "0",
            "type": "t_struct(Set)1202_storage"
          }
        ],
        "numberOfBytes": "64"
      },
      "t_struct(Set)1202_storage": {
        "encoding": "inplace",
        "label": "struct EnumerableSet.Set",
        "members": [
          {
            "astId": 1197,
            "contract": "@yearn-mechanics/contract-utils/solidity/contracts/mechanics/MechanicsRegistry.sol:MechanicsRegistry",
            "label": "_values",
            "offset": 0,
            "slot": "0",
            "type": "t_array(t_bytes32)dyn_storage"
          },
          {
            "astId": 1201,
            "contract": "@yearn-mechanics/contract-utils/solidity/contracts/mechanics/MechanicsRegistry.sol:MechanicsRegistry",
            "label": "_indexes",
            "offset": 0,
            "slot": "1",
            "type": "t_mapping(t_bytes32,t_uint256)"
          }
        ],
        "numberOfBytes": "64"
      },
      "t_uint256": {
        "encoding": "inplace",
        "label": "uint256",
        "numberOfBytes": "32"
      }
    }
  }
}