{
  "address": "0x292fd0E1De7648bA08691dBDe97313Cdcdc161cb",
  "abi": [
    {
      "inputs": [
        {
          "internalType": "address",
          "name": "_mechanicsRegistry",
          "type": "address"
        }
      ],
      "stateMutability": "nonpayable",
      "type": "constructor"
    },
    {
      "anonymous": false,
      "inputs": [
        {
          "indexed": false,
          "internalType": "address",
          "name": "_to",
          "type": "address"
        },
        {
          "indexed": false,
          "internalType": "address",
          "name": "token",
          "type": "address"
        },
        {
          "indexed": false,
          "internalType": "uint256",
          "name": "amount",
          "type": "uint256"
        }
      ],
      "name": "DustSent",
      "type": "event"
    },
    {
      "anonymous": false,
      "inputs": [],
      "name": "GovernorAccepted",
      "type": "event"
    },
    {
      "anonymous": false,
      "inputs": [
        {
          "indexed": false,
          "internalType": "address",
          "name": "_job",
          "type": "address"
        }
      ],
      "name": "JobAdded",
      "type": "event"
    },
    {
      "anonymous": false,
      "inputs": [
        {
          "indexed": false,
          "internalType": "address",
          "name": "_job",
          "type": "address"
        }
      ],
      "name": "JobRemoved",
      "type": "event"
    },
    {
      "anonymous": false,
      "inputs": [
        {
          "indexed": false,
          "internalType": "bool",
          "name": "_paused",
          "type": "bool"
        }
      ],
      "name": "Paused",
      "type": "event"
    },
    {
      "anonymous": false,
      "inputs": [
        {
          "indexed": false,
          "internalType": "address",
          "name": "pendingGovernor",
          "type": "address"
        }
      ],
      "name": "PendingGovernorSet",
      "type": "event"
    },
    {
      "inputs": [],
      "name": "ETH_ADDRESS",
      "outputs": [
        {
          "internalType": "address",
          "name": "",
          "type": "address"
        }
      ],
      "stateMutability": "view",
      "type": "function"
    },
    {
      "inputs": [],
      "name": "acceptGovernor",
      "outputs": [],
      "stateMutability": "nonpayable",
      "type": "function"
    },
    {
      "inputs": [
        {
          "internalType": "address",
          "name": "_job",
          "type": "address"
        }
      ],
      "name": "addJob",
      "outputs": [],
      "stateMutability": "nonpayable",
      "type": "function"
    },
    {
      "inputs": [
        {
          "internalType": "address[]",
          "name": "_jobs",
          "type": "address[]"
        }
      ],
      "name": "addJobs",
      "outputs": [],
      "stateMutability": "nonpayable",
      "type": "function"
    },
    {
      "inputs": [],
      "name": "governor",
      "outputs": [
        {
          "internalType": "address",
          "name": "",
          "type": "address"
        }
      ],
      "stateMutability": "view",
      "type": "function"
    },
    {
      "inputs": [
        {
          "internalType": "address",
          "name": "_strategy",
          "type": "address"
        }
      ],
      "name": "harvest",
      "outputs": [],
      "stateMutability": "nonpayable",
      "type": "function"
    },
    {
      "inputs": [
        {
          "internalType": "address",
          "name": "_account",
          "type": "address"
        }
      ],
      "name": "isGovernor",
      "outputs": [
        {
          "internalType": "bool",
          "name": "_isGovernor",
          "type": "bool"
        }
      ],
      "stateMutability": "view",
      "type": "function"
    },
    {
      "inputs": [
        {
          "internalType": "address",
          "name": "_mechanic",
          "type": "address"
        }
      ],
      "name": "isMechanic",
      "outputs": [
        {
          "internalType": "bool",
          "name": "_isMechanic",
          "type": "bool"
        }
      ],
      "stateMutability": "view",
      "type": "function"
    },
    {
      "inputs": [],
      "name": "jobs",
      "outputs": [
        {
          "internalType": "address[]",
          "name": "_jobs",
          "type": "address[]"
        }
      ],
      "stateMutability": "view",
      "type": "function"
    },
    {
      "inputs": [],
      "name": "mechanicsRegistry",
      "outputs": [
        {
          "internalType": "address",
          "name": "_mechanicRegistry",
          "type": "address"
        }
      ],
      "stateMutability": "view",
      "type": "function"
    },
    {
      "inputs": [
        {
          "internalType": "bool",
          "name": "_paused",
          "type": "bool"
        }
      ],
      "name": "pause",
      "outputs": [],
      "stateMutability": "nonpayable",
      "type": "function"
    },
    {
      "inputs": [],
      "name": "paused",
      "outputs": [
        {
          "internalType": "bool",
          "name": "",
          "type": "bool"
        }
      ],
      "stateMutability": "view",
      "type": "function"
    },
    {
      "inputs": [],
      "name": "pendingGovernor",
      "outputs": [
        {
          "internalType": "address",
          "name": "",
          "type": "address"
        }
      ],
      "stateMutability": "view",
      "type": "function"
    },
    {
      "inputs": [
        {
          "internalType": "address",
          "name": "_job",
          "type": "address"
        }
      ],
      "name": "removeJob",
      "outputs": [],
      "stateMutability": "nonpayable",
      "type": "function"
    },
    {
      "inputs": [
        {
          "internalType": "address",
          "name": "_to",
          "type": "address"
        },
        {
          "internalType": "address",
          "name": "_token",
          "type": "address"
        },
        {
          "internalType": "uint256",
          "name": "_amount",
          "type": "uint256"
        }
      ],
      "name": "sendDust",
      "outputs": [],
      "stateMutability": "nonpayable",
      "type": "function"
    },
    {
      "inputs": [
        {
          "internalType": "address",
          "name": "_mechanicsRegistry",
          "type": "address"
        }
      ],
      "name": "setMechanicsRegistry",
      "outputs": [],
      "stateMutability": "nonpayable",
      "type": "function"
    },
    {
      "inputs": [
        {
          "internalType": "address",
          "name": "_pendingGovernor",
          "type": "address"
        }
      ],
      "name": "setPendingGovernor",
      "outputs": [],
      "stateMutability": "nonpayable",
      "type": "function"
    },
    {
      "inputs": [
        {
          "internalType": "address",
          "name": "_strategy",
          "type": "address"
        }
      ],
      "name": "tend",
      "outputs": [],
      "stateMutability": "nonpayable",
      "type": "function"
    }
  ],
  "transactionHash": "0x8cc018a192c2849b5674b96ef084d9059069d5fe6eca8447d064243f1e5711cc",
  "args": [
    "0xe72d641f09a48cce6997377d13b2Ac7029c642b2"
  ],
  "numDeployments": 1,
  "solcInputHash": "476fa919a096c1372feeb4c4bde3bf12",
  "bytecode": "0x608060405234801561001057600080fd5b5060405161140e38038061140e83398101604081905261002f916100dc565b8080338061009a5760405162461bcd60e51b815260206004820152602e60248201527f676f7665726e61626c652f676f7665726e6f722d73686f756c642d6e6f742d6260448201526d652d7a65726f2d6164647265737360901b606482015260840160405180910390fd5b600080546001600160a01b0319166001600160a01b039283161790556004805491831661010002610100600160a81b031990921691909117905550505061010c565b6000602082840312156100ee57600080fd5b81516001600160a01b038116811461010557600080fd5b9392505050565b6112f38061011b6000396000f3fe608060405234801561001057600080fd5b50600436106101165760003560e01c806380711989116100a2578063e3056a3411610071578063e3056a3414610248578063e43581b81461025b578063e58bb6391461027d578063ef47da6d14610285578063f235757f1461029857600080fd5b806380711989146101f4578063a734f06e14610207578063c5198abc14610222578063d6d2dcf91461023557600080fd5b80632db8c129116100e95780632db8c129146101895780635c975abb1461019c57806365834acc146101b95780636d947b87146101cc5780637c8fce23146101df57600080fd5b806302329a291461011b5780630c340a24146101305780630e5c011e146101605780631078f38814610173575b600080fd5b61012e610129366004610f6b565b6102ab565b005b600054610143906001600160a01b031681565b6040516001600160a01b0390911681526020015b60405180910390f35b61012e61016e366004610fa4565b6102ea565b60045461010090046001600160a01b0316610143565b61012e610197366004610fbf565b610367565b6004546101a99060ff1681565b6040519015158152602001610157565b6101a96101c7366004610fa4565b6103a1565b61012e6101da366004610ffb565b610430565b6101e76104b5565b6040516101579190611070565b61012e610202366004610fa4565b610564565b61014373eeeeeeeeeeeeeeeeeeeeeeeeeeeeeeeeeeeeeeee81565b61012e610230366004610fa4565b6105e9565b61012e610243366004610fa4565b61062b565b600154610143906001600160a01b031681565b6101a9610269366004610fa4565b6000546001600160a01b0391821691161490565b61012e61068d565b61012e610293366004610fa4565b6106f1565b61012e6102a6366004610fa4565b61073e565b6000546001600160a01b031633146102de5760405162461bcd60e51b81526004016102d5906110bd565b60405180910390fd5b6102e781610771565b50565b6102f56005336107f7565b6103115760405162461bcd60e51b81526004016102d5906110f4565b806001600160a01b0316634641257d6040518163ffffffff1660e01b8152600401600060405180830381600087803b15801561034c57600080fd5b505af1158015610360573d6000803e3d6000fd5b5050505050565b6000546001600160a01b031633146103915760405162461bcd60e51b81526004016102d5906110bd565b61039c83838361081c565b505050565b60048054604051631960d2b360e21b81526001600160a01b0384811693820193909352600092610100909204909116906365834acc9060240160206040518083038186803b1580156103f257600080fd5b505afa158015610406573d6000803e3d6000fd5b505050506040513d601f19601f8201168201806040525081019061042a9190611143565b92915050565b6000546001600160a01b031633148061044d575061044d336103a1565b6104695760405162461bcd60e51b81526004016102d590611160565b60005b8181101561039c576104a3838383818110610489576104896111b4565b905060200201602081019061049e9190610fa4565b6109be565b806104ad816111e0565b91505061046c565b60606104c16005610a03565b67ffffffffffffffff8111156104d9576104d96111fb565b604051908082528060200260200182016040528015610502578160200160208202803683370190505b50905060005b6105126005610a03565b81101561056057610524600582610a0d565b828281518110610536576105366111b4565b6001600160a01b039092166020928302919091019091015280610558816111e0565b915050610508565b5090565b6000546001600160a01b03163314806105815750610581336103a1565b61059d5760405162461bcd60e51b81526004016102d590611160565b6105a8600582610a19565b506040516001600160a01b03821681527f2e30995f6d0a4025df119470b0e467d02c862196c7f014b6d8a50d2c5dbe4d50906020015b60405180910390a150565b6000546001600160a01b03163314806106065750610606336103a1565b6106225760405162461bcd60e51b81526004016102d590611160565b6102e7816109be565b6106366005336107f7565b6106525760405162461bcd60e51b81526004016102d5906110f4565b806001600160a01b031663440368a36040518163ffffffff1660e01b8152600401600060405180830381600087803b15801561034c57600080fd5b6001546001600160a01b031633146106e75760405162461bcd60e51b815260206004820181905260248201527f676f7665726e61626c652f6f6e6c792d70656e64696e672d676f7665726e6f7260448201526064016102d5565b6106ef610a2e565b565b6000546001600160a01b0316331461071b5760405162461bcd60e51b81526004016102d5906110bd565b60048054610100600160a81b0319166101006001600160a01b0384160217905550565b6000546001600160a01b031633146107685760405162461bcd60e51b81526004016102d5906110bd565b6102e781610a7e565b60045460ff16151581151514156107b65760405162461bcd60e51b81526020600482015260096024820152686e6f2d6368616e676560b81b60448201526064016102d5565b6004805460ff19168215159081179091556040519081527f0e2fb031ee032dc02d8011dc50b816eb450cf856abd8261680dac74f72165bd2906020016105de565b6001600160a01b038116600090815260018301602052604081205415155b9392505050565b6001600160a01b03831661088a5760405162461bcd60e51b815260206004820152602f60248201527f636f6c6c65637461626c652d647573742f63616e742d73656e642d647573742d60448201526e746f2d7a65726f2d6164647265737360881b60648201526084016102d5565b6108956002836107f7565b156108f95760405162461bcd60e51b815260206004820152602e60248201527f636f6c6c65637461626c652d647573742f746f6b656e2d69732d706172742d6f60448201526d198b5d1a194b5c1c9bdd1bd8dbdb60921b60648201526084016102d5565b6001600160a01b03821673eeeeeeeeeeeeeeeeeeeeeeeeeeeeeeeeeeeeeeee141561095a576040516001600160a01b0384169082156108fc029083906000818181858888f19350505050158015610954573d6000803e3d6000fd5b5061096e565b61096e6001600160a01b0383168483610b40565b604080516001600160a01b038086168252841660208201529081018290527f1e34c1aee8e83c2dcc14c21bb4bfeea7f46c0c998cb797ac7cc4d7a18f5c656b9060600160405180910390a1505050565b6109c9600582610b92565b506040516001600160a01b03821681527feba6ddca5c62ea570ec45f4eb13b706a7f0fe326c325b6917a2ae62ebd004519906020016105de565b600061042a825490565b60006108158383610ba7565b6000610815836001600160a01b038416610bd1565b60018054600080546001600160a01b03199081166001600160a01b0384161782559091169091556040517f7880f0fcc848e1f26e461654b100a69f8d0641e29aa29f6596c6afadbb36b5ea9190a1565b6001600160a01b038116610af25760405162461bcd60e51b815260206004820152603560248201527f676f7665726e61626c652f70656e64696e672d676f7665726e6f722d73686f756044820152746c642d6e6f742d62652d7a65726f2d61646472657360581b60648201526084016102d5565b600180546001600160a01b0319166001600160a01b0383169081179091556040519081527f56bddfa0cee9697cebddf9acd7f23dc6583663b05e007b877056d05017994def906020016105de565b604080516001600160a01b038416602482015260448082018490528251808303909101815260649091019091526020810180516001600160e01b031663a9059cbb60e01b17905261039c908490610cc4565b6000610815836001600160a01b038416610d96565b6000826000018281548110610bbe57610bbe6111b4565b9060005260206000200154905092915050565b60008181526001830160205260408120548015610cba576000610bf5600183611211565b8554909150600090610c0990600190611211565b9050818114610c6e576000866000018281548110610c2957610c296111b4565b9060005260206000200154905080876000018481548110610c4c57610c4c6111b4565b6000918252602080832090910192909255918252600188019052604090208390555b8554869080610c7f57610c7f611228565b60019003818190600052602060002001600090559055856001016000868152602001908152602001600020600090556001935050505061042a565b600091505061042a565b6000610d19826040518060400160405280602081526020017f5361666545524332303a206c6f772d6c6576656c2063616c6c206661696c6564815250856001600160a01b0316610de59092919063ffffffff16565b80519091501561039c5780806020019051810190610d379190611143565b61039c5760405162461bcd60e51b815260206004820152602a60248201527f5361666545524332303a204552433230206f7065726174696f6e20646964206e6044820152691bdd081cdd58d8d9595960b21b60648201526084016102d5565b6000818152600183016020526040812054610ddd5750815460018181018455600084815260208082209093018490558454848252828601909352604090209190915561042a565b50600061042a565b6060610df48484600085610dfc565b949350505050565b606082471015610e5d5760405162461bcd60e51b815260206004820152602660248201527f416464726573733a20696e73756666696369656e742062616c616e636520666f6044820152651c8818d85b1b60d21b60648201526084016102d5565b843b610eab5760405162461bcd60e51b815260206004820152601d60248201527f416464726573733a2063616c6c20746f206e6f6e2d636f6e747261637400000060448201526064016102d5565b600080866001600160a01b03168587604051610ec7919061126e565b60006040518083038185875af1925050503d8060008114610f04576040519150601f19603f3d011682016040523d82523d6000602084013e610f09565b606091505b5091509150610f19828286610f24565b979650505050505050565b60608315610f33575081610815565b825115610f435782518084602001fd5b8160405162461bcd60e51b81526004016102d5919061128a565b80151581146102e757600080fd5b600060208284031215610f7d57600080fd5b813561081581610f5d565b80356001600160a01b0381168114610f9f57600080fd5b919050565b600060208284031215610fb657600080fd5b61081582610f88565b600080600060608486031215610fd457600080fd5b610fdd84610f88565b9250610feb60208501610f88565b9150604084013590509250925092565b6000806020838503121561100e57600080fd5b823567ffffffffffffffff8082111561102657600080fd5b818501915085601f83011261103a57600080fd5b81358181111561104957600080fd5b8660208260051b850101111561105e57600080fd5b60209290920196919550909350505050565b6020808252825182820181905260009190848201906040850190845b818110156110b15783516001600160a01b03168352928401929184019160010161108c565b50909695505050505050565b60208082526018908201527f676f7665726e61626c652f6f6e6c792d676f7665726e6f720000000000000000604082015260600190565b6020808252602f908201527f56324b65657065723a3a6f6e6c7956616c69644a6f623a6d73672d73656e646560408201526e3916b737ba16bb30b634b216b537b160891b606082015260800190565b60006020828403121561115557600080fd5b815161081581610f5d565b60208082526034908201527f4d616368696e6572793a3a6f6e6c79476f7665726e6f724f724d656368616e69604082015273319d34b73b30b634b216b6b9b396b9b2b73232b960611b606082015260800190565b634e487b7160e01b600052603260045260246000fd5b634e487b7160e01b600052601160045260246000fd5b60006000198214156111f4576111f46111ca565b5060010190565b634e487b7160e01b600052604160045260246000fd5b600082821015611223576112236111ca565b500390565b634e487b7160e01b600052603160045260246000fd5b60005b83811015611259578181015183820152602001611241565b83811115611268576000848401525b50505050565b6000825161128081846020870161123e565b9190910192915050565b60208152600082518060208401526112a981604085016020870161123e565b601f01601f1916919091016040019291505056fea264697066735822122047cd4b2f6b1a93895a0045cd9e23827442ab2d383b042a74487715df77401db464736f6c63430008090033",
  "devdoc": {
    "kind": "dev",
    "methods": {},
    "version": 1
  },
  "userdoc": {
    "kind": "user",
    "methods": {},
    "version": 1
  },
  "storageLayout": {
    "storage": [
      {
        "astId": 2509,
        "contract": "contracts/jobs/v2/V2Keeper.sol:V2Keeper",
        "label": "governor",
        "offset": 0,
        "slot": "0",
        "type": "t_address"
      },
      {
        "astId": 2512,
        "contract": "contracts/jobs/v2/V2Keeper.sol:V2Keeper",
        "label": "pendingGovernor",
        "offset": 0,
        "slot": "1",
        "type": "t_address"
      },
      {
        "astId": 2398,
        "contract": "contracts/jobs/v2/V2Keeper.sol:V2Keeper",
        "label": "protocolTokens",
        "offset": 0,
        "slot": "2",
        "type": "t_struct(AddressSet)1503_storage"
      },
      {
        "astId": 2840,
        "contract": "contracts/jobs/v2/V2Keeper.sol:V2Keeper",
        "label": "paused",
        "offset": 0,
        "slot": "4",
        "type": "t_bool"
      },
      {
        "astId": 2649,
        "contract": "contracts/jobs/v2/V2Keeper.sol:V2Keeper",
        "label": "_mechanicsRegistry",
        "offset": 1,
        "slot": "4",
        "type": "t_contract(IMechanicsRegistry)3287"
      },
      {
        "astId": 7403,
        "contract": "contracts/jobs/v2/V2Keeper.sol:V2Keeper",
        "label": "_validJobs",
        "offset": 0,
        "slot": "5",
        "type": "t_struct(AddressSet)1503_storage"
      }
    ],
    "types": {
      "t_address": {
        "encoding": "inplace",
        "label": "address",
        "numberOfBytes": "20"
      },
      "t_array(t_bytes32)dyn_storage": {
        "base": "t_bytes32",
        "encoding": "dynamic_array",
        "label": "bytes32[]",
        "numberOfBytes": "32"
      },
      "t_bool": {
        "encoding": "inplace",
        "label": "bool",
        "numberOfBytes": "1"
      },
      "t_bytes32": {
        "encoding": "inplace",
        "label": "bytes32",
        "numberOfBytes": "32"
      },
      "t_contract(IMechanicsRegistry)3287": {
        "encoding": "inplace",
        "label": "contract IMechanicsRegistry",
        "numberOfBytes": "20"
      },
      "t_mapping(t_bytes32,t_uint256)": {
        "encoding": "mapping",
        "key": "t_bytes32",
        "label": "mapping(bytes32 => uint256)",
        "numberOfBytes": "32",
        "value": "t_uint256"
      },
      "t_struct(AddressSet)1503_storage": {
        "encoding": "inplace",
        "label": "struct EnumerableSet.AddressSet",
        "members": [
          {
            "astId": 1502,
            "contract": "contracts/jobs/v2/V2Keeper.sol:V2Keeper",
            "label": "_inner",
            "offset": 0,
            "slot": "0",
            "type": "t_struct(Set)1202_storage"
          }
        ],
        "numberOfBytes": "64"
      },
      "t_struct(Set)1202_storage": {
        "encoding": "inplace",
        "label": "struct EnumerableSet.Set",
        "members": [
          {
            "astId": 1197,
            "contract": "contracts/jobs/v2/V2Keeper.sol:V2Keeper",
            "label": "_values",
            "offset": 0,
            "slot": "0",
            "type": "t_array(t_bytes32)dyn_storage"
          },
          {
            "astId": 1201,
            "contract": "contracts/jobs/v2/V2Keeper.sol:V2Keeper",
            "label": "_indexes",
            "offset": 0,
            "slot": "1",
            "type": "t_mapping(t_bytes32,t_uint256)"
          }
        ],
        "numberOfBytes": "64"
      },
      "t_uint256": {
        "encoding": "inplace",
        "label": "uint256",
        "numberOfBytes": "32"
      }
    }
  }
}