{
  "address": "0x974eaa0D52ef53AE89B7f0b7A554ADAB2446b389",
  "abi": [
    {
      "inputs": [
        {
          "internalType": "address",
          "name": "_governor",
          "type": "address"
        },
        {
          "internalType": "address",
          "name": "_tradeFactory",
          "type": "address"
        },
        {
          "internalType": "address",
          "name": "_weth",
          "type": "address"
        },
        {
          "internalType": "address",
          "name": "_uniswapFactory",
          "type": "address"
        },
        {
          "internalType": "address",
          "name": "_uniswapRouter",
          "type": "address"
        }
      ],
      "stateMutability": "nonpayable",
      "type": "constructor"
    },
    {
      "inputs": [],
      "name": "IncorrectSwapInformation",
      "type": "error"
    },
    {
      "inputs": [],
      "name": "NotAuthorized",
      "type": "error"
    },
    {
      "inputs": [],
      "name": "ZeroAddress",
      "type": "error"
    },
    {
      "inputs": [],
      "name": "ZeroAmount",
      "type": "error"
    },
    {
      "inputs": [],
      "name": "ZeroSlippage",
      "type": "error"
    },
    {
      "anonymous": false,
      "inputs": [
        {
          "indexed": false,
          "internalType": "address",
          "name": "_to",
          "type": "address"
        },
        {
          "indexed": false,
          "internalType": "address",
          "name": "token",
          "type": "address"
        },
        {
          "indexed": false,
          "internalType": "uint256",
          "name": "amount",
          "type": "uint256"
        }
      ],
      "name": "DustSent",
      "type": "event"
    },
    {
      "anonymous": false,
      "inputs": [],
      "name": "GovernorAccepted",
      "type": "event"
    },
    {
      "anonymous": false,
      "inputs": [
        {
          "indexed": false,
          "internalType": "address",
          "name": "pendingGovernor",
          "type": "address"
        }
      ],
      "name": "PendingGovernorSet",
      "type": "event"
    },
    {
      "anonymous": false,
      "inputs": [
        {
          "indexed": false,
          "internalType": "address",
          "name": "_receiver",
          "type": "address"
        },
        {
          "indexed": false,
          "internalType": "address",
          "name": "_tokenIn",
          "type": "address"
        },
        {
          "indexed": false,
          "internalType": "address",
          "name": "_tokenOut",
          "type": "address"
        },
        {
          "indexed": false,
          "internalType": "uint256",
          "name": "_amountIn",
          "type": "uint256"
        },
        {
          "indexed": false,
          "internalType": "uint256",
          "name": "_maxSlippage",
          "type": "uint256"
        },
        {
          "indexed": false,
          "internalType": "uint256",
          "name": "_receivedAmount",
          "type": "uint256"
        },
        {
          "indexed": false,
          "internalType": "bytes",
          "name": "_data",
          "type": "bytes"
        }
      ],
      "name": "Swapped",
      "type": "event"
    },
    {
      "inputs": [],
      "name": "ETH_ADDRESS",
      "outputs": [
        {
          "internalType": "address",
          "name": "",
          "type": "address"
        }
      ],
      "stateMutability": "view",
      "type": "function"
    },
    {
      "inputs": [],
      "name": "FACTORY",
      "outputs": [
        {
          "internalType": "address",
          "name": "",
          "type": "address"
        }
      ],
      "stateMutability": "view",
      "type": "function"
    },
    {
      "inputs": [],
      "name": "ROUTER",
      "outputs": [
        {
          "internalType": "address",
          "name": "",
          "type": "address"
        }
      ],
      "stateMutability": "view",
      "type": "function"
    },
    {
      "inputs": [],
      "name": "SLIPPAGE_PRECISION",
      "outputs": [
        {
          "internalType": "uint256",
          "name": "",
          "type": "uint256"
        }
      ],
      "stateMutability": "view",
      "type": "function"
    },
    {
      "inputs": [],
      "name": "SWAPPER_TYPE",
      "outputs": [
        {
          "internalType": "enum ISwapper.SwapperType",
          "name": "",
          "type": "uint8"
        }
      ],
      "stateMutability": "view",
      "type": "function"
    },
    {
      "inputs": [],
      "name": "TRADE_FACTORY",
      "outputs": [
        {
          "internalType": "address",
          "name": "",
          "type": "address"
        }
      ],
      "stateMutability": "view",
      "type": "function"
    },
    {
      "inputs": [],
      "name": "WETH",
      "outputs": [
        {
          "internalType": "address",
          "name": "",
          "type": "address"
        }
      ],
      "stateMutability": "view",
      "type": "function"
    },
    {
      "inputs": [],
      "name": "acceptGovernor",
      "outputs": [],
      "stateMutability": "nonpayable",
      "type": "function"
    },
    {
      "inputs": [],
      "name": "governor",
      "outputs": [
        {
          "internalType": "address",
          "name": "",
          "type": "address"
        }
      ],
      "stateMutability": "view",
      "type": "function"
    },
    {
      "inputs": [
        {
          "internalType": "address",
          "name": "_account",
          "type": "address"
        }
      ],
      "name": "isGovernor",
      "outputs": [
        {
          "internalType": "bool",
          "name": "_isGovernor",
          "type": "bool"
        }
      ],
      "stateMutability": "view",
      "type": "function"
    },
    {
      "inputs": [],
      "name": "pendingGovernor",
      "outputs": [
        {
          "internalType": "address",
          "name": "",
          "type": "address"
        }
      ],
      "stateMutability": "view",
      "type": "function"
    },
    {
      "inputs": [
        {
          "internalType": "address",
          "name": "_to",
          "type": "address"
        },
        {
          "internalType": "address",
          "name": "_token",
          "type": "address"
        },
        {
          "internalType": "uint256",
          "name": "_amount",
          "type": "uint256"
        }
      ],
      "name": "sendDust",
      "outputs": [],
      "stateMutability": "nonpayable",
      "type": "function"
    },
    {
      "inputs": [
        {
          "internalType": "address",
          "name": "_pendingGovernor",
          "type": "address"
        }
      ],
      "name": "setPendingGovernor",
      "outputs": [],
      "stateMutability": "nonpayable",
      "type": "function"
    },
    {
      "inputs": [
        {
          "internalType": "address",
          "name": "_receiver",
          "type": "address"
        },
        {
          "internalType": "address",
          "name": "_tokenIn",
          "type": "address"
        },
        {
          "internalType": "address",
          "name": "_tokenOut",
          "type": "address"
        },
        {
          "internalType": "uint256",
          "name": "_amountIn",
          "type": "uint256"
        },
        {
          "internalType": "uint256",
          "name": "_maxSlippage",
          "type": "uint256"
        },
        {
          "internalType": "bytes",
          "name": "_data",
          "type": "bytes"
        }
      ],
      "name": "swap",
      "outputs": [
        {
          "internalType": "uint256",
          "name": "_receivedAmount",
          "type": "uint256"
        }
      ],
      "stateMutability": "nonpayable",
      "type": "function"
    }
  ],
  "transactionHash": "0x877167b5d4929ced103eb1c308374504bfc2d77c1e084fa64cb3a5349ccdbcb9",
  "args": [
    "0x9f2A061d6fEF20ad3A656e23fd9C814b75fd5803",
    "0x382ec4342775607ad64949bC26402b5F8CD651fe",
    "0x21be370D5312f44cB42ce377BC9b8a0cEF1A4C83",
    "0x152eE697f2E276fA89E96742e9bB9aB1F2E61bE3",
    "0xF491e7B69E4244ad4002BC14e878a34207E38c29"
  ],
  "solcInputHash": "103fe0381f2366411e44059448d5f613",
  "bytecode": "0x6101206040526127106080526004805460ff191690553480156200002257600080fd5b5060405162001b9c38038062001b9c833981016040819052620000459162000147565b8484816001600160a01b038116620000ba5760405162461bcd60e51b815260206004820152602e60248201527f676f7665726e61626c652f676f7665726e6f722d73686f756c642d6e6f742d6260448201526d652d7a65726f2d6164647265737360901b606482015260840160405180910390fd5b600080546001600160a01b0319166001600160a01b039283161790558116620000f65760405163d92e233d60e01b815260040160405180910390fd5b6001600160601b0319606091821b811660a05294811b851660c05292831b841660e05250901b166101005250620001b69050565b80516001600160a01b03811681146200014257600080fd5b919050565b600080600080600060a086880312156200015f578081fd5b6200016a866200012a565b94506200017a602087016200012a565b93506200018a604087016200012a565b92506200019a606087016200012a565b9150620001aa608087016200012a565b90509295509295909350565b60805160a05160601c60c05160601c60e05160601c6101005160601c61196b620002316000396000818161017a01528181610a2101528181610b7d01528181610c8c0152610d30015260006101530152600061022b0152600081816101d601526103910152600081816101a10152610d5a015261196b6000f3fe608060405234801561001057600080fd5b50600436106100ea5760003560e01c8063a734f06e1161008c578063e3056a3411610066578063e3056a3414610267578063e43581b814610287578063e58bb639146102c6578063f235757f146102ce57600080fd5b8063a734f06e1461020b578063ad5c464814610226578063cd985af01461024d57600080fd5b806332fe7b26116100c857806332fe7b2614610175578063453943f01461019c5780637556fae6146101d1578063a5d4096b146101f857600080fd5b80630c340a24146100ef5780632db8c129146101395780632dd310001461014e575b600080fd5b60005461010f9073ffffffffffffffffffffffffffffffffffffffff1681565b60405173ffffffffffffffffffffffffffffffffffffffff90911681526020015b60405180910390f35b61014c61014736600461148e565b6102e1565b005b61010f7f000000000000000000000000000000000000000000000000000000000000000081565b61010f7f000000000000000000000000000000000000000000000000000000000000000081565b6101c37f000000000000000000000000000000000000000000000000000000000000000081565b604051908152602001610130565b61010f7f000000000000000000000000000000000000000000000000000000000000000081565b6101c36102063660046113db565b610377565b61010f73eeeeeeeeeeeeeeeeeeeeeeeeeeeeeeeeeeeeeeee81565b61010f7f000000000000000000000000000000000000000000000000000000000000000081565b60045461025a9060ff1681565b60405161013091906116ef565b60015461010f9073ffffffffffffffffffffffffffffffffffffffff1681565b6102b66102953660046113c1565b60005473ffffffffffffffffffffffffffffffffffffffff91821691161490565b6040519015158152602001610130565b61014c610456565b61014c6102dc3660046113c1565b6104e1565b60005473ffffffffffffffffffffffffffffffffffffffff163314610367576040517f08c379a000000000000000000000000000000000000000000000000000000000815260206004820152601860248201527f676f7665726e61626c652f6f6e6c792d676f7665726e6f72000000000000000060448201526064015b60405180910390fd5b61037283838361056e565b505050565b60003373ffffffffffffffffffffffffffffffffffffffff7f000000000000000000000000000000000000000000000000000000000000000016146103e8576040517fea8e4eb500000000000000000000000000000000000000000000000000000000815260040160405180910390fd5b6103f588888888886107a2565b610404888888888888886108a4565b90507f40971433310985cab81e121610e21c884496299299bfdb99b10c0f75815c9887888888888886898960405161044398979695949392919061167b565b60405180910390a1979650505050505050565b60015473ffffffffffffffffffffffffffffffffffffffff1633146104d7576040517f08c379a000000000000000000000000000000000000000000000000000000000815260206004820181905260248201527f676f7665726e61626c652f6f6e6c792d70656e64696e672d676f7665726e6f72604482015260640161035e565b6104df610e76565b565b60005473ffffffffffffffffffffffffffffffffffffffff163314610562576040517f08c379a000000000000000000000000000000000000000000000000000000000815260206004820152601860248201527f676f7665726e61626c652f6f6e6c792d676f7665726e6f720000000000000000604482015260640161035e565b61056b81610eeb565b50565b73ffffffffffffffffffffffffffffffffffffffff8316610611576040517f08c379a000000000000000000000000000000000000000000000000000000000815260206004820152602f60248201527f636f6c6c65637461626c652d647573742f63616e742d73656e642d647573742d60448201527f746f2d7a65726f2d616464726573730000000000000000000000000000000000606482015260840161035e565b61061c600283611007565b156106a9576040517f08c379a000000000000000000000000000000000000000000000000000000000815260206004820152602e60248201527f636f6c6c65637461626c652d647573742f746f6b656e2d69732d706172742d6f60448201527f662d7468652d70726f746f636f6c000000000000000000000000000000000000606482015260840161035e565b73ffffffffffffffffffffffffffffffffffffffff821673eeeeeeeeeeeeeeeeeeeeeeeeeeeeeeeeeeeeeeee14156107245760405173ffffffffffffffffffffffffffffffffffffffff84169082156108fc029083906000818181858888f1935050505015801561071e573d6000803e3d6000fd5b50610745565b61074573ffffffffffffffffffffffffffffffffffffffff83168483611039565b6040805173ffffffffffffffffffffffffffffffffffffffff8086168252841660208201529081018290527f1e34c1aee8e83c2dcc14c21bb4bfeea7f46c0c998cb797ac7cc4d7a18f5c656b9060600160405180910390a1505050565b73ffffffffffffffffffffffffffffffffffffffff851615806107d9575073ffffffffffffffffffffffffffffffffffffffff8416155b806107f8575073ffffffffffffffffffffffffffffffffffffffff8316155b1561082f576040517fd92e233d00000000000000000000000000000000000000000000000000000000815260040160405180910390fd5b81610866576040517f1f2a200500000000000000000000000000000000000000000000000000000000815260040160405180910390fd5b8061089d576040517f5380c59d00000000000000000000000000000000000000000000000000000000815260040160405180910390fd5b5050505050565b6000806108b3838501856114c9565b9050806000815181106108ef577f4e487b7100000000000000000000000000000000000000000000000000000000600052603260045260246000fd5b602002602001015173ffffffffffffffffffffffffffffffffffffffff168873ffffffffffffffffffffffffffffffffffffffff161415806109aa5750806001825161093b9190611890565b81518110610972577f4e487b7100000000000000000000000000000000000000000000000000000000600052603260045260246000fd5b602002602001015173ffffffffffffffffffffffffffffffffffffffff168773ffffffffffffffffffffffffffffffffffffffff1614155b156109e1576040517fe625f81300000000000000000000000000000000000000000000000000000000815260040160405180910390fd5b6040517fd06ca61f00000000000000000000000000000000000000000000000000000000815260009073ffffffffffffffffffffffffffffffffffffffff7f0000000000000000000000000000000000000000000000000000000000000000169063d06ca61f90610a58908a908690600401611763565b60006040518083038186803b158015610a7057600080fd5b505afa158015610a84573d6000803e3d6000fd5b505050506040513d6000823e601f3d908101601f19168201604052610aac9190810190611568565b60018351610aba9190611890565b81518110610af1577f4e487b7100000000000000000000000000000000000000000000000000000000600052603260045260246000fd5b6020026020010151905081600081518110610b35577f4e487b7100000000000000000000000000000000000000000000000000000000600052603260045260246000fd5b60209081029190910101516040517f095ea7b300000000000000000000000000000000000000000000000000000000815273ffffffffffffffffffffffffffffffffffffffff7f000000000000000000000000000000000000000000000000000000000000000081166004830152600060248301529091169063095ea7b390604401602060405180830381600087803b158015610bd157600080fd5b505af1158015610be5573d6000803e3d6000fd5b505050506040513d601f19601f82011682018060405250810190610c0991906115ef565b5081600081518110610c44577f4e487b7100000000000000000000000000000000000000000000000000000000600052603260045260246000fd5b60209081029190910101516040517f095ea7b300000000000000000000000000000000000000000000000000000000815273ffffffffffffffffffffffffffffffffffffffff7f000000000000000000000000000000000000000000000000000000000000000081166004830152602482018a90529091169063095ea7b390604401602060405180830381600087803b158015610ce057600080fd5b505af1158015610cf4573d6000803e3d6000fd5b505050506040513d601f19601f82011682018060405250810190610d1891906115ef565b5073ffffffffffffffffffffffffffffffffffffffff7f0000000000000000000000000000000000000000000000000000000000000000166338ed17398860647f0000000000000000000000000000000000000000000000000000000000000000610d838b87611853565b610d8d919061181a565b610d97919061181a565b610da19085611890565b858e426040518663ffffffff1660e01b8152600401610dc495949392919061177c565b600060405180830381600087803b158015610dde57600080fd5b505af1158015610df2573d6000803e3d6000fd5b505050506040513d6000823e601f3d908101601f19168201604052610e1a9190810190611568565b60018351610e289190611890565b81518110610e5f577f4e487b7100000000000000000000000000000000000000000000000000000000600052603260045260246000fd5b602002602001015192505050979650505050505050565b60018054600080547fffffffffffffffffffffffff000000000000000000000000000000000000000090811673ffffffffffffffffffffffffffffffffffffffff84161782559091169091556040517f7880f0fcc848e1f26e461654b100a69f8d0641e29aa29f6596c6afadbb36b5ea9190a1565b73ffffffffffffffffffffffffffffffffffffffff8116610f8e576040517f08c379a000000000000000000000000000000000000000000000000000000000815260206004820152603560248201527f676f7665726e61626c652f70656e64696e672d676f7665726e6f722d73686f7560448201527f6c642d6e6f742d62652d7a65726f2d6164647265730000000000000000000000606482015260840161035e565b600180547fffffffffffffffffffffffff00000000000000000000000000000000000000001673ffffffffffffffffffffffffffffffffffffffff83169081179091556040519081527f56bddfa0cee9697cebddf9acd7f23dc6583663b05e007b877056d05017994def9060200160405180910390a150565b73ffffffffffffffffffffffffffffffffffffffff8116600090815260018301602052604081205415155b9392505050565b6040805173ffffffffffffffffffffffffffffffffffffffff848116602483015260448083018590528351808403909101815260649092018352602080830180517bffffffffffffffffffffffffffffffffffffffffffffffffffffffff167fa9059cbb0000000000000000000000000000000000000000000000000000000017905283518085019094528084527f5361666545524332303a206c6f772d6c6576656c2063616c6c206661696c656490840152610372928692916000916111049185169084906111ae565b805190915015610372578080602001905181019061112291906115ef565b610372576040517f08c379a000000000000000000000000000000000000000000000000000000000815260206004820152602a60248201527f5361666545524332303a204552433230206f7065726174696f6e20646964206e60448201527f6f74207375636365656400000000000000000000000000000000000000000000606482015260840161035e565b60606111bd84846000856111c5565b949350505050565b606082471015611257576040517f08c379a000000000000000000000000000000000000000000000000000000000815260206004820152602660248201527f416464726573733a20696e73756666696369656e742062616c616e636520666f60448201527f722063616c6c0000000000000000000000000000000000000000000000000000606482015260840161035e565b843b6112bf576040517f08c379a000000000000000000000000000000000000000000000000000000000815260206004820152601d60248201527f416464726573733a2063616c6c20746f206e6f6e2d636f6e7472616374000000604482015260640161035e565b6000808673ffffffffffffffffffffffffffffffffffffffff1685876040516112e8919061165f565b60006040518083038185875af1925050503d8060008114611325576040519150601f19603f3d011682016040523d82523d6000602084013e61132a565b606091505b509150915061133a828286611345565b979650505050505050565b60608315611354575081611032565b8251156113645782518084602001fd5b816040517f08c379a000000000000000000000000000000000000000000000000000000000815260040161035e9190611730565b803573ffffffffffffffffffffffffffffffffffffffff811681146113bc57600080fd5b919050565b6000602082840312156113d2578081fd5b61103282611398565b600080600080600080600060c0888a0312156113f5578283fd5b6113fe88611398565b965061140c60208901611398565b955061141a60408901611398565b9450606088013593506080880135925060a088013567ffffffffffffffff80821115611444578384fd5b818a0191508a601f830112611457578384fd5b813581811115611465578485fd5b8b6020828501011115611476578485fd5b60208301945080935050505092959891949750929550565b6000806000606084860312156114a2578283fd5b6114ab84611398565b92506114b960208501611398565b9150604084013590509250925092565b600060208083850312156114db578182fd5b823567ffffffffffffffff8111156114f1578283fd5b8301601f81018513611501578283fd5b803561151461150f826117f6565b6117c5565b80828252848201915084840188868560051b8701011115611533578687fd5b8694505b8385101561155c5761154881611398565b835260019490940193918501918501611537565b50979650505050505050565b6000602080838503121561157a578182fd5b825167ffffffffffffffff811115611590578283fd5b8301601f810185136115a0578283fd5b80516115ae61150f826117f6565b80828252848201915084840188868560051b87010111156115cd578687fd5b8694505b8385101561155c5780518352600194909401939185019185016115d1565b600060208284031215611600578081fd5b81518015158114611032578182fd5b6000815180845260208085019450808401835b8381101561165457815173ffffffffffffffffffffffffffffffffffffffff1687529582019590820190600101611622565b509495945050505050565b600082516116718184602087016118a7565b9190910192915050565b600073ffffffffffffffffffffffffffffffffffffffff808b168352808a1660208401528089166040840152508660608301528560808301528460a083015260e060c08301528260e0830152610100838582850137828401810191909152601f909201601f19160101979650505050505050565b602081016002831061172a577f4e487b7100000000000000000000000000000000000000000000000000000000600052602160045260246000fd5b91905290565b602081526000825180602084015261174f8160408501602087016118a7565b601f01601f19169190910160400192915050565b8281526040602082015260006111bd604083018461160f565b85815284602082015260a06040820152600061179b60a083018661160f565b73ffffffffffffffffffffffffffffffffffffffff94909416606083015250608001529392505050565b604051601f8201601f1916810167ffffffffffffffff811182821017156117ee576117ee611906565b604052919050565b600067ffffffffffffffff82111561181057611810611906565b5060051b60200190565b60008261184e577f4e487b710000000000000000000000000000000000000000000000000000000081526012600452602481fd5b500490565b6000817fffffffffffffffffffffffffffffffffffffffffffffffffffffffffffffffff048311821515161561188b5761188b6118d7565b500290565b6000828210156118a2576118a26118d7565b500390565b60005b838110156118c25781810151838201526020016118aa565b838111156118d1576000848401525b50505050565b7f4e487b7100000000000000000000000000000000000000000000000000000000600052601160045260246000fd5b7f4e487b7100000000000000000000000000000000000000000000000000000000600052604160045260246000fdfea2646970667358221220a3ddef6291b1dacd6b3c21d15ff627d8436623c3152489e9d2d6b7d449c1b8a364736f6c63430008040033",
  "devdoc": {
    "kind": "dev",
    "methods": {},
    "version": 1
  },
  "userdoc": {
    "kind": "user",
    "methods": {},
    "version": 1
  },
  "storageLayout": {
    "storage": [
      {
        "astId": 132,
        "contract": "contracts/swappers/async/UniswapV2Swapper.sol:UniswapV2Swapper",
        "label": "governor",
        "offset": 0,
        "slot": "0",
        "type": "t_address"
      },
      {
        "astId": 135,
        "contract": "contracts/swappers/async/UniswapV2Swapper.sol:UniswapV2Swapper",
        "label": "pendingGovernor",
        "offset": 0,
        "slot": "1",
        "type": "t_address"
      },
      {
        "astId": 21,
        "contract": "contracts/swappers/async/UniswapV2Swapper.sol:UniswapV2Swapper",
        "label": "protocolTokens",
        "offset": 0,
        "slot": "2",
        "type": "t_struct(AddressSet)2664_storage"
      },
      {
        "astId": 6740,
        "contract": "contracts/swappers/async/UniswapV2Swapper.sol:UniswapV2Swapper",
        "label": "SWAPPER_TYPE",
        "offset": 0,
        "slot": "4",
        "type": "t_enum(SwapperType)3686"
      }
    ],
    "types": {
      "t_address": {
        "encoding": "inplace",
        "label": "address",
        "numberOfBytes": "20"
      },
      "t_array(t_bytes32)dyn_storage": {
        "base": "t_bytes32",
        "encoding": "dynamic_array",
        "label": "bytes32[]",
        "numberOfBytes": "32"
      },
      "t_bytes32": {
        "encoding": "inplace",
        "label": "bytes32",
        "numberOfBytes": "32"
      },
      "t_enum(SwapperType)3686": {
        "encoding": "inplace",
        "label": "enum ISwapper.SwapperType",
        "numberOfBytes": "1"
      },
      "t_mapping(t_bytes32,t_uint256)": {
        "encoding": "mapping",
        "key": "t_bytes32",
        "label": "mapping(bytes32 => uint256)",
        "numberOfBytes": "32",
        "value": "t_uint256"
      },
      "t_struct(AddressSet)2664_storage": {
        "encoding": "inplace",
        "label": "struct EnumerableSet.AddressSet",
        "members": [
          {
            "astId": 2663,
            "contract": "contracts/swappers/async/UniswapV2Swapper.sol:UniswapV2Swapper",
            "label": "_inner",
            "offset": 0,
            "slot": "0",
            "type": "t_struct(Set)2363_storage"
          }
        ],
        "numberOfBytes": "64"
      },
      "t_struct(Set)2363_storage": {
        "encoding": "inplace",
        "label": "struct EnumerableSet.Set",
        "members": [
          {
            "astId": 2358,
            "contract": "contracts/swappers/async/UniswapV2Swapper.sol:UniswapV2Swapper",
            "label": "_values",
            "offset": 0,
            "slot": "0",
            "type": "t_array(t_bytes32)dyn_storage"
          },
          {
            "astId": 2362,
            "contract": "contracts/swappers/async/UniswapV2Swapper.sol:UniswapV2Swapper",
            "label": "_indexes",
            "offset": 0,
            "slot": "1",
            "type": "t_mapping(t_bytes32,t_uint256)"
          }
        ],
        "numberOfBytes": "64"
      },
      "t_uint256": {
        "encoding": "inplace",
        "label": "uint256",
        "numberOfBytes": "32"
      }
    }
  }
}