{
  "address": "0x8298C9a1760346C474c570881B1F6E56ECA038B7",
  "abi": [
    {
      "inputs": [
        {
          "internalType": "address",
          "name": "_governor",
          "type": "address"
        },
        {
          "internalType": "address",
          "name": "_tradeFactory",
          "type": "address"
        },
        {
          "internalType": "address",
          "name": "_uniswapFactory",
          "type": "address"
        },
        {
          "internalType": "address",
          "name": "_uniswapRouter",
          "type": "address"
        }
      ],
      "stateMutability": "nonpayable",
      "type": "constructor"
    },
    {
      "inputs": [],
      "name": "IncorrectSwapInformation",
      "type": "error"
    },
    {
      "inputs": [],
      "name": "InvalidAmountOut",
      "type": "error"
    },
    {
      "inputs": [],
      "name": "NotAuthorized",
      "type": "error"
    },
    {
      "inputs": [],
      "name": "ZeroAddress",
      "type": "error"
    },
    {
      "inputs": [],
      "name": "ZeroAmount",
      "type": "error"
    },
    {
      "anonymous": false,
      "inputs": [
        {
          "indexed": false,
          "internalType": "address",
          "name": "_to",
          "type": "address"
        },
        {
          "indexed": false,
          "internalType": "address",
          "name": "token",
          "type": "address"
        },
        {
          "indexed": false,
          "internalType": "uint256",
          "name": "amount",
          "type": "uint256"
        }
      ],
      "name": "DustSent",
      "type": "event"
    },
    {
      "anonymous": false,
      "inputs": [],
      "name": "GovernorAccepted",
      "type": "event"
    },
    {
      "anonymous": false,
      "inputs": [
        {
          "indexed": false,
          "internalType": "address",
          "name": "pendingGovernor",
          "type": "address"
        }
      ],
      "name": "PendingGovernorSet",
      "type": "event"
    },
    {
      "anonymous": false,
      "inputs": [
        {
          "indexed": false,
          "internalType": "address",
          "name": "_receiver",
          "type": "address"
        },
        {
          "indexed": false,
          "internalType": "address",
          "name": "_tokenIn",
          "type": "address"
        },
        {
          "indexed": false,
          "internalType": "address",
          "name": "_tokenOut",
          "type": "address"
        },
        {
          "indexed": false,
          "internalType": "uint256",
          "name": "_amountIn",
          "type": "uint256"
        },
        {
          "indexed": false,
          "internalType": "uint256",
          "name": "_minAmountOut",
          "type": "uint256"
        },
        {
          "indexed": false,
          "internalType": "uint256",
          "name": "_receivedAmount",
          "type": "uint256"
        },
        {
          "indexed": false,
          "internalType": "bytes",
          "name": "_data",
          "type": "bytes"
        }
      ],
      "name": "Swapped",
      "type": "event"
    },
    {
      "inputs": [],
      "name": "ETH_ADDRESS",
      "outputs": [
        {
          "internalType": "address",
          "name": "",
          "type": "address"
        }
      ],
      "stateMutability": "view",
      "type": "function"
    },
    {
      "inputs": [],
      "name": "FACTORY",
      "outputs": [
        {
          "internalType": "address",
          "name": "",
          "type": "address"
        }
      ],
      "stateMutability": "view",
      "type": "function"
    },
    {
      "inputs": [],
      "name": "ROUTER",
      "outputs": [
        {
          "internalType": "address",
          "name": "",
          "type": "address"
        }
      ],
      "stateMutability": "view",
      "type": "function"
    },
    {
      "inputs": [],
      "name": "SWAPPER_TYPE",
      "outputs": [
        {
          "internalType": "enum ISwapper.SwapperType",
          "name": "",
          "type": "uint8"
        }
      ],
      "stateMutability": "view",
      "type": "function"
    },
    {
      "inputs": [],
      "name": "TRADE_FACTORY",
      "outputs": [
        {
          "internalType": "address",
          "name": "",
          "type": "address"
        }
      ],
      "stateMutability": "view",
      "type": "function"
    },
    {
      "inputs": [],
      "name": "acceptGovernor",
      "outputs": [],
      "stateMutability": "nonpayable",
      "type": "function"
    },
    {
      "inputs": [],
      "name": "governor",
      "outputs": [
        {
          "internalType": "address",
          "name": "",
          "type": "address"
        }
      ],
      "stateMutability": "view",
      "type": "function"
    },
    {
      "inputs": [
        {
          "internalType": "address",
          "name": "_account",
          "type": "address"
        }
      ],
      "name": "isGovernor",
      "outputs": [
        {
          "internalType": "bool",
          "name": "_isGovernor",
          "type": "bool"
        }
      ],
      "stateMutability": "view",
      "type": "function"
    },
    {
      "inputs": [],
      "name": "pendingGovernor",
      "outputs": [
        {
          "internalType": "address",
          "name": "",
          "type": "address"
        }
      ],
      "stateMutability": "view",
      "type": "function"
    },
    {
      "inputs": [
        {
          "internalType": "address",
          "name": "_to",
          "type": "address"
        },
        {
          "internalType": "address",
          "name": "_token",
          "type": "address"
        },
        {
          "internalType": "uint256",
          "name": "_amount",
          "type": "uint256"
        }
      ],
      "name": "sendDust",
      "outputs": [],
      "stateMutability": "nonpayable",
      "type": "function"
    },
    {
      "inputs": [
        {
          "internalType": "address",
          "name": "_pendingGovernor",
          "type": "address"
        }
      ],
      "name": "setPendingGovernor",
      "outputs": [],
      "stateMutability": "nonpayable",
      "type": "function"
    },
    {
      "inputs": [
        {
          "internalType": "address",
          "name": "_receiver",
          "type": "address"
        },
        {
          "internalType": "address",
          "name": "_tokenIn",
          "type": "address"
        },
        {
          "internalType": "address",
          "name": "_tokenOut",
          "type": "address"
        },
        {
          "internalType": "uint256",
          "name": "_amountIn",
          "type": "uint256"
        },
        {
          "internalType": "uint256",
          "name": "_minAmountOut",
          "type": "uint256"
        },
        {
          "internalType": "bytes",
          "name": "_data",
          "type": "bytes"
        }
      ],
      "name": "swap",
      "outputs": [
        {
          "internalType": "uint256",
          "name": "_receivedAmount",
          "type": "uint256"
        }
      ],
      "stateMutability": "nonpayable",
      "type": "function"
    }
  ],
  "transactionHash": "0xa26d16acb71b54fdb5749b0fcc15b939a35751a381b11bb11cfd4002e9994880",
  "args": [
    "0x9f2A061d6fEF20ad3A656e23fd9C814b75fd5803",
    "0x34aA402D943Ea983EBF890bD4B4d71239B6E2C00",
    "0x152eE697f2E276fA89E96742e9bB9aB1F2E61bE3",
    "0xF491e7B69E4244ad4002BC14e878a34207E38c29"
  ],
  "solcInputHash": "c30a427c16fefc461e1166069684705e",
  "bytecode": "0x60e06040523480156200001157600080fd5b50604051620014d9380380620014d9833981016040819052620000349162000126565b838380826001600160a01b038116620000aa5760405162461bcd60e51b815260206004820152602e60248201527f676f7665726e61626c652f676f7665726e6f722d73686f756c642d6e6f742d6260448201526d652d7a65726f2d6164647265737360901b606482015260840160405180910390fd5b600080546001600160a01b0319166001600160a01b039283161790558116620000e65760405163d92e233d60e01b815260040160405180910390fd5b6001600160a01b0390811660805293841660a05250501660c05250620001839050565b80516001600160a01b03811681146200012157600080fd5b919050565b600080600080608085870312156200013d57600080fd5b620001488562000109565b9350620001586020860162000109565b9250620001686040860162000109565b9150620001786060860162000109565b905092959194509250565b60805160a05160c05161130a620001cf6000396000818161012a0152818161083c015281816108fe01526109a201526000610103015260008181610151015261029b015261130a6000f3fe608060405234801561001057600080fd5b50600436106100b45760003560e01c8063a734f06e11610071578063a734f06e14610194578063cd985af0146101af578063e3056a34146101c4578063e43581b8146101d7578063e58bb63914610209578063f235757f1461021157600080fd5b80630c340a24146100b95780632db8c129146100e95780632dd31000146100fe57806332fe7b26146101255780637556fae61461014c578063a5d4096b14610173575b600080fd5b6000546100cc906001600160a01b031681565b6040516001600160a01b0390911681526020015b60405180910390f35b6100fc6100f7366004610e47565b610224565b005b6100cc7f000000000000000000000000000000000000000000000000000000000000000081565b6100cc7f000000000000000000000000000000000000000000000000000000000000000081565b6100cc7f000000000000000000000000000000000000000000000000000000000000000081565b610186610181366004610e83565b61028e565b6040519081526020016100e0565b6100cc73eeeeeeeeeeeeeeeeeeeeeeeeeeeeeeeeeeeeeeee81565b6101b7600081565b6040516100e09190610f3b565b6001546100cc906001600160a01b031681565b6101f96101e5366004610f63565b6000546001600160a01b0391821691161490565b60405190151581526020016100e0565b6100fc61046e565b6100fc61021f366004610f63565b6104d2565b6000546001600160a01b0316331461027e5760405162461bcd60e51b815260206004820152601860248201527733b7bb32b93730b1363297b7b7363c96b3b7bb32b93737b960411b60448201526064015b60405180910390fd5b610289838383610533565b505050565b6000336001600160a01b037f000000000000000000000000000000000000000000000000000000000000000016146102d95760405163ea8e4eb560e01b815260040160405180910390fd5b6102e688888888886106d5565b6040516370a0823160e01b81526001600160a01b038981166004830152600091908816906370a082319060240160206040518083038186803b15801561032b57600080fd5b505afa15801561033f573d6000803e3d6000fd5b505050506040513d601f19601f820116820180604052508101906103639190610f7e565b9050610373898989898888610765565b6040516370a0823160e01b81526001600160a01b038b8116600483015291935086918391908a16906370a082319060240160206040518083038186803b1580156103bc57600080fd5b505afa1580156103d0573d6000803e3d6000fd5b505050506040513d601f19601f820116820180604052508101906103f49190610f7e565b6103fe9190610f97565b101561041d576040516309d2d38b60e31b815260040160405180910390fd5b7f40971433310985cab81e121610e21c884496299299bfdb99b10c0f75815c98878989898989878a8a60405161045a989796959493929190610fbc565b60405180910390a150979650505050505050565b6001546001600160a01b031633146104c85760405162461bcd60e51b815260206004820181905260248201527f676f7665726e61626c652f6f6e6c792d70656e64696e672d676f7665726e6f726044820152606401610275565b6104d0610a69565b565b6000546001600160a01b031633146105275760405162461bcd60e51b815260206004820152601860248201527733b7bb32b93730b1363297b7b7363c96b3b7bb32b93737b960411b6044820152606401610275565b61053081610ab9565b50565b6001600160a01b0383166105a15760405162461bcd60e51b815260206004820152602f60248201527f636f6c6c65637461626c652d647573742f63616e742d73656e642d647573742d60448201526e746f2d7a65726f2d6164647265737360881b6064820152608401610275565b6105ac600283610b81565b156106105760405162461bcd60e51b815260206004820152602e60248201527f636f6c6c65637461626c652d647573742f746f6b656e2d69732d706172742d6f60448201526d198b5d1a194b5c1c9bdd1bd8dbdb60921b6064820152608401610275565b6001600160a01b03821673eeeeeeeeeeeeeeeeeeeeeeeeeeeeeeeeeeeeeeee1415610671576040516001600160a01b0384169082156108fc029083906000818181858888f1935050505015801561066b573d6000803e3d6000fd5b50610685565b6106856001600160a01b0383168483610ba6565b604080516001600160a01b038086168252841660208201529081018290527f1e34c1aee8e83c2dcc14c21bb4bfeea7f46c0c998cb797ac7cc4d7a18f5c656b9060600160405180910390a1505050565b6001600160a01b03851615806106f257506001600160a01b038416155b8061070457506001600160a01b038316155b156107225760405163d92e233d60e01b815260040160405180910390fd5b8161074057604051631f2a200560e01b815260040160405180910390fd5b8061075e57604051631f2a200560e01b815260040160405180910390fd5b5050505050565b60008061077483850185611094565b90508060008151811061078957610789611126565b60200260200101516001600160a01b0316876001600160a01b03161415806107e9575080600182516107bb9190610f97565b815181106107cb576107cb611126565b60200260200101516001600160a01b0316866001600160a01b031614155b156108075760405163e625f81360e01b815260040160405180910390fd5b8060008151811061081a5761081a611126565b602090810291909101015160405163095ea7b360e01b81526001600160a01b037f000000000000000000000000000000000000000000000000000000000000000081166004830152600060248301529091169063095ea7b390604401602060405180830381600087803b15801561089057600080fd5b505af11580156108a4573d6000803e3d6000fd5b505050506040513d601f19601f820116820180604052508101906108c8919061113c565b50806000815181106108dc576108dc611126565b602090810291909101015160405163095ea7b360e01b81526001600160a01b037f000000000000000000000000000000000000000000000000000000000000000081166004830152602482018890529091169063095ea7b390604401602060405180830381600087803b15801561095257600080fd5b505af1158015610966573d6000803e3d6000fd5b505050506040513d601f19601f8201168201806040525081019061098a919061113c565b506040516338ed173960e01b81526001600160a01b037f000000000000000000000000000000000000000000000000000000000000000016906338ed1739906109e090889060009086908e90429060040161115e565b600060405180830381600087803b1580156109fa57600080fd5b505af1158015610a0e573d6000803e3d6000fd5b505050506040513d6000823e601f3d908101601f19168201604052610a3691908101906111cf565b60018251610a449190610f97565b81518110610a5457610a54611126565b60200260200101519150509695505050505050565b60018054600080546001600160a01b03199081166001600160a01b0384161782559091169091556040517f7880f0fcc848e1f26e461654b100a69f8d0641e29aa29f6596c6afadbb36b5ea9190a1565b6001600160a01b038116610b2d5760405162461bcd60e51b815260206004820152603560248201527f676f7665726e61626c652f70656e64696e672d676f7665726e6f722d73686f756044820152746c642d6e6f742d62652d7a65726f2d61646472657360581b6064820152608401610275565b600180546001600160a01b0319166001600160a01b0383169081179091556040519081527f56bddfa0cee9697cebddf9acd7f23dc6583663b05e007b877056d05017994def9060200160405180910390a150565b6001600160a01b038116600090815260018301602052604081205415155b9392505050565b604080516001600160a01b03848116602483015260448083018590528351808403909101815260649092018352602080830180516001600160e01b031663a9059cbb60e01b17905283518085019094528084527f5361666545524332303a206c6f772d6c6576656c2063616c6c206661696c65649084015261028992869291600091610c36918516908490610cb3565b8051909150156102895780806020019051810190610c54919061113c565b6102895760405162461bcd60e51b815260206004820152602a60248201527f5361666545524332303a204552433230206f7065726174696f6e20646964206e6044820152691bdd081cdd58d8d9595960b21b6064820152608401610275565b6060610cc28484600085610cca565b949350505050565b606082471015610d2b5760405162461bcd60e51b815260206004820152602660248201527f416464726573733a20696e73756666696369656e742062616c616e636520666f6044820152651c8818d85b1b60d21b6064820152608401610275565b843b610d795760405162461bcd60e51b815260206004820152601d60248201527f416464726573733a2063616c6c20746f206e6f6e2d636f6e74726163740000006044820152606401610275565b600080866001600160a01b03168587604051610d959190611285565b60006040518083038185875af1925050503d8060008114610dd2576040519150601f19603f3d011682016040523d82523d6000602084013e610dd7565b606091505b5091509150610de7828286610df2565b979650505050505050565b60608315610e01575081610b9f565b825115610e115782518084602001fd5b8160405162461bcd60e51b815260040161027591906112a1565b80356001600160a01b0381168114610e4257600080fd5b919050565b600080600060608486031215610e5c57600080fd5b610e6584610e2b565b9250610e7360208501610e2b565b9150604084013590509250925092565b600080600080600080600060c0888a031215610e9e57600080fd5b610ea788610e2b565b9650610eb560208901610e2b565b9550610ec360408901610e2b565b9450606088013593506080880135925060a088013567ffffffffffffffff80821115610eee57600080fd5b818a0191508a601f830112610f0257600080fd5b813581811115610f1157600080fd5b8b6020828501011115610f2357600080fd5b60208301945080935050505092959891949750929550565b6020810160028310610f5d57634e487b7160e01b600052602160045260246000fd5b91905290565b600060208284031215610f7557600080fd5b610b9f82610e2b565b600060208284031215610f9057600080fd5b5051919050565b600082821015610fb757634e487b7160e01b600052601160045260246000fd5b500390565b6001600160a01b038981168252888116602083015287166040820152606081018690526080810185905260a0810184905260e060c08201819052810182905260006101008385828501376000838501820152601f909301601f191690910190910198975050505050505050565b634e487b7160e01b600052604160045260246000fd5b604051601f8201601f1916810167ffffffffffffffff8111828210171561106857611068611029565b604052919050565b600067ffffffffffffffff82111561108a5761108a611029565b5060051b60200190565b600060208083850312156110a757600080fd5b823567ffffffffffffffff8111156110be57600080fd5b8301601f810185136110cf57600080fd5b80356110e26110dd82611070565b61103f565b81815260059190911b8201830190838101908783111561110157600080fd5b928401925b82841015610de75761111784610e2b565b82529284019290840190611106565b634e487b7160e01b600052603260045260246000fd5b60006020828403121561114e57600080fd5b81518015158114610b9f57600080fd5b600060a082018783526020878185015260a0604085015281875180845260c086019150828901935060005b818110156111ae5784516001600160a01b031683529383019391830191600101611189565b50506001600160a01b03969096166060850152505050608001529392505050565b600060208083850312156111e257600080fd5b825167ffffffffffffffff8111156111f957600080fd5b8301601f8101851361120a57600080fd5b80516112186110dd82611070565b81815260059190911b8201830190838101908783111561123757600080fd5b928401925b82841015610de75783518252928401929084019061123c565b60005b83811015611270578181015183820152602001611258565b8381111561127f576000848401525b50505050565b60008251611297818460208701611255565b9190910192915050565b60208152600082518060208401526112c0816040850160208701611255565b601f01601f1916919091016040019291505056fea26469706673582212209ef8928e97277983a3b3cdddc39bed767ae6fd0926a1fa425e11cc0a2261ae5b64736f6c63430008090033",
  "devdoc": {
    "kind": "dev",
    "methods": {},
    "version": 1
  },
  "userdoc": {
    "kind": "user",
    "methods": {},
    "version": 1
  },
  "storageLayout": {
    "storage": [
      {
        "astId": 3197,
        "contract": "contracts/swappers/async/UniswapV2Swapper.sol:UniswapV2Swapper",
        "label": "governor",
        "offset": 0,
        "slot": "0",
        "type": "t_address"
      },
      {
        "astId": 3200,
        "contract": "contracts/swappers/async/UniswapV2Swapper.sol:UniswapV2Swapper",
        "label": "pendingGovernor",
        "offset": 0,
        "slot": "1",
        "type": "t_address"
      },
      {
        "astId": 3086,
        "contract": "contracts/swappers/async/UniswapV2Swapper.sol:UniswapV2Swapper",
        "label": "protocolTokens",
        "offset": 0,
        "slot": "2",
        "type": "t_struct(AddressSet)2210_storage"
      }
    ],
    "types": {
      "t_address": {
        "encoding": "inplace",
        "label": "address",
        "numberOfBytes": "20"
      },
      "t_array(t_bytes32)dyn_storage": {
        "base": "t_bytes32",
        "encoding": "dynamic_array",
        "label": "bytes32[]",
        "numberOfBytes": "32"
      },
      "t_bytes32": {
        "encoding": "inplace",
        "label": "bytes32",
        "numberOfBytes": "32"
      },
      "t_mapping(t_bytes32,t_uint256)": {
        "encoding": "mapping",
        "key": "t_bytes32",
        "label": "mapping(bytes32 => uint256)",
        "numberOfBytes": "32",
        "value": "t_uint256"
      },
      "t_struct(AddressSet)2210_storage": {
        "encoding": "inplace",
        "label": "struct EnumerableSet.AddressSet",
        "members": [
          {
            "astId": 2209,
            "contract": "contracts/swappers/async/UniswapV2Swapper.sol:UniswapV2Swapper",
            "label": "_inner",
            "offset": 0,
            "slot": "0",
            "type": "t_struct(Set)1909_storage"
          }
        ],
        "numberOfBytes": "64"
      },
      "t_struct(Set)1909_storage": {
        "encoding": "inplace",
        "label": "struct EnumerableSet.Set",
        "members": [
          {
            "astId": 1904,
            "contract": "contracts/swappers/async/UniswapV2Swapper.sol:UniswapV2Swapper",
            "label": "_values",
            "offset": 0,
            "slot": "0",
            "type": "t_array(t_bytes32)dyn_storage"
          },
          {
            "astId": 1908,
            "contract": "contracts/swappers/async/UniswapV2Swapper.sol:UniswapV2Swapper",
            "label": "_indexes",
            "offset": 0,
            "slot": "1",
            "type": "t_mapping(t_bytes32,t_uint256)"
          }
        ],
        "numberOfBytes": "64"
      },
      "t_uint256": {
        "encoding": "inplace",
        "label": "uint256",
        "numberOfBytes": "32"
      }
    }
  }
}