{
  "address": "0xdD86C623B62Af0794010819A1Bb6BCf7D842561D",
  "abi": [
    {
      "inputs": [
        {
          "internalType": "address",
          "name": "_governor",
          "type": "address"
        },
        {
          "internalType": "address",
          "name": "_tradeFactory",
          "type": "address"
        }
      ],
      "stateMutability": "nonpayable",
      "type": "constructor"
    },
    {
      "inputs": [],
      "name": "NotAuthorized",
      "type": "error"
    },
    {
      "inputs": [],
      "name": "ZeroAddress",
      "type": "error"
    },
    {
      "inputs": [],
      "name": "ZeroAmount",
      "type": "error"
    },
    {
      "anonymous": false,
      "inputs": [
        {
          "indexed": false,
          "internalType": "address",
          "name": "_to",
          "type": "address"
        },
        {
          "indexed": false,
          "internalType": "address",
          "name": "token",
          "type": "address"
        },
        {
          "indexed": false,
          "internalType": "uint256",
          "name": "amount",
          "type": "uint256"
        }
      ],
      "name": "DustSent",
      "type": "event"
    },
    {
      "anonymous": false,
      "inputs": [],
      "name": "GovernorAccepted",
      "type": "event"
    },
    {
      "anonymous": false,
      "inputs": [
        {
          "indexed": true,
          "internalType": "address",
          "name": "_offeredToken",
          "type": "address"
        },
        {
          "indexed": false,
          "internalType": "uint256",
          "name": "_amount",
          "type": "uint256"
        }
      ],
      "name": "OfferCreate",
      "type": "event"
    },
    {
      "anonymous": false,
      "inputs": [
        {
          "indexed": true,
          "internalType": "address",
          "name": "_wantedToken",
          "type": "address"
        },
        {
          "indexed": false,
          "internalType": "uint256",
          "name": "_amount",
          "type": "uint256"
        },
        {
          "indexed": false,
          "internalType": "address",
          "name": "_receiver",
          "type": "address"
        }
      ],
      "name": "OfferTaken",
      "type": "event"
    },
    {
      "anonymous": false,
      "inputs": [
        {
          "indexed": false,
          "internalType": "address",
          "name": "pendingGovernor",
          "type": "address"
        }
      ],
      "name": "PendingGovernorSet",
      "type": "event"
    },
    {
      "anonymous": false,
      "inputs": [
        {
          "indexed": true,
          "internalType": "address",
          "name": "_tradeFactory",
          "type": "address"
        }
      ],
      "name": "TradeFactorySet",
      "type": "event"
    },
    {
      "inputs": [],
      "name": "ETH_ADDRESS",
      "outputs": [
        {
          "internalType": "address",
          "name": "",
          "type": "address"
        }
      ],
      "stateMutability": "view",
      "type": "function"
    },
    {
      "inputs": [],
      "name": "acceptGovernor",
      "outputs": [],
      "stateMutability": "nonpayable",
      "type": "function"
    },
    {
      "inputs": [
        {
          "internalType": "address",
          "name": "_offeredToken",
          "type": "address"
        },
        {
          "internalType": "uint256",
          "name": "_amount",
          "type": "uint256"
        }
      ],
      "name": "create",
      "outputs": [],
      "stateMutability": "nonpayable",
      "type": "function"
    },
    {
      "inputs": [],
      "name": "governor",
      "outputs": [
        {
          "internalType": "address",
          "name": "",
          "type": "address"
        }
      ],
      "stateMutability": "view",
      "type": "function"
    },
    {
      "inputs": [
        {
          "internalType": "address",
          "name": "_account",
          "type": "address"
        }
      ],
      "name": "isGovernor",
      "outputs": [
        {
          "internalType": "bool",
          "name": "_isGovernor",
          "type": "bool"
        }
      ],
      "stateMutability": "view",
      "type": "function"
    },
    {
      "inputs": [
        {
          "internalType": "address",
          "name": "",
          "type": "address"
        }
      ],
      "name": "offers",
      "outputs": [
        {
          "internalType": "uint256",
          "name": "",
          "type": "uint256"
        }
      ],
      "stateMutability": "view",
      "type": "function"
    },
    {
      "inputs": [],
      "name": "pendingGovernor",
      "outputs": [
        {
          "internalType": "address",
          "name": "",
          "type": "address"
        }
      ],
      "stateMutability": "view",
      "type": "function"
    },
    {
      "inputs": [
        {
          "internalType": "address",
          "name": "_to",
          "type": "address"
        },
        {
          "internalType": "address",
          "name": "_token",
          "type": "address"
        },
        {
          "internalType": "uint256",
          "name": "_amount",
          "type": "uint256"
        }
      ],
      "name": "sendDust",
      "outputs": [],
      "stateMutability": "nonpayable",
      "type": "function"
    },
    {
      "inputs": [
        {
          "internalType": "address",
          "name": "_pendingGovernor",
          "type": "address"
        }
      ],
      "name": "setPendingGovernor",
      "outputs": [],
      "stateMutability": "nonpayable",
      "type": "function"
    },
    {
      "inputs": [
        {
          "internalType": "address",
          "name": "_tradeFactory",
          "type": "address"
        }
      ],
      "name": "setTradeFactory",
      "outputs": [],
      "stateMutability": "nonpayable",
      "type": "function"
    },
    {
      "inputs": [
        {
          "internalType": "address",
          "name": "_wantedToken",
          "type": "address"
        },
        {
          "internalType": "uint256",
          "name": "_amount",
          "type": "uint256"
        },
        {
          "internalType": "address",
          "name": "_receiver",
          "type": "address"
        }
      ],
      "name": "take",
      "outputs": [],
      "stateMutability": "nonpayable",
      "type": "function"
    },
    {
      "inputs": [],
      "name": "tradeFactory",
      "outputs": [
        {
          "internalType": "address",
          "name": "",
          "type": "address"
        }
      ],
      "stateMutability": "view",
      "type": "function"
    }
  ],
  "transactionHash": "0x339f73a1ea707fb21f9f3c48f7199d8da6f39dfc6391f5a6bea661b3d2f76f96",
  "args": [
    "0x9f2A061d6fEF20ad3A656e23fd9C814b75fd5803",
    "0x382ec4342775607ad64949bC26402b5F8CD651fe"
  ],
  "solcInputHash": "103fe0381f2366411e44059448d5f613",
  "bytecode": "0x608060405234801561001057600080fd5b5060405161135b38038061135b83398101604081905261002f9161011e565b816001600160a01b0381166100a15760405162461bcd60e51b815260206004820152602e60248201527f676f7665726e61626c652f676f7665726e6f722d73686f756c642d6e6f742d6260448201526d652d7a65726f2d6164647265737360901b606482015260840160405180910390fd5b600280546001600160a01b0319166001600160a01b0392831617905581166100dc5760405163d92e233d60e01b815260040160405180910390fd5b600480546001600160a01b0319166001600160a01b039290921691909117905550610150565b80516001600160a01b038116811461011957600080fd5b919050565b60008060408385031215610130578182fd5b61013983610102565b915061014760208401610102565b90509250929050565b6111fc8061015f6000396000f3fe608060405234801561001057600080fd5b50600436106100d45760003560e01c8063a734f06e11610081578063e58bb6391161005b578063e58bb63914610219578063e5e19b4a14610221578063f235757f1461024157600080fd5b8063a734f06e1461019f578063e3056a34146101ba578063e43581b8146101da57600080fd5b8063413bf38f116100b2578063413bf38f1461014b57806365210942146101795780638033d6871461018c57600080fd5b80630c340a24146100d95780630ecaea73146101235780632db8c12914610138575b600080fd5b6002546100f99073ffffffffffffffffffffffffffffffffffffffff1681565b60405173ffffffffffffffffffffffffffffffffffffffff90911681526020015b60405180910390f35b610136610131366004611033565b610254565b005b610136610146366004610ff8565b6104be565b61016b610159366004610fde565b60056020526000908152604090205481565b60405190815260200161011a565b610136610187366004610fde565b610535565b61013661019a36600461105c565b610658565b6100f973eeeeeeeeeeeeeeeeeeeeeeeeeeeeeeeeeeeeeeee81565b6003546100f99073ffffffffffffffffffffffffffffffffffffffff1681565b6102096101e8366004610fde565b60025473ffffffffffffffffffffffffffffffffffffffff91821691161490565b604051901515815260200161011a565b610136610762565b6004546100f99073ffffffffffffffffffffffffffffffffffffffff1681565b61013661024f366004610fde565b6107d3565b60025473ffffffffffffffffffffffffffffffffffffffff1633146102c05760405162461bcd60e51b815260206004820152601860248201527f676f7665726e61626c652f6f6e6c792d676f7665726e6f72000000000000000060448201526064015b60405180910390fd5b73ffffffffffffffffffffffffffffffffffffffff821661030d576040517fd92e233d00000000000000000000000000000000000000000000000000000000815260040160405180910390fd5b80610344576040517f1f2a200500000000000000000000000000000000000000000000000000000000815260040160405180910390fd5b73ffffffffffffffffffffffffffffffffffffffff828116600081815260056020526040908190205460025491517fdd62ed3e00000000000000000000000000000000000000000000000000000000815291909316600482015230602482015263dd62ed3e9060440160206040518083038186803b1580156103c557600080fd5b505afa1580156103d9573d6000803e3d6000fd5b505050506040513d601f19601f820116820180604052508101906103fd91906110b7565b1015610435576040517fea8e4eb500000000000000000000000000000000000000000000000000000000815260040160405180910390fd5b73ffffffffffffffffffffffffffffffffffffffff82166000908152600560205260408120805483929061046a90849061113c565b909155505060405181815273ffffffffffffffffffffffffffffffffffffffff8316907f88a4cca46d5b87fc1be704d845d846dbf1fc259afd7e181248ae825c0e7704799060200160405180910390a25050565b60025473ffffffffffffffffffffffffffffffffffffffff1633146105255760405162461bcd60e51b815260206004820152601860248201527f676f7665726e61626c652f6f6e6c792d676f7665726e6f72000000000000000060448201526064016102b7565b610530838383610846565b505050565b60025473ffffffffffffffffffffffffffffffffffffffff16331461059c5760405162461bcd60e51b815260206004820152601860248201527f676f7665726e61626c652f6f6e6c792d676f7665726e6f72000000000000000060448201526064016102b7565b73ffffffffffffffffffffffffffffffffffffffff81166105e9576040517fd92e233d00000000000000000000000000000000000000000000000000000000815260040160405180910390fd5b600480547fffffffffffffffffffffffff00000000000000000000000000000000000000001673ffffffffffffffffffffffffffffffffffffffff83169081179091556040517fbda986fea33634f76bd215bacd0d368610edf55143c3ca42bd0f55040ad870b590600090a250565b60045473ffffffffffffffffffffffffffffffffffffffff1633146106a9576040517fea8e4eb500000000000000000000000000000000000000000000000000000000815260040160405180910390fd5b6002546106d19073ffffffffffffffffffffffffffffffffffffffff85811691168385610a46565b73ffffffffffffffffffffffffffffffffffffffff831660009081526005602052604081208054849290610706908490611154565b90915550506040805183815273ffffffffffffffffffffffffffffffffffffffff83811660208301528516917f44a003af1b90a0dc62c2c94ed618bbfb9428780cae81913d37acf98a3e50c8f1910160405180910390a2505050565b60035473ffffffffffffffffffffffffffffffffffffffff1633146107c95760405162461bcd60e51b815260206004820181905260248201527f676f7665726e61626c652f6f6e6c792d70656e64696e672d676f7665726e6f7260448201526064016102b7565b6107d1610b28565b565b60025473ffffffffffffffffffffffffffffffffffffffff16331461083a5760405162461bcd60e51b815260206004820152601860248201527f676f7665726e61626c652f6f6e6c792d676f7665726e6f72000000000000000060448201526064016102b7565b61084381610b9d565b50565b73ffffffffffffffffffffffffffffffffffffffff83166108cf5760405162461bcd60e51b815260206004820152602f60248201527f636f6c6c65637461626c652d647573742f63616e742d73656e642d647573742d60448201527f746f2d7a65726f2d61646472657373000000000000000000000000000000000060648201526084016102b7565b6108da600083610c9f565b1561094d5760405162461bcd60e51b815260206004820152602e60248201527f636f6c6c65637461626c652d647573742f746f6b656e2d69732d706172742d6f60448201527f662d7468652d70726f746f636f6c00000000000000000000000000000000000060648201526084016102b7565b73ffffffffffffffffffffffffffffffffffffffff821673eeeeeeeeeeeeeeeeeeeeeeeeeeeeeeeeeeeeeeee14156109c85760405173ffffffffffffffffffffffffffffffffffffffff84169082156108fc029083906000818181858888f193505050501580156109c2573d6000803e3d6000fd5b506109e9565b6109e973ffffffffffffffffffffffffffffffffffffffff83168483610cd1565b6040805173ffffffffffffffffffffffffffffffffffffffff8086168252841660208201529081018290527f1e34c1aee8e83c2dcc14c21bb4bfeea7f46c0c998cb797ac7cc4d7a18f5c656b9060600160405180910390a1505050565b60405173ffffffffffffffffffffffffffffffffffffffff80851660248301528316604482015260648101829052610b229085907f23b872dd00000000000000000000000000000000000000000000000000000000906084015b604080517fffffffffffffffffffffffffffffffffffffffffffffffffffffffffffffffe08184030181529190526020810180517bffffffffffffffffffffffffffffffffffffffffffffffffffffffff167fffffffff0000000000000000000000000000000000000000000000000000000090931692909217909152610d27565b50505050565b60038054600280547fffffffffffffffffffffffff000000000000000000000000000000000000000090811673ffffffffffffffffffffffffffffffffffffffff8416179091551690556040517f7880f0fcc848e1f26e461654b100a69f8d0641e29aa29f6596c6afadbb36b5ea90600090a1565b73ffffffffffffffffffffffffffffffffffffffff8116610c265760405162461bcd60e51b815260206004820152603560248201527f676f7665726e61626c652f70656e64696e672d676f7665726e6f722d73686f7560448201527f6c642d6e6f742d62652d7a65726f2d616464726573000000000000000000000060648201526084016102b7565b600380547fffffffffffffffffffffffff00000000000000000000000000000000000000001673ffffffffffffffffffffffffffffffffffffffff83169081179091556040519081527f56bddfa0cee9697cebddf9acd7f23dc6583663b05e007b877056d05017994def9060200160405180910390a150565b73ffffffffffffffffffffffffffffffffffffffff8116600090815260018301602052604081205415155b9392505050565b60405173ffffffffffffffffffffffffffffffffffffffff83166024820152604481018290526105309084907fa9059cbb0000000000000000000000000000000000000000000000000000000090606401610aa0565b6000610d89826040518060400160405280602081526020017f5361666545524332303a206c6f772d6c6576656c2063616c6c206661696c65648152508573ffffffffffffffffffffffffffffffffffffffff16610e199092919063ffffffff16565b8051909150156105305780806020019051810190610da79190611097565b6105305760405162461bcd60e51b815260206004820152602a60248201527f5361666545524332303a204552433230206f7065726174696f6e20646964206e60448201527f6f7420737563636565640000000000000000000000000000000000000000000060648201526084016102b7565b6060610e288484600085610e30565b949350505050565b606082471015610ea85760405162461bcd60e51b815260206004820152602660248201527f416464726573733a20696e73756666696369656e742062616c616e636520666f60448201527f722063616c6c000000000000000000000000000000000000000000000000000060648201526084016102b7565b843b610ef65760405162461bcd60e51b815260206004820152601d60248201527f416464726573733a2063616c6c20746f206e6f6e2d636f6e747261637400000060448201526064016102b7565b6000808673ffffffffffffffffffffffffffffffffffffffff168587604051610f1f91906110cf565b60006040518083038185875af1925050503d8060008114610f5c576040519150601f19603f3d011682016040523d82523d6000602084013e610f61565b606091505b5091509150610f71828286610f7c565b979650505050505050565b60608315610f8b575081610cca565b825115610f9b5782518084602001fd5b8160405162461bcd60e51b81526004016102b791906110eb565b803573ffffffffffffffffffffffffffffffffffffffff81168114610fd957600080fd5b919050565b600060208284031215610fef578081fd5b610cca82610fb5565b60008060006060848603121561100c578182fd5b61101584610fb5565b925061102360208501610fb5565b9150604084013590509250925092565b60008060408385031215611045578182fd5b61104e83610fb5565b946020939093013593505050565b600080600060608486031215611070578283fd5b61107984610fb5565b92506020840135915061108e60408501610fb5565b90509250925092565b6000602082840312156110a8578081fd5b81518015158114610cca578182fd5b6000602082840312156110c8578081fd5b5051919050565b600082516110e181846020870161116b565b9190910192915050565b602081526000825180602084015261110a81604085016020870161116b565b601f017fffffffffffffffffffffffffffffffffffffffffffffffffffffffffffffffe0169190910160400192915050565b6000821982111561114f5761114f611197565b500190565b60008282101561116657611166611197565b500390565b60005b8381101561118657818101518382015260200161116e565b83811115610b225750506000910152565b7f4e487b7100000000000000000000000000000000000000000000000000000000600052601160045260246000fdfea26469706673582212203172b549fd637d3497561db52b9e121cceab82466b10c19b4642f24d3a9ed59664736f6c63430008040033",
  "devdoc": {
    "kind": "dev",
    "methods": {},
    "version": 1
  },
  "userdoc": {
    "kind": "user",
    "methods": {},
    "version": 1
  },
  "storageLayout": {
    "storage": [
      {
        "astId": 21,
        "contract": "contracts/OTCPool.sol:OTCPool",
        "label": "protocolTokens",
        "offset": 0,
        "slot": "0",
        "type": "t_struct(AddressSet)2664_storage"
      },
      {
        "astId": 132,
        "contract": "contracts/OTCPool.sol:OTCPool",
        "label": "governor",
        "offset": 0,
        "slot": "2",
        "type": "t_address"
      },
      {
        "astId": 135,
        "contract": "contracts/OTCPool.sol:OTCPool",
        "label": "pendingGovernor",
        "offset": 0,
        "slot": "3",
        "type": "t_address"
      },
      {
        "astId": 3484,
        "contract": "contracts/OTCPool.sol:OTCPool",
        "label": "tradeFactory",
        "offset": 0,
        "slot": "4",
        "type": "t_address"
      },
      {
        "astId": 3489,
        "contract": "contracts/OTCPool.sol:OTCPool",
        "label": "offers",
        "offset": 0,
        "slot": "5",
        "type": "t_mapping(t_address,t_uint256)"
      }
    ],
    "types": {
      "t_address": {
        "encoding": "inplace",
        "label": "address",
        "numberOfBytes": "20"
      },
      "t_array(t_bytes32)dyn_storage": {
        "base": "t_bytes32",
        "encoding": "dynamic_array",
        "label": "bytes32[]",
        "numberOfBytes": "32"
      },
      "t_bytes32": {
        "encoding": "inplace",
        "label": "bytes32",
        "numberOfBytes": "32"
      },
      "t_mapping(t_address,t_uint256)": {
        "encoding": "mapping",
        "key": "t_address",
        "label": "mapping(address => uint256)",
        "numberOfBytes": "32",
        "value": "t_uint256"
      },
      "t_mapping(t_bytes32,t_uint256)": {
        "encoding": "mapping",
        "key": "t_bytes32",
        "label": "mapping(bytes32 => uint256)",
        "numberOfBytes": "32",
        "value": "t_uint256"
      },
      "t_struct(AddressSet)2664_storage": {
        "encoding": "inplace",
        "label": "struct EnumerableSet.AddressSet",
        "members": [
          {
            "astId": 2663,
            "contract": "contracts/OTCPool.sol:OTCPool",
            "label": "_inner",
            "offset": 0,
            "slot": "0",
            "type": "t_struct(Set)2363_storage"
          }
        ],
        "numberOfBytes": "64"
      },
      "t_struct(Set)2363_storage": {
        "encoding": "inplace",
        "label": "struct EnumerableSet.Set",
        "members": [
          {
            "astId": 2358,
            "contract": "contracts/OTCPool.sol:OTCPool",
            "label": "_values",
            "offset": 0,
            "slot": "0",
            "type": "t_array(t_bytes32)dyn_storage"
          },
          {
            "astId": 2362,
            "contract": "contracts/OTCPool.sol:OTCPool",
            "label": "_indexes",
            "offset": 0,
            "slot": "1",
            "type": "t_mapping(t_bytes32,t_uint256)"
          }
        ],
        "numberOfBytes": "64"
      },
      "t_uint256": {
        "encoding": "inplace",
        "label": "uint256",
        "numberOfBytes": "32"
      }
    }
  }
}