{
  "address": "0xa86F5E157032c3a742a2b99a116731445AAB6882",
  "abi": [
    {
      "inputs": [
        {
          "internalType": "address",
          "name": "_governor",
          "type": "address"
        },
        {
          "internalType": "address",
          "name": "_tradeFactory",
          "type": "address"
        }
      ],
      "stateMutability": "nonpayable",
      "type": "constructor"
    },
    {
      "inputs": [],
      "name": "NotAuthorized",
      "type": "error"
    },
    {
      "inputs": [],
      "name": "ZeroAddress",
      "type": "error"
    },
    {
      "inputs": [],
      "name": "ZeroAmount",
      "type": "error"
    },
    {
      "anonymous": false,
      "inputs": [
        {
          "indexed": false,
          "internalType": "address",
          "name": "_to",
          "type": "address"
        },
        {
          "indexed": false,
          "internalType": "address",
          "name": "token",
          "type": "address"
        },
        {
          "indexed": false,
          "internalType": "uint256",
          "name": "amount",
          "type": "uint256"
        }
      ],
      "name": "DustSent",
      "type": "event"
    },
    {
      "anonymous": false,
      "inputs": [],
      "name": "GovernorAccepted",
      "type": "event"
    },
    {
      "anonymous": false,
      "inputs": [
        {
          "indexed": true,
          "internalType": "address",
          "name": "_offeredToken",
          "type": "address"
        },
        {
          "indexed": false,
          "internalType": "uint256",
          "name": "_amount",
          "type": "uint256"
        }
      ],
      "name": "OfferCreate",
      "type": "event"
    },
    {
      "anonymous": false,
      "inputs": [
        {
          "indexed": true,
          "internalType": "address",
          "name": "_wantedToken",
          "type": "address"
        },
        {
          "indexed": false,
          "internalType": "uint256",
          "name": "_amount",
          "type": "uint256"
        },
        {
          "indexed": false,
          "internalType": "address",
          "name": "_receiver",
          "type": "address"
        }
      ],
      "name": "OfferTaken",
      "type": "event"
    },
    {
      "anonymous": false,
      "inputs": [
        {
          "indexed": false,
          "internalType": "address",
          "name": "pendingGovernor",
          "type": "address"
        }
      ],
      "name": "PendingGovernorSet",
      "type": "event"
    },
    {
      "anonymous": false,
      "inputs": [
        {
          "indexed": true,
          "internalType": "address",
          "name": "_tradeFactory",
          "type": "address"
        }
      ],
      "name": "TradeFactorySet",
      "type": "event"
    },
    {
      "inputs": [],
      "name": "ETH_ADDRESS",
      "outputs": [
        {
          "internalType": "address",
          "name": "",
          "type": "address"
        }
      ],
      "stateMutability": "view",
      "type": "function"
    },
    {
      "inputs": [],
      "name": "acceptGovernor",
      "outputs": [],
      "stateMutability": "nonpayable",
      "type": "function"
    },
    {
      "inputs": [
        {
          "internalType": "address",
          "name": "_offeredToken",
          "type": "address"
        },
        {
          "internalType": "uint256",
          "name": "_amount",
          "type": "uint256"
        }
      ],
      "name": "create",
      "outputs": [],
      "stateMutability": "nonpayable",
      "type": "function"
    },
    {
      "inputs": [],
      "name": "governor",
      "outputs": [
        {
          "internalType": "address",
          "name": "",
          "type": "address"
        }
      ],
      "stateMutability": "view",
      "type": "function"
    },
    {
      "inputs": [
        {
          "internalType": "address",
          "name": "_account",
          "type": "address"
        }
      ],
      "name": "isGovernor",
      "outputs": [
        {
          "internalType": "bool",
          "name": "_isGovernor",
          "type": "bool"
        }
      ],
      "stateMutability": "view",
      "type": "function"
    },
    {
      "inputs": [
        {
          "internalType": "address",
          "name": "",
          "type": "address"
        }
      ],
      "name": "offers",
      "outputs": [
        {
          "internalType": "uint256",
          "name": "",
          "type": "uint256"
        }
      ],
      "stateMutability": "view",
      "type": "function"
    },
    {
      "inputs": [],
      "name": "pendingGovernor",
      "outputs": [
        {
          "internalType": "address",
          "name": "",
          "type": "address"
        }
      ],
      "stateMutability": "view",
      "type": "function"
    },
    {
      "inputs": [
        {
          "internalType": "address",
          "name": "_to",
          "type": "address"
        },
        {
          "internalType": "address",
          "name": "_token",
          "type": "address"
        },
        {
          "internalType": "uint256",
          "name": "_amount",
          "type": "uint256"
        }
      ],
      "name": "sendDust",
      "outputs": [],
      "stateMutability": "nonpayable",
      "type": "function"
    },
    {
      "inputs": [
        {
          "internalType": "address",
          "name": "_pendingGovernor",
          "type": "address"
        }
      ],
      "name": "setPendingGovernor",
      "outputs": [],
      "stateMutability": "nonpayable",
      "type": "function"
    },
    {
      "inputs": [
        {
          "internalType": "address",
          "name": "_tradeFactory",
          "type": "address"
        }
      ],
      "name": "setTradeFactory",
      "outputs": [],
      "stateMutability": "nonpayable",
      "type": "function"
    },
    {
      "inputs": [
        {
          "internalType": "address",
          "name": "_wantedToken",
          "type": "address"
        },
        {
          "internalType": "uint256",
          "name": "_amount",
          "type": "uint256"
        },
        {
          "internalType": "address",
          "name": "_receiver",
          "type": "address"
        }
      ],
      "name": "take",
      "outputs": [],
      "stateMutability": "nonpayable",
      "type": "function"
    },
    {
      "inputs": [],
      "name": "tradeFactory",
      "outputs": [
        {
          "internalType": "address",
          "name": "",
          "type": "address"
        }
      ],
      "stateMutability": "view",
      "type": "function"
    }
  ],
  "transactionHash": "0xafb2929e0120f3c7718b00d3c919ebf6b594a9a600c5cbf78b63861f825f81a2",
  "args": [
    "0x9f2A061d6fEF20ad3A656e23fd9C814b75fd5803",
    "0x34aA402D943Ea983EBF890bD4B4d71239B6E2C00"
  ],
  "solcInputHash": "c30a427c16fefc461e1166069684705e",
  "bytecode": "0x608060405234801561001057600080fd5b50604051610f23380380610f2383398101604081905261002f9161011e565b816001600160a01b0381166100a15760405162461bcd60e51b815260206004820152602e60248201527f676f7665726e61626c652f676f7665726e6f722d73686f756c642d6e6f742d6260448201526d652d7a65726f2d6164647265737360901b606482015260840160405180910390fd5b600280546001600160a01b0319166001600160a01b0392831617905581166100dc5760405163d92e233d60e01b815260040160405180910390fd5b600480546001600160a01b0319166001600160a01b039290921691909117905550610151565b80516001600160a01b038116811461011957600080fd5b919050565b6000806040838503121561013157600080fd5b61013a83610102565b915061014860208401610102565b90509250929050565b610dc3806101606000396000f3fe608060405234801561001057600080fd5b50600436106100b45760003560e01c8063a734f06e11610071578063a734f06e14610165578063e3056a3414610180578063e43581b814610193578063e58bb639146101c5578063e5e19b4a146101cd578063f235757f146101e057600080fd5b80630c340a24146100b95780630ecaea73146100e95780632db8c129146100fe578063413bf38f14610111578063652109421461013f5780638033d68714610152575b600080fd5b6002546100cc906001600160a01b031681565b6040516001600160a01b0390911681526020015b60405180910390f35b6100fc6100f7366004610b9e565b6101f3565b005b6100fc61010c366004610bc8565b61038c565b61013161011f366004610c04565b60056020526000908152604090205481565b6040519081526020016100e0565b6100fc61014d366004610c04565b6103c6565b6100fc610160366004610c1f565b610461565b6100cc73eeeeeeeeeeeeeeeeeeeeeeeeeeeeeeeeeeeeeeee81565b6003546100cc906001600160a01b031681565b6101b56101a1366004610c04565b6002546001600160a01b0391821691161490565b60405190151581526020016100e0565b6100fc61051e565b6004546100cc906001600160a01b031681565b6100fc6101ee366004610c04565b610582565b6002546001600160a01b031633146102265760405162461bcd60e51b815260040161021d90610c5b565b60405180910390fd5b6001600160a01b03821661024d5760405163d92e233d60e01b815260040160405180910390fd5b8061026b57604051631f2a200560e01b815260040160405180910390fd5b6001600160a01b0382811660008181526005602052604090819020546002549151636eb1769f60e11b815291909316600482015230602482015263dd62ed3e9060440160206040518083038186803b1580156102c657600080fd5b505afa1580156102da573d6000803e3d6000fd5b505050506040513d601f19601f820116820180604052508101906102fe9190610c92565b101561031d5760405163ea8e4eb560e01b815260040160405180910390fd5b6001600160a01b03821660009081526005602052604081208054839290610345908490610cc1565b90915550506040518181526001600160a01b038316907f88a4cca46d5b87fc1be704d845d846dbf1fc259afd7e181248ae825c0e7704799060200160405180910390a25050565b6002546001600160a01b031633146103b65760405162461bcd60e51b815260040161021d90610c5b565b6103c18383836105b8565b505050565b6002546001600160a01b031633146103f05760405162461bcd60e51b815260040161021d90610c5b565b6001600160a01b0381166104175760405163d92e233d60e01b815260040160405180910390fd5b600480546001600160a01b0319166001600160a01b0383169081179091556040517fbda986fea33634f76bd215bacd0d368610edf55143c3ca42bd0f55040ad870b590600090a250565b6004546001600160a01b0316331461048c5760405163ea8e4eb560e01b815260040160405180910390fd5b6002546104a7906001600160a01b038581169116838561075a565b6001600160a01b038316600090815260056020526040812080548492906104cf908490610cd9565b9091555050604080518381526001600160a01b0383811660208301528516917f44a003af1b90a0dc62c2c94ed618bbfb9428780cae81913d37acf98a3e50c8f1910160405180910390a2505050565b6003546001600160a01b031633146105785760405162461bcd60e51b815260206004820181905260248201527f676f7665726e61626c652f6f6e6c792d70656e64696e672d676f7665726e6f72604482015260640161021d565b6105806107cb565b565b6002546001600160a01b031633146105ac5760405162461bcd60e51b815260040161021d90610c5b565b6105b58161081b565b50565b6001600160a01b0383166106265760405162461bcd60e51b815260206004820152602f60248201527f636f6c6c65637461626c652d647573742f63616e742d73656e642d647573742d60448201526e746f2d7a65726f2d6164647265737360881b606482015260840161021d565b6106316000836108e3565b156106955760405162461bcd60e51b815260206004820152602e60248201527f636f6c6c65637461626c652d647573742f746f6b656e2d69732d706172742d6f60448201526d198b5d1a194b5c1c9bdd1bd8dbdb60921b606482015260840161021d565b6001600160a01b03821673eeeeeeeeeeeeeeeeeeeeeeeeeeeeeeeeeeeeeeee14156106f6576040516001600160a01b0384169082156108fc029083906000818181858888f193505050501580156106f0573d6000803e3d6000fd5b5061070a565b61070a6001600160a01b0383168483610908565b604080516001600160a01b038086168252841660208201529081018290527f1e34c1aee8e83c2dcc14c21bb4bfeea7f46c0c998cb797ac7cc4d7a18f5c656b9060600160405180910390a1505050565b6040516001600160a01b03808516602483015283166044820152606481018290526107c59085906323b872dd60e01b906084015b60408051601f198184030181529190526020810180516001600160e01b03166001600160e01b031990931692909217909152610938565b50505050565b60038054600280546001600160a01b03199081166001600160a01b038416179091551690556040517f7880f0fcc848e1f26e461654b100a69f8d0641e29aa29f6596c6afadbb36b5ea90600090a1565b6001600160a01b03811661088f5760405162461bcd60e51b815260206004820152603560248201527f676f7665726e61626c652f70656e64696e672d676f7665726e6f722d73686f756044820152746c642d6e6f742d62652d7a65726f2d61646472657360581b606482015260840161021d565b600380546001600160a01b0319166001600160a01b0383169081179091556040519081527f56bddfa0cee9697cebddf9acd7f23dc6583663b05e007b877056d05017994def9060200160405180910390a150565b6001600160a01b038116600090815260018301602052604081205415155b9392505050565b6040516001600160a01b0383166024820152604481018290526103c190849063a9059cbb60e01b9060640161078e565b600061098d826040518060400160405280602081526020017f5361666545524332303a206c6f772d6c6576656c2063616c6c206661696c6564815250856001600160a01b0316610a0a9092919063ffffffff16565b8051909150156103c157808060200190518101906109ab9190610cf0565b6103c15760405162461bcd60e51b815260206004820152602a60248201527f5361666545524332303a204552433230206f7065726174696f6e20646964206e6044820152691bdd081cdd58d8d9595960b21b606482015260840161021d565b6060610a198484600085610a21565b949350505050565b606082471015610a825760405162461bcd60e51b815260206004820152602660248201527f416464726573733a20696e73756666696369656e742062616c616e636520666f6044820152651c8818d85b1b60d21b606482015260840161021d565b843b610ad05760405162461bcd60e51b815260206004820152601d60248201527f416464726573733a2063616c6c20746f206e6f6e2d636f6e7472616374000000604482015260640161021d565b600080866001600160a01b03168587604051610aec9190610d3e565b60006040518083038185875af1925050503d8060008114610b29576040519150601f19603f3d011682016040523d82523d6000602084013e610b2e565b606091505b5091509150610b3e828286610b49565b979650505050505050565b60608315610b58575081610901565b825115610b685782518084602001fd5b8160405162461bcd60e51b815260040161021d9190610d5a565b80356001600160a01b0381168114610b9957600080fd5b919050565b60008060408385031215610bb157600080fd5b610bba83610b82565b946020939093013593505050565b600080600060608486031215610bdd57600080fd5b610be684610b82565b9250610bf460208501610b82565b9150604084013590509250925092565b600060208284031215610c1657600080fd5b61090182610b82565b600080600060608486031215610c3457600080fd5b610c3d84610b82565b925060208401359150610c5260408501610b82565b90509250925092565b60208082526018908201527f676f7665726e61626c652f6f6e6c792d676f7665726e6f720000000000000000604082015260600190565b600060208284031215610ca457600080fd5b5051919050565b634e487b7160e01b600052601160045260246000fd5b60008219821115610cd457610cd4610cab565b500190565b600082821015610ceb57610ceb610cab565b500390565b600060208284031215610d0257600080fd5b8151801515811461090157600080fd5b60005b83811015610d2d578181015183820152602001610d15565b838111156107c55750506000910152565b60008251610d50818460208701610d12565b9190910192915050565b6020815260008251806020840152610d79816040850160208701610d12565b601f01601f1916919091016040019291505056fea26469706673582212204d514b82056c5eb1d406f90393b3fdc708689d8fc5b1f3009da7d34dee1ce69164736f6c63430008090033",
  "devdoc": {
    "kind": "dev",
    "methods": {},
    "version": 1
  },
  "userdoc": {
    "kind": "user",
    "methods": {},
    "version": 1
  },
  "storageLayout": {
    "storage": [
      {
        "astId": 3086,
        "contract": "contracts/OTCPool.sol:OTCPool",
        "label": "protocolTokens",
        "offset": 0,
        "slot": "0",
        "type": "t_struct(AddressSet)2210_storage"
      },
      {
        "astId": 3197,
        "contract": "contracts/OTCPool.sol:OTCPool",
        "label": "governor",
        "offset": 0,
        "slot": "2",
        "type": "t_address"
      },
      {
        "astId": 3200,
        "contract": "contracts/OTCPool.sol:OTCPool",
        "label": "pendingGovernor",
        "offset": 0,
        "slot": "3",
        "type": "t_address"
      },
      {
        "astId": 3484,
        "contract": "contracts/OTCPool.sol:OTCPool",
        "label": "tradeFactory",
        "offset": 0,
        "slot": "4",
        "type": "t_address"
      },
      {
        "astId": 3489,
        "contract": "contracts/OTCPool.sol:OTCPool",
        "label": "offers",
        "offset": 0,
        "slot": "5",
        "type": "t_mapping(t_address,t_uint256)"
      }
    ],
    "types": {
      "t_address": {
        "encoding": "inplace",
        "label": "address",
        "numberOfBytes": "20"
      },
      "t_array(t_bytes32)dyn_storage": {
        "base": "t_bytes32",
        "encoding": "dynamic_array",
        "label": "bytes32[]",
        "numberOfBytes": "32"
      },
      "t_bytes32": {
        "encoding": "inplace",
        "label": "bytes32",
        "numberOfBytes": "32"
      },
      "t_mapping(t_address,t_uint256)": {
        "encoding": "mapping",
        "key": "t_address",
        "label": "mapping(address => uint256)",
        "numberOfBytes": "32",
        "value": "t_uint256"
      },
      "t_mapping(t_bytes32,t_uint256)": {
        "encoding": "mapping",
        "key": "t_bytes32",
        "label": "mapping(bytes32 => uint256)",
        "numberOfBytes": "32",
        "value": "t_uint256"
      },
      "t_struct(AddressSet)2210_storage": {
        "encoding": "inplace",
        "label": "struct EnumerableSet.AddressSet",
        "members": [
          {
            "astId": 2209,
            "contract": "contracts/OTCPool.sol:OTCPool",
            "label": "_inner",
            "offset": 0,
            "slot": "0",
            "type": "t_struct(Set)1909_storage"
          }
        ],
        "numberOfBytes": "64"
      },
      "t_struct(Set)1909_storage": {
        "encoding": "inplace",
        "label": "struct EnumerableSet.Set",
        "members": [
          {
            "astId": 1904,
            "contract": "contracts/OTCPool.sol:OTCPool",
            "label": "_values",
            "offset": 0,
            "slot": "0",
            "type": "t_array(t_bytes32)dyn_storage"
          },
          {
            "astId": 1908,
            "contract": "contracts/OTCPool.sol:OTCPool",
            "label": "_indexes",
            "offset": 0,
            "slot": "1",
            "type": "t_mapping(t_bytes32,t_uint256)"
          }
        ],
        "numberOfBytes": "64"
      },
      "t_uint256": {
        "encoding": "inplace",
        "label": "uint256",
        "numberOfBytes": "32"
      }
    }
  }
}