{
  "address": "0x0792B90fD13aFCffFC9eA5dD1663352a209065a7",
  "abi": [
    {
      "inputs": [
        {
          "internalType": "address",
          "name": "_governor",
          "type": "address"
        },
        {
          "internalType": "address",
          "name": "_tradeFactory",
          "type": "address"
        },
        {
          "internalType": "address",
          "name": "_weth",
          "type": "address"
        },
        {
          "internalType": "address",
          "name": "_wanchor",
          "type": "address"
        },
        {
          "internalType": "address",
          "name": "_factory",
          "type": "address"
        },
        {
          "internalType": "address",
          "name": "_router",
          "type": "address"
        }
      ],
      "stateMutability": "nonpayable",
      "type": "constructor"
    },
    {
      "inputs": [],
      "name": "NotAuthorized",
      "type": "error"
    },
    {
      "inputs": [],
      "name": "ZeroAddress",
      "type": "error"
    },
    {
      "inputs": [],
      "name": "ZeroAmount",
      "type": "error"
    },
    {
      "inputs": [],
      "name": "ZeroSlippage",
      "type": "error"
    },
    {
      "anonymous": false,
      "inputs": [
        {
          "indexed": false,
          "internalType": "address",
          "name": "_to",
          "type": "address"
        },
        {
          "indexed": false,
          "internalType": "address",
          "name": "token",
          "type": "address"
        },
        {
          "indexed": false,
          "internalType": "uint256",
          "name": "amount",
          "type": "uint256"
        }
      ],
      "name": "DustSent",
      "type": "event"
    },
    {
      "anonymous": false,
      "inputs": [],
      "name": "GovernorAccepted",
      "type": "event"
    },
    {
      "anonymous": false,
      "inputs": [
        {
          "indexed": false,
          "internalType": "address",
          "name": "pendingGovernor",
          "type": "address"
        }
      ],
      "name": "PendingGovernorSet",
      "type": "event"
    },
    {
      "anonymous": false,
      "inputs": [
        {
          "indexed": false,
          "internalType": "address",
          "name": "_receiver",
          "type": "address"
        },
        {
          "indexed": false,
          "internalType": "address",
          "name": "_tokenIn",
          "type": "address"
        },
        {
          "indexed": false,
          "internalType": "address",
          "name": "_tokenOut",
          "type": "address"
        },
        {
          "indexed": false,
          "internalType": "uint256",
          "name": "_amountIn",
          "type": "uint256"
        },
        {
          "indexed": false,
          "internalType": "uint256",
          "name": "_maxSlippage",
          "type": "uint256"
        },
        {
          "indexed": false,
          "internalType": "uint256",
          "name": "_receivedAmount",
          "type": "uint256"
        },
        {
          "indexed": false,
          "internalType": "bytes",
          "name": "_data",
          "type": "bytes"
        }
      ],
      "name": "Swapped",
      "type": "event"
    },
    {
      "inputs": [],
      "name": "ETH_ADDRESS",
      "outputs": [
        {
          "internalType": "address",
          "name": "",
          "type": "address"
        }
      ],
      "stateMutability": "view",
      "type": "function"
    },
    {
      "inputs": [],
      "name": "FACTORY",
      "outputs": [
        {
          "internalType": "address",
          "name": "",
          "type": "address"
        }
      ],
      "stateMutability": "view",
      "type": "function"
    },
    {
      "inputs": [],
      "name": "ROUTER",
      "outputs": [
        {
          "internalType": "address",
          "name": "",
          "type": "address"
        }
      ],
      "stateMutability": "view",
      "type": "function"
    },
    {
      "inputs": [],
      "name": "SLIPPAGE_PRECISION",
      "outputs": [
        {
          "internalType": "uint256",
          "name": "",
          "type": "uint256"
        }
      ],
      "stateMutability": "view",
      "type": "function"
    },
    {
      "inputs": [],
      "name": "SWAPPER_TYPE",
      "outputs": [
        {
          "internalType": "enum ISwapper.SwapperType",
          "name": "",
          "type": "uint8"
        }
      ],
      "stateMutability": "view",
      "type": "function"
    },
    {
      "inputs": [],
      "name": "TRADE_FACTORY",
      "outputs": [
        {
          "internalType": "address",
          "name": "",
          "type": "address"
        }
      ],
      "stateMutability": "view",
      "type": "function"
    },
    {
      "inputs": [],
      "name": "WANCHOR",
      "outputs": [
        {
          "internalType": "address",
          "name": "",
          "type": "address"
        }
      ],
      "stateMutability": "view",
      "type": "function"
    },
    {
      "inputs": [],
      "name": "WETH",
      "outputs": [
        {
          "internalType": "address",
          "name": "",
          "type": "address"
        }
      ],
      "stateMutability": "view",
      "type": "function"
    },
    {
      "inputs": [],
      "name": "acceptGovernor",
      "outputs": [],
      "stateMutability": "nonpayable",
      "type": "function"
    },
    {
      "inputs": [],
      "name": "governor",
      "outputs": [
        {
          "internalType": "address",
          "name": "",
          "type": "address"
        }
      ],
      "stateMutability": "view",
      "type": "function"
    },
    {
      "inputs": [
        {
          "internalType": "address",
          "name": "_account",
          "type": "address"
        }
      ],
      "name": "isGovernor",
      "outputs": [
        {
          "internalType": "bool",
          "name": "_isGovernor",
          "type": "bool"
        }
      ],
      "stateMutability": "view",
      "type": "function"
    },
    {
      "inputs": [],
      "name": "pendingGovernor",
      "outputs": [
        {
          "internalType": "address",
          "name": "",
          "type": "address"
        }
      ],
      "stateMutability": "view",
      "type": "function"
    },
    {
      "inputs": [
        {
          "internalType": "address",
          "name": "_to",
          "type": "address"
        },
        {
          "internalType": "address",
          "name": "_token",
          "type": "address"
        },
        {
          "internalType": "uint256",
          "name": "_amount",
          "type": "uint256"
        }
      ],
      "name": "sendDust",
      "outputs": [],
      "stateMutability": "nonpayable",
      "type": "function"
    },
    {
      "inputs": [
        {
          "internalType": "address",
          "name": "_pendingGovernor",
          "type": "address"
        }
      ],
      "name": "setPendingGovernor",
      "outputs": [],
      "stateMutability": "nonpayable",
      "type": "function"
    },
    {
      "inputs": [
        {
          "internalType": "address",
          "name": "_receiver",
          "type": "address"
        },
        {
          "internalType": "address",
          "name": "_tokenIn",
          "type": "address"
        },
        {
          "internalType": "address",
          "name": "_tokenOut",
          "type": "address"
        },
        {
          "internalType": "uint256",
          "name": "_amountIn",
          "type": "uint256"
        },
        {
          "internalType": "uint256",
          "name": "_maxSlippage",
          "type": "uint256"
        },
        {
          "internalType": "bytes",
          "name": "_data",
          "type": "bytes"
        }
      ],
      "name": "swap",
      "outputs": [
        {
          "internalType": "uint256",
          "name": "_receivedAmount",
          "type": "uint256"
        }
      ],
      "stateMutability": "nonpayable",
      "type": "function"
    }
  ],
  "transactionHash": "0x3176f5e0dff8dcfbbc66d59d9fb149bf1c9abb1bef0b91560f7dacb7b127f0b5",
  "args": [
    "0x9f2A061d6fEF20ad3A656e23fd9C814b75fd5803",
    "0x34aA402D943Ea983EBF890bD4B4d71239B6E2C00",
    "0x74b23882a30290451A17c44f4F05243b6b58C76d",
    "0x21be370D5312f44cB42ce377BC9b8a0cEF1A4C83",
    "0x152eE697f2E276fA89E96742e9bB9aB1F2E61bE3",
    "0xF491e7B69E4244ad4002BC14e878a34207E38c29"
  ],
  "solcInputHash": "c30a427c16fefc461e1166069684705e",
  "bytecode": "0x61014060405261271060a0523480156200001857600080fd5b5060405162001f7a38038062001f7a8339810160408190526200003b916200013a565b858580826001600160a01b038116620000b15760405162461bcd60e51b815260206004820152602e60248201527f676f7665726e61626c652f676f7665726e6f722d73686f756c642d6e6f742d6260448201526d652d7a65726f2d6164647265737360901b606482015260840160405180910390fd5b600080546001600160a01b0319166001600160a01b039283161790558116620000ed5760405163d92e233d60e01b815260040160405180910390fd5b6001600160a01b0390811660805295861660c052505091831660e052821661010052166101205250620001bb9050565b80516001600160a01b03811681146200013557600080fd5b919050565b60008060008060008060c087890312156200015457600080fd5b6200015f876200011d565b95506200016f602088016200011d565b94506200017f604088016200011d565b93506200018f606088016200011d565b92506200019f608088016200011d565b9150620001af60a088016200011d565b90509295509295509295565b60805160a05160c05160e0516101005161012051611ce3620002976000396000818161016b0152818161072501528181610823015281816108e50152818161097c01528181610d7f015281816110bf01526113ff01526000818161014401528181610c6801528181610e7801528181610f50015281816111b80152611290015260008181610243015281816111880152818161125d015261137401526000818161021c01528181610e4801528181610f1d015261103401526000818161019201526109a60152600081816101c701526103510152611ce36000f3fe608060405234801561001057600080fd5b50600436106100f55760003560e01c8063a734f06e11610097578063e3056a3411610066578063e3056a341461027a578063e43581b81461028d578063e58bb639146102bf578063f235757f146102c757600080fd5b8063a734f06e146101fc578063ad5c464814610217578063ae3ac1691461023e578063cd985af01461026557600080fd5b806332fe7b26116100d357806332fe7b2614610166578063453943f01461018d5780637556fae6146101c2578063a5d4096b146101e957600080fd5b80630c340a24146100fa5780632db8c1291461012a5780632dd310001461013f575b600080fd5b60005461010d906001600160a01b031681565b6040516001600160a01b0390911681526020015b60405180910390f35b61013d610138366004611784565b6102da565b005b61010d7f000000000000000000000000000000000000000000000000000000000000000081565b61010d7f000000000000000000000000000000000000000000000000000000000000000081565b6101b47f000000000000000000000000000000000000000000000000000000000000000081565b604051908152602001610121565b61010d7f000000000000000000000000000000000000000000000000000000000000000081565b6101b46101f73660046117c5565b610344565b61010d73eeeeeeeeeeeeeeeeeeeeeeeeeeeeeeeeeeeeeeee81565b61010d7f000000000000000000000000000000000000000000000000000000000000000081565b61010d7f000000000000000000000000000000000000000000000000000000000000000081565b61026d600181565b6040516101219190611883565b60015461010d906001600160a01b031681565b6102af61029b3660046118ab565b6000546001600160a01b0391821691161490565b6040519015158152602001610121565b61013d6103fd565b61013d6102d53660046118ab565b610461565b6000546001600160a01b031633146103345760405162461bcd60e51b815260206004820152601860248201527733b7bb32b93730b1363297b7b7363c96b3b7bb32b93737b960411b60448201526064015b60405180910390fd5b61033f8383836104c2565b505050565b6000336001600160a01b037f0000000000000000000000000000000000000000000000000000000000000000161461038f5760405163ea8e4eb560e01b815260040160405180910390fd5b61039c8888888888610664565b6103ab888888888888886106f4565b90507f40971433310985cab81e121610e21c884496299299bfdb99b10c0f75815c988788888888888689896040516103ea9897969594939291906118c8565b60405180910390a1979650505050505050565b6001546001600160a01b031633146104575760405162461bcd60e51b815260206004820181905260248201527f676f7665726e61626c652f6f6e6c792d70656e64696e672d676f7665726e6f72604482015260640161032b565b61045f610aa6565b565b6000546001600160a01b031633146104b65760405162461bcd60e51b815260206004820152601860248201527733b7bb32b93730b1363297b7b7363c96b3b7bb32b93737b960411b604482015260640161032b565b6104bf81610af6565b50565b6001600160a01b0383166105305760405162461bcd60e51b815260206004820152602f60248201527f636f6c6c65637461626c652d647573742f63616e742d73656e642d647573742d60448201526e746f2d7a65726f2d6164647265737360881b606482015260840161032b565b61053b600283610bbe565b1561059f5760405162461bcd60e51b815260206004820152602e60248201527f636f6c6c65637461626c652d647573742f746f6b656e2d69732d706172742d6f60448201526d198b5d1a194b5c1c9bdd1bd8dbdb60921b606482015260840161032b565b6001600160a01b03821673eeeeeeeeeeeeeeeeeeeeeeeeeeeeeeeeeeeeeeee1415610600576040516001600160a01b0384169082156108fc029083906000818181858888f193505050501580156105fa573d6000803e3d6000fd5b50610614565b6106146001600160a01b0383168483610be3565b604080516001600160a01b038086168252841660208201529081018290527f1e34c1aee8e83c2dcc14c21bb4bfeea7f46c0c998cb797ac7cc4d7a18f5c656b9060600160405180910390a1505050565b6001600160a01b038516158061068157506001600160a01b038416155b8061069357506001600160a01b038316155b156106b15760405163d92e233d60e01b815260040160405180910390fd5b816106cf57604051631f2a200560e01b815260040160405180910390fd5b806106ed57604051635380c59d60e01b815260040160405180910390fd5b5050505050565b600060608183156107dd5761070b848601866119a0565b60405163d06ca61f60e01b81529092506001600160a01b037f0000000000000000000000000000000000000000000000000000000000000000169063d06ca61f9061075c908a908690600401611a78565b60006040518083038186803b15801561077457600080fd5b505afa158015610788573d6000803e3d6000fd5b505050506040513d6000823e601f3d908101601f191682016040526107b09190810190611a91565b600183516107be9190611b2d565b815181106107ce576107ce611b44565b602002602001015190506107ee565b6107e8898989610c35565b90925090505b8160008151811061080157610801611b44565b602090810291909101015160405163095ea7b360e01b81526001600160a01b037f000000000000000000000000000000000000000000000000000000000000000081166004830152600060248301529091169063095ea7b390604401602060405180830381600087803b15801561087757600080fd5b505af115801561088b573d6000803e3d6000fd5b505050506040513d601f19601f820116820180604052508101906108af9190611b5a565b50816000815181106108c3576108c3611b44565b602090810291909101015160405163095ea7b360e01b81526001600160a01b037f000000000000000000000000000000000000000000000000000000000000000081166004830152602482018a90529091169063095ea7b390604401602060405180830381600087803b15801561093957600080fd5b505af115801561094d573d6000803e3d6000fd5b505050506040513d601f19601f820116820180604052508101906109719190611b5a565b506001600160a01b037f0000000000000000000000000000000000000000000000000000000000000000166338ed17398860647f00000000000000000000000000000000000000000000000000000000000000006109cf8b87611b7c565b6109d99190611b9b565b6109e39190611b9b565b6109ed9085611b2d565b858e6109fb42610708611bbd565b6040518663ffffffff1660e01b8152600401610a1b959493929190611bd5565b600060405180830381600087803b158015610a3557600080fd5b505af1158015610a49573d6000803e3d6000fd5b505050506040513d6000823e601f3d908101601f19168201604052610a719190810190611a91565b60018351610a7f9190611b2d565b81518110610a8f57610a8f611b44565b602002602001015192505050979650505050505050565b60018054600080546001600160a01b03199081166001600160a01b0384161782559091169091556040517f7880f0fcc848e1f26e461654b100a69f8d0641e29aa29f6596c6afadbb36b5ea9190a1565b6001600160a01b038116610b6a5760405162461bcd60e51b815260206004820152603560248201527f676f7665726e61626c652f70656e64696e672d676f7665726e6f722d73686f756044820152746c642d6e6f742d62652d7a65726f2d61646472657360581b606482015260840161032b565b600180546001600160a01b0319166001600160a01b0383169081179091556040519081527f56bddfa0cee9697cebddf9acd7f23dc6583663b05e007b877056d05017994def9060200160405180910390a150565b6001600160a01b038116600090815260018301602052604081205415155b9392505050565b604080516001600160a01b038416602482015260448082018490528251808303909101815260649091019091526020810180516001600160e01b031663a9059cbb60e01b17905261033f90849061150e565b60405163e6a4390560e01b81526001600160a01b03848116600483015283811660248301526060916000918291849183917f00000000000000000000000000000000000000000000000000000000000000009091169063e6a439059060440160206040518083038186803b158015610cac57600080fd5b505afa158015610cc0573d6000803e3d6000fd5b505050506040513d601f19601f82011682018060405250810190610ce49190611c11565b6001600160a01b031614610e295760408051600280825260608201835290916020830190803683370190505090508681600081518110610d2657610d26611b44565b60200260200101906001600160a01b031690816001600160a01b0316815250508581600181518110610d5a57610d5a611b44565b6001600160a01b03928316602091820292909201015260405163d06ca61f60e01b81527f00000000000000000000000000000000000000000000000000000000000000009091169063d06ca61f90610db89088908590600401611a78565b60006040518083038186803b158015610dd057600080fd5b505afa158015610de4573d6000803e3d6000fd5b505050506040513d6000823e601f3d908101601f19168201604052610e0c9190810190611a91565b600181518110610e1e57610e1e611b44565b602002602001015191505b60405163e6a4390560e01b81526001600160a01b0388811660048301527f00000000000000000000000000000000000000000000000000000000000000008116602483015260009160609183917f00000000000000000000000000000000000000000000000000000000000000009091169063e6a439059060440160206040518083038186803b158015610ebc57600080fd5b505afa158015610ed0573d6000803e3d6000fd5b505050506040513d601f19601f82011682018060405250810190610ef49190611c11565b6001600160a01b031614158015610fd8575060405163e6a4390560e01b81526001600160a01b037f00000000000000000000000000000000000000000000000000000000000000008116600483015289811660248301526000917f00000000000000000000000000000000000000000000000000000000000000009091169063e6a439059060440160206040518083038186803b158015610f9457600080fd5b505afa158015610fa8573d6000803e3d6000fd5b505050506040513d601f19601f82011682018060405250810190610fcc9190611c11565b6001600160a01b031614155b1561116957604080516003808252608082019092529060208201606080368337019050509050888160008151811061101257611012611b44565b60200260200101906001600160a01b031690816001600160a01b0316815250507f00000000000000000000000000000000000000000000000000000000000000008160018151811061106657611066611b44565b60200260200101906001600160a01b031690816001600160a01b031681525050878160028151811061109a5761109a611b44565b6001600160a01b03928316602091820292909201015260405163d06ca61f60e01b81527f00000000000000000000000000000000000000000000000000000000000000009091169063d06ca61f906110f8908a908590600401611a78565b60006040518083038186803b15801561111057600080fd5b505afa158015611124573d6000803e3d6000fd5b505050506040513d6000823e601f3d908101601f1916820160405261114c9190810190611a91565b60028151811061115e5761115e611b44565b602002602001015191505b60405163e6a4390560e01b81526001600160a01b038a811660048301527f00000000000000000000000000000000000000000000000000000000000000008116602483015260009160609183917f00000000000000000000000000000000000000000000000000000000000000009091169063e6a439059060440160206040518083038186803b1580156111fc57600080fd5b505afa158015611210573d6000803e3d6000fd5b505050506040513d601f19601f820116820180604052508101906112349190611c11565b6001600160a01b031614158015611318575060405163e6a4390560e01b81526001600160a01b037f0000000000000000000000000000000000000000000000000000000000000000811660048301528b811660248301526000917f00000000000000000000000000000000000000000000000000000000000000009091169063e6a439059060440160206040518083038186803b1580156112d457600080fd5b505afa1580156112e8573d6000803e3d6000fd5b505050506040513d601f19601f8201168201806040525081019061130c9190611c11565b6001600160a01b031614155b156114a9576040805160038082526080820190925290602082016060803683370190505090508a8160008151811061135257611352611b44565b60200260200101906001600160a01b031690816001600160a01b0316815250507f0000000000000000000000000000000000000000000000000000000000000000816001815181106113a6576113a6611b44565b60200260200101906001600160a01b031690816001600160a01b03168152505089816002815181106113da576113da611b44565b6001600160a01b03928316602091820292909201015260405163d06ca61f60e01b81527f00000000000000000000000000000000000000000000000000000000000000009091169063d06ca61f90611438908c908590600401611a78565b60006040518083038186803b15801561145057600080fd5b505afa158015611464573d6000803e3d6000fd5b505050506040513d6000823e601f3d908101601f1916820160405261148c9190810190611a91565b60028151811061149e5761149e611b44565b602002602001015191505b856114c66114b788876115e0565b6114c189866115e0565b6115e0565b14156114dc575092955092935061150692505050565b836114e785846115e0565b14156114fd575090955090935061150692505050565b96509450505050505b935093915050565b6000611563826040518060400160405280602081526020017f5361666545524332303a206c6f772d6c6576656c2063616c6c206661696c6564815250856001600160a01b03166115f79092919063ffffffff16565b80519091501561033f57808060200190518101906115819190611b5a565b61033f5760405162461bcd60e51b815260206004820152602a60248201527f5361666545524332303a204552433230206f7065726174696f6e20646964206e6044820152691bdd081cdd58d8d9595960b21b606482015260840161032b565b6000818310156115f05781610bdc565b5090919050565b6060611606848460008561160e565b949350505050565b60608247101561166f5760405162461bcd60e51b815260206004820152602660248201527f416464726573733a20696e73756666696369656e742062616c616e636520666f6044820152651c8818d85b1b60d21b606482015260840161032b565b843b6116bd5760405162461bcd60e51b815260206004820152601d60248201527f416464726573733a2063616c6c20746f206e6f6e2d636f6e7472616374000000604482015260640161032b565b600080866001600160a01b031685876040516116d99190611c5e565b60006040518083038185875af1925050503d8060008114611716576040519150601f19603f3d011682016040523d82523d6000602084013e61171b565b606091505b509150915061172b828286611736565b979650505050505050565b60608315611745575081610bdc565b8251156117555782518084602001fd5b8160405162461bcd60e51b815260040161032b9190611c7a565b6001600160a01b03811681146104bf57600080fd5b60008060006060848603121561179957600080fd5b83356117a48161176f565b925060208401356117b48161176f565b929592945050506040919091013590565b600080600080600080600060c0888a0312156117e057600080fd5b87356117eb8161176f565b965060208801356117fb8161176f565b9550604088013561180b8161176f565b9450606088013593506080880135925060a088013567ffffffffffffffff8082111561183657600080fd5b818a0191508a601f83011261184a57600080fd5b81358181111561185957600080fd5b8b602082850101111561186b57600080fd5b60208301945080935050505092959891949750929550565b60208101600283106118a557634e487b7160e01b600052602160045260246000fd5b91905290565b6000602082840312156118bd57600080fd5b8135610bdc8161176f565b6001600160a01b038981168252888116602083015287166040820152606081018690526080810185905260a0810184905260e060c08201819052810182905260006101008385828501376000838501820152601f909301601f191690910190910198975050505050505050565b634e487b7160e01b600052604160045260246000fd5b604051601f8201601f1916810167ffffffffffffffff8111828210171561197457611974611935565b604052919050565b600067ffffffffffffffff82111561199657611996611935565b5060051b60200190565b600060208083850312156119b357600080fd5b823567ffffffffffffffff8111156119ca57600080fd5b8301601f810185136119db57600080fd5b80356119ee6119e98261197c565b61194b565b81815260059190911b82018301908381019087831115611a0d57600080fd5b928401925b8284101561172b578335611a258161176f565b82529284019290840190611a12565b600081518084526020808501945080840160005b83811015611a6d5781516001600160a01b031687529582019590820190600101611a48565b509495945050505050565b8281526040602082015260006116066040830184611a34565b60006020808385031215611aa457600080fd5b825167ffffffffffffffff811115611abb57600080fd5b8301601f81018513611acc57600080fd5b8051611ada6119e98261197c565b81815260059190911b82018301908381019087831115611af957600080fd5b928401925b8284101561172b57835182529284019290840190611afe565b634e487b7160e01b600052601160045260246000fd5b600082821015611b3f57611b3f611b17565b500390565b634e487b7160e01b600052603260045260246000fd5b600060208284031215611b6c57600080fd5b81518015158114610bdc57600080fd5b6000816000190483118215151615611b9657611b96611b17565b500290565b600082611bb857634e487b7160e01b600052601260045260246000fd5b500490565b60008219821115611bd057611bd0611b17565b500190565b85815284602082015260a060408201526000611bf460a0830186611a34565b6001600160a01b0394909416606083015250608001529392505050565b600060208284031215611c2357600080fd5b8151610bdc8161176f565b60005b83811015611c49578181015183820152602001611c31565b83811115611c58576000848401525b50505050565b60008251611c70818460208701611c2e565b9190910192915050565b6020815260008251806020840152611c99816040850160208701611c2e565b601f01601f1916919091016040019291505056fea2646970667358221220419003f72a414762bda35f84c6188c9db14325c12fcd35870d3fca43c66e8d2464736f6c63430008090033",
  "devdoc": {
    "kind": "dev",
    "methods": {},
    "version": 1
  },
  "userdoc": {
    "kind": "user",
    "methods": {},
    "version": 1
  },
  "storageLayout": {
    "storage": [
      {
        "astId": 3197,
        "contract": "contracts/swappers/sync/UniswapV2AnchorSwapper.sol:UniswapV2AnchorSwapper",
        "label": "governor",
        "offset": 0,
        "slot": "0",
        "type": "t_address"
      },
      {
        "astId": 3200,
        "contract": "contracts/swappers/sync/UniswapV2AnchorSwapper.sol:UniswapV2AnchorSwapper",
        "label": "pendingGovernor",
        "offset": 0,
        "slot": "1",
        "type": "t_address"
      },
      {
        "astId": 3086,
        "contract": "contracts/swappers/sync/UniswapV2AnchorSwapper.sol:UniswapV2AnchorSwapper",
        "label": "protocolTokens",
        "offset": 0,
        "slot": "2",
        "type": "t_struct(AddressSet)2210_storage"
      }
    ],
    "types": {
      "t_address": {
        "encoding": "inplace",
        "label": "address",
        "numberOfBytes": "20"
      },
      "t_array(t_bytes32)dyn_storage": {
        "base": "t_bytes32",
        "encoding": "dynamic_array",
        "label": "bytes32[]",
        "numberOfBytes": "32"
      },
      "t_bytes32": {
        "encoding": "inplace",
        "label": "bytes32",
        "numberOfBytes": "32"
      },
      "t_mapping(t_bytes32,t_uint256)": {
        "encoding": "mapping",
        "key": "t_bytes32",
        "label": "mapping(bytes32 => uint256)",
        "numberOfBytes": "32",
        "value": "t_uint256"
      },
      "t_struct(AddressSet)2210_storage": {
        "encoding": "inplace",
        "label": "struct EnumerableSet.AddressSet",
        "members": [
          {
            "astId": 2209,
            "contract": "contracts/swappers/sync/UniswapV2AnchorSwapper.sol:UniswapV2AnchorSwapper",
            "label": "_inner",
            "offset": 0,
            "slot": "0",
            "type": "t_struct(Set)1909_storage"
          }
        ],
        "numberOfBytes": "64"
      },
      "t_struct(Set)1909_storage": {
        "encoding": "inplace",
        "label": "struct EnumerableSet.Set",
        "members": [
          {
            "astId": 1904,
            "contract": "contracts/swappers/sync/UniswapV2AnchorSwapper.sol:UniswapV2AnchorSwapper",
            "label": "_values",
            "offset": 0,
            "slot": "0",
            "type": "t_array(t_bytes32)dyn_storage"
          },
          {
            "astId": 1908,
            "contract": "contracts/swappers/sync/UniswapV2AnchorSwapper.sol:UniswapV2AnchorSwapper",
            "label": "_indexes",
            "offset": 0,
            "slot": "1",
            "type": "t_mapping(t_bytes32,t_uint256)"
          }
        ],
        "numberOfBytes": "64"
      },
      "t_uint256": {
        "encoding": "inplace",
        "label": "uint256",
        "numberOfBytes": "32"
      }
    }
  }
}