{
  "address": "0x0902388b5e695aC9581b49B7E36DC38f921f4141",
  "abi": [
    {
      "inputs": [
        {
          "internalType": "address",
          "name": "_governor",
          "type": "address"
        },
        {
          "internalType": "address",
          "name": "_tradeFactory",
          "type": "address"
        },
        {
          "internalType": "address",
          "name": "_aggregationRouter",
          "type": "address"
        }
      ],
      "stateMutability": "nonpayable",
      "type": "constructor"
    },
    {
      "anonymous": false,
      "inputs": [
        {
          "indexed": false,
          "internalType": "address",
          "name": "_to",
          "type": "address"
        },
        {
          "indexed": false,
          "internalType": "address",
          "name": "token",
          "type": "address"
        },
        {
          "indexed": false,
          "internalType": "uint256",
          "name": "amount",
          "type": "uint256"
        }
      ],
      "name": "DustSent",
      "type": "event"
    },
    {
      "anonymous": false,
      "inputs": [],
      "name": "GovernorAccepted",
      "type": "event"
    },
    {
      "anonymous": false,
      "inputs": [
        {
          "indexed": false,
          "internalType": "address",
          "name": "pendingGovernor",
          "type": "address"
        }
      ],
      "name": "PendingGovernorSet",
      "type": "event"
    },
    {
      "anonymous": false,
      "inputs": [
        {
          "indexed": false,
          "internalType": "address",
          "name": "_receiver",
          "type": "address"
        },
        {
          "indexed": false,
          "internalType": "address",
          "name": "_tokenIn",
          "type": "address"
        },
        {
          "indexed": false,
          "internalType": "address",
          "name": "_tokenOut",
          "type": "address"
        },
        {
          "indexed": false,
          "internalType": "uint256",
          "name": "_amountIn",
          "type": "uint256"
        },
        {
          "indexed": false,
          "internalType": "uint256",
          "name": "_maxSlippage",
          "type": "uint256"
        },
        {
          "indexed": false,
          "internalType": "uint256",
          "name": "_receivedAmount",
          "type": "uint256"
        },
        {
          "indexed": false,
          "internalType": "bytes",
          "name": "_data",
          "type": "bytes"
        }
      ],
      "name": "Swapped",
      "type": "event"
    },
    {
      "inputs": [],
      "name": "AGGREGATION_ROUTER_V3",
      "outputs": [
        {
          "internalType": "address",
          "name": "",
          "type": "address"
        }
      ],
      "stateMutability": "view",
      "type": "function"
    },
    {
      "inputs": [],
      "name": "ETH_ADDRESS",
      "outputs": [
        {
          "internalType": "address",
          "name": "",
          "type": "address"
        }
      ],
      "stateMutability": "view",
      "type": "function"
    },
    {
      "inputs": [],
      "name": "SLIPPAGE_PRECISION",
      "outputs": [
        {
          "internalType": "uint256",
          "name": "",
          "type": "uint256"
        }
      ],
      "stateMutability": "view",
      "type": "function"
    },
    {
      "inputs": [],
      "name": "SWAPPER_TYPE",
      "outputs": [
        {
          "internalType": "enum ISwapper.SwapperType",
          "name": "",
          "type": "uint8"
        }
      ],
      "stateMutability": "view",
      "type": "function"
    },
    {
      "inputs": [],
      "name": "TRADE_FACTORY",
      "outputs": [
        {
          "internalType": "address",
          "name": "",
          "type": "address"
        }
      ],
      "stateMutability": "view",
      "type": "function"
    },
    {
      "inputs": [],
      "name": "acceptGovernor",
      "outputs": [],
      "stateMutability": "nonpayable",
      "type": "function"
    },
    {
      "inputs": [],
      "name": "governor",
      "outputs": [
        {
          "internalType": "address",
          "name": "",
          "type": "address"
        }
      ],
      "stateMutability": "view",
      "type": "function"
    },
    {
      "inputs": [
        {
          "internalType": "address",
          "name": "_account",
          "type": "address"
        }
      ],
      "name": "isGovernor",
      "outputs": [
        {
          "internalType": "bool",
          "name": "_isGovernor",
          "type": "bool"
        }
      ],
      "stateMutability": "view",
      "type": "function"
    },
    {
      "inputs": [],
      "name": "pendingGovernor",
      "outputs": [
        {
          "internalType": "address",
          "name": "",
          "type": "address"
        }
      ],
      "stateMutability": "view",
      "type": "function"
    },
    {
      "inputs": [
        {
          "internalType": "address",
          "name": "_to",
          "type": "address"
        },
        {
          "internalType": "address",
          "name": "_token",
          "type": "address"
        },
        {
          "internalType": "uint256",
          "name": "_amount",
          "type": "uint256"
        }
      ],
      "name": "sendDust",
      "outputs": [],
      "stateMutability": "nonpayable",
      "type": "function"
    },
    {
      "inputs": [
        {
          "internalType": "address",
          "name": "_pendingGovernor",
          "type": "address"
        }
      ],
      "name": "setPendingGovernor",
      "outputs": [],
      "stateMutability": "nonpayable",
      "type": "function"
    },
    {
      "inputs": [
        {
          "internalType": "address",
          "name": "_receiver",
          "type": "address"
        },
        {
          "internalType": "address",
          "name": "_tokenIn",
          "type": "address"
        },
        {
          "internalType": "address",
          "name": "_tokenOut",
          "type": "address"
        },
        {
          "internalType": "uint256",
          "name": "_amountIn",
          "type": "uint256"
        },
        {
          "internalType": "uint256",
          "name": "_maxSlippage",
          "type": "uint256"
        },
        {
          "internalType": "bytes",
          "name": "_data",
          "type": "bytes"
        }
      ],
      "name": "swap",
      "outputs": [
        {
          "internalType": "uint256",
          "name": "_receivedAmount",
          "type": "uint256"
        }
      ],
      "stateMutability": "nonpayable",
      "type": "function"
    }
  ],
  "transactionHash": "0x8ac59d06c37cdce0985ced27d3d8fd20fea0bb217c2e19ef62355e4138e7f4eb",
  "args": [
    "0xB82193725471dC7bfaAB1a3AB93c7b42963F3265",
    "0x3853fa6a2110CEF32aA49437F22319F888784B87",
    "0x11111112542D85B3EF69AE05771c2dCCff4fAa26"
  ],
  "solcInputHash": "0eb7107d651f51015c988e0c3d67565f",
  "bytecode": "0x60e06040526127106080523480156200001757600080fd5b506040516200164e3803806200164e8339810160408190526200003a916200015f565b8282816001600160a01b038116620000b05760405162461bcd60e51b815260206004820152602e60248201527f676f7665726e61626c652f676f7665726e6f722d73686f756c642d6e6f742d6260448201526d652d7a65726f2d6164647265737360901b60648201526084015b60405180910390fd5b600080546001600160a01b0319166001600160a01b0392831617905581166200011c5760405162461bcd60e51b815260206004820152601560248201527f537761707065723a207a65726f206164647265737300000000000000000000006044820152606401620000a7565b6001600160601b0319606091821b811660a05292901b90911660c05250620001a8915050565b80516001600160a01b03811681146200015a57600080fd5b919050565b60008060006060848603121562000174578283fd5b6200017f8462000142565b92506200018f6020850162000142565b91506200019f6040850162000142565b90509250925092565b60805160a05160601c60c05160601c61144e620002006000396000818160ee015281816108d201528181610907015261094201526000818161015f0152818161029b01526103240152600061012a015261144e6000f3fe608060405234801561001057600080fd5b50600436106100b45760003560e01c8063a734f06e11610071578063a734f06e14610194578063cd985af0146101af578063e3056a34146101c4578063e43581b8146101d7578063e58bb63914610209578063f235757f1461021157600080fd5b80630c340a24146100b957806316fa7bbf146100e95780632db8c12914610110578063453943f0146101255780637556fae61461015a578063a5d4096b14610181575b600080fd5b6000546100cc906001600160a01b031681565b6040516001600160a01b0390911681526020015b60405180910390f35b6100cc7f000000000000000000000000000000000000000000000000000000000000000081565b61012361011e366004611023565b610224565b005b61014c7f000000000000000000000000000000000000000000000000000000000000000081565b6040519081526020016100e0565b6100cc7f000000000000000000000000000000000000000000000000000000000000000081565b61014c61018f366004610f6a565b61028e565b6100cc73eeeeeeeeeeeeeeeeeeeeeeeeeeeeeeeeeeeeeeee81565b6101b7600081565b6040516100e09190611334565b6001546100cc906001600160a01b031681565b6101f96101e5366004610f4e565b6000546001600160a01b0391821691161490565b60405190151581526020016100e0565b6101236103ab565b61012361021f366004610f4e565b61040f565b6000546001600160a01b0316331461027e5760405162461bcd60e51b815260206004820152601860248201527733b7bb32b93730b1363297b7b7363c96b3b7bb32b93737b960411b60448201526064015b60405180910390fd5b610289838383610470565b505050565b6000336001600160a01b037f000000000000000000000000000000000000000000000000000000000000000016146103085760405162461bcd60e51b815260206004820152601a60248201527f537761707065723a206e6f7420747261646520666163746f72790000000000006044820152606401610275565b6103158888888888610612565b61034a6001600160a01b0388167f0000000000000000000000000000000000000000000000000000000000000000308861075b565b610359888888888888886107cc565b90507f40971433310985cab81e121610e21c884496299299bfdb99b10c0f75815c98878888888888868989604051610398989796959493929190611208565b60405180910390a1979650505050505050565b6001546001600160a01b031633146104055760405162461bcd60e51b815260206004820181905260248201527f676f7665726e61626c652f6f6e6c792d70656e64696e672d676f7665726e6f726044820152606401610275565b61040d6109dc565b565b6000546001600160a01b031633146104645760405162461bcd60e51b815260206004820152601860248201527733b7bb32b93730b1363297b7b7363c96b3b7bb32b93737b960411b6044820152606401610275565b61046d81610a2c565b50565b6001600160a01b0383166104de5760405162461bcd60e51b815260206004820152602f60248201527f636f6c6c65637461626c652d647573742f63616e742d73656e642d647573742d60448201526e746f2d7a65726f2d6164647265737360881b6064820152608401610275565b6104e9600283610af4565b1561054d5760405162461bcd60e51b815260206004820152602e60248201527f636f6c6c65637461626c652d647573742f746f6b656e2d69732d706172742d6f60448201526d198b5d1a194b5c1c9bdd1bd8dbdb60921b6064820152608401610275565b6001600160a01b03821673eeeeeeeeeeeeeeeeeeeeeeeeeeeeeeeeeeeeeeee14156105ae576040516001600160a01b0384169082156108fc029083906000818181858888f193505050501580156105a8573d6000803e3d6000fd5b506105c2565b6105c26001600160a01b0383168483610b19565b604080516001600160a01b038086168252841660208201529081018290527f1e34c1aee8e83c2dcc14c21bb4bfeea7f46c0c998cb797ac7cc4d7a18f5c656b9060600160405180910390a1505050565b6001600160a01b0385166106605760405162461bcd60e51b8152602060048201526015602482015274537761707065723a207a65726f206164647265737360581b6044820152606401610275565b6001600160a01b0384161580159061068057506001600160a01b03831615155b6106c45760405162461bcd60e51b8152602060048201526015602482015274537761707065723a207a65726f206164647265737360581b6044820152606401610275565b6000821161070b5760405162461bcd60e51b815260206004820152601460248201527314ddd85c1c195c8e881e995c9bc8185b5bdd5b9d60621b6044820152606401610275565b600081116107545760405162461bcd60e51b8152602060048201526016602482015275537761707065723a207a65726f20736c69707061676560501b6044820152606401610275565b5050505050565b6040516001600160a01b03808516602483015283166044820152606481018290526107c69085906323b872dd60e01b906084015b60408051601f198184030181529190526020810180516001600160e01b03166001600160e01b031990931692909217909152610b49565b50505050565b60008080806107de8560048189611399565b8101906107eb9190611083565b9250925092508a6001600160a01b031682606001516001600160a01b031614801561082b5750896001600160a01b031682600001516001600160a01b0316145b801561084c5750886001600160a01b031682602001516001600160a01b0316145b801561085b5750878260800151145b801561086b575060048260c00151145b6108c35760405162461bcd60e51b815260206004820152602360248201527f537761707065723a20696e636f7272656374207377617020696e666f726d617460448201526234b7b760e91b6064820152608401610275565b6108f86001600160a01b038b167f00000000000000000000000000000000000000000000000000000000000000006000610c1b565b61092c6001600160a01b038b167f00000000000000000000000000000000000000000000000000000000000000008a610c1b565b604051623e012960e91b81526001600160a01b037f00000000000000000000000000000000000000000000000000000000000000001690637c0252009061097b90869086908690600401611271565b6040805180830381600087803b15801561099457600080fd5b505af11580156109a8573d6000803e3d6000fd5b505050506040513d601f19601f820116820180604052508101906109cc919061119d565b509b9a5050505050505050505050565b60018054600080546001600160a01b03199081166001600160a01b0384161782559091169091556040517f7880f0fcc848e1f26e461654b100a69f8d0641e29aa29f6596c6afadbb36b5ea9190a1565b6001600160a01b038116610aa05760405162461bcd60e51b815260206004820152603560248201527f676f7665726e61626c652f70656e64696e672d676f7665726e6f722d73686f756044820152746c642d6e6f742d62652d7a65726f2d61646472657360581b6064820152608401610275565b600180546001600160a01b0319166001600160a01b0383169081179091556040519081527f56bddfa0cee9697cebddf9acd7f23dc6583663b05e007b877056d05017994def9060200160405180910390a150565b6001600160a01b038116600090815260018301602052604081205415155b9392505050565b6040516001600160a01b03831660248201526044810182905261028990849063a9059cbb60e01b9060640161078f565b6000610b9e826040518060400160405280602081526020017f5361666545524332303a206c6f772d6c6576656c2063616c6c206661696c6564815250856001600160a01b0316610d3f9092919063ffffffff16565b8051909150156102895780806020019051810190610bbc9190611063565b6102895760405162461bcd60e51b815260206004820152602a60248201527f5361666545524332303a204552433230206f7065726174696f6e20646964206e6044820152691bdd081cdd58d8d9595960b21b6064820152608401610275565b801580610ca45750604051636eb1769f60e11b81523060048201526001600160a01b03838116602483015284169063dd62ed3e9060440160206040518083038186803b158015610c6a57600080fd5b505afa158015610c7e573d6000803e3d6000fd5b505050506040513d601f19601f82011682018060405250810190610ca29190611185565b155b610d0f5760405162461bcd60e51b815260206004820152603660248201527f5361666545524332303a20617070726f76652066726f6d206e6f6e2d7a65726f60448201527520746f206e6f6e2d7a65726f20616c6c6f77616e636560501b6064820152608401610275565b6040516001600160a01b03831660248201526044810182905261028990849063095ea7b360e01b9060640161078f565b6060610d4e8484600085610d56565b949350505050565b606082471015610db75760405162461bcd60e51b815260206004820152602660248201527f416464726573733a20696e73756666696369656e742062616c616e636520666f6044820152651c8818d85b1b60d21b6064820152608401610275565b843b610e055760405162461bcd60e51b815260206004820152601d60248201527f416464726573733a2063616c6c20746f206e6f6e2d636f6e74726163740000006044820152606401610275565b600080866001600160a01b03168587604051610e2191906111ec565b60006040518083038185875af1925050503d8060008114610e5e576040519150601f19603f3d011682016040523d82523d6000602084013e610e63565b606091505b5091509150610e73828286610e7e565b979650505050505050565b60608315610e8d575081610b12565b825115610e9d5782518084602001fd5b8160405162461bcd60e51b8152600401610275919061135c565b8035610ec281611403565b919050565b600082601f830112610ed7578081fd5b813567ffffffffffffffff80821115610ef257610ef26113ed565b604051601f8301601f19908116603f01168101908282118183101715610f1a57610f1a6113ed565b81604052838152866020858801011115610f32578485fd5b8360208701602083013792830160200193909352509392505050565b600060208284031215610f5f578081fd5b8135610b1281611403565b600080600080600080600060c0888a031215610f84578283fd5b8735610f8f81611403565b96506020880135610f9f81611403565b95506040880135610faf81611403565b9450606088013593506080880135925060a088013567ffffffffffffffff80821115610fd9578384fd5b818a0191508a601f830112610fec578384fd5b813581811115610ffa578485fd5b8b602082850101111561100b578485fd5b60208301945080935050505092959891949750929550565b600080600060608486031215611037578283fd5b833561104281611403565b9250602084013561105281611403565b929592945050506040919091013590565b600060208284031215611074578081fd5b81518015158114610b12578182fd5b600080600060608486031215611097578283fd5b83356110a281611403565b9250602084013567ffffffffffffffff808211156110be578384fd5b9085019061010082880312156110d2578384fd5b6110da61136f565b6110e383610eb7565b81526110f160208401610eb7565b602082015261110260408401610eb7565b604082015261111360608401610eb7565b60608201526080830135608082015260a083013560a082015260c083013560c082015260e083013582811115611147578586fd5b61115389828601610ec7565b60e0830152509350604086013591508082111561116e578283fd5b5061117b86828701610ec7565b9150509250925092565b600060208284031215611196578081fd5b5051919050565b600080604083850312156111af578182fd5b505080516020909101519092909150565b600081518084526111d88160208601602086016113c1565b601f01601f19169290920160200192915050565b600082516111fe8184602087016113c1565b9190910192915050565b6001600160a01b038981168252888116602083015287166040820152606081018690526080810185905260a0810184905260e060c0820181905281018290526000610100838582850137828401810191909152601f909201601f19160101979650505050505050565b6001600160a01b038481168252606060208084018290528551909216908301528301516000906112ac60808401826001600160a01b03169052565b5060408401516001600160a01b03811660a08401525060608401516001600160a01b03811660c084015250608084015160e083015260a0840151610100818185015260c086015161012085015260e0860151915080610140850152506113166101608401826111c0565b9050828103604084015261132a81856111c0565b9695505050505050565b602081016002831061135657634e487b7160e01b600052602160045260246000fd5b91905290565b602081526000610b1260208301846111c0565b604051610100810167ffffffffffffffff81118282101715611393576113936113ed565b60405290565b600080858511156113a8578182fd5b838611156113b4578182fd5b5050820193919092039150565b60005b838110156113dc5781810151838201526020016113c4565b838111156107c65750506000910152565b634e487b7160e01b600052604160045260246000fd5b6001600160a01b038116811461046d57600080fdfea2646970667358221220922713db9a5cf9f2c62db7667a44e04555545cee04453c1fde04240781fbdceb64736f6c63430008040033",
  "devdoc": {
    "kind": "dev",
    "methods": {},
    "version": 1
  },
  "userdoc": {
    "kind": "user",
    "methods": {},
    "version": 1
  },
  "storageLayout": {
    "storage": [
      {
        "astId": 132,
        "contract": "contracts/swappers/async/OneInchAggregatorSwapper.sol:OneInchAggregatorSwapper",
        "label": "governor",
        "offset": 0,
        "slot": "0",
        "type": "t_address"
      },
      {
        "astId": 135,
        "contract": "contracts/swappers/async/OneInchAggregatorSwapper.sol:OneInchAggregatorSwapper",
        "label": "pendingGovernor",
        "offset": 0,
        "slot": "1",
        "type": "t_address"
      },
      {
        "astId": 21,
        "contract": "contracts/swappers/async/OneInchAggregatorSwapper.sol:OneInchAggregatorSwapper",
        "label": "protocolTokens",
        "offset": 0,
        "slot": "2",
        "type": "t_struct(AddressSet)2632_storage"
      }
    ],
    "types": {
      "t_address": {
        "encoding": "inplace",
        "label": "address",
        "numberOfBytes": "20"
      },
      "t_array(t_bytes32)dyn_storage": {
        "base": "t_bytes32",
        "encoding": "dynamic_array",
        "label": "bytes32[]",
        "numberOfBytes": "32"
      },
      "t_bytes32": {
        "encoding": "inplace",
        "label": "bytes32",
        "numberOfBytes": "32"
      },
      "t_mapping(t_bytes32,t_uint256)": {
        "encoding": "mapping",
        "key": "t_bytes32",
        "label": "mapping(bytes32 => uint256)",
        "numberOfBytes": "32",
        "value": "t_uint256"
      },
      "t_struct(AddressSet)2632_storage": {
        "encoding": "inplace",
        "label": "struct EnumerableSet.AddressSet",
        "members": [
          {
            "astId": 2631,
            "contract": "contracts/swappers/async/OneInchAggregatorSwapper.sol:OneInchAggregatorSwapper",
            "label": "_inner",
            "offset": 0,
            "slot": "0",
            "type": "t_struct(Set)2361_storage"
          }
        ],
        "numberOfBytes": "64"
      },
      "t_struct(Set)2361_storage": {
        "encoding": "inplace",
        "label": "struct EnumerableSet.Set",
        "members": [
          {
            "astId": 2356,
            "contract": "contracts/swappers/async/OneInchAggregatorSwapper.sol:OneInchAggregatorSwapper",
            "label": "_values",
            "offset": 0,
            "slot": "0",
            "type": "t_array(t_bytes32)dyn_storage"
          },
          {
            "astId": 2360,
            "contract": "contracts/swappers/async/OneInchAggregatorSwapper.sol:OneInchAggregatorSwapper",
            "label": "_indexes",
            "offset": 0,
            "slot": "1",
            "type": "t_mapping(t_bytes32,t_uint256)"
          }
        ],
        "numberOfBytes": "64"
      },
      "t_uint256": {
        "encoding": "inplace",
        "label": "uint256",
        "numberOfBytes": "32"
      }
    }
  }
}