{
  "address": "0x128729f2Ce6cB31F6e85e21FD686D1F5b3c30226",
  "abi": [
    {
      "inputs": [
        {
          "internalType": "address",
          "name": "_governor",
          "type": "address"
        },
        {
          "internalType": "address",
          "name": "_tradeFactory",
          "type": "address"
        },
        {
          "internalType": "address",
          "name": "_weth",
          "type": "address"
        },
        {
          "internalType": "address",
          "name": "_wmatic",
          "type": "address"
        },
        {
          "internalType": "address",
          "name": "_uniswapFactory",
          "type": "address"
        },
        {
          "internalType": "address",
          "name": "_uniswapRouter",
          "type": "address"
        }
      ],
      "stateMutability": "nonpayable",
      "type": "constructor"
    },
    {
      "anonymous": false,
      "inputs": [
        {
          "indexed": false,
          "internalType": "address",
          "name": "_to",
          "type": "address"
        },
        {
          "indexed": false,
          "internalType": "address",
          "name": "token",
          "type": "address"
        },
        {
          "indexed": false,
          "internalType": "uint256",
          "name": "amount",
          "type": "uint256"
        }
      ],
      "name": "DustSent",
      "type": "event"
    },
    {
      "anonymous": false,
      "inputs": [],
      "name": "GovernorAccepted",
      "type": "event"
    },
    {
      "anonymous": false,
      "inputs": [
        {
          "indexed": false,
          "internalType": "address",
          "name": "pendingGovernor",
          "type": "address"
        }
      ],
      "name": "PendingGovernorSet",
      "type": "event"
    },
    {
      "anonymous": false,
      "inputs": [
        {
          "indexed": false,
          "internalType": "address",
          "name": "_receiver",
          "type": "address"
        },
        {
          "indexed": false,
          "internalType": "address",
          "name": "_tokenIn",
          "type": "address"
        },
        {
          "indexed": false,
          "internalType": "address",
          "name": "_tokenOut",
          "type": "address"
        },
        {
          "indexed": false,
          "internalType": "uint256",
          "name": "_amountIn",
          "type": "uint256"
        },
        {
          "indexed": false,
          "internalType": "uint256",
          "name": "_maxSlippage",
          "type": "uint256"
        },
        {
          "indexed": false,
          "internalType": "uint256",
          "name": "_receivedAmount",
          "type": "uint256"
        },
        {
          "indexed": false,
          "internalType": "bytes",
          "name": "_data",
          "type": "bytes"
        }
      ],
      "name": "Swapped",
      "type": "event"
    },
    {
      "inputs": [],
      "name": "ETH_ADDRESS",
      "outputs": [
        {
          "internalType": "address",
          "name": "",
          "type": "address"
        }
      ],
      "stateMutability": "view",
      "type": "function"
    },
    {
      "inputs": [],
      "name": "SLIPPAGE_PRECISION",
      "outputs": [
        {
          "internalType": "uint256",
          "name": "",
          "type": "uint256"
        }
      ],
      "stateMutability": "view",
      "type": "function"
    },
    {
      "inputs": [],
      "name": "SWAPPER_TYPE",
      "outputs": [
        {
          "internalType": "enum ISwapper.SwapperType",
          "name": "",
          "type": "uint8"
        }
      ],
      "stateMutability": "view",
      "type": "function"
    },
    {
      "inputs": [],
      "name": "TRADE_FACTORY",
      "outputs": [
        {
          "internalType": "address",
          "name": "",
          "type": "address"
        }
      ],
      "stateMutability": "view",
      "type": "function"
    },
    {
      "inputs": [],
      "name": "UNISWAP_FACTORY",
      "outputs": [
        {
          "internalType": "address",
          "name": "",
          "type": "address"
        }
      ],
      "stateMutability": "view",
      "type": "function"
    },
    {
      "inputs": [],
      "name": "UNISWAP_ROUTER",
      "outputs": [
        {
          "internalType": "address",
          "name": "",
          "type": "address"
        }
      ],
      "stateMutability": "view",
      "type": "function"
    },
    {
      "inputs": [],
      "name": "WETH",
      "outputs": [
        {
          "internalType": "address",
          "name": "",
          "type": "address"
        }
      ],
      "stateMutability": "view",
      "type": "function"
    },
    {
      "inputs": [],
      "name": "WMATIC",
      "outputs": [
        {
          "internalType": "address",
          "name": "",
          "type": "address"
        }
      ],
      "stateMutability": "view",
      "type": "function"
    },
    {
      "inputs": [],
      "name": "acceptGovernor",
      "outputs": [],
      "stateMutability": "nonpayable",
      "type": "function"
    },
    {
      "inputs": [],
      "name": "governor",
      "outputs": [
        {
          "internalType": "address",
          "name": "",
          "type": "address"
        }
      ],
      "stateMutability": "view",
      "type": "function"
    },
    {
      "inputs": [
        {
          "internalType": "address",
          "name": "_account",
          "type": "address"
        }
      ],
      "name": "isGovernor",
      "outputs": [
        {
          "internalType": "bool",
          "name": "_isGovernor",
          "type": "bool"
        }
      ],
      "stateMutability": "view",
      "type": "function"
    },
    {
      "inputs": [],
      "name": "pendingGovernor",
      "outputs": [
        {
          "internalType": "address",
          "name": "",
          "type": "address"
        }
      ],
      "stateMutability": "view",
      "type": "function"
    },
    {
      "inputs": [
        {
          "internalType": "address",
          "name": "_to",
          "type": "address"
        },
        {
          "internalType": "address",
          "name": "_token",
          "type": "address"
        },
        {
          "internalType": "uint256",
          "name": "_amount",
          "type": "uint256"
        }
      ],
      "name": "sendDust",
      "outputs": [],
      "stateMutability": "nonpayable",
      "type": "function"
    },
    {
      "inputs": [
        {
          "internalType": "address",
          "name": "_pendingGovernor",
          "type": "address"
        }
      ],
      "name": "setPendingGovernor",
      "outputs": [],
      "stateMutability": "nonpayable",
      "type": "function"
    },
    {
      "inputs": [
        {
          "internalType": "address",
          "name": "_receiver",
          "type": "address"
        },
        {
          "internalType": "address",
          "name": "_tokenIn",
          "type": "address"
        },
        {
          "internalType": "address",
          "name": "_tokenOut",
          "type": "address"
        },
        {
          "internalType": "uint256",
          "name": "_amountIn",
          "type": "uint256"
        },
        {
          "internalType": "uint256",
          "name": "_maxSlippage",
          "type": "uint256"
        },
        {
          "internalType": "bytes",
          "name": "_data",
          "type": "bytes"
        }
      ],
      "name": "swap",
      "outputs": [
        {
          "internalType": "uint256",
          "name": "_receivedAmount",
          "type": "uint256"
        }
      ],
      "stateMutability": "nonpayable",
      "type": "function"
    }
  ],
  "transactionHash": "0x5d270e63fc5c20a86a5b60005a545a0d6af686c406c9efd43b0e3245afad4230",
  "args": [
    "0xB82193725471dC7bfaAB1a3AB93c7b42963F3265",
    "0x3853fa6a2110CEF32aA49437F22319F888784B87",
    "0x7ceB23fD6bC0adD59E62ac25578270cFf1b9f619",
    "0x0d500b1d8e8ef31e21c99d1db9a6444d3adf1270",
    "0xc35DADB65012eC5796536bD9864eD8773aBc74C4",
    "0x1b02dA8Cb0d097eB8D57A175b88c7D8b47997506"
  ],
  "solcInputHash": "0eb7107d651f51015c988e0c3d67565f",
  "bytecode": "0x6101406040526127106080523480156200001857600080fd5b506040516200207e3803806200207e8339810160408190526200003b9162000177565b8585816001600160a01b038116620000b15760405162461bcd60e51b815260206004820152602e60248201527f676f7665726e61626c652f676f7665726e6f722d73686f756c642d6e6f742d6260448201526d652d7a65726f2d6164647265737360901b60648201526084015b60405180910390fd5b600080546001600160a01b0319166001600160a01b0392831617905581166200011d5760405162461bcd60e51b815260206004820152601560248201527f537761707065723a207a65726f206164647265737300000000000000000000006044820152606401620000a8565b6001600160601b0319606091821b811660a05295811b861660c05293841b851660e0525090821b831661010052901b166101205250620001f79050565b80516001600160a01b03811681146200017257600080fd5b919050565b60008060008060008060c0878903121562000190578182fd5b6200019b876200015a565b9550620001ab602088016200015a565b9450620001bb604088016200015a565b9350620001cb606088016200015a565b9250620001db608088016200015a565b9150620001eb60a088016200015a565b90509295509295509295565b60805160a05160601c60c05160601c60e05160601c6101005160601c6101205160601c611d9c620002e2600039600081816102580152818161089b015281816109020152818161094d01528181610e2a015281816111a2015261151a01526000818161021c01528181610cf701528181610f3101528181611009015281816112a90152611381015260008181610179015281816112790152818161134e01526114730152600081816101f501528181610f0101528181610fd601526110fb0152600081816101a00152818161035101526103da01526000818161014401526109770152611d9c6000f3fe608060405234801561001057600080fd5b50600436106100f55760003560e01c8063ad5c464811610097578063e3056a3411610066578063e3056a341461027a578063e43581b81461028d578063e58bb639146102bf578063f235757f146102c757600080fd5b8063ad5c4648146101f0578063c74c0fac14610217578063cd985af01461023e578063d82649201461025357600080fd5b80634d95cad9116100d35780634d95cad9146101745780637556fae61461019b578063a5d4096b146101c2578063a734f06e146101d557600080fd5b80630c340a24146100fa5780632db8c1291461012a578063453943f01461013f575b600080fd5b60005461010d906001600160a01b031681565b6040516001600160a01b0390911681526020015b60405180910390f35b61013d6101383660046119db565b6102da565b005b6101667f000000000000000000000000000000000000000000000000000000000000000081565b604051908152602001610121565b61010d7f000000000000000000000000000000000000000000000000000000000000000081565b61010d7f000000000000000000000000000000000000000000000000000000000000000081565b6101666101d0366004611922565b610344565b61010d73eeeeeeeeeeeeeeeeeeeeeeeeeeeeeeeeeeeeeeee81565b61010d7f000000000000000000000000000000000000000000000000000000000000000081565b61010d7f000000000000000000000000000000000000000000000000000000000000000081565b610246600181565b6040516101219190611bdb565b61010d7f000000000000000000000000000000000000000000000000000000000000000081565b60015461010d906001600160a01b031681565b6102af61029b3660046118ea565b6000546001600160a01b0391821691161490565b6040519015158152602001610121565b61013d610461565b61013d6102d53660046118ea565b6104c5565b6000546001600160a01b031633146103345760405162461bcd60e51b815260206004820152601860248201527733b7bb32b93730b1363297b7b7363c96b3b7bb32b93737b960411b60448201526064015b60405180910390fd5b61033f838383610526565b505050565b6000336001600160a01b037f000000000000000000000000000000000000000000000000000000000000000016146103be5760405162461bcd60e51b815260206004820152601a60248201527f537761707065723a206e6f7420747261646520666163746f7279000000000000604482015260640161032b565b6103cb88888888886106c8565b6104006001600160a01b0388167f00000000000000000000000000000000000000000000000000000000000000003088610811565b61040f88888888888888610882565b90507f40971433310985cab81e121610e21c884496299299bfdb99b10c0f75815c9887888888888886898960405161044e989796959493929190611b72565b60405180910390a1979650505050505050565b6001546001600160a01b031633146104bb5760405162461bcd60e51b815260206004820181905260248201527f676f7665726e61626c652f6f6e6c792d70656e64696e672d676f7665726e6f72604482015260640161032b565b6104c3610a85565b565b6000546001600160a01b0316331461051a5760405162461bcd60e51b815260206004820152601860248201527733b7bb32b93730b1363297b7b7363c96b3b7bb32b93737b960411b604482015260640161032b565b61052381610ad5565b50565b6001600160a01b0383166105945760405162461bcd60e51b815260206004820152602f60248201527f636f6c6c65637461626c652d647573742f63616e742d73656e642d647573742d60448201526e746f2d7a65726f2d6164647265737360881b606482015260840161032b565b61059f600283610b9d565b156106035760405162461bcd60e51b815260206004820152602e60248201527f636f6c6c65637461626c652d647573742f746f6b656e2d69732d706172742d6f60448201526d198b5d1a194b5c1c9bdd1bd8dbdb60921b606482015260840161032b565b6001600160a01b03821673eeeeeeeeeeeeeeeeeeeeeeeeeeeeeeeeeeeeeeee1415610664576040516001600160a01b0384169082156108fc029083906000818181858888f1935050505015801561065e573d6000803e3d6000fd5b50610678565b6106786001600160a01b0383168483610bc2565b604080516001600160a01b038086168252841660208201529081018290527f1e34c1aee8e83c2dcc14c21bb4bfeea7f46c0c998cb797ac7cc4d7a18f5c656b9060600160405180910390a1505050565b6001600160a01b0385166107165760405162461bcd60e51b8152602060048201526015602482015274537761707065723a207a65726f206164647265737360581b604482015260640161032b565b6001600160a01b0384161580159061073657506001600160a01b03831615155b61077a5760405162461bcd60e51b8152602060048201526015602482015274537761707065723a207a65726f206164647265737360581b604482015260640161032b565b600082116107c15760405162461bcd60e51b815260206004820152601460248201527314ddd85c1c195c8e881e995c9bc8185b5bdd5b9d60621b604482015260640161032b565b6000811161080a5760405162461bcd60e51b8152602060048201526016602482015275537761707065723a207a65726f20736c69707061676560501b604482015260640161032b565b5050505050565b6040516001600160a01b038085166024830152831660448201526064810182905261087c9085906323b872dd60e01b906084015b60408051601f198184030181529190526020810180516001600160e01b03166001600160e01b031990931692909217909152610bf2565b50505050565b6000806000610892898989610cc4565b915091506108fd7f00000000000000000000000000000000000000000000000000000000000000006000846000815181106108dd57634e487b7160e01b600052603260045260246000fd5b60200260200101516001600160a01b03166116379092919063ffffffff16565b6109437f000000000000000000000000000000000000000000000000000000000000000088846000815181106108dd57634e487b7160e01b600052603260045260246000fd5b6001600160a01b037f0000000000000000000000000000000000000000000000000000000000000000166338ed17398860647f00000000000000000000000000000000000000000000000000000000000000006109a08b87611cc3565b6109aa9190611ca3565b6109b49190611ca3565b6109be9085611ce2565b858e6109cc42610708611c8b565b6040518663ffffffff1660e01b81526004016109ec959493929190611c4f565b600060405180830381600087803b158015610a0657600080fd5b505af1158015610a1a573d6000803e3d6000fd5b505050506040513d6000823e601f3d908101601f19168201604052610a429190810190611a1b565b60018351610a509190611ce2565b81518110610a6e57634e487b7160e01b600052603260045260246000fd5b602002602001015192505050979650505050505050565b60018054600080546001600160a01b03199081166001600160a01b0384161782559091169091556040517f7880f0fcc848e1f26e461654b100a69f8d0641e29aa29f6596c6afadbb36b5ea9190a1565b6001600160a01b038116610b495760405162461bcd60e51b815260206004820152603560248201527f676f7665726e61626c652f70656e64696e672d676f7665726e6f722d73686f756044820152746c642d6e6f742d62652d7a65726f2d61646472657360581b606482015260840161032b565b600180546001600160a01b0319166001600160a01b0383169081179091556040519081527f56bddfa0cee9697cebddf9acd7f23dc6583663b05e007b877056d05017994def9060200160405180910390a150565b6001600160a01b038116600090815260018301602052604081205415155b9392505050565b6040516001600160a01b03831660248201526044810182905261033f90849063a9059cbb60e01b90606401610845565b6000610c47826040518060400160405280602081526020017f5361666545524332303a206c6f772d6c6576656c2063616c6c206661696c6564815250856001600160a01b031661175b9092919063ffffffff16565b80519091501561033f5780806020019051810190610c659190611adb565b61033f5760405162461bcd60e51b815260206004820152602a60248201527f5361666545524332303a204552433230206f7065726174696f6e20646964206e6044820152691bdd081cdd58d8d9595960b21b606482015260840161032b565b60405163e6a4390560e01b81526001600160a01b03848116600483015283811660248301526060916000918291849183917f00000000000000000000000000000000000000000000000000000000000000009091169063e6a439059060440160206040518083038186803b158015610d3b57600080fd5b505afa158015610d4f573d6000803e3d6000fd5b505050506040513d601f19601f82011682018060405250810190610d739190611906565b6001600160a01b031614610ee25760408051600280825260608201835290916020830190803683370190505090508681600081518110610dc357634e487b7160e01b600052603260045260246000fd5b60200260200101906001600160a01b031690816001600160a01b0316815250508581600181518110610e0557634e487b7160e01b600052603260045260246000fd5b6001600160a01b03928316602091820292909201015260405163d06ca61f60e01b81527f00000000000000000000000000000000000000000000000000000000000000009091169063d06ca61f90610e639088908590600401611c36565b60006040518083038186803b158015610e7b57600080fd5b505afa158015610e8f573d6000803e3d6000fd5b505050506040513d6000823e601f3d908101601f19168201604052610eb79190810190611a1b565b600181518110610ed757634e487b7160e01b600052603260045260246000fd5b602002602001015191505b60405163e6a4390560e01b81526001600160a01b0388811660048301527f00000000000000000000000000000000000000000000000000000000000000008116602483015260009160609183917f00000000000000000000000000000000000000000000000000000000000000009091169063e6a439059060440160206040518083038186803b158015610f7557600080fd5b505afa158015610f89573d6000803e3d6000fd5b505050506040513d601f19601f82011682018060405250810190610fad9190611906565b6001600160a01b031614158015611091575060405163e6a4390560e01b81526001600160a01b037f00000000000000000000000000000000000000000000000000000000000000008116600483015289811660248301526000917f00000000000000000000000000000000000000000000000000000000000000009091169063e6a439059060440160206040518083038186803b15801561104d57600080fd5b505afa158015611061573d6000803e3d6000fd5b505050506040513d601f19601f820116820180604052508101906110859190611906565b6001600160a01b031614155b1561125a5760408051600380825260808201909252906020820160608036833701905050905088816000815181106110d957634e487b7160e01b600052603260045260246000fd5b60200260200101906001600160a01b031690816001600160a01b0316815250507f00000000000000000000000000000000000000000000000000000000000000008160018151811061113b57634e487b7160e01b600052603260045260246000fd5b60200260200101906001600160a01b031690816001600160a01b031681525050878160028151811061117d57634e487b7160e01b600052603260045260246000fd5b6001600160a01b03928316602091820292909201015260405163d06ca61f60e01b81527f00000000000000000000000000000000000000000000000000000000000000009091169063d06ca61f906111db908a908590600401611c36565b60006040518083038186803b1580156111f357600080fd5b505afa158015611207573d6000803e3d6000fd5b505050506040513d6000823e601f3d908101601f1916820160405261122f9190810190611a1b565b60028151811061124f57634e487b7160e01b600052603260045260246000fd5b602002602001015191505b60405163e6a4390560e01b81526001600160a01b038a811660048301527f00000000000000000000000000000000000000000000000000000000000000008116602483015260009160609183917f00000000000000000000000000000000000000000000000000000000000000009091169063e6a439059060440160206040518083038186803b1580156112ed57600080fd5b505afa158015611301573d6000803e3d6000fd5b505050506040513d601f19601f820116820180604052508101906113259190611906565b6001600160a01b031614158015611409575060405163e6a4390560e01b81526001600160a01b037f0000000000000000000000000000000000000000000000000000000000000000811660048301528b811660248301526000917f00000000000000000000000000000000000000000000000000000000000000009091169063e6a439059060440160206040518083038186803b1580156113c557600080fd5b505afa1580156113d9573d6000803e3d6000fd5b505050506040513d601f19601f820116820180604052508101906113fd9190611906565b6001600160a01b031614155b156115d2576040805160038082526080820190925290602082016060803683370190505090508a8160008151811061145157634e487b7160e01b600052603260045260246000fd5b60200260200101906001600160a01b031690816001600160a01b0316815250507f0000000000000000000000000000000000000000000000000000000000000000816001815181106114b357634e487b7160e01b600052603260045260246000fd5b60200260200101906001600160a01b031690816001600160a01b03168152505089816002815181106114f557634e487b7160e01b600052603260045260246000fd5b6001600160a01b03928316602091820292909201015260405163d06ca61f60e01b81527f00000000000000000000000000000000000000000000000000000000000000009091169063d06ca61f90611553908c908590600401611c36565b60006040518083038186803b15801561156b57600080fd5b505afa15801561157f573d6000803e3d6000fd5b505050506040513d6000823e601f3d908101601f191682016040526115a79190810190611a1b565b6002815181106115c757634e487b7160e01b600052603260045260246000fd5b602002602001015191505b856115ef6115e08887611772565b6115ea8986611772565b611772565b1415611605575092955092935061162f92505050565b836116108584611772565b1415611626575090955090935061162f92505050565b96509450505050505b935093915050565b8015806116c05750604051636eb1769f60e11b81523060048201526001600160a01b03838116602483015284169063dd62ed3e9060440160206040518083038186803b15801561168657600080fd5b505afa15801561169a573d6000803e3d6000fd5b505050506040513d601f19601f820116820180604052508101906116be9190611afb565b155b61172b5760405162461bcd60e51b815260206004820152603660248201527f5361666545524332303a20617070726f76652066726f6d206e6f6e2d7a65726f60448201527520746f206e6f6e2d7a65726f20616c6c6f77616e636560501b606482015260840161032b565b6040516001600160a01b03831660248201526044810182905261033f90849063095ea7b360e01b90606401610845565b606061176a8484600085611789565b949350505050565b6000818310156117825781610bbb565b5090919050565b6060824710156117ea5760405162461bcd60e51b815260206004820152602660248201527f416464726573733a20696e73756666696369656e742062616c616e636520666f6044820152651c8818d85b1b60d21b606482015260840161032b565b843b6118385760405162461bcd60e51b815260206004820152601d60248201527f416464726573733a2063616c6c20746f206e6f6e2d636f6e7472616374000000604482015260640161032b565b600080866001600160a01b031685876040516118549190611b56565b60006040518083038185875af1925050503d8060008114611891576040519150601f19603f3d011682016040523d82523d6000602084013e611896565b606091505b50915091506118a68282866118b1565b979650505050505050565b606083156118c0575081610bbb565b8251156118d05782518084602001fd5b8160405162461bcd60e51b815260040161032b9190611c03565b6000602082840312156118fb578081fd5b8135610bbb81611d51565b600060208284031215611917578081fd5b8151610bbb81611d51565b600080600080600080600060c0888a03121561193c578283fd5b873561194781611d51565b9650602088013561195781611d51565b9550604088013561196781611d51565b9450606088013593506080880135925060a088013567ffffffffffffffff80821115611991578384fd5b818a0191508a601f8301126119a4578384fd5b8135818111156119b2578485fd5b8b60208285010111156119c3578485fd5b60208301945080935050505092959891949750929550565b6000806000606084860312156119ef578283fd5b83356119fa81611d51565b92506020840135611a0a81611d51565b929592945050506040919091013590565b60006020808385031215611a2d578182fd5b825167ffffffffffffffff80821115611a44578384fd5b818501915085601f830112611a57578384fd5b815181811115611a6957611a69611d3b565b8060051b604051601f19603f83011681018181108582111715611a8e57611a8e611d3b565b604052828152858101935084860182860187018a1015611aac578788fd5b8795505b83861015611ace578051855260019590950194938601938601611ab0565b5098975050505050505050565b600060208284031215611aec578081fd5b81518015158114610bbb578182fd5b600060208284031215611b0c578081fd5b5051919050565b6000815180845260208085019450808401835b83811015611b4b5781516001600160a01b031687529582019590820190600101611b26565b509495945050505050565b60008251611b68818460208701611cf9565b9190910192915050565b6001600160a01b038981168252888116602083015287166040820152606081018690526080810185905260a0810184905260e060c0820181905281018290526000610100838582850137828401810191909152601f909201601f19160101979650505050505050565b6020810160028310611bfd57634e487b7160e01b600052602160045260246000fd5b91905290565b6020815260008251806020840152611c22816040850160208701611cf9565b601f01601f19169190910160400192915050565b82815260406020820152600061176a6040830184611b13565b85815284602082015260a060408201526000611c6e60a0830186611b13565b6001600160a01b0394909416606083015250608001529392505050565b60008219821115611c9e57611c9e611d25565b500190565b600082611cbe57634e487b7160e01b81526012600452602481fd5b500490565b6000816000190483118215151615611cdd57611cdd611d25565b500290565b600082821015611cf457611cf4611d25565b500390565b60005b83811015611d14578181015183820152602001611cfc565b8381111561087c5750506000910152565b634e487b7160e01b600052601160045260246000fd5b634e487b7160e01b600052604160045260246000fd5b6001600160a01b038116811461052357600080fdfea26469706673582212205b241125da00ef9c429fef3c52d3905bcfa35e6d9f5c165fe89d967c61fc9d5264736f6c63430008040033",
  "devdoc": {
    "kind": "dev",
    "methods": {},
    "version": 1
  },
  "userdoc": {
    "kind": "user",
    "methods": {},
    "version": 1
  },
  "storageLayout": {
    "storage": [
      {
        "astId": 132,
        "contract": "contracts/swappers/sync/SushiswapPolygonSwapper.sol:SushiswapPolygonSwapper",
        "label": "governor",
        "offset": 0,
        "slot": "0",
        "type": "t_address"
      },
      {
        "astId": 135,
        "contract": "contracts/swappers/sync/SushiswapPolygonSwapper.sol:SushiswapPolygonSwapper",
        "label": "pendingGovernor",
        "offset": 0,
        "slot": "1",
        "type": "t_address"
      },
      {
        "astId": 21,
        "contract": "contracts/swappers/sync/SushiswapPolygonSwapper.sol:SushiswapPolygonSwapper",
        "label": "protocolTokens",
        "offset": 0,
        "slot": "2",
        "type": "t_struct(AddressSet)2632_storage"
      }
    ],
    "types": {
      "t_address": {
        "encoding": "inplace",
        "label": "address",
        "numberOfBytes": "20"
      },
      "t_array(t_bytes32)dyn_storage": {
        "base": "t_bytes32",
        "encoding": "dynamic_array",
        "label": "bytes32[]",
        "numberOfBytes": "32"
      },
      "t_bytes32": {
        "encoding": "inplace",
        "label": "bytes32",
        "numberOfBytes": "32"
      },
      "t_mapping(t_bytes32,t_uint256)": {
        "encoding": "mapping",
        "key": "t_bytes32",
        "label": "mapping(bytes32 => uint256)",
        "numberOfBytes": "32",
        "value": "t_uint256"
      },
      "t_struct(AddressSet)2632_storage": {
        "encoding": "inplace",
        "label": "struct EnumerableSet.AddressSet",
        "members": [
          {
            "astId": 2631,
            "contract": "contracts/swappers/sync/SushiswapPolygonSwapper.sol:SushiswapPolygonSwapper",
            "label": "_inner",
            "offset": 0,
            "slot": "0",
            "type": "t_struct(Set)2361_storage"
          }
        ],
        "numberOfBytes": "64"
      },
      "t_struct(Set)2361_storage": {
        "encoding": "inplace",
        "label": "struct EnumerableSet.Set",
        "members": [
          {
            "astId": 2356,
            "contract": "contracts/swappers/sync/SushiswapPolygonSwapper.sol:SushiswapPolygonSwapper",
            "label": "_values",
            "offset": 0,
            "slot": "0",
            "type": "t_array(t_bytes32)dyn_storage"
          },
          {
            "astId": 2360,
            "contract": "contracts/swappers/sync/SushiswapPolygonSwapper.sol:SushiswapPolygonSwapper",
            "label": "_indexes",
            "offset": 0,
            "slot": "1",
            "type": "t_mapping(t_bytes32,t_uint256)"
          }
        ],
        "numberOfBytes": "64"
      },
      "t_uint256": {
        "encoding": "inplace",
        "label": "uint256",
        "numberOfBytes": "32"
      }
    }
  }
}