{
  "address": "0x3853fa6a2110CEF32aA49437F22319F888784B87",
  "abi": [
    {
      "inputs": [
        {
          "internalType": "address",
          "name": "_masterAdmin",
          "type": "address"
        },
        {
          "internalType": "address",
          "name": "_swapperAdder",
          "type": "address"
        },
        {
          "internalType": "address",
          "name": "_swapperSetter",
          "type": "address"
        },
        {
          "internalType": "address",
          "name": "_strategyAdder",
          "type": "address"
        },
        {
          "internalType": "address",
          "name": "_mechanicsRegistry",
          "type": "address"
        }
      ],
      "stateMutability": "nonpayable",
      "type": "constructor"
    },
    {
      "anonymous": false,
      "inputs": [
        {
          "indexed": true,
          "internalType": "address",
          "name": "_strategy",
          "type": "address"
        },
        {
          "indexed": false,
          "internalType": "address",
          "name": "_swapper",
          "type": "address"
        }
      ],
      "name": "AsyncStrategySwapperSet",
      "type": "event"
    },
    {
      "anonymous": false,
      "inputs": [
        {
          "indexed": true,
          "internalType": "uint256",
          "name": "_id",
          "type": "uint256"
        },
        {
          "indexed": false,
          "internalType": "uint256",
          "name": "_receivedAmount",
          "type": "uint256"
        }
      ],
      "name": "AsyncTradeExecuted",
      "type": "event"
    },
    {
      "anonymous": false,
      "inputs": [
        {
          "indexed": true,
          "internalType": "uint256",
          "name": "_id",
          "type": "uint256"
        }
      ],
      "name": "AsyncTradeExpired",
      "type": "event"
    },
    {
      "anonymous": false,
      "inputs": [
        {
          "indexed": false,
          "internalType": "address",
          "name": "_to",
          "type": "address"
        },
        {
          "indexed": false,
          "internalType": "address",
          "name": "token",
          "type": "address"
        },
        {
          "indexed": false,
          "internalType": "uint256",
          "name": "amount",
          "type": "uint256"
        }
      ],
      "name": "DustSent",
      "type": "event"
    },
    {
      "anonymous": false,
      "inputs": [
        {
          "indexed": true,
          "internalType": "bytes32",
          "name": "role",
          "type": "bytes32"
        },
        {
          "indexed": true,
          "internalType": "bytes32",
          "name": "previousAdminRole",
          "type": "bytes32"
        },
        {
          "indexed": true,
          "internalType": "bytes32",
          "name": "newAdminRole",
          "type": "bytes32"
        }
      ],
      "name": "RoleAdminChanged",
      "type": "event"
    },
    {
      "anonymous": false,
      "inputs": [
        {
          "indexed": true,
          "internalType": "bytes32",
          "name": "role",
          "type": "bytes32"
        },
        {
          "indexed": true,
          "internalType": "address",
          "name": "account",
          "type": "address"
        },
        {
          "indexed": true,
          "internalType": "address",
          "name": "sender",
          "type": "address"
        }
      ],
      "name": "RoleGranted",
      "type": "event"
    },
    {
      "anonymous": false,
      "inputs": [
        {
          "indexed": true,
          "internalType": "bytes32",
          "name": "role",
          "type": "bytes32"
        },
        {
          "indexed": true,
          "internalType": "address",
          "name": "account",
          "type": "address"
        },
        {
          "indexed": true,
          "internalType": "address",
          "name": "sender",
          "type": "address"
        }
      ],
      "name": "RoleRevoked",
      "type": "event"
    },
    {
      "anonymous": false,
      "inputs": [
        {
          "indexed": false,
          "internalType": "address",
          "name": "_swapper",
          "type": "address"
        }
      ],
      "name": "SwapperAdded",
      "type": "event"
    },
    {
      "anonymous": false,
      "inputs": [
        {
          "indexed": true,
          "internalType": "address",
          "name": "_swapper",
          "type": "address"
        },
        {
          "indexed": false,
          "internalType": "address",
          "name": "_token",
          "type": "address"
        }
      ],
      "name": "SwapperAndTokenEnabled",
      "type": "event"
    },
    {
      "anonymous": false,
      "inputs": [
        {
          "indexed": false,
          "internalType": "address",
          "name": "_swapper",
          "type": "address"
        }
      ],
      "name": "SwapperRemoved",
      "type": "event"
    },
    {
      "anonymous": false,
      "inputs": [
        {
          "indexed": true,
          "internalType": "address",
          "name": "_strategy",
          "type": "address"
        },
        {
          "indexed": false,
          "internalType": "address",
          "name": "_swapper",
          "type": "address"
        }
      ],
      "name": "SyncStrategySwapperSet",
      "type": "event"
    },
    {
      "anonymous": false,
      "inputs": [
        {
          "indexed": true,
          "internalType": "address",
          "name": "_strategy",
          "type": "address"
        },
        {
          "indexed": true,
          "internalType": "address",
          "name": "_swapper",
          "type": "address"
        },
        {
          "indexed": false,
          "internalType": "address",
          "name": "_tokenIn",
          "type": "address"
        },
        {
          "indexed": false,
          "internalType": "address",
          "name": "_tokenOut",
          "type": "address"
        },
        {
          "indexed": false,
          "internalType": "uint256",
          "name": "_amountIn",
          "type": "uint256"
        },
        {
          "indexed": false,
          "internalType": "uint256",
          "name": "_maxSlippage",
          "type": "uint256"
        },
        {
          "indexed": false,
          "internalType": "bytes",
          "name": "_data",
          "type": "bytes"
        },
        {
          "indexed": false,
          "internalType": "uint256",
          "name": "_receivedAmount",
          "type": "uint256"
        }
      ],
      "name": "SyncTradeExecuted",
      "type": "event"
    },
    {
      "anonymous": false,
      "inputs": [
        {
          "indexed": true,
          "internalType": "address",
          "name": "_strategy",
          "type": "address"
        },
        {
          "indexed": true,
          "internalType": "uint256",
          "name": "_id",
          "type": "uint256"
        }
      ],
      "name": "TradeCanceled",
      "type": "event"
    },
    {
      "anonymous": false,
      "inputs": [
        {
          "indexed": true,
          "internalType": "uint256",
          "name": "_id",
          "type": "uint256"
        },
        {
          "indexed": false,
          "internalType": "address",
          "name": "_strategy",
          "type": "address"
        },
        {
          "indexed": false,
          "internalType": "address",
          "name": "_swapper",
          "type": "address"
        },
        {
          "indexed": false,
          "internalType": "address",
          "name": "_tokenIn",
          "type": "address"
        },
        {
          "indexed": false,
          "internalType": "address",
          "name": "_tokenOut",
          "type": "address"
        },
        {
          "indexed": false,
          "internalType": "uint256",
          "name": "_amountIn",
          "type": "uint256"
        },
        {
          "indexed": false,
          "internalType": "uint256",
          "name": "_maxSlippage",
          "type": "uint256"
        },
        {
          "indexed": false,
          "internalType": "uint256",
          "name": "_deadline",
          "type": "uint256"
        }
      ],
      "name": "TradeCreated",
      "type": "event"
    },
    {
      "anonymous": false,
      "inputs": [
        {
          "indexed": true,
          "internalType": "address",
          "name": "_strategy",
          "type": "address"
        },
        {
          "indexed": false,
          "internalType": "uint256[]",
          "name": "_ids",
          "type": "uint256[]"
        }
      ],
      "name": "TradesCanceled",
      "type": "event"
    },
    {
      "anonymous": false,
      "inputs": [
        {
          "indexed": true,
          "internalType": "address",
          "name": "_strategy",
          "type": "address"
        },
        {
          "indexed": false,
          "internalType": "uint256[]",
          "name": "_ids",
          "type": "uint256[]"
        },
        {
          "indexed": false,
          "internalType": "address",
          "name": "_newSwapper",
          "type": "address"
        }
      ],
      "name": "TradesSwapperChanged",
      "type": "event"
    },
    {
      "inputs": [],
      "name": "DEFAULT_ADMIN_ROLE",
      "outputs": [
        {
          "internalType": "bytes32",
          "name": "",
          "type": "bytes32"
        }
      ],
      "stateMutability": "view",
      "type": "function"
    },
    {
      "inputs": [],
      "name": "ETH_ADDRESS",
      "outputs": [
        {
          "internalType": "address",
          "name": "",
          "type": "address"
        }
      ],
      "stateMutability": "view",
      "type": "function"
    },
    {
      "inputs": [],
      "name": "MASTER_ADMIN",
      "outputs": [
        {
          "internalType": "bytes32",
          "name": "",
          "type": "bytes32"
        }
      ],
      "stateMutability": "view",
      "type": "function"
    },
    {
      "inputs": [],
      "name": "STRATEGY",
      "outputs": [
        {
          "internalType": "bytes32",
          "name": "",
          "type": "bytes32"
        }
      ],
      "stateMutability": "view",
      "type": "function"
    },
    {
      "inputs": [],
      "name": "STRATEGY_ADDER",
      "outputs": [
        {
          "internalType": "bytes32",
          "name": "",
          "type": "bytes32"
        }
      ],
      "stateMutability": "view",
      "type": "function"
    },
    {
      "inputs": [],
      "name": "SWAPPER_ADDER",
      "outputs": [
        {
          "internalType": "bytes32",
          "name": "",
          "type": "bytes32"
        }
      ],
      "stateMutability": "view",
      "type": "function"
    },
    {
      "inputs": [],
      "name": "SWAPPER_SETTER",
      "outputs": [
        {
          "internalType": "bytes32",
          "name": "",
          "type": "bytes32"
        }
      ],
      "stateMutability": "view",
      "type": "function"
    },
    {
      "inputs": [
        {
          "internalType": "address",
          "name": "_swapper",
          "type": "address"
        }
      ],
      "name": "addSwapper",
      "outputs": [],
      "stateMutability": "nonpayable",
      "type": "function"
    },
    {
      "inputs": [
        {
          "internalType": "address[]",
          "name": "__swappers",
          "type": "address[]"
        }
      ],
      "name": "addSwappers",
      "outputs": [],
      "stateMutability": "nonpayable",
      "type": "function"
    },
    {
      "inputs": [
        {
          "internalType": "address",
          "name": "_swapper",
          "type": "address"
        }
      ],
      "name": "approvedTokensBySwappers",
      "outputs": [
        {
          "internalType": "address[]",
          "name": "_tokens",
          "type": "address[]"
        }
      ],
      "stateMutability": "view",
      "type": "function"
    },
    {
      "inputs": [],
      "name": "cancelAllPending",
      "outputs": [
        {
          "internalType": "uint256[]",
          "name": "_canceledTradesIds",
          "type": "uint256[]"
        }
      ],
      "stateMutability": "nonpayable",
      "type": "function"
    },
    {
      "inputs": [
        {
          "internalType": "uint256",
          "name": "_id",
          "type": "uint256"
        }
      ],
      "name": "cancelPending",
      "outputs": [],
      "stateMutability": "nonpayable",
      "type": "function"
    },
    {
      "inputs": [
        {
          "internalType": "address",
          "name": "_strategy",
          "type": "address"
        },
        {
          "internalType": "address",
          "name": "_swapper",
          "type": "address"
        }
      ],
      "name": "changeStrategyPendingTradesSwapper",
      "outputs": [
        {
          "internalType": "uint256[]",
          "name": "_changedSwapperIds",
          "type": "uint256[]"
        }
      ],
      "stateMutability": "nonpayable",
      "type": "function"
    },
    {
      "inputs": [
        {
          "internalType": "address",
          "name": "_tokenIn",
          "type": "address"
        },
        {
          "internalType": "address",
          "name": "_tokenOut",
          "type": "address"
        },
        {
          "internalType": "uint256",
          "name": "_amountIn",
          "type": "uint256"
        },
        {
          "internalType": "uint256",
          "name": "_maxSlippage",
          "type": "uint256"
        },
        {
          "internalType": "uint256",
          "name": "_deadline",
          "type": "uint256"
        }
      ],
      "name": "create",
      "outputs": [
        {
          "internalType": "uint256",
          "name": "_id",
          "type": "uint256"
        }
      ],
      "stateMutability": "nonpayable",
      "type": "function"
    },
    {
      "inputs": [
        {
          "internalType": "uint256",
          "name": "_id",
          "type": "uint256"
        },
        {
          "internalType": "bytes",
          "name": "_data",
          "type": "bytes"
        }
      ],
      "name": "execute",
      "outputs": [
        {
          "internalType": "uint256",
          "name": "_receivedAmount",
          "type": "uint256"
        }
      ],
      "stateMutability": "nonpayable",
      "type": "function"
    },
    {
      "inputs": [
        {
          "internalType": "address",
          "name": "_tokenIn",
          "type": "address"
        },
        {
          "internalType": "address",
          "name": "_tokenOut",
          "type": "address"
        },
        {
          "internalType": "uint256",
          "name": "_amountIn",
          "type": "uint256"
        },
        {
          "internalType": "uint256",
          "name": "_maxSlippage",
          "type": "uint256"
        },
        {
          "internalType": "bytes",
          "name": "_data",
          "type": "bytes"
        }
      ],
      "name": "execute",
      "outputs": [
        {
          "internalType": "uint256",
          "name": "_receivedAmount",
          "type": "uint256"
        }
      ],
      "stateMutability": "nonpayable",
      "type": "function"
    },
    {
      "inputs": [
        {
          "internalType": "uint256",
          "name": "_id",
          "type": "uint256"
        }
      ],
      "name": "expire",
      "outputs": [
        {
          "internalType": "uint256",
          "name": "_freedAmount",
          "type": "uint256"
        }
      ],
      "stateMutability": "nonpayable",
      "type": "function"
    },
    {
      "inputs": [
        {
          "internalType": "bytes32",
          "name": "role",
          "type": "bytes32"
        }
      ],
      "name": "getRoleAdmin",
      "outputs": [
        {
          "internalType": "bytes32",
          "name": "",
          "type": "bytes32"
        }
      ],
      "stateMutability": "view",
      "type": "function"
    },
    {
      "inputs": [
        {
          "internalType": "bytes32",
          "name": "role",
          "type": "bytes32"
        },
        {
          "internalType": "address",
          "name": "account",
          "type": "address"
        }
      ],
      "name": "grantRole",
      "outputs": [],
      "stateMutability": "nonpayable",
      "type": "function"
    },
    {
      "inputs": [
        {
          "internalType": "bytes32",
          "name": "role",
          "type": "bytes32"
        },
        {
          "internalType": "address",
          "name": "account",
          "type": "address"
        }
      ],
      "name": "hasRole",
      "outputs": [
        {
          "internalType": "bool",
          "name": "",
          "type": "bool"
        }
      ],
      "stateMutability": "view",
      "type": "function"
    },
    {
      "inputs": [
        {
          "internalType": "address",
          "name": "_mechanic",
          "type": "address"
        }
      ],
      "name": "isMechanic",
      "outputs": [
        {
          "internalType": "bool",
          "name": "_isMechanic",
          "type": "bool"
        }
      ],
      "stateMutability": "view",
      "type": "function"
    },
    {
      "inputs": [
        {
          "internalType": "address",
          "name": "_swapper",
          "type": "address"
        }
      ],
      "name": "isSwapper",
      "outputs": [
        {
          "internalType": "bool",
          "name": "",
          "type": "bool"
        }
      ],
      "stateMutability": "view",
      "type": "function"
    },
    {
      "inputs": [],
      "name": "mechanicsRegistry",
      "outputs": [
        {
          "internalType": "address",
          "name": "_mechanicRegistry",
          "type": "address"
        }
      ],
      "stateMutability": "view",
      "type": "function"
    },
    {
      "inputs": [
        {
          "internalType": "uint256",
          "name": "",
          "type": "uint256"
        }
      ],
      "name": "pendingTradesById",
      "outputs": [
        {
          "internalType": "uint256",
          "name": "_id",
          "type": "uint256"
        },
        {
          "internalType": "address",
          "name": "_strategy",
          "type": "address"
        },
        {
          "internalType": "address",
          "name": "_swapper",
          "type": "address"
        },
        {
          "internalType": "address",
          "name": "_tokenIn",
          "type": "address"
        },
        {
          "internalType": "address",
          "name": "_tokenOut",
          "type": "address"
        },
        {
          "internalType": "uint256",
          "name": "_amountIn",
          "type": "uint256"
        },
        {
          "internalType": "uint256",
          "name": "_maxSlippage",
          "type": "uint256"
        },
        {
          "internalType": "uint256",
          "name": "_deadline",
          "type": "uint256"
        }
      ],
      "stateMutability": "view",
      "type": "function"
    },
    {
      "inputs": [
        {
          "internalType": "address",
          "name": "_strategy",
          "type": "address"
        }
      ],
      "name": "pendingTradesIds",
      "outputs": [
        {
          "internalType": "uint256[]",
          "name": "_pendingIds",
          "type": "uint256[]"
        }
      ],
      "stateMutability": "view",
      "type": "function"
    },
    {
      "inputs": [],
      "name": "pendingTradesIds",
      "outputs": [
        {
          "internalType": "uint256[]",
          "name": "_pendingIds",
          "type": "uint256[]"
        }
      ],
      "stateMutability": "view",
      "type": "function"
    },
    {
      "inputs": [
        {
          "internalType": "address",
          "name": "_swapper",
          "type": "address"
        }
      ],
      "name": "removeSwapper",
      "outputs": [],
      "stateMutability": "nonpayable",
      "type": "function"
    },
    {
      "inputs": [
        {
          "internalType": "address[]",
          "name": "__swappers",
          "type": "address[]"
        }
      ],
      "name": "removeSwappers",
      "outputs": [],
      "stateMutability": "nonpayable",
      "type": "function"
    },
    {
      "inputs": [
        {
          "internalType": "bytes32",
          "name": "role",
          "type": "bytes32"
        },
        {
          "internalType": "address",
          "name": "account",
          "type": "address"
        }
      ],
      "name": "renounceRole",
      "outputs": [],
      "stateMutability": "nonpayable",
      "type": "function"
    },
    {
      "inputs": [
        {
          "internalType": "bytes32",
          "name": "role",
          "type": "bytes32"
        },
        {
          "internalType": "address",
          "name": "account",
          "type": "address"
        }
      ],
      "name": "revokeRole",
      "outputs": [],
      "stateMutability": "nonpayable",
      "type": "function"
    },
    {
      "inputs": [
        {
          "internalType": "address",
          "name": "_to",
          "type": "address"
        },
        {
          "internalType": "address",
          "name": "_token",
          "type": "address"
        },
        {
          "internalType": "uint256",
          "name": "_amount",
          "type": "uint256"
        }
      ],
      "name": "sendDust",
      "outputs": [],
      "stateMutability": "nonpayable",
      "type": "function"
    },
    {
      "inputs": [
        {
          "internalType": "address",
          "name": "_mechanicsRegistry",
          "type": "address"
        }
      ],
      "name": "setMechanicsRegistry",
      "outputs": [],
      "stateMutability": "nonpayable",
      "type": "function"
    },
    {
      "inputs": [
        {
          "internalType": "address",
          "name": "_strategy",
          "type": "address"
        },
        {
          "internalType": "address",
          "name": "_swapper",
          "type": "address"
        }
      ],
      "name": "setStrategyAsyncSwapper",
      "outputs": [],
      "stateMutability": "nonpayable",
      "type": "function"
    },
    {
      "inputs": [
        {
          "internalType": "address",
          "name": "_strategy",
          "type": "address"
        },
        {
          "internalType": "address",
          "name": "_swapper",
          "type": "address"
        },
        {
          "internalType": "bool",
          "name": "_migrateSwaps",
          "type": "bool"
        }
      ],
      "name": "setStrategyAsyncSwapperAsAndChangePending",
      "outputs": [
        {
          "internalType": "uint256[]",
          "name": "_changedSwapperIds",
          "type": "uint256[]"
        }
      ],
      "stateMutability": "nonpayable",
      "type": "function"
    },
    {
      "inputs": [
        {
          "internalType": "address",
          "name": "_strategy",
          "type": "address"
        },
        {
          "internalType": "address",
          "name": "_swapper",
          "type": "address"
        }
      ],
      "name": "setStrategySyncSwapper",
      "outputs": [],
      "stateMutability": "nonpayable",
      "type": "function"
    },
    {
      "inputs": [
        {
          "internalType": "address",
          "name": "",
          "type": "address"
        }
      ],
      "name": "strategyAsyncSwapper",
      "outputs": [
        {
          "internalType": "address",
          "name": "",
          "type": "address"
        }
      ],
      "stateMutability": "view",
      "type": "function"
    },
    {
      "inputs": [
        {
          "internalType": "address",
          "name": "",
          "type": "address"
        }
      ],
      "name": "strategySyncSwapper",
      "outputs": [
        {
          "internalType": "address",
          "name": "",
          "type": "address"
        }
      ],
      "stateMutability": "view",
      "type": "function"
    },
    {
      "inputs": [
        {
          "internalType": "bytes4",
          "name": "interfaceId",
          "type": "bytes4"
        }
      ],
      "name": "supportsInterface",
      "outputs": [
        {
          "internalType": "bool",
          "name": "",
          "type": "bool"
        }
      ],
      "stateMutability": "view",
      "type": "function"
    },
    {
      "inputs": [
        {
          "internalType": "address",
          "name": "_swapper",
          "type": "address"
        }
      ],
      "name": "swapperStrategies",
      "outputs": [
        {
          "internalType": "address[]",
          "name": "_strategies",
          "type": "address[]"
        }
      ],
      "stateMutability": "view",
      "type": "function"
    },
    {
      "inputs": [],
      "name": "swappers",
      "outputs": [
        {
          "internalType": "address[]",
          "name": "_swappersList",
          "type": "address[]"
        }
      ],
      "stateMutability": "view",
      "type": "function"
    }
  ],
  "transactionHash": "0x0f9ae45d9aa84950de94ed186171ad6233062b63da42189ff657d2107a954c51",
  "args": [
    "0x31ABE8B1A645ac2d81201869d6eC77CF192e7d7F",
    "0x31ABE8B1A645ac2d81201869d6eC77CF192e7d7F",
    "0x31ABE8B1A645ac2d81201869d6eC77CF192e7d7F",
    "0x31ABE8B1A645ac2d81201869d6eC77CF192e7d7F",
    "0x7a99923aa2efa71178bb11294349ec1f6b23a814"
  ],
  "solcInputHash": "0eb7107d651f51015c988e0c3d67565f",
  "bytecode": "0x608060405260016006553480156200001657600080fd5b5060405162003daf38038062003daf8339810160408190526200003991620002ef565b8080838686896200005a60008051602062003d8f83398151915280620001ce565b6200007560008051602062003d8f8339815191528262000222565b50620000a060008051602062003d4f83398151915260008051602062003d8f833981519152620001ce565b620000db7fe39dc63caee7a15eb0ffb77a826d10c23d40b5f7182b000737ab5c078838b91160008051602062003d8f833981519152620001ce565b620000f660008051602062003d4f8339815191528362000222565b620001227fe39dc63caee7a15eb0ffb77a826d10c23d40b5f7182b000737ab5c078838b9118262000222565b506200016090507f49e347583a7b9e7f325e8963ee1f94127eba81e401796874b5a22f7c8f9d45f760008051602062003d6f833981519152620001ce565b6200018a60008051602062003d6f83398151915260008051602062003d8f833981519152620001ce565b620001a560008051602062003d6f8339815191528262000222565b50600b80546001600160a01b0319166001600160a01b038316179055505050505050506200035e565b600082815260208190526040902060010154819060405184907fbd79b86ffe0ab8e8776151514217cd7cacd52c909f66475c3af44e129f0b00ff90600090a460009182526020829052604090912060010155565b6200022e828262000232565b5050565b6000828152602081815260408083206001600160a01b038516845290915290205460ff166200022e576000828152602081815260408083206001600160a01b03851684529091529020805460ff191660011790556200028e3390565b6001600160a01b0316816001600160a01b0316837f2f8788117e7eff1d82e926ec794901d17c78024a50270940304540a733656f0d60405160405180910390a45050565b80516001600160a01b0381168114620002ea57600080fd5b919050565b600080600080600060a0868803121562000307578081fd5b6200031286620002d2565b94506200032260208701620002d2565b93506200033260408701620002d2565b92506200034260608701620002d2565b91506200035260808701620002d2565b90509295509295909350565b6139e1806200036e6000396000f3fe608060405234801561001057600080fd5b50600436106102485760003560e01c8063891b1a001161013b578063c32e4f8d116100b8578063e454a5ed1161007c578063e454a5ed14610607578063ec6092ec1461062e578063ef47da6d14610641578063f48221a314610654578063f7bd381f1461066757600080fd5b8063c32e4f8d14610589578063cbf8e6c4146105b0578063cc090c32146105b8578063ccf61a41146105cb578063d547741f146105f457600080fd5b8063a217fddf116100ff578063a217fddf14610538578063a2c6f17414610540578063a734f06e14610548578063b64230ba14610563578063bf81bf431461057657600080fd5b8063891b1a00146104d95780638f05819a146104ec578063907ab008146104ff57806391d1485414610512578063993850061461052557600080fd5b80633f2d4131116101c95780635877e98e1161018d5780635877e98e146103da57806359cd24241461048b57806359efcb151461049e57806365834acc146104b1578063687020d8146104c457600080fd5b80633f2d4131146103795780634a2c1bab1461038c5780634d1dd98f1461039f57806350425491146103b45780635588fdf1146103c757600080fd5b8063248a9ca311610210578063248a9ca31461030657806329866a67146103295780632db8c1291461033e5780632f2ff15d1461035357806336568abe1461036657600080fd5b806301ffc9a71461024d57806307dc0772146102755780631078f38814610295578063185025ef146102ba578063211428c0146102dd575b600080fd5b61026061025b3660046134fb565b61067a565b60405190151581526020015b60405180910390f35b61028861028336600461324f565b6106b1565b60405161026c9190613737565b600b546001600160a01b03165b6040516001600160a01b03909116815260200161026c565b6102cf60008051602061396c83398151915281565b60405190815260200161026c565b6102a26102eb36600461324f565b6004602052600090815260409020546001600160a01b031681565b6102cf6103143660046134c1565b60009081526020819052604090206001015490565b6103316107c4565b60405161026c9190613784565b61035161034c3660046132e1565b6109d7565b005b6103516103613660046134d9565b610a13565b6103516103743660046134d9565b610a3e565b61035161038736600461324f565b610abc565b61035161039a3660046133de565b610ade565b6102cf60008051602061398c83398151915281565b6102886103c236600461324f565b610b45565b6103516103d53660046134c1565b610c52565b61043d6103e83660046134c1565b60076020819052600091825260409091208054600182015460028301546003840154600485015460058601546006870154969097015494966001600160a01b0394851696938516959285169490911692909188565b604080519889526001600160a01b0397881660208a01529587169588019590955292851660608701529316608085015260a084019290925260c083019190915260e08201526101000161026c565b61033161049936600461324f565b610db0565b6102cf6104ac36600461355a565b610eb0565b6102606104bf36600461324f565b6111ed565b6102cf60008051602061394c83398151915281565b6102cf6104e7366004613392565b61126b565b6103516104fa366004613269565b6116e9565b61035161050d3660046133de565b6118dc565b6102606105203660046134d9565b611943565b61035161053336600461324f565b61196c565b6102cf600081565b61033161198e565b6102a273eeeeeeeeeeeeeeeeeeeeeeeeeeeeeeeeeeeeeeee81565b61026061057136600461324f565b611a4c565b6102cf6105843660046134c1565b611a59565b6102cf7f0c98cf5b298d76683bff7ac7eb2544a1c5413c08c055cad5077796993f1b71e581565b610288611c9b565b6103316105c636600461329b565b611d62565b6102a26105d936600461324f565b6005602052600090815260409020546001600160a01b031681565b6103516106023660046134d9565b611df9565b6102cf7f0b43cb2c88b4e8fc5d4ac1352ba889b22584df0c58c4b5b589731a1c9f6f29d381565b61033161063c366004613269565b611e1f565b61035161064f36600461324f565b611e73565b6102cf61066236600461331c565b611ebd565b610351610675366004613269565b612154565b60006001600160e01b03198216637965db0b60e01b14806106ab57506301ffc9a760e01b6001600160e01b03198316145b92915050565b6001600160a01b0381166000908152600c602052604090206060906106d59061233d565b67ffffffffffffffff8111156106fb57634e487b7160e01b600052604160045260246000fd5b604051908082528060200260200182016040528015610724578160200160208202803683370190505b50905060005b6001600160a01b0383166000908152600c6020526040902061074b9061233d565b8110156107be576001600160a01b0383166000908152600c602052604090206107749082612347565b82828151811061079457634e487b7160e01b600052603260045260246000fd5b6001600160a01b0390921660209283029190910190910152806107b6816138f3565b91505061072a565b50919050565b606060008051602061396c8339815191526107df813361235a565b336000908152600a602052604081206107f79061233d565b1161085f5760405162461bcd60e51b815260206004820152602d60248201527f5472616465466163746f72793a206e6f207472616465732070656e64696e672060448201526c66726f6d20737472617465677960981b60648201526084015b60405180910390fd5b336000908152600a602052604090206108779061233d565b67ffffffffffffffff81111561089d57634e487b7160e01b600052604160045260246000fd5b6040519080825280602002602001820160405280156108c6578160200160208202803683370190505b50915060005b336000908152600a602052604090206108e49061233d565b81101561094157336000908152600a602052604090206109049082612347565b83828151811061092457634e487b7160e01b600052603260045260246000fd5b602090810291909101015280610939816138f3565b9150506108cc565b5060005b82518110156109915761097f3384838151811061097257634e487b7160e01b600052603260045260246000fd5b60200260200101516123be565b80610989816138f3565b915050610945565b50336001600160a01b03167fbc02525bfba972df6ef3d6d34e6f4773de0e098177c254a62a4926ec94fdaea6836040516109cb9190613784565b60405180910390a25090565b7f0b43cb2c88b4e8fc5d4ac1352ba889b22584df0c58c4b5b589731a1c9f6f29d3610a02813361235a565b610a0d848484612447565b50505050565b600082815260208190526040902060010154610a2f813361235a565b610a3983836125e9565b505050565b6001600160a01b0381163314610aae5760405162461bcd60e51b815260206004820152602f60248201527f416363657373436f6e74726f6c3a2063616e206f6e6c792072656e6f756e636560448201526e103937b632b9903337b91039b2b63360891b6064820152608401610856565b610ab8828261266d565b5050565b60008051602061394c833981519152610ad5813361235a565b610ab8826126d2565b60008051602061394c833981519152610af7813361235a565b60005b8251811015610a3957610b33838281518110610b2657634e487b7160e01b600052603260045260246000fd5b6020026020010151612761565b80610b3d816138f3565b915050610afa565b6001600160a01b0381166000908152600360205260409020606090610b699061233d565b67ffffffffffffffff811115610b8f57634e487b7160e01b600052604160045260246000fd5b604051908082528060200260200182016040528015610bb8578160200160208202803683370190505b50905060005b6001600160a01b0383166000908152600360205260409020610bdf9061233d565b8110156107be576001600160a01b0383166000908152600360205260409020610c089082612347565b828281518110610c2857634e487b7160e01b600052603260045260246000fd5b6001600160a01b039092166020928302919091019091015280610c4a816138f3565b915050610bbe565b60008051602061396c833981519152610c6b813361235a565b610c7660088361283a565b610c925760405162461bcd60e51b81526004016108569061382b565b6000828152600760205260409020600101546001600160a01b03163314610cfb5760405162461bcd60e51b815260206004820181905260248201527f5472616465466163746f72793a20646f6573206e6f74206f776e2074726164656044820152606401610856565b6000828152600760208181526040928390208351610100810185528154815260018201546001600160a01b03908116938201849052600283015481169582019590955260038201548516606082015260048201549094166080850152600581015460a0850152600681015460c08501529091015460e0830152610d7e90846123be565b604051839033907fc036ffe8eab201772430a4259f57e5ed5cd8fc42ecc80be53bb03012d983aea090600090a3505050565b6001600160a01b0381166000908152600a60205260409020606090610dd49061233d565b67ffffffffffffffff811115610dfa57634e487b7160e01b600052604160045260246000fd5b604051908082528060200260200182016040528015610e23578160200160208202803683370190505b50905060005b6001600160a01b0383166000908152600a60205260409020610e4a9061233d565b8110156107be576001600160a01b0383166000908152600a60205260409020610e739082612347565b828281518110610e9357634e487b7160e01b600052603260045260246000fd5b602090810291909101015280610ea8816138f3565b915050610e29565b600b54604051631960d2b360e21b81523360048201526000916001600160a01b0316906365834acc9060240160206040518083038186803b158015610ef457600080fd5b505afa158015610f08573d6000803e3d6000fd5b505050506040513d601f19601f82011682018060405250810190610f2c91906134a5565b610f725760405162461bcd60e51b81526020600482015260176024820152764d616368696e6572793a206e6f74206d656368616e696360481b6044820152606401610856565b610f7d60088561283a565b610f995760405162461bcd60e51b81526004016108569061382b565b6000848152600760208181526040928390208351610100810185528154815260018201546001600160a01b0390811693820193909352600282015483169481019490945260038101548216606085015260048101549091166080840152600581015460a0840152600681015460c0840152015460e082018190524211156110625760405162461bcd60e51b815260206004820152601f60248201527f5472616465466163746f72793a207472616465206861732065787069726564006044820152606401610856565b604081015161107390600190612852565b61108f5760405162461bcd60e51b8152600401610856906137f4565b60608101516040808301516001600160a01b03166000908152600c602052206110b791612852565b6110cd576110cd81604001518260600151612874565b6110f98160200151308360a0015184606001516001600160a01b03166128f1909392919063ffffffff16565b80604001516001600160a01b031663a5d4096b8260200151836060015184608001518560a001518660c001518a8a6040518863ffffffff1660e01b81526004016111499796959493929190613698565b602060405180830381600087803b15801561116357600080fd5b505af1158015611177573d6000803e3d6000fd5b505050506040513d601f19601f8201168201806040525081019061119b9190613542565b91506111ab8160200151866123be565b847ff3b176b50ba6ec4473f418ce17c562a616f7715b23a6bcea8e41d78621f56b34836040516111dd91815260200190565b60405180910390a2509392505050565b600b54604051631960d2b360e21b81526001600160a01b03838116600483015260009216906365834acc9060240160206040518083038186803b15801561123357600080fd5b505afa158015611247573d6000803e3d6000fd5b505050506040513d601f19601f820116820180604052508101906106ab91906134a5565b600060008051602061396c833981519152611286813361235a565b336000908152600460205260409020546001600160a01b03166112eb5760405162461bcd60e51b815260206004820152601760248201527f54463a206e6f20737472617465677920737761707065720000000000000000006044820152606401610856565b6001600160a01b0387161580159061130b57506001600160a01b03861615155b6113575760405162461bcd60e51b815260206004820152601a60248201527f5472616465466163746f72793a207a65726f20616464726573730000000000006044820152606401610856565b600085116113a35760405162461bcd60e51b8152602060048201526019602482015278151c985919519858dd1bdc9e4e881e995c9bc8185b5bdd5b9d603a1b6044820152606401610856565b600084116113f35760405162461bcd60e51b815260206004820152601b60248201527f5472616465466163746f72793a207a65726f20736c69707061676500000000006044820152606401610856565b8242106114425760405162461bcd60e51b815260206004820152601f60248201527f5472616465466163746f72793a20646561646c696e6520746f6f20736f6f6e006044820152606401610856565b600654915060006040518061010001604052806006548152602001336001600160a01b0316815260200160046000336001600160a01b03166001600160a01b0316815260200190815260200160002060009054906101000a90046001600160a01b03166001600160a01b03168152602001896001600160a01b03168152602001886001600160a01b031681526020018781526020018681526020018581525090508060076000836000015181526020019081526020016000206000820151816000015560208201518160010160006101000a8154816001600160a01b0302191690836001600160a01b0316021790555060408201518160020160006101000a8154816001600160a01b0302191690836001600160a01b0316021790555060608201518160030160006101000a8154816001600160a01b0302191690836001600160a01b0316021790555060808201518160040160006101000a8154816001600160a01b0302191690836001600160a01b0316021790555060a0820151816005015560c0820151816006015560e082015181600701559050506116158160000151600a6000336001600160a01b03166001600160a01b0316815260200190815260200160002061295c90919063ffffffff16565b5080516116249060089061295c565b506001600660008282546116389190613862565b9091555050805160208201516040808401516060850151608086015160a087015160c088015160e089015195517f399699ab6f1401e7784608cbdabe944658876a522eb163c69fd166dbf2776c4f976116d697909695949392916001600160a01b03978816815295871660208701529386166040860152919094166060840152608083019390935260a082019290925260c081019190915260e00190565b60405180910390a2505095945050505050565b60008051602061398c833981519152611702813361235a565b6000826001600160a01b031663cd985af06040518163ffffffff1660e01b815260040160206040518083038186803b15801561173d57600080fd5b505afa158015611751573d6000803e3d6000fd5b505050506040513d601f19601f820116820180604052508101906117759190613523565b600181111561179457634e487b7160e01b600052602160045260246000fd5b146117d95760405162461bcd60e51b81526020600482015260156024820152742a231d103737ba1030b9bcb7319039bbb0b83832b960591b6044820152606401610856565b6117e4600183612852565b6118005760405162461bcd60e51b8152600401610856906137f4565b6001600160a01b038381166000908152600460205260409020541615611853576001600160a01b03808416600090815260046020908152604080832054909316825260039052206118519084612968565b505b6001600160a01b03838116600090815260046020908152604080832080546001600160a01b03191694871694851790559282526003905220611895908461297d565b506040516001600160a01b0383811682528416907f1a70401259f8cfe91ae1c8d3f5b4f357d27664794f83e3bcd4648f047554f680906020015b60405180910390a2505050565b60008051602061394c8339815191526118f5813361235a565b60005b8251811015610a395761193183828151811061192457634e487b7160e01b600052603260045260246000fd5b60200260200101516126d2565b8061193b816138f3565b9150506118f8565b6000918252602082815260408084206001600160a01b0393909316845291905290205460ff1690565b60008051602061394c833981519152611985813361235a565b610ab882612761565b606061199a600861233d565b67ffffffffffffffff8111156119c057634e487b7160e01b600052604160045260246000fd5b6040519080825280602002602001820160405280156119e9578160200160208202803683370190505b50905060005b6119f9600861233d565b811015611a4857611a0b600882612347565b828281518110611a2b57634e487b7160e01b600052603260045260246000fd5b602090810291909101015280611a40816138f3565b9150506119ef565b5090565b60006106ab600183612852565b600b54604051631960d2b360e21b81523360048201526000916001600160a01b0316906365834acc9060240160206040518083038186803b158015611a9d57600080fd5b505afa158015611ab1573d6000803e3d6000fd5b505050506040513d601f19601f82011682018060405250810190611ad591906134a5565b611b1b5760405162461bcd60e51b81526020600482015260176024820152764d616368696e6572793a206e6f74206d656368616e696360481b6044820152606401610856565b611b2660088361283a565b611b425760405162461bcd60e51b81526004016108569061382b565b6000828152600760208181526040928390208351610100810185528154815260018201546001600160a01b0390811693820193909352600282015483169481019490945260038101548216606085015260048101549091166080840152600581015460a0840152600681015460c0840152015460e08201819052421015611c0b5760405162461bcd60e51b815260206004820152601f60248201527f5472616465466163746f72793a207472616465206e6f742065787069726564006044820152606401610856565b60a081015160208201516060830151919350611c32916001600160a01b03169030856128f1565b611c5c81602001518260a0015183606001516001600160a01b03166129929092919063ffffffff16565b611c6a8160200151846123be565b60405183907f9e52c476c07e14b40a7ee505cae05543e63c4c2d0c69323803c1fe0b4dd23b8a90600090a250919050565b6060611ca7600161233d565b67ffffffffffffffff811115611ccd57634e487b7160e01b600052604160045260246000fd5b604051908082528060200260200182016040528015611cf6578160200160208202803683370190505b50905060005b611d06600161233d565b811015611a4857611d18600182612347565b828281518110611d3857634e487b7160e01b600052603260045260246000fd5b6001600160a01b039092166020928302919091019091015280611d5a816138f3565b915050611cfc565b606060008051602061398c833981519152611d7d813361235a565b604051634782c0cd60e11b81526001600160a01b038087166004830152851660248201523090638f05819a90604401600060405180830381600087803b158015611dc657600080fd5b505af1158015611dda573d6000803e3d6000fd5b505050508215611df157611dee85856129c2565b91505b509392505050565b600082815260208190526040902060010154611e15813361235a565b610a39838361266d565b606060008051602061398c833981519152611e3a813361235a565b611e45600184612852565b611e615760405162461bcd60e51b8152600401610856906137f4565b611e6b84846129c2565b949350505050565b7f0b43cb2c88b4e8fc5d4ac1352ba889b22584df0c58c4b5b589731a1c9f6f29d3611e9e813361235a565b600b80546001600160a01b0319166001600160a01b0384161790555050565b600060008051602061396c833981519152611ed8813361235a565b336000908152600560205260409020546001600160a01b0316611efc600182612852565b611f185760405162461bcd60e51b8152600401610856906137f4565b6001600160a01b03891615801590611f3857506001600160a01b03881615155b611f845760405162461bcd60e51b815260206004820152601a60248201527f5472616465466163746f72793a207a65726f20616464726573730000000000006044820152606401610856565b60008711611fd05760405162461bcd60e51b8152602060048201526019602482015278151c985919519858dd1bdc9e4e881e995c9bc8185b5bdd5b9d603a1b6044820152606401610856565b600086116120205760405162461bcd60e51b815260206004820152601b60248201527f5472616465466163746f72793a207a65726f20736c69707061676500000000006044820152606401610856565b6001600160a01b0381166000908152600c60205260409020612042908a612852565b61205057612050818a612874565b6120656001600160a01b038a1633308a6128f1565b60405163a5d4096b60e01b81526001600160a01b0382169063a5d4096b9061209d9033908d908d908d908d908d908d90600401613698565b602060405180830381600087803b1580156120b757600080fd5b505af11580156120cb573d6000803e3d6000fd5b505050506040513d601f19601f820116820180604052508101906120ef9190613542565b9250806001600160a01b0316336001600160a01b03167f1d816b1b1d67ea42ff2f6dae0a85f237a27e76afccb32ba25e4175330f3703e18b8b8b8b8b8b8b60405161214097969594939291906136e8565b60405180910390a350509695505050505050565b60008051602061398c83398151915261216d813361235a565b6001826001600160a01b031663cd985af06040518163ffffffff1660e01b815260040160206040518083038186803b1580156121a857600080fd5b505afa1580156121bc573d6000803e3d6000fd5b505050506040513d601f19601f820116820180604052508101906121e09190613523565b60018111156121ff57634e487b7160e01b600052602160045260246000fd5b146122435760405162461bcd60e51b81526020600482015260146024820152732a231d103737ba1039bcb7319039bbb0b83832b960611b6044820152606401610856565b61224e600183612852565b61226a5760405162461bcd60e51b8152600401610856906137f4565b6001600160a01b0383811660009081526005602052604090205416156122bd576001600160a01b03808416600090815260056020908152604080832054909316825260039052206122bb9084612968565b505b6001600160a01b03838116600090815260056020908152604080832080546001600160a01b031916948716948517905592825260039052206122ff908461297d565b506040516001600160a01b0383811682528416907f09864ed308dfc2a9cc6804e3b86d38a1aaa4f7adec68be5562b9dd8feb9c1b05906020016118cf565b60006106ab825490565b60006123538383612b59565b9392505050565b6123648282611943565b610ab85761237c816001600160a01b03166014612b91565b612387836020612b91565b604051602001612398929190613623565b60408051601f198184030181529082905262461bcd60e51b8252610856916004016137c1565b6001600160a01b0382166000908152600a602052604090206123e09082612d73565b506123ec600882612d73565b50600090815260076020819052604082208281556001810180546001600160a01b0319908116909155600282018054821690556003820180548216905560048201805490911690556005810183905560068101839055015550565b6001600160a01b0383166124b55760405162461bcd60e51b815260206004820152602f60248201527f636f6c6c65637461626c652d647573742f63616e742d73656e642d647573742d60448201526e746f2d7a65726f2d6164647265737360881b6064820152608401610856565b6124c0600d83612852565b156125245760405162461bcd60e51b815260206004820152602e60248201527f636f6c6c65637461626c652d647573742f746f6b656e2d69732d706172742d6f60448201526d198b5d1a194b5c1c9bdd1bd8dbdb60921b6064820152608401610856565b6001600160a01b03821673eeeeeeeeeeeeeeeeeeeeeeeeeeeeeeeeeeeeeeee1415612585576040516001600160a01b0384169082156108fc029083906000818181858888f1935050505015801561257f573d6000803e3d6000fd5b50612599565b6125996001600160a01b0383168483612992565b604080516001600160a01b038086168252841660208201529081018290527f1e34c1aee8e83c2dcc14c21bb4bfeea7f46c0c998cb797ac7cc4d7a18f5c656b9060600160405180910390a1505050565b6125f38282611943565b610ab8576000828152602081815260408083206001600160a01b03851684529091529020805460ff191660011790556126293390565b6001600160a01b0316816001600160a01b0316837f2f8788117e7eff1d82e926ec794901d17c78024a50270940304540a733656f0d60405160405180910390a45050565b6126778282611943565b15610ab8576000828152602081815260408083206001600160a01b0385168085529252808320805460ff1916905551339285917ff6391f5c32d9c69d2a47ea670b442974b53935d1edc7fd64eb21e047a839171b9190a45050565b6126dd600182612968565b6127215760405162461bcd60e51b815260206004820152601560248201527415118e881cddd85c1c195c881b9bdd081859191959605a1b6044820152606401610856565b6040516001600160a01b03821681527f1bdacea439f3d52c1495fc881858088a33f2ad0cc4a6a1a08780ca96eb6b702d906020015b60405180910390a150565b6001600160a01b0381166127aa5760405162461bcd60e51b815260206004820152601060248201526f54463a207a65726f206164647265737360801b6044820152606401610856565b6127b560018261297d565b6128015760405162461bcd60e51b815260206004820152601960248201527f54463a207377617070657220616c7265616479206164646564000000000000006044820152606401610856565b6040516001600160a01b03821681527f459edbd4f641bfd6cb8eba5ac1b9e7a4629853efd00cc505d055fd3b051867e090602001612756565b60008181526001830160205260408120541515612353565b6001600160a01b03811660009081526001830160205260408120541515612353565b61288a6001600160a01b03821683600019612d7f565b6001600160a01b0382166000908152600c602052604090206128ac908261297d565b506040516001600160a01b0382811682528316907fca338b12f744b3a015d8436ee96c4b9c73826faed1fbb50e689f05e0ba02f5279060200160405180910390a25050565b6040516001600160a01b0380851660248301528316604482015260648101829052610a0d9085906323b872dd60e01b906084015b60408051601f198184030181529190526020810180516001600160e01b03166001600160e01b031990931692909217909152612ea3565b60006123538383612f75565b6000612353836001600160a01b038416612fc4565b6000612353836001600160a01b038416612f75565b6040516001600160a01b038316602482015260448101829052610a3990849063a9059cbb60e01b90606401612925565b6001600160a01b0382166000908152600a602052604090206060906129e69061233d565b67ffffffffffffffff811115612a0c57634e487b7160e01b600052604160045260246000fd5b604051908082528060200260200182016040528015612a35578160200160208202803683370190505b50905060005b6001600160a01b0384166000908152600a60205260409020612a5c9061233d565b811015612b0f576001600160a01b0384166000908152600a602052604081208491600791612a8a9085612347565b81526020808201929092526040908101600090812060020180546001600160a01b0319166001600160a01b039586161790559287168352600a9091529020612ad29082612347565b828281518110612af257634e487b7160e01b600052603260045260246000fd5b602090810291909101015280612b07816138f3565b915050612a3b565b50826001600160a01b03167f30b06075f2edb9220aa0b9c376183754ed018b66a4be08bf8558f33cd704255c8284604051612b4b929190613797565b60405180910390a292915050565b6000826000018281548110612b7e57634e487b7160e01b600052603260045260246000fd5b9060005260206000200154905092915050565b60606000612ba083600261387a565b612bab906002613862565b67ffffffffffffffff811115612bd157634e487b7160e01b600052604160045260246000fd5b6040519080825280601f01601f191660200182016040528015612bfb576020820181803683370190505b509050600360fc1b81600081518110612c2457634e487b7160e01b600052603260045260246000fd5b60200101906001600160f81b031916908160001a905350600f60fb1b81600181518110612c6157634e487b7160e01b600052603260045260246000fd5b60200101906001600160f81b031916908160001a9053506000612c8584600261387a565b612c90906001613862565b90505b6001811115612d24576f181899199a1a9b1b9c1cb0b131b232b360811b85600f1660108110612cd257634e487b7160e01b600052603260045260246000fd5b1a60f81b828281518110612cf657634e487b7160e01b600052603260045260246000fd5b60200101906001600160f81b031916908160001a90535060049490941c93612d1d816138dc565b9050612c93565b5083156123535760405162461bcd60e51b815260206004820181905260248201527f537472696e67733a20686578206c656e67746820696e73756666696369656e746044820152606401610856565b60006123538383612fc4565b801580612e085750604051636eb1769f60e11b81523060048201526001600160a01b03838116602483015284169063dd62ed3e9060440160206040518083038186803b158015612dce57600080fd5b505afa158015612de2573d6000803e3d6000fd5b505050506040513d601f19601f82011682018060405250810190612e069190613542565b155b612e735760405162461bcd60e51b815260206004820152603660248201527f5361666545524332303a20617070726f76652066726f6d206e6f6e2d7a65726f60448201527520746f206e6f6e2d7a65726f20616c6c6f77616e636560501b6064820152608401610856565b6040516001600160a01b038316602482015260448101829052610a3990849063095ea7b360e01b90606401612925565b6000612ef8826040518060400160405280602081526020017f5361666545524332303a206c6f772d6c6576656c2063616c6c206661696c6564815250856001600160a01b03166130e19092919063ffffffff16565b805190915015610a395780806020019051810190612f1691906134a5565b610a395760405162461bcd60e51b815260206004820152602a60248201527f5361666545524332303a204552433230206f7065726174696f6e20646964206e6044820152691bdd081cdd58d8d9595960b21b6064820152608401610856565b6000818152600183016020526040812054612fbc575081546001818101845560008481526020808220909301849055845484825282860190935260409020919091556106ab565b5060006106ab565b600081815260018301602052604081205480156130d7576000612fe8600183613899565b8554909150600090612ffc90600190613899565b905081811461307d57600086600001828154811061302a57634e487b7160e01b600052603260045260246000fd5b906000526020600020015490508087600001848154811061305b57634e487b7160e01b600052603260045260246000fd5b6000918252602080832090910192909255918252600188019052604090208390555b855486908061309c57634e487b7160e01b600052603160045260246000fd5b6001900381819060005260206000200160009055905585600101600086815260200190815260200160002060009055600193505050506106ab565b60009150506106ab565b6060611e6b848460008585843b61313a5760405162461bcd60e51b815260206004820152601d60248201527f416464726573733a2063616c6c20746f206e6f6e2d636f6e74726163740000006044820152606401610856565b600080866001600160a01b031685876040516131569190613607565b60006040518083038185875af1925050503d8060008114613193576040519150601f19603f3d011682016040523d82523d6000602084013e613198565b606091505b50915091506131a88282866131b3565b979650505050505050565b606083156131c2575081612353565b8251156131d25782518084602001fd5b8160405162461bcd60e51b815260040161085691906137c1565b80356001600160a01b038116811461320357600080fd5b919050565b60008083601f840112613219578182fd5b50813567ffffffffffffffff811115613230578182fd5b60208301915083602082850101111561324857600080fd5b9250929050565b600060208284031215613260578081fd5b612353826131ec565b6000806040838503121561327b578081fd5b613284836131ec565b9150613292602084016131ec565b90509250929050565b6000806000606084860312156132af578081fd5b6132b8846131ec565b92506132c6602085016131ec565b915060408401356132d68161393a565b809150509250925092565b6000806000606084860312156132f5578283fd5b6132fe846131ec565b925061330c602085016131ec565b9150604084013590509250925092565b60008060008060008060a08789031215613334578182fd5b61333d876131ec565b955061334b602088016131ec565b94506040870135935060608701359250608087013567ffffffffffffffff811115613374578283fd5b61338089828a01613208565b979a9699509497509295939492505050565b600080600080600060a086880312156133a9578081fd5b6133b2866131ec565b94506133c0602087016131ec565b94979496505050506040830135926060810135926080909101359150565b600060208083850312156133f0578182fd5b823567ffffffffffffffff80821115613407578384fd5b818501915085601f83011261341a578384fd5b81358181111561342c5761342c613924565b8060051b604051601f19603f8301168101818110858211171561345157613451613924565b604052828152858101935084860182860187018a101561346f578788fd5b8795505b8386101561349857613484816131ec565b855260019590950194938601938601613473565b5098975050505050505050565b6000602082840312156134b6578081fd5b81516123538161393a565b6000602082840312156134d2578081fd5b5035919050565b600080604083850312156134eb578182fd5b82359150613292602084016131ec565b60006020828403121561350c578081fd5b81356001600160e01b031981168114612353578182fd5b600060208284031215613534578081fd5b815160028110612353578182fd5b600060208284031215613553578081fd5b5051919050565b60008060006040848603121561356e578081fd5b83359250602084013567ffffffffffffffff81111561358b578182fd5b61359786828701613208565b9497909650939450505050565b6000815180845260208085019450808401835b838110156135d3578151875295820195908201906001016135b7565b509495945050505050565b81835281816020850137506000828201602090810191909152601f909101601f19169091010190565b600082516136198184602087016138b0565b9190910192915050565b7f416363657373436f6e74726f6c3a206163636f756e742000000000000000000081526000835161365b8160178501602088016138b0565b7001034b99036b4b9b9b4b733903937b6329607d1b601791840191820152835161368c8160288401602088016138b0565b01602801949350505050565b6001600160a01b038881168252878116602083015286166040820152606081018590526080810184905260c060a082018190526000906136db90830184866135de565b9998505050505050505050565b6001600160a01b03888116825287166020820152604081018690526060810185905260c06080820181905260009061372390830185876135de565b90508260a083015298975050505050505050565b6020808252825182820181905260009190848201906040850190845b818110156137785783516001600160a01b031683529284019291840191600101613753565b50909695505050505050565b60208152600061235360208301846135a4565b6040815260006137aa60408301856135a4565b905060018060a01b03831660208301529392505050565b60208152600082518060208401526137e08160408501602087016138b0565b601f01601f19169190910160400192915050565b6020808252601d908201527f5472616465466163746f72793a20696e76616c69642073776170706572000000604082015260600190565b6020808252601f908201527f5472616465466163746f72793a207472616465206e6f742070656e64696e6700604082015260600190565b600082198211156138755761387561390e565b500190565b60008160001904831182151516156138945761389461390e565b500290565b6000828210156138ab576138ab61390e565b500390565b60005b838110156138cb5781810151838201526020016138b3565b83811115610a0d5750506000910152565b6000816138eb576138eb61390e565b506000190190565b60006000198214156139075761390761390e565b5060010190565b634e487b7160e01b600052601160045260246000fd5b634e487b7160e01b600052604160045260246000fd5b801515811461394857600080fd5b5056fe038c8d5a0695aa8e4bf7e2d14cb85443db816cf8bdf8985d9f1a65519aeb6cd949e347583a7b9e7f325e8963ee1f94127eba81e401796874b5a22f7c8f9d45f7e39dc63caee7a15eb0ffb77a826d10c23d40b5f7182b000737ab5c078838b911a264697066735822122024619f67138e3289c31c8df8e130ab450d85223d6ef4e861edc8aa6290ef0ab764736f6c63430008040033038c8d5a0695aa8e4bf7e2d14cb85443db816cf8bdf8985d9f1a65519aeb6cd90c98cf5b298d76683bff7ac7eb2544a1c5413c08c055cad5077796993f1b71e50b43cb2c88b4e8fc5d4ac1352ba889b22584df0c58c4b5b589731a1c9f6f29d3",
  "devdoc": {
    "kind": "dev",
    "methods": {
      "getRoleAdmin(bytes32)": {
        "details": "Returns the admin role that controls `role`. See {grantRole} and {revokeRole}. To change a role's admin, use {_setRoleAdmin}."
      },
      "grantRole(bytes32,address)": {
        "details": "Grants `role` to `account`. If `account` had not been already granted `role`, emits a {RoleGranted} event. Requirements: - the caller must have ``role``'s admin role."
      },
      "hasRole(bytes32,address)": {
        "details": "Returns `true` if `account` has been granted `role`."
      },
      "renounceRole(bytes32,address)": {
        "details": "Revokes `role` from the calling account. Roles are often managed via {grantRole} and {revokeRole}: this function's purpose is to provide a mechanism for accounts to lose their privileges if they are compromised (such as when a trusted device is misplaced). If the calling account had been granted `role`, emits a {RoleRevoked} event. Requirements: - the caller must be `account`."
      },
      "revokeRole(bytes32,address)": {
        "details": "Revokes `role` from `account`. If `account` had been granted `role`, emits a {RoleRevoked} event. Requirements: - the caller must have ``role``'s admin role."
      },
      "supportsInterface(bytes4)": {
        "details": "See {IERC165-supportsInterface}."
      }
    },
    "version": 1
  },
  "userdoc": {
    "kind": "user",
    "methods": {},
    "version": 1
  },
  "storageLayout": {
    "storage": [
      {
        "astId": 516,
        "contract": "contracts/TradeFactory/TradeFactory.sol:TradeFactory",
        "label": "_roles",
        "offset": 0,
        "slot": "0",
        "type": "t_mapping(t_bytes32,t_struct(RoleData)511_storage)"
      },
      {
        "astId": 5965,
        "contract": "contracts/TradeFactory/TradeFactory.sol:TradeFactory",
        "label": "_swappers",
        "offset": 0,
        "slot": "1",
        "type": "t_struct(AddressSet)2632_storage"
      },
      {
        "astId": 5970,
        "contract": "contracts/TradeFactory/TradeFactory.sol:TradeFactory",
        "label": "_swapperStrategies",
        "offset": 0,
        "slot": "3",
        "type": "t_mapping(t_address,t_struct(AddressSet)2632_storage)"
      },
      {
        "astId": 5975,
        "contract": "contracts/TradeFactory/TradeFactory.sol:TradeFactory",
        "label": "strategyAsyncSwapper",
        "offset": 0,
        "slot": "4",
        "type": "t_mapping(t_address,t_address)"
      },
      {
        "astId": 5980,
        "contract": "contracts/TradeFactory/TradeFactory.sol:TradeFactory",
        "label": "strategySyncSwapper",
        "offset": 0,
        "slot": "5",
        "type": "t_mapping(t_address,t_address)"
      },
      {
        "astId": 5291,
        "contract": "contracts/TradeFactory/TradeFactory.sol:TradeFactory",
        "label": "_tradeCounter",
        "offset": 0,
        "slot": "6",
        "type": "t_uint256"
      },
      {
        "astId": 5297,
        "contract": "contracts/TradeFactory/TradeFactory.sol:TradeFactory",
        "label": "pendingTradesById",
        "offset": 0,
        "slot": "7",
        "type": "t_mapping(t_uint256,t_struct(Trade)5142_storage)"
      },
      {
        "astId": 5300,
        "contract": "contracts/TradeFactory/TradeFactory.sol:TradeFactory",
        "label": "_pendingTradesIds",
        "offset": 0,
        "slot": "8",
        "type": "t_struct(UintSet)2759_storage"
      },
      {
        "astId": 5305,
        "contract": "contracts/TradeFactory/TradeFactory.sol:TradeFactory",
        "label": "_pendingTradesByOwner",
        "offset": 0,
        "slot": "10",
        "type": "t_mapping(t_address,t_struct(UintSet)2759_storage)"
      },
      {
        "astId": 272,
        "contract": "contracts/TradeFactory/TradeFactory.sol:TradeFactory",
        "label": "_mechanicsRegistry",
        "offset": 0,
        "slot": "11",
        "type": "t_contract(IMechanicsRegistry)379"
      },
      {
        "astId": 4718,
        "contract": "contracts/TradeFactory/TradeFactory.sol:TradeFactory",
        "label": "_approvedTokensBySwappers",
        "offset": 0,
        "slot": "12",
        "type": "t_mapping(t_address,t_struct(AddressSet)2632_storage)"
      },
      {
        "astId": 21,
        "contract": "contracts/TradeFactory/TradeFactory.sol:TradeFactory",
        "label": "protocolTokens",
        "offset": 0,
        "slot": "13",
        "type": "t_struct(AddressSet)2632_storage"
      }
    ],
    "types": {
      "t_address": {
        "encoding": "inplace",
        "label": "address",
        "numberOfBytes": "20"
      },
      "t_array(t_bytes32)dyn_storage": {
        "base": "t_bytes32",
        "encoding": "dynamic_array",
        "label": "bytes32[]",
        "numberOfBytes": "32"
      },
      "t_bool": {
        "encoding": "inplace",
        "label": "bool",
        "numberOfBytes": "1"
      },
      "t_bytes32": {
        "encoding": "inplace",
        "label": "bytes32",
        "numberOfBytes": "32"
      },
      "t_contract(IMechanicsRegistry)379": {
        "encoding": "inplace",
        "label": "contract IMechanicsRegistry",
        "numberOfBytes": "20"
      },
      "t_mapping(t_address,t_address)": {
        "encoding": "mapping",
        "key": "t_address",
        "label": "mapping(address => address)",
        "numberOfBytes": "32",
        "value": "t_address"
      },
      "t_mapping(t_address,t_bool)": {
        "encoding": "mapping",
        "key": "t_address",
        "label": "mapping(address => bool)",
        "numberOfBytes": "32",
        "value": "t_bool"
      },
      "t_mapping(t_address,t_struct(AddressSet)2632_storage)": {
        "encoding": "mapping",
        "key": "t_address",
        "label": "mapping(address => struct EnumerableSet.AddressSet)",
        "numberOfBytes": "32",
        "value": "t_struct(AddressSet)2632_storage"
      },
      "t_mapping(t_address,t_struct(UintSet)2759_storage)": {
        "encoding": "mapping",
        "key": "t_address",
        "label": "mapping(address => struct EnumerableSet.UintSet)",
        "numberOfBytes": "32",
        "value": "t_struct(UintSet)2759_storage"
      },
      "t_mapping(t_bytes32,t_struct(RoleData)511_storage)": {
        "encoding": "mapping",
        "key": "t_bytes32",
        "label": "mapping(bytes32 => struct AccessControl.RoleData)",
        "numberOfBytes": "32",
        "value": "t_struct(RoleData)511_storage"
      },
      "t_mapping(t_bytes32,t_uint256)": {
        "encoding": "mapping",
        "key": "t_bytes32",
        "label": "mapping(bytes32 => uint256)",
        "numberOfBytes": "32",
        "value": "t_uint256"
      },
      "t_mapping(t_uint256,t_struct(Trade)5142_storage)": {
        "encoding": "mapping",
        "key": "t_uint256",
        "label": "mapping(uint256 => struct ITradeFactoryPositionsHandler.Trade)",
        "numberOfBytes": "32",
        "value": "t_struct(Trade)5142_storage"
      },
      "t_struct(AddressSet)2632_storage": {
        "encoding": "inplace",
        "label": "struct EnumerableSet.AddressSet",
        "members": [
          {
            "astId": 2631,
            "contract": "contracts/TradeFactory/TradeFactory.sol:TradeFactory",
            "label": "_inner",
            "offset": 0,
            "slot": "0",
            "type": "t_struct(Set)2361_storage"
          }
        ],
        "numberOfBytes": "64"
      },
      "t_struct(RoleData)511_storage": {
        "encoding": "inplace",
        "label": "struct AccessControl.RoleData",
        "members": [
          {
            "astId": 508,
            "contract": "contracts/TradeFactory/TradeFactory.sol:TradeFactory",
            "label": "members",
            "offset": 0,
            "slot": "0",
            "type": "t_mapping(t_address,t_bool)"
          },
          {
            "astId": 510,
            "contract": "contracts/TradeFactory/TradeFactory.sol:TradeFactory",
            "label": "adminRole",
            "offset": 0,
            "slot": "1",
            "type": "t_bytes32"
          }
        ],
        "numberOfBytes": "64"
      },
      "t_struct(Set)2361_storage": {
        "encoding": "inplace",
        "label": "struct EnumerableSet.Set",
        "members": [
          {
            "astId": 2356,
            "contract": "contracts/TradeFactory/TradeFactory.sol:TradeFactory",
            "label": "_values",
            "offset": 0,
            "slot": "0",
            "type": "t_array(t_bytes32)dyn_storage"
          },
          {
            "astId": 2360,
            "contract": "contracts/TradeFactory/TradeFactory.sol:TradeFactory",
            "label": "_indexes",
            "offset": 0,
            "slot": "1",
            "type": "t_mapping(t_bytes32,t_uint256)"
          }
        ],
        "numberOfBytes": "64"
      },
      "t_struct(Trade)5142_storage": {
        "encoding": "inplace",
        "label": "struct ITradeFactoryPositionsHandler.Trade",
        "members": [
          {
            "astId": 5127,
            "contract": "contracts/TradeFactory/TradeFactory.sol:TradeFactory",
            "label": "_id",
            "offset": 0,
            "slot": "0",
            "type": "t_uint256"
          },
          {
            "astId": 5129,
            "contract": "contracts/TradeFactory/TradeFactory.sol:TradeFactory",
            "label": "_strategy",
            "offset": 0,
            "slot": "1",
            "type": "t_address"
          },
          {
            "astId": 5131,
            "contract": "contracts/TradeFactory/TradeFactory.sol:TradeFactory",
            "label": "_swapper",
            "offset": 0,
            "slot": "2",
            "type": "t_address"
          },
          {
            "astId": 5133,
            "contract": "contracts/TradeFactory/TradeFactory.sol:TradeFactory",
            "label": "_tokenIn",
            "offset": 0,
            "slot": "3",
            "type": "t_address"
          },
          {
            "astId": 5135,
            "contract": "contracts/TradeFactory/TradeFactory.sol:TradeFactory",
            "label": "_tokenOut",
            "offset": 0,
            "slot": "4",
            "type": "t_address"
          },
          {
            "astId": 5137,
            "contract": "contracts/TradeFactory/TradeFactory.sol:TradeFactory",
            "label": "_amountIn",
            "offset": 0,
            "slot": "5",
            "type": "t_uint256"
          },
          {
            "astId": 5139,
            "contract": "contracts/TradeFactory/TradeFactory.sol:TradeFactory",
            "label": "_maxSlippage",
            "offset": 0,
            "slot": "6",
            "type": "t_uint256"
          },
          {
            "astId": 5141,
            "contract": "contracts/TradeFactory/TradeFactory.sol:TradeFactory",
            "label": "_deadline",
            "offset": 0,
            "slot": "7",
            "type": "t_uint256"
          }
        ],
        "numberOfBytes": "256"
      },
      "t_struct(UintSet)2759_storage": {
        "encoding": "inplace",
        "label": "struct EnumerableSet.UintSet",
        "members": [
          {
            "astId": 2758,
            "contract": "contracts/TradeFactory/TradeFactory.sol:TradeFactory",
            "label": "_inner",
            "offset": 0,
            "slot": "0",
            "type": "t_struct(Set)2361_storage"
          }
        ],
        "numberOfBytes": "64"
      },
      "t_uint256": {
        "encoding": "inplace",
        "label": "uint256",
        "numberOfBytes": "32"
      }
    }
  }
}