{
  "address": "0xcce31974C651BFd6565262382776828d2Faaf998",
  "abi": [
    {
      "inputs": [
        {
          "internalType": "address",
          "name": "_governor",
          "type": "address"
        },
        {
          "internalType": "address",
          "name": "_tradeFactory",
          "type": "address"
        },
        {
          "internalType": "address",
          "name": "_ZRX",
          "type": "address"
        }
      ],
      "stateMutability": "nonpayable",
      "type": "constructor"
    },
    {
      "anonymous": false,
      "inputs": [
        {
          "indexed": false,
          "internalType": "address",
          "name": "_to",
          "type": "address"
        },
        {
          "indexed": false,
          "internalType": "address",
          "name": "token",
          "type": "address"
        },
        {
          "indexed": false,
          "internalType": "uint256",
          "name": "amount",
          "type": "uint256"
        }
      ],
      "name": "DustSent",
      "type": "event"
    },
    {
      "anonymous": false,
      "inputs": [],
      "name": "GovernorAccepted",
      "type": "event"
    },
    {
      "anonymous": false,
      "inputs": [
        {
          "indexed": false,
          "internalType": "address",
          "name": "pendingGovernor",
          "type": "address"
        }
      ],
      "name": "PendingGovernorSet",
      "type": "event"
    },
    {
      "anonymous": false,
      "inputs": [
        {
          "indexed": false,
          "internalType": "address",
          "name": "_receiver",
          "type": "address"
        },
        {
          "indexed": false,
          "internalType": "address",
          "name": "_tokenIn",
          "type": "address"
        },
        {
          "indexed": false,
          "internalType": "address",
          "name": "_tokenOut",
          "type": "address"
        },
        {
          "indexed": false,
          "internalType": "uint256",
          "name": "_amountIn",
          "type": "uint256"
        },
        {
          "indexed": false,
          "internalType": "uint256",
          "name": "_maxSlippage",
          "type": "uint256"
        },
        {
          "indexed": false,
          "internalType": "uint256",
          "name": "_receivedAmount",
          "type": "uint256"
        },
        {
          "indexed": false,
          "internalType": "bytes",
          "name": "_data",
          "type": "bytes"
        }
      ],
      "name": "Swapped",
      "type": "event"
    },
    {
      "inputs": [],
      "name": "ETH_ADDRESS",
      "outputs": [
        {
          "internalType": "address",
          "name": "",
          "type": "address"
        }
      ],
      "stateMutability": "view",
      "type": "function"
    },
    {
      "inputs": [],
      "name": "SLIPPAGE_PRECISION",
      "outputs": [
        {
          "internalType": "uint256",
          "name": "",
          "type": "uint256"
        }
      ],
      "stateMutability": "view",
      "type": "function"
    },
    {
      "inputs": [],
      "name": "SWAPPER_TYPE",
      "outputs": [
        {
          "internalType": "enum ISwapper.SwapperType",
          "name": "",
          "type": "uint8"
        }
      ],
      "stateMutability": "view",
      "type": "function"
    },
    {
      "inputs": [],
      "name": "TRADE_FACTORY",
      "outputs": [
        {
          "internalType": "address",
          "name": "",
          "type": "address"
        }
      ],
      "stateMutability": "view",
      "type": "function"
    },
    {
      "inputs": [],
      "name": "ZRX",
      "outputs": [
        {
          "internalType": "address",
          "name": "",
          "type": "address"
        }
      ],
      "stateMutability": "view",
      "type": "function"
    },
    {
      "inputs": [],
      "name": "acceptGovernor",
      "outputs": [],
      "stateMutability": "nonpayable",
      "type": "function"
    },
    {
      "inputs": [],
      "name": "governor",
      "outputs": [
        {
          "internalType": "address",
          "name": "",
          "type": "address"
        }
      ],
      "stateMutability": "view",
      "type": "function"
    },
    {
      "inputs": [
        {
          "internalType": "address",
          "name": "_account",
          "type": "address"
        }
      ],
      "name": "isGovernor",
      "outputs": [
        {
          "internalType": "bool",
          "name": "_isGovernor",
          "type": "bool"
        }
      ],
      "stateMutability": "view",
      "type": "function"
    },
    {
      "inputs": [],
      "name": "pendingGovernor",
      "outputs": [
        {
          "internalType": "address",
          "name": "",
          "type": "address"
        }
      ],
      "stateMutability": "view",
      "type": "function"
    },
    {
      "inputs": [
        {
          "internalType": "address",
          "name": "_to",
          "type": "address"
        },
        {
          "internalType": "address",
          "name": "_token",
          "type": "address"
        },
        {
          "internalType": "uint256",
          "name": "_amount",
          "type": "uint256"
        }
      ],
      "name": "sendDust",
      "outputs": [],
      "stateMutability": "nonpayable",
      "type": "function"
    },
    {
      "inputs": [
        {
          "internalType": "address",
          "name": "_pendingGovernor",
          "type": "address"
        }
      ],
      "name": "setPendingGovernor",
      "outputs": [],
      "stateMutability": "nonpayable",
      "type": "function"
    },
    {
      "inputs": [
        {
          "internalType": "address",
          "name": "_receiver",
          "type": "address"
        },
        {
          "internalType": "address",
          "name": "_tokenIn",
          "type": "address"
        },
        {
          "internalType": "address",
          "name": "_tokenOut",
          "type": "address"
        },
        {
          "internalType": "uint256",
          "name": "_amountIn",
          "type": "uint256"
        },
        {
          "internalType": "uint256",
          "name": "_maxSlippage",
          "type": "uint256"
        },
        {
          "internalType": "bytes",
          "name": "_data",
          "type": "bytes"
        }
      ],
      "name": "swap",
      "outputs": [
        {
          "internalType": "uint256",
          "name": "_receivedAmount",
          "type": "uint256"
        }
      ],
      "stateMutability": "nonpayable",
      "type": "function"
    }
  ],
  "transactionHash": "0x9f3c585c0bc3de03e93a2e1c71716f260cc77a790d8ebf82cbf218f2aeb9a349",
  "args": [
    "0xB82193725471dC7bfaAB1a3AB93c7b42963F3265",
    "0x3853fa6a2110CEF32aA49437F22319F888784B87",
    "0xdef1c0ded9bec7f1a1670819833240f027b25eff"
  ],
  "solcInputHash": "0eb7107d651f51015c988e0c3d67565f",
  "bytecode": "0x60e06040526127106080523480156200001757600080fd5b5060405162001521380380620015218339810160408190526200003a916200015f565b8282816001600160a01b038116620000b05760405162461bcd60e51b815260206004820152602e60248201527f676f7665726e61626c652f676f7665726e6f722d73686f756c642d6e6f742d6260448201526d652d7a65726f2d6164647265737360901b60648201526084015b60405180910390fd5b600080546001600160a01b0319166001600160a01b0392831617905581166200011c5760405162461bcd60e51b815260206004820152601560248201527f537761707065723a207a65726f206164647265737300000000000000000000006044820152606401620000a7565b6001600160601b0319606091821b811660a05292901b90911660c05250620001a8915050565b80516001600160a01b03811681146200015a57600080fd5b919050565b60008060006060848603121562000174578283fd5b6200017f8462000142565b92506200018f6020850162000142565b91506200019f6040850162000142565b90509250925092565b60805160a05160601c60c05160601c611327620001fa600039600081816101a2015281816108d601526108ff0152600081816101380152818161029b01526103240152600061010301526113276000f3fe608060405234801561001057600080fd5b50600436106100b45760003560e01c8063cd985af011610071578063cd985af014610188578063d40fa8bf1461019d578063e3056a34146101c4578063e43581b8146101d7578063e58bb63914610209578063f235757f1461021157600080fd5b80630c340a24146100b95780632db8c129146100e9578063453943f0146100fe5780637556fae614610133578063a5d4096b1461015a578063a734f06e1461016d575b600080fd5b6000546100cc906001600160a01b031681565b6040516001600160a01b0390911681526020015b60405180910390f35b6100fc6100f73660046110fc565b610224565b005b6101257f000000000000000000000000000000000000000000000000000000000000000081565b6040519081526020016100e0565b6100cc7f000000000000000000000000000000000000000000000000000000000000000081565b610125610168366004611049565b61028e565b6100cc73eeeeeeeeeeeeeeeeeeeeeeeeeeeeeeeeeeeeeeee81565b610190600081565b6040516100e09190611204565b6100cc7f000000000000000000000000000000000000000000000000000000000000000081565b6001546100cc906001600160a01b031681565b6101f96101e536600461102f565b6000546001600160a01b0391821691161490565b60405190151581526020016100e0565b6100fc6103ab565b6100fc61021f36600461102f565b61040f565b6000546001600160a01b0316331461027e5760405162461bcd60e51b815260206004820152601860248201527733b7bb32b93730b1363297b7b7363c96b3b7bb32b93737b960411b60448201526064015b60405180910390fd5b610289838383610470565b505050565b6000336001600160a01b037f000000000000000000000000000000000000000000000000000000000000000016146103085760405162461bcd60e51b815260206004820152601a60248201527f537761707065723a206e6f7420747261646520666163746f72790000000000006044820152606401610275565b6103158888888888610612565b61034a6001600160a01b0388167f0000000000000000000000000000000000000000000000000000000000000000308861075b565b610359888888888888886107cc565b90507f40971433310985cab81e121610e21c884496299299bfdb99b10c0f75815c9887888888888886898960405161039898979695949392919061119b565b60405180910390a1979650505050505050565b6001546001600160a01b031633146104055760405162461bcd60e51b815260206004820181905260248201527f676f7665726e61626c652f6f6e6c792d70656e64696e672d676f7665726e6f726044820152606401610275565b61040d610b38565b565b6000546001600160a01b031633146104645760405162461bcd60e51b815260206004820152601860248201527733b7bb32b93730b1363297b7b7363c96b3b7bb32b93737b960411b6044820152606401610275565b61046d81610b88565b50565b6001600160a01b0383166104de5760405162461bcd60e51b815260206004820152602f60248201527f636f6c6c65637461626c652d647573742f63616e742d73656e642d647573742d60448201526e746f2d7a65726f2d6164647265737360881b6064820152608401610275565b6104e9600283610c50565b1561054d5760405162461bcd60e51b815260206004820152602e60248201527f636f6c6c65637461626c652d647573742f746f6b656e2d69732d706172742d6f60448201526d198b5d1a194b5c1c9bdd1bd8dbdb60921b6064820152608401610275565b6001600160a01b03821673eeeeeeeeeeeeeeeeeeeeeeeeeeeeeeeeeeeeeeee14156105ae576040516001600160a01b0384169082156108fc029083906000818181858888f193505050501580156105a8573d6000803e3d6000fd5b506105c2565b6105c26001600160a01b0383168483610c75565b604080516001600160a01b038086168252841660208201529081018290527f1e34c1aee8e83c2dcc14c21bb4bfeea7f46c0c998cb797ac7cc4d7a18f5c656b9060600160405180910390a1505050565b6001600160a01b0385166106605760405162461bcd60e51b8152602060048201526015602482015274537761707065723a207a65726f206164647265737360581b6044820152606401610275565b6001600160a01b0384161580159061068057506001600160a01b03831615155b6106c45760405162461bcd60e51b8152602060048201526015602482015274537761707065723a207a65726f206164647265737360581b6044820152606401610275565b6000821161070b5760405162461bcd60e51b815260206004820152601460248201527314ddd85c1c195c8e881e995c9bc8185b5bdd5b9d60621b6044820152606401610275565b600081116107545760405162461bcd60e51b8152602060048201526016602482015275537761707065723a207a65726f20736c69707061676560501b6044820152606401610275565b5050505050565b6040516001600160a01b03808516602483015283166044820152606481018290526107c69085906323b872dd60e01b906084015b60408051601f198184030181529190526020810180516001600160e01b03166001600160e01b031990931692909217909152610ca5565b50505050565b6040516370a0823160e01b815230600482015260009081906001600160a01b038916906370a082319060240160206040518083038186803b15801561081057600080fd5b505afa158015610824573d6000803e3d6000fd5b505050506040513d601f19601f820116820180604052508101906108489190611157565b6040516370a0823160e01b81523060048201529091506000906001600160a01b038916906370a082319060240160206040518083038186803b15801561088d57600080fd5b505afa1580156108a1573d6000803e3d6000fd5b505050506040513d601f19601f820116820180604052508101906108c59190611157565b90506108fb6001600160a01b038a167f000000000000000000000000000000000000000000000000000000000000000089610d77565b60007f00000000000000000000000000000000000000000000000000000000000000006001600160a01b03166000878760405161093992919061116f565b60006040518083038185875af1925050503d8060008114610976576040519150601f19603f3d011682016040523d82523d6000602084013e61097b565b606091505b50509050806109cc5760405162461bcd60e51b815260206004820152601b60248201527f537761707065723a205a525820747261646520726576657274656400000000006044820152606401610275565b6040516370a0823160e01b815230600482015288906001600160a01b038c16906370a082319060240160206040518083038186803b158015610a0d57600080fd5b505afa158015610a21573d6000803e3d6000fd5b505050506040513d601f19601f82011682018060405250810190610a459190611157565b610a4f90856112a2565b1015610a6d5760405162461bcd60e51b81526004016102759061125f565b6040516370a0823160e01b81523060048201526000906001600160a01b038b16906370a082319060240160206040518083038186803b158015610aaf57600080fd5b505afa158015610ac3573d6000803e3d6000fd5b505050506040513d601f19601f82011682018060405250810190610ae79190611157565b9050610af383826112a2565b945060008511610b155760405162461bcd60e51b81526004016102759061125f565b610b296001600160a01b038b168d87610c75565b50505050979650505050505050565b60018054600080546001600160a01b03199081166001600160a01b0384161782559091169091556040517f7880f0fcc848e1f26e461654b100a69f8d0641e29aa29f6596c6afadbb36b5ea9190a1565b6001600160a01b038116610bfc5760405162461bcd60e51b815260206004820152603560248201527f676f7665726e61626c652f70656e64696e672d676f7665726e6f722d73686f756044820152746c642d6e6f742d62652d7a65726f2d61646472657360581b6064820152608401610275565b600180546001600160a01b0319166001600160a01b0383169081179091556040519081527f56bddfa0cee9697cebddf9acd7f23dc6583663b05e007b877056d05017994def9060200160405180910390a150565b6001600160a01b038116600090815260018301602052604081205415155b9392505050565b6040516001600160a01b03831660248201526044810182905261028990849063a9059cbb60e01b9060640161078f565b6000610cfa826040518060400160405280602081526020017f5361666545524332303a206c6f772d6c6576656c2063616c6c206661696c6564815250856001600160a01b0316610e9b9092919063ffffffff16565b8051909150156102895780806020019051810190610d189190611137565b6102895760405162461bcd60e51b815260206004820152602a60248201527f5361666545524332303a204552433230206f7065726174696f6e20646964206e6044820152691bdd081cdd58d8d9595960b21b6064820152608401610275565b801580610e005750604051636eb1769f60e11b81523060048201526001600160a01b03838116602483015284169063dd62ed3e9060440160206040518083038186803b158015610dc657600080fd5b505afa158015610dda573d6000803e3d6000fd5b505050506040513d601f19601f82011682018060405250810190610dfe9190611157565b155b610e6b5760405162461bcd60e51b815260206004820152603660248201527f5361666545524332303a20617070726f76652066726f6d206e6f6e2d7a65726f60448201527520746f206e6f6e2d7a65726f20616c6c6f77616e636560501b6064820152608401610275565b6040516001600160a01b03831660248201526044810182905261028990849063095ea7b360e01b9060640161078f565b6060610eaa8484600085610eb2565b949350505050565b606082471015610f135760405162461bcd60e51b815260206004820152602660248201527f416464726573733a20696e73756666696369656e742062616c616e636520666f6044820152651c8818d85b1b60d21b6064820152608401610275565b843b610f615760405162461bcd60e51b815260206004820152601d60248201527f416464726573733a2063616c6c20746f206e6f6e2d636f6e74726163740000006044820152606401610275565b600080866001600160a01b03168587604051610f7d919061117f565b60006040518083038185875af1925050503d8060008114610fba576040519150601f19603f3d011682016040523d82523d6000602084013e610fbf565b606091505b5091509150610fcf828286610fda565b979650505050505050565b60608315610fe9575081610c6e565b825115610ff95782518084602001fd5b8160405162461bcd60e51b8152600401610275919061122c565b80356001600160a01b038116811461102a57600080fd5b919050565b600060208284031215611040578081fd5b610c6e82611013565b600080600080600080600060c0888a031215611063578283fd5b61106c88611013565b965061107a60208901611013565b955061108860408901611013565b9450606088013593506080880135925060a088013567ffffffffffffffff808211156110b2578384fd5b818a0191508a601f8301126110c5578384fd5b8135818111156110d3578485fd5b8b60208285010111156110e4578485fd5b60208301945080935050505092959891949750929550565b600080600060608486031215611110578283fd5b61111984611013565b925061112760208501611013565b9150604084013590509250925092565b600060208284031215611148578081fd5b81518015158114610c6e578182fd5b600060208284031215611168578081fd5b5051919050565b8183823760009101908152919050565b600082516111918184602087016112c5565b9190910192915050565b6001600160a01b038981168252888116602083015287166040820152606081018690526080810185905260a0810184905260e060c0820181905281018290526000610100838582850137828401810191909152601f909201601f19160101979650505050505050565b602081016002831061122657634e487b7160e01b600052602160045260246000fd5b91905290565b602081526000825180602084015261124b8160408501602087016112c5565b601f01601f19169190910160400192915050565b60208082526023908201527f537761707065723a20696e636f7272656374207377617020696e666f726d617460408201526234b7b760e91b606082015260800190565b6000828210156112c057634e487b7160e01b81526011600452602481fd5b500390565b60005b838110156112e05781810151838201526020016112c8565b838111156107c6575050600091015256fea26469706673582212209af11a762ca11376682cfb7d463b2668de84244b0a8284f6bb9bdd810125ac7d64736f6c63430008040033",
  "devdoc": {
    "kind": "dev",
    "methods": {},
    "version": 1
  },
  "userdoc": {
    "kind": "user",
    "methods": {},
    "version": 1
  },
  "storageLayout": {
    "storage": [
      {
        "astId": 132,
        "contract": "contracts/swappers/async/ZRXSwapper.sol:ZRXSwapper",
        "label": "governor",
        "offset": 0,
        "slot": "0",
        "type": "t_address"
      },
      {
        "astId": 135,
        "contract": "contracts/swappers/async/ZRXSwapper.sol:ZRXSwapper",
        "label": "pendingGovernor",
        "offset": 0,
        "slot": "1",
        "type": "t_address"
      },
      {
        "astId": 21,
        "contract": "contracts/swappers/async/ZRXSwapper.sol:ZRXSwapper",
        "label": "protocolTokens",
        "offset": 0,
        "slot": "2",
        "type": "t_struct(AddressSet)2632_storage"
      }
    ],
    "types": {
      "t_address": {
        "encoding": "inplace",
        "label": "address",
        "numberOfBytes": "20"
      },
      "t_array(t_bytes32)dyn_storage": {
        "base": "t_bytes32",
        "encoding": "dynamic_array",
        "label": "bytes32[]",
        "numberOfBytes": "32"
      },
      "t_bytes32": {
        "encoding": "inplace",
        "label": "bytes32",
        "numberOfBytes": "32"
      },
      "t_mapping(t_bytes32,t_uint256)": {
        "encoding": "mapping",
        "key": "t_bytes32",
        "label": "mapping(bytes32 => uint256)",
        "numberOfBytes": "32",
        "value": "t_uint256"
      },
      "t_struct(AddressSet)2632_storage": {
        "encoding": "inplace",
        "label": "struct EnumerableSet.AddressSet",
        "members": [
          {
            "astId": 2631,
            "contract": "contracts/swappers/async/ZRXSwapper.sol:ZRXSwapper",
            "label": "_inner",
            "offset": 0,
            "slot": "0",
            "type": "t_struct(Set)2361_storage"
          }
        ],
        "numberOfBytes": "64"
      },
      "t_struct(Set)2361_storage": {
        "encoding": "inplace",
        "label": "struct EnumerableSet.Set",
        "members": [
          {
            "astId": 2356,
            "contract": "contracts/swappers/async/ZRXSwapper.sol:ZRXSwapper",
            "label": "_values",
            "offset": 0,
            "slot": "0",
            "type": "t_array(t_bytes32)dyn_storage"
          },
          {
            "astId": 2360,
            "contract": "contracts/swappers/async/ZRXSwapper.sol:ZRXSwapper",
            "label": "_indexes",
            "offset": 0,
            "slot": "1",
            "type": "t_mapping(t_bytes32,t_uint256)"
          }
        ],
        "numberOfBytes": "64"
      },
      "t_uint256": {
        "encoding": "inplace",
        "label": "uint256",
        "numberOfBytes": "32"
      }
    }
  }
}