{
  "address": "0x57419Fb50Fa588Fc165AcC26449B2Bf4C7731458",
  "abi": [
    {
      "inputs": [
        {
          "internalType": "address",
          "name": "_WETH",
          "type": "address"
        },
        {
          "internalType": "address",
          "name": "_mechanicsRegistry",
          "type": "address"
        },
        {
          "internalType": "address",
          "name": "_v2Keeper",
          "type": "address"
        },
        {
          "internalType": "uint256",
          "name": "_workCooldown",
          "type": "uint256"
        },
        {
          "internalType": "uint256",
          "name": "_callCost",
          "type": "uint256"
        }
      ],
      "stateMutability": "nonpayable",
      "type": "constructor"
    },
    {
      "inputs": [],
      "name": "NotWorkable",
      "type": "error"
    },
    {
      "inputs": [],
      "name": "NotZero",
      "type": "error"
    },
    {
      "inputs": [],
      "name": "StrategyAlreadyAdded",
      "type": "error"
    },
    {
      "inputs": [],
      "name": "StrategyNotAdded",
      "type": "error"
    },
    {
      "anonymous": false,
      "inputs": [
        {
          "indexed": false,
          "internalType": "address",
          "name": "_to",
          "type": "address"
        },
        {
          "indexed": false,
          "internalType": "address",
          "name": "token",
          "type": "address"
        },
        {
          "indexed": false,
          "internalType": "uint256",
          "name": "amount",
          "type": "uint256"
        }
      ],
      "name": "DustSent",
      "type": "event"
    },
    {
      "anonymous": false,
      "inputs": [
        {
          "indexed": false,
          "internalType": "address",
          "name": "_strategy",
          "type": "address"
        }
      ],
      "name": "ForceWorked",
      "type": "event"
    },
    {
      "anonymous": false,
      "inputs": [],
      "name": "GovernorAccepted",
      "type": "event"
    },
    {
      "anonymous": false,
      "inputs": [
        {
          "indexed": false,
          "internalType": "bool",
          "name": "_paused",
          "type": "bool"
        }
      ],
      "name": "Paused",
      "type": "event"
    },
    {
      "anonymous": false,
      "inputs": [
        {
          "indexed": false,
          "internalType": "address",
          "name": "pendingGovernor",
          "type": "address"
        }
      ],
      "name": "PendingGovernorSet",
      "type": "event"
    },
    {
      "anonymous": false,
      "inputs": [
        {
          "indexed": false,
          "internalType": "address[]",
          "name": "_strategies",
          "type": "address[]"
        }
      ],
      "name": "StrategiesAdded",
      "type": "event"
    },
    {
      "anonymous": false,
      "inputs": [
        {
          "indexed": false,
          "internalType": "address[]",
          "name": "_strategies",
          "type": "address[]"
        }
      ],
      "name": "StrategiesRemoved",
      "type": "event"
    },
    {
      "anonymous": false,
      "inputs": [
        {
          "indexed": false,
          "internalType": "address",
          "name": "_strategy",
          "type": "address"
        },
        {
          "indexed": false,
          "internalType": "address",
          "name": "_keeper",
          "type": "address"
        }
      ],
      "name": "Worked",
      "type": "event"
    },
    {
      "inputs": [],
      "name": "ETH_ADDRESS",
      "outputs": [
        {
          "internalType": "address",
          "name": "",
          "type": "address"
        }
      ],
      "stateMutability": "view",
      "type": "function"
    },
    {
      "inputs": [],
      "name": "V2Keeper",
      "outputs": [
        {
          "internalType": "contract IV2Keeper",
          "name": "",
          "type": "address"
        }
      ],
      "stateMutability": "view",
      "type": "function"
    },
    {
      "inputs": [],
      "name": "WETH",
      "outputs": [
        {
          "internalType": "address",
          "name": "",
          "type": "address"
        }
      ],
      "stateMutability": "view",
      "type": "function"
    },
    {
      "inputs": [],
      "name": "acceptGovernor",
      "outputs": [],
      "stateMutability": "nonpayable",
      "type": "function"
    },
    {
      "inputs": [
        {
          "internalType": "address[]",
          "name": "_strategies",
          "type": "address[]"
        }
      ],
      "name": "addStrategies",
      "outputs": [],
      "stateMutability": "nonpayable",
      "type": "function"
    },
    {
      "inputs": [],
      "name": "callCost",
      "outputs": [
        {
          "internalType": "uint256",
          "name": "",
          "type": "uint256"
        }
      ],
      "stateMutability": "view",
      "type": "function"
    },
    {
      "inputs": [
        {
          "internalType": "address",
          "name": "_strategy",
          "type": "address"
        }
      ],
      "name": "forceWork",
      "outputs": [],
      "stateMutability": "nonpayable",
      "type": "function"
    },
    {
      "inputs": [],
      "name": "governor",
      "outputs": [
        {
          "internalType": "address",
          "name": "",
          "type": "address"
        }
      ],
      "stateMutability": "view",
      "type": "function"
    },
    {
      "inputs": [
        {
          "internalType": "address",
          "name": "_account",
          "type": "address"
        }
      ],
      "name": "isGovernor",
      "outputs": [
        {
          "internalType": "bool",
          "name": "_isGovernor",
          "type": "bool"
        }
      ],
      "stateMutability": "view",
      "type": "function"
    },
    {
      "inputs": [
        {
          "internalType": "address",
          "name": "_mechanic",
          "type": "address"
        }
      ],
      "name": "isMechanic",
      "outputs": [
        {
          "internalType": "bool",
          "name": "_isMechanic",
          "type": "bool"
        }
      ],
      "stateMutability": "view",
      "type": "function"
    },
    {
      "inputs": [
        {
          "internalType": "address",
          "name": "",
          "type": "address"
        }
      ],
      "name": "lastWorkAt",
      "outputs": [
        {
          "internalType": "uint256",
          "name": "",
          "type": "uint256"
        }
      ],
      "stateMutability": "view",
      "type": "function"
    },
    {
      "inputs": [],
      "name": "mechanicsRegistry",
      "outputs": [
        {
          "internalType": "address",
          "name": "_mechanicRegistry",
          "type": "address"
        }
      ],
      "stateMutability": "view",
      "type": "function"
    },
    {
      "inputs": [
        {
          "internalType": "bool",
          "name": "_paused",
          "type": "bool"
        }
      ],
      "name": "pause",
      "outputs": [],
      "stateMutability": "nonpayable",
      "type": "function"
    },
    {
      "inputs": [],
      "name": "paused",
      "outputs": [
        {
          "internalType": "bool",
          "name": "",
          "type": "bool"
        }
      ],
      "stateMutability": "view",
      "type": "function"
    },
    {
      "inputs": [],
      "name": "pendingGovernor",
      "outputs": [
        {
          "internalType": "address",
          "name": "",
          "type": "address"
        }
      ],
      "stateMutability": "view",
      "type": "function"
    },
    {
      "inputs": [
        {
          "internalType": "address[]",
          "name": "_strategies",
          "type": "address[]"
        }
      ],
      "name": "removeStrategies",
      "outputs": [],
      "stateMutability": "nonpayable",
      "type": "function"
    },
    {
      "inputs": [
        {
          "internalType": "address",
          "name": "_to",
          "type": "address"
        },
        {
          "internalType": "address",
          "name": "_token",
          "type": "address"
        },
        {
          "internalType": "uint256",
          "name": "_amount",
          "type": "uint256"
        }
      ],
      "name": "sendDust",
      "outputs": [],
      "stateMutability": "nonpayable",
      "type": "function"
    },
    {
      "inputs": [
        {
          "internalType": "uint256",
          "name": "_callCost",
          "type": "uint256"
        }
      ],
      "name": "setCallCost",
      "outputs": [],
      "stateMutability": "nonpayable",
      "type": "function"
    },
    {
      "inputs": [
        {
          "internalType": "address",
          "name": "_mechanicsRegistry",
          "type": "address"
        }
      ],
      "name": "setMechanicsRegistry",
      "outputs": [],
      "stateMutability": "nonpayable",
      "type": "function"
    },
    {
      "inputs": [
        {
          "internalType": "address",
          "name": "_pendingGovernor",
          "type": "address"
        }
      ],
      "name": "setPendingGovernor",
      "outputs": [],
      "stateMutability": "nonpayable",
      "type": "function"
    },
    {
      "inputs": [
        {
          "internalType": "address",
          "name": "_v2Keeper",
          "type": "address"
        }
      ],
      "name": "setV2Keep3r",
      "outputs": [],
      "stateMutability": "nonpayable",
      "type": "function"
    },
    {
      "inputs": [
        {
          "internalType": "uint256",
          "name": "_workCooldown",
          "type": "uint256"
        }
      ],
      "name": "setWorkCooldown",
      "outputs": [],
      "stateMutability": "nonpayable",
      "type": "function"
    },
    {
      "inputs": [],
      "name": "strategies",
      "outputs": [
        {
          "internalType": "address[]",
          "name": "_strategies",
          "type": "address[]"
        }
      ],
      "stateMutability": "view",
      "type": "function"
    },
    {
      "inputs": [
        {
          "internalType": "address",
          "name": "_strategy",
          "type": "address"
        }
      ],
      "name": "work",
      "outputs": [],
      "stateMutability": "nonpayable",
      "type": "function"
    },
    {
      "inputs": [],
      "name": "workCooldown",
      "outputs": [
        {
          "internalType": "uint256",
          "name": "",
          "type": "uint256"
        }
      ],
      "stateMutability": "view",
      "type": "function"
    },
    {
      "inputs": [
        {
          "internalType": "address",
          "name": "_strategy",
          "type": "address"
        }
      ],
      "name": "workable",
      "outputs": [
        {
          "internalType": "bool",
          "name": "",
          "type": "bool"
        }
      ],
      "stateMutability": "view",
      "type": "function"
    }
  ],
  "transactionHash": "0xff321541605f30009b1229c660a5ab8bbfc3fd0f9142be4640610c45eeac6f64",
  "args": [
    "0xC02aaA39b223FE8D0A0e5C4F27eAD9083C756Cc2",
    "0x7f462B92F92114A2D57A03e5Ae2DB5DA28b77d73",
    "0xe72d641f09a48cce6997377d13b2Ac7029c642b2",
    1800,
    "500000000000000000"
  ],
  "solcInputHash": "e04cadd035eed72eb28af69d4ecbc8fe",
  "bytecode": "0x60a06040523480156200001157600080fd5b50604051620018733803806200187383398101604081905262000034916200013f565b848484848483803380620000a55760405162461bcd60e51b815260206004820152602e60248201527f676f7665726e61626c652f676f7665726e6f722d73686f756c642d6e6f742d6260448201526d652d7a65726f2d6164647265737360901b606482015260840160405180910390fd5b600080546001600160a01b0319166001600160a01b039283161790556004805491831661010002610100600160a81b031990921691909117905550508115620000ee5760098290555b600580546001600160a01b0319166001600160a01b03948516179055939091166080525050600a55506200019c9350505050565b80516001600160a01b03811681146200013a57600080fd5b919050565b600080600080600060a086880312156200015857600080fd5b620001638662000122565b9450620001736020870162000122565b9350620001836040870162000122565b6060870151608090970151959894975095949392505050565b6080516116bb620001b860003960006102fa01526116bb6000f3fe608060405234801561001057600080fd5b506004361061018e5760003560e01c80639f471303116100de578063e06a7cb911610097578063e43581b811610071578063e43581b814610386578063e58bb639146103a8578063ef47da6d146103b0578063f235757f146103c357600080fd5b8063e06a7cb914610357578063e1c5b39514610360578063e3056a341461037357600080fd5b80639f471303146102c7578063a734f06e146102da578063ad5c4648146102f5578063c0c0b6021461031c578063d9f9027f1461032f578063dd7ba4201461034457600080fd5b806334d6020d1161014b57806365834acc1161012557806365834acc1461027b57806370814eeb1461028e57806374c2ca83146102a157806382376a99146102b457600080fd5b806334d6020d1461023857806336df7ea51461024b5780635c975abb1461025e57600080fd5b806302329a291461019357806304146a39146101a85780630c340a24146101c457806310262803146101ef5780631078f3881461020f5780632db8c12914610225575b600080fd5b6101a66101a136600461131b565b6103d6565b005b6101b1600a5481565b6040519081526020015b60405180910390f35b6000546101d7906001600160a01b031681565b6040516001600160a01b0390911681526020016101bb565b6101b16101fd366004611354565b60086020526000908152604090205481565b60045461010090046001600160a01b03166101d7565b6101a661023336600461136f565b610415565b6005546101d7906001600160a01b031681565b6101a6610259366004611354565b61044f565b60045461026b9060ff1681565b60405190151581526020016101bb565b61026b610289366004611354565b6104cd565b6101a661029c3660046113ab565b61055d565b6101a66102af366004611420565b610640565b6101a66102c2366004611354565b61069b565b61026b6102d5366004611354565b6106e7565b6101d773eeeeeeeeeeeeeeeeeeeeeeeeeeeeeeeeeeeeeeee81565b6101d77f000000000000000000000000000000000000000000000000000000000000000081565b6101a661032a3660046113ab565b6106f2565b6103376107c9565b6040516101bb9190611439565b6101a6610352366004611354565b6107da565b6101b160095481565b6101a661036e366004611420565b61085c565b6001546101d7906001600160a01b031681565b61026b610394366004611354565b6000546001600160a01b0391821691161490565b6101a66108b7565b6101a66103be366004611354565b61091b565b6101a66103d1366004611354565b610968565b6000546001600160a01b031633146104095760405162461bcd60e51b815260040161040090611486565b60405180910390fd5b6104128161099b565b50565b6000546001600160a01b0316331461043f5760405162461bcd60e51b815260040161040090611486565b61044a838383610a21565b505050565b60045460ff161561048b5760405162461bcd60e51b81526020600482015260066024820152651c185d5cd95960d21b6044820152606401610400565b6000546001600160a01b03163314806104a857506104a8336104cd565b6104c45760405162461bcd60e51b8152600401610400906114bd565b61041281610bc3565b60048054604051631960d2b360e21b81526001600160a01b0384811693820193909352600092610100909204909116906365834acc906024015b60206040518083038186803b15801561051f57600080fd5b505afa158015610533573d6000803e3d6000fd5b505050506040513d601f19601f820116820180604052508101906105579190611511565b92915050565b6000546001600160a01b031633148061057a575061057a336104cd565b6105965760405162461bcd60e51b8152600401610400906114bd565b60005b81811015610602576105d38383838181106105b6576105b661152e565b90506020020160208101906105cb9190611354565b600690610c30565b6105f057604051638716f5eb60e01b815260040160405180910390fd5b806105fa8161155a565b915050610599565b507fa52141b1b38605c552bd988329fd94c9f42979f3b8ca555f875962960a6d55a68282604051610634929190611575565b60405180910390a15050565b6000546001600160a01b031633148061065d575061065d336104cd565b6106795760405162461bcd60e51b8152600401610400906114bd565b80610696576040516252b55360e31b815260040160405180910390fd5b600955565b6000546001600160a01b031633146106c55760405162461bcd60e51b815260040161040090611486565b600580546001600160a01b0319166001600160a01b0392909216919091179055565b600061055782610c4c565b6000546001600160a01b031633148061070f575061070f336104cd565b61072b5760405162461bcd60e51b8152600401610400906114bd565b60005b818110156107975761076883838381811061074b5761074b61152e565b90506020020160208101906107609190611354565b600690610c94565b6107855760405163165e236760e01b815260040160405180910390fd5b8061078f8161155a565b91505061072e565b507fa7e35176a12cd26c4faa0cd1d742d768c473cd6a40fb4a7d377fb8fc9b836ec98282604051610634929190611575565b60606107d56006610ca9565b905090565b6000546001600160a01b03163314806107f757506107f7336104cd565b6108135760405162461bcd60e51b8152600401610400906114bd565b61081c81610cb6565b6040516001600160a01b03821681527fee8d688761ac1d0fda49e2ac999f0e46b3beaf16857a8e8905aeab2987dc8d38906020015b60405180910390a150565b6000546001600160a01b03163314806108795750610879336104cd565b6108955760405162461bcd60e51b8152600401610400906114bd565b806108b2576040516252b55360e31b815260040160405180910390fd5b600a55565b6001546001600160a01b031633146109115760405162461bcd60e51b815260206004820181905260248201527f676f7665726e61626c652f6f6e6c792d70656e64696e672d676f7665726e6f726044820152606401610400565b610919610d2d565b565b6000546001600160a01b031633146109455760405162461bcd60e51b815260040161040090611486565b60048054610100600160a81b0319166101006001600160a01b0384160217905550565b6000546001600160a01b031633146109925760405162461bcd60e51b815260040161040090611486565b61041281610d7d565b60045460ff16151581151514156109e05760405162461bcd60e51b81526020600482015260096024820152686e6f2d6368616e676560b81b6044820152606401610400565b6004805460ff19168215159081179091556040519081527f0e2fb031ee032dc02d8011dc50b816eb450cf856abd8261680dac74f72165bd290602001610851565b6001600160a01b038316610a8f5760405162461bcd60e51b815260206004820152602f60248201527f636f6c6c65637461626c652d647573742f63616e742d73656e642d647573742d60448201526e746f2d7a65726f2d6164647265737360881b6064820152608401610400565b610a9a600283610e3f565b15610afe5760405162461bcd60e51b815260206004820152602e60248201527f636f6c6c65637461626c652d647573742f746f6b656e2d69732d706172742d6f60448201526d198b5d1a194b5c1c9bdd1bd8dbdb60921b6064820152608401610400565b6001600160a01b03821673eeeeeeeeeeeeeeeeeeeeeeeeeeeeeeeeeeeeeeee1415610b5f576040516001600160a01b0384169082156108fc029083906000818181858888f19350505050158015610b59573d6000803e3d6000fd5b50610b73565b610b736001600160a01b0383168483610e61565b604080516001600160a01b038086168252841660208201529081018290527f1e34c1aee8e83c2dcc14c21bb4bfeea7f46c0c998cb797ac7cc4d7a18f5c656b9060600160405180910390a1505050565b610bcc81610c4c565b610be957604051630efd608960e21b815260040160405180910390fd5b610bf281610cb6565b604080516001600160a01b03831681523360208201527f6696222bb476e2b08ac3bf59d60b85b81ae8327ff2cf3efe73a02b7bf71c618c9101610851565b6000610c45836001600160a01b038416610eb3565b9392505050565b6000610c5782610fa6565b610c6357506000919050565b600a5460405163ed882c2b60e01b815260048101919091526001600160a01b0383169063ed882c2b90602401610507565b6000610c45836001600160a01b038416611018565b60606000610c4583611067565b6001600160a01b0381811660008181526008602052604090819020429055600554905163072e008f60e11b8152600481019290925290911690630e5c011e90602401600060405180830381600087803b158015610d1257600080fd5b505af1158015610d26573d6000803e3d6000fd5b5050505050565b60018054600080546001600160a01b03199081166001600160a01b0384161782559091169091556040517f7880f0fcc848e1f26e461654b100a69f8d0641e29aa29f6596c6afadbb36b5ea9190a1565b6001600160a01b038116610df15760405162461bcd60e51b815260206004820152603560248201527f676f7665726e61626c652f70656e64696e672d676f7665726e6f722d73686f756044820152746c642d6e6f742d62652d7a65726f2d61646472657360581b6064820152608401610400565b600180546001600160a01b0319166001600160a01b0383169081179091556040519081527f56bddfa0cee9697cebddf9acd7f23dc6583663b05e007b877056d05017994def90602001610851565b6001600160a01b03811660009081526001830160205260408120541515610c45565b604080516001600160a01b038416602482015260448082018490528251808303909101815260649091019091526020810180516001600160e01b031663a9059cbb60e01b17905261044a9084906110c3565b60008181526001830160205260408120548015610f9c576000610ed76001836115c1565b8554909150600090610eeb906001906115c1565b9050818114610f50576000866000018281548110610f0b57610f0b61152e565b9060005260206000200154905080876000018481548110610f2e57610f2e61152e565b6000918252602080832090910192909255918252600188019052604090208390555b8554869080610f6157610f616115d8565b600190038181906000526020600020016000905590558560010160008681526020019081526020016000206000905560019350505050610557565b6000915050610557565b6000610fb3600683610e3f565b610fd057604051638716f5eb60e01b815260040160405180910390fd5b600954158061100357506009546001600160a01b03831660009081526008602052604090205461100091906115ee565b42115b1561101057506001919050565b506000919050565b600081815260018301602052604081205461105f57508154600181810184556000848152602080822090930184905584548482528286019093526040902091909155610557565b506000610557565b6060816000018054806020026020016040519081016040528092919081815260200182805480156110b757602002820191906000526020600020905b8154815260200190600101908083116110a3575b50505050509050919050565b6000611118826040518060400160405280602081526020017f5361666545524332303a206c6f772d6c6576656c2063616c6c206661696c6564815250856001600160a01b03166111959092919063ffffffff16565b80519091501561044a57808060200190518101906111369190611511565b61044a5760405162461bcd60e51b815260206004820152602a60248201527f5361666545524332303a204552433230206f7065726174696f6e20646964206e6044820152691bdd081cdd58d8d9595960b21b6064820152608401610400565b60606111a484846000856111ac565b949350505050565b60608247101561120d5760405162461bcd60e51b815260206004820152602660248201527f416464726573733a20696e73756666696369656e742062616c616e636520666f6044820152651c8818d85b1b60d21b6064820152608401610400565b843b61125b5760405162461bcd60e51b815260206004820152601d60248201527f416464726573733a2063616c6c20746f206e6f6e2d636f6e74726163740000006044820152606401610400565b600080866001600160a01b031685876040516112779190611636565b60006040518083038185875af1925050503d80600081146112b4576040519150601f19603f3d011682016040523d82523d6000602084013e6112b9565b606091505b50915091506112c98282866112d4565b979650505050505050565b606083156112e3575081610c45565b8251156112f35782518084602001fd5b8160405162461bcd60e51b81526004016104009190611652565b801515811461041257600080fd5b60006020828403121561132d57600080fd5b8135610c458161130d565b80356001600160a01b038116811461134f57600080fd5b919050565b60006020828403121561136657600080fd5b610c4582611338565b60008060006060848603121561138457600080fd5b61138d84611338565b925061139b60208501611338565b9150604084013590509250925092565b600080602083850312156113be57600080fd5b823567ffffffffffffffff808211156113d657600080fd5b818501915085601f8301126113ea57600080fd5b8135818111156113f957600080fd5b8660208260051b850101111561140e57600080fd5b60209290920196919550909350505050565b60006020828403121561143257600080fd5b5035919050565b6020808252825182820181905260009190848201906040850190845b8181101561147a5783516001600160a01b031683529284019291840191600101611455565b50909695505050505050565b60208082526018908201527f676f7665726e61626c652f6f6e6c792d676f7665726e6f720000000000000000604082015260600190565b60208082526034908201527f4d616368696e6572793a3a6f6e6c79476f7665726e6f724f724d656368616e69604082015273319d34b73b30b634b216b6b9b396b9b2b73232b960611b606082015260800190565b60006020828403121561152357600080fd5b8151610c458161130d565b634e487b7160e01b600052603260045260246000fd5b634e487b7160e01b600052601160045260246000fd5b600060001982141561156e5761156e611544565b5060010190565b60208082528181018390526000908460408401835b868110156115b6576001600160a01b036115a384611338565b168252918301919083019060010161158a565b509695505050505050565b6000828210156115d3576115d3611544565b500390565b634e487b7160e01b600052603160045260246000fd5b6000821982111561160157611601611544565b500190565b60005b83811015611621578181015183820152602001611609565b83811115611630576000848401525b50505050565b60008251611648818460208701611606565b9190910192915050565b6020815260008251806020840152611671816040850160208701611606565b601f01601f1916919091016040019291505056fea26469706673582212207e48bd6f5615f511091fa7d7d95fddaf6aea30f92acc43e2529a95fc432e643564736f6c63430008090033",
  "devdoc": {
    "kind": "dev",
    "methods": {},
    "version": 1
  },
  "userdoc": {
    "kind": "user",
    "methods": {},
    "version": 1
  },
  "storageLayout": {
    "storage": [
      {
        "astId": 2874,
        "contract": "contracts/jobs/detached-gasless/HarvestV2DetachedGaslessJob.sol:HarvestV2DetachedGaslessJob",
        "label": "governor",
        "offset": 0,
        "slot": "0",
        "type": "t_address"
      },
      {
        "astId": 2877,
        "contract": "contracts/jobs/detached-gasless/HarvestV2DetachedGaslessJob.sol:HarvestV2DetachedGaslessJob",
        "label": "pendingGovernor",
        "offset": 0,
        "slot": "1",
        "type": "t_address"
      },
      {
        "astId": 2763,
        "contract": "contracts/jobs/detached-gasless/HarvestV2DetachedGaslessJob.sol:HarvestV2DetachedGaslessJob",
        "label": "protocolTokens",
        "offset": 0,
        "slot": "2",
        "type": "t_struct(AddressSet)1503_storage"
      },
      {
        "astId": 3205,
        "contract": "contracts/jobs/detached-gasless/HarvestV2DetachedGaslessJob.sol:HarvestV2DetachedGaslessJob",
        "label": "paused",
        "offset": 0,
        "slot": "4",
        "type": "t_bool"
      },
      {
        "astId": 3014,
        "contract": "contracts/jobs/detached-gasless/HarvestV2DetachedGaslessJob.sol:HarvestV2DetachedGaslessJob",
        "label": "_mechanicsRegistry",
        "offset": 1,
        "slot": "4",
        "type": "t_contract(IMechanicsRegistry)2326"
      },
      {
        "astId": 5113,
        "contract": "contracts/jobs/detached-gasless/HarvestV2DetachedGaslessJob.sol:HarvestV2DetachedGaslessJob",
        "label": "V2Keeper",
        "offset": 0,
        "slot": "5",
        "type": "t_contract(IV2Keeper)3966"
      },
      {
        "astId": 5116,
        "contract": "contracts/jobs/detached-gasless/HarvestV2DetachedGaslessJob.sol:HarvestV2DetachedGaslessJob",
        "label": "_availableStrategies",
        "offset": 0,
        "slot": "6",
        "type": "t_struct(AddressSet)1503_storage"
      },
      {
        "astId": 5121,
        "contract": "contracts/jobs/detached-gasless/HarvestV2DetachedGaslessJob.sol:HarvestV2DetachedGaslessJob",
        "label": "lastWorkAt",
        "offset": 0,
        "slot": "8",
        "type": "t_mapping(t_address,t_uint256)"
      },
      {
        "astId": 5124,
        "contract": "contracts/jobs/detached-gasless/HarvestV2DetachedGaslessJob.sol:HarvestV2DetachedGaslessJob",
        "label": "workCooldown",
        "offset": 0,
        "slot": "9",
        "type": "t_uint256"
      },
      {
        "astId": 5127,
        "contract": "contracts/jobs/detached-gasless/HarvestV2DetachedGaslessJob.sol:HarvestV2DetachedGaslessJob",
        "label": "callCost",
        "offset": 0,
        "slot": "10",
        "type": "t_uint256"
      }
    ],
    "types": {
      "t_address": {
        "encoding": "inplace",
        "label": "address",
        "numberOfBytes": "20"
      },
      "t_array(t_bytes32)dyn_storage": {
        "base": "t_bytes32",
        "encoding": "dynamic_array",
        "label": "bytes32[]",
        "numberOfBytes": "32"
      },
      "t_bool": {
        "encoding": "inplace",
        "label": "bool",
        "numberOfBytes": "1"
      },
      "t_bytes32": {
        "encoding": "inplace",
        "label": "bytes32",
        "numberOfBytes": "32"
      },
      "t_contract(IMechanicsRegistry)2326": {
        "encoding": "inplace",
        "label": "contract IMechanicsRegistry",
        "numberOfBytes": "20"
      },
      "t_contract(IV2Keeper)3966": {
        "encoding": "inplace",
        "label": "contract IV2Keeper",
        "numberOfBytes": "20"
      },
      "t_mapping(t_address,t_uint256)": {
        "encoding": "mapping",
        "key": "t_address",
        "label": "mapping(address => uint256)",
        "numberOfBytes": "32",
        "value": "t_uint256"
      },
      "t_mapping(t_bytes32,t_uint256)": {
        "encoding": "mapping",
        "key": "t_bytes32",
        "label": "mapping(bytes32 => uint256)",
        "numberOfBytes": "32",
        "value": "t_uint256"
      },
      "t_struct(AddressSet)1503_storage": {
        "encoding": "inplace",
        "label": "struct EnumerableSet.AddressSet",
        "members": [
          {
            "astId": 1502,
            "contract": "contracts/jobs/detached-gasless/HarvestV2DetachedGaslessJob.sol:HarvestV2DetachedGaslessJob",
            "label": "_inner",
            "offset": 0,
            "slot": "0",
            "type": "t_struct(Set)1202_storage"
          }
        ],
        "numberOfBytes": "64"
      },
      "t_struct(Set)1202_storage": {
        "encoding": "inplace",
        "label": "struct EnumerableSet.Set",
        "members": [
          {
            "astId": 1197,
            "contract": "contracts/jobs/detached-gasless/HarvestV2DetachedGaslessJob.sol:HarvestV2DetachedGaslessJob",
            "label": "_values",
            "offset": 0,
            "slot": "0",
            "type": "t_array(t_bytes32)dyn_storage"
          },
          {
            "astId": 1201,
            "contract": "contracts/jobs/detached-gasless/HarvestV2DetachedGaslessJob.sol:HarvestV2DetachedGaslessJob",
            "label": "_indexes",
            "offset": 0,
            "slot": "1",
            "type": "t_mapping(t_bytes32,t_uint256)"
          }
        ],
        "numberOfBytes": "64"
      },
      "t_uint256": {
        "encoding": "inplace",
        "label": "uint256",
        "numberOfBytes": "32"
      }
    }
  }
}